{
  "contractName": "BaseAdmin",
  "abi": [
    {
      "constant": true,
      "inputs": [],
      "name": "operator",
      "outputs": [
        {
          "name": "",
          "type": "address"
        }
      ],
      "payable": false,
      "stateMutability": "view",
      "type": "function"
    },
    {
      "constant": true,
      "inputs": [],
      "name": "isPaused",
      "outputs": [
        {
          "name": "",
          "type": "bool"
        }
      ],
      "payable": false,
      "stateMutability": "view",
      "type": "function"
    },
    {
      "constant": true,
      "inputs": [],
      "name": "addrAdmin",
      "outputs": [
        {
          "name": "",
          "type": "address"
        }
      ],
      "payable": false,
      "stateMutability": "view",
      "type": "function"
    },
    {
      "inputs": [],
      "payable": false,
      "stateMutability": "nonpayable",
      "type": "constructor"
    },
    {
      "constant": false,
      "inputs": [
        {
          "name": "_newAdmin",
          "type": "address"
        }
      ],
      "name": "setAdmin",
      "outputs": [],
      "payable": false,
      "stateMutability": "nonpayable",
      "type": "function"
    },
    {
      "constant": false,
      "inputs": [
        {
          "name": "_addr",
          "type": "address"
        }
      ],
      "name": "setOperator",
      "outputs": [],
      "payable": false,
      "stateMutability": "nonpayable",
      "type": "function"
    },
    {
      "constant": false,
      "inputs": [
        {
          "name": "_pause",
          "type": "bool"
        }
      ],
      "name": "setPause",
      "outputs": [],
      "payable": false,
      "stateMutability": "nonpayable",
      "type": "function"
    }
  ],
  "bytecode": "0x608060405234801561001057600080fd5b5060008060006101000a81548160ff02191690831515021790555033600060016101000a81548173ffffffffffffffffffffffffffffffffffffffff021916908373ffffffffffffffffffffffffffffffffffffffff1602179055506106d68061007b6000396000f300608060405260043610610078576000357c0100000000000000000000000000000000000000000000000000000000900463ffffffff168063570ca7351461007d578063704b6c02146100d4578063b187bd2614610117578063b3ab15fb14610146578063bedb86fb14610189578063bfae2f0e146101b8575b600080fd5b34801561008957600080fd5b5061009261020f565b604051808273ffffffffffffffffffffffffffffffffffffffff1673ffffffffffffffffffffffffffffffffffffffff16815260200191505060405180910390f35b3480156100e057600080fd5b50610115600480360381019080803573ffffffffffffffffffffffffffffffffffffffff169060200190929190505050610235565b005b34801561012357600080fd5b5061012c6103e3565b604051808215151515815260200191505060405180910390f35b34801561015257600080fd5b50610187600480360381019080803573ffffffffffffffffffffffffffffffffffffffff1690602001909291905050506103f5565b005b34801561019557600080fd5b506101b66004803603810190808035151590602001909291905050506105a3565b005b3480156101c457600080fd5b506101cd610684565b604051808273ffffffffffffffffffffffffffffffffffffffff1673ffffffffffffffffffffffffffffffffffffffff16815260200191505060405180910390f35b600160009054906101000a900473ffffffffffffffffffffffffffffffffffffffff1681565b600060019054906101000a900473ffffffffffffffffffffffffffffffffffffffff1673ffffffffffffffffffffffffffffffffffffffff163373ffffffffffffffffffffffffffffffffffffffff161415156102fa576040517f08c379a00000000000000000000000000000000000000000000000000000000081526004018080602001828103825260098152602001807f6e6f742061646d696e000000000000000000000000000000000000000000000081525060200191505060405180910390fd5b600073ffffffffffffffffffffffffffffffffffffffff168173ffffffffffffffffffffffffffffffffffffffff161415151561039f576040517f08c379a000000000000000000000000000000000000000000000000000000000815260040180806020018281038252601c8152602001807f5f6e657741646d696e2063616e2774206265206164647265737320300000000081525060200191505060405180910390fd5b80600060016101000a81548173ffffffffffffffffffffffffffffffffffffffff021916908373ffffffffffffffffffffffffffffffffffffffff16021790555050565b6000809054906101000a900460ff1681565b600060019054906101000a900473ffffffffffffffffffffffffffffffffffffffff1673ffffffffffffffffffffffffffffffffffffffff163373ffffffffffffffffffffffffffffffffffffffff161415156104ba576040517f08c379a00000000000000000000000000000000000000000000000000000000081526004018080602001828103825260098152602001807f6e6f742061646d696e000000000000000000000000000000000000000000000081525060200191505060405180910390fd5b600073ffffffffffffffffffffffffffffffffffffffff168173ffffffffffffffffffffffffffffffffffffffff161415151561055f576040517f08c379a00000000000000000000000000000000000000000000000000000000081526004018080602001828103825260188152602001807f5f616464722063616e277420626520616464726573732030000000000000000081525060200191505060405180910390fd5b80600160006101000a81548173ffffffffffffffffffffffffffffffffffffffff021916908373ffffffffffffffffffffffffffffffffffffffff16021790555050565b600060019054906101000a900473ffffffffffffffffffffffffffffffffffffffff1673ffffffffffffffffffffffffffffffffffffffff163373ffffffffffffffffffffffffffffffffffffffff16141515610668576040517f08c379a00000000000000000000000000000000000000000000000000000000081526004018080602001828103825260098152602001807f6e6f742061646d696e000000000000000000000000000000000000000000000081525060200191505060405180910390fd5b806000806101000a81548160ff02191690831515021790555050565b600060019054906101000a900473ffffffffffffffffffffffffffffffffffffffff16815600a165627a7a723058202bcd95256bb1453f2016a05386f35d9bbb71ed751903cd50479ba44032b30fc00029",
  "source": "pragma solidity ^0.4.23;\n\nimport \"./AddressUtil.sol\";\n\ncontract BaseAdmin {\n    bool public isPaused;\n\n    address public addrAdmin;\n    address public operator;\n\n    constructor() public {\n        isPaused = false;\n        addrAdmin = msg.sender;\n    }\n\n    modifier onlyAdmin() {\n        require(msg.sender == addrAdmin, \"not admin\");\n        _;\n    }\n\n    modifier onlyOperator() {\n        require(msg.sender == operator, \"not op\");\n        _;\n    }\n\n    modifier onlyHuman() {\n        require(msg.sender == tx.origin, \"not human\");\n        _;\n    }\n\n    modifier unPaused() {\n        require(!isPaused, \"paused\");\n        _;\n    }\n\n    function setAdmin(address _newAdmin) external onlyAdmin {\n        require(_newAdmin != address(0), \"_newAdmin can't be address 0\");\n        addrAdmin = _newAdmin;\n    }\n\n    function setOperator(address _addr) external onlyAdmin {\n        require(_addr != address(0), \"_addr can't be address 0\");\n        operator = _addr;\n    }\n\n    function setPause(bool _pause) external onlyAdmin {\n        isPaused = _pause;\n    }\n}\n\n\ncontract FinanceAdmin is BaseAdmin{\n    address public finance;\n    using AddressUtil for address;\n\n    constructor() public {\n        finance = msg.sender;\n    }\n\n    modifier onlyFinance() {\n        require(msg.sender == finance, \"not finance\");\n        _;\n    }\n\n    function setFinance(address _addr) external onlyFinance {\n        require(_addr != address(0), \"_addr is 0\");\n        finance = _addr;\n    }\n\n    function updateVersion(IBEP20[]  bep20s) external onlyAdmin {\n        require(finance != address(0), \"finance is 0\");\n\n        (uint256 bnbBalance, uint256[] memory bepBalances) = address(this).getAllBalance(bep20s);\n        finance.transferAll(bnbBalance, bepBalances);\n    }\n}",
  "sourcePath": "/Users/gordon/bian/dapp/dice/contracts/BaseAdmin.sol",
  "compiler": {
    "name": "solc",
    "version": "0.4.25+commit.59dbf8f1.Emscripten.clang"
  },
  "schemaVersion": "3.2.0",
  "updatedAt": "2020-09-20T12:27:18.688Z",
  "devdoc": {
    "methods": {}
  },
  "userdoc": {
    "methods": {}
  }
}