{
  "contractName": "MoonDice",
  "abi": [
    {
      "constant": true,
      "inputs": [
        {
          "name": "",
          "type": "address"
        },
        {
          "name": "",
          "type": "uint256"
        }
      ],
      "name": "maxOrderAmountArrMap",
      "outputs": [
        {
          "name": "",
          "type": "uint256"
        }
      ],
      "payable": false,
      "stateMutability": "view",
      "type": "function"
    },
    {
      "constant": true,
      "inputs": [
        {
          "name": "",
          "type": "uint256"
        }
      ],
      "name": "winBonusArray",
      "outputs": [
        {
          "name": "",
          "type": "uint256"
        }
      ],
      "payable": false,
      "stateMutability": "view",
      "type": "function"
    },
    {
      "constant": true,
      "inputs": [],
      "name": "moonPool",
      "outputs": [
        {
          "name": "",
          "type": "address"
        }
      ],
      "payable": false,
      "stateMutability": "view",
      "type": "function"
    },
    {
      "constant": true,
      "inputs": [
        {
          "name": "",
          "type": "address"
        }
      ],
      "name": "minOrderAmount",
      "outputs": [
        {
          "name": "",
          "type": "uint160"
        }
      ],
      "payable": false,
      "stateMutability": "view",
      "type": "function"
    },
    {
      "constant": true,
      "inputs": [],
      "name": "referralship",
      "outputs": [
        {
          "name": "",
          "type": "address"
        }
      ],
      "payable": false,
      "stateMutability": "view",
      "type": "function"
    },
    {
      "constant": true,
      "inputs": [],
      "name": "oraclize",
      "outputs": [
        {
          "name": "",
          "type": "address"
        }
      ],
      "payable": false,
      "stateMutability": "view",
      "type": "function"
    },
    {
      "constant": true,
      "inputs": [
        {
          "name": "",
          "type": "address"
        }
      ],
      "name": "supportTokenMap",
      "outputs": [
        {
          "name": "",
          "type": "bool"
        }
      ],
      "payable": false,
      "stateMutability": "view",
      "type": "function"
    },
    {
      "constant": true,
      "inputs": [],
      "name": "operator",
      "outputs": [
        {
          "name": "",
          "type": "address"
        }
      ],
      "payable": false,
      "stateMutability": "view",
      "type": "function"
    },
    {
      "constant": true,
      "inputs": [
        {
          "name": "",
          "type": "address"
        }
      ],
      "name": "addrOperatorMap",
      "outputs": [
        {
          "name": "",
          "type": "bool"
        }
      ],
      "payable": false,
      "stateMutability": "view",
      "type": "function"
    },
    {
      "constant": false,
      "inputs": [
        {
          "name": "_newAdmin",
          "type": "address"
        }
      ],
      "name": "setAdmin",
      "outputs": [],
      "payable": false,
      "stateMutability": "nonpayable",
      "type": "function"
    },
    {
      "constant": true,
      "inputs": [],
      "name": "referralshipEnable",
      "outputs": [
        {
          "name": "",
          "type": "bool"
        }
      ],
      "payable": false,
      "stateMutability": "view",
      "type": "function"
    },
    {
      "constant": true,
      "inputs": [
        {
          "name": "",
          "type": "address"
        }
      ],
      "name": "betOrderMap",
      "outputs": [
        {
          "name": "orderId",
          "type": "uint32"
        },
        {
          "name": "tokenAddr",
          "type": "address"
        },
        {
          "name": "direction",
          "type": "uint16"
        },
        {
          "name": "number",
          "type": "uint16"
        },
        {
          "name": "roll",
          "type": "uint16"
        },
        {
          "name": "tokenAmount",
          "type": "uint256"
        }
      ],
      "payable": false,
      "stateMutability": "view",
      "type": "function"
    },
    {
      "constant": true,
      "inputs": [],
      "name": "isPaused",
      "outputs": [
        {
          "name": "",
          "type": "bool"
        }
      ],
      "payable": false,
      "stateMutability": "view",
      "type": "function"
    },
    {
      "constant": false,
      "inputs": [
        {
          "name": "_pause",
          "type": "bool"
        }
      ],
      "name": "setPause",
      "outputs": [],
      "payable": false,
      "stateMutability": "nonpayable",
      "type": "function"
    },
    {
      "constant": true,
      "inputs": [],
      "name": "addrAdmin",
      "outputs": [
        {
          "name": "",
          "type": "address"
        }
      ],
      "payable": false,
      "stateMutability": "view",
      "type": "function"
    },
    {
      "constant": true,
      "inputs": [],
      "name": "gameId",
      "outputs": [
        {
          "name": "",
          "type": "uint256"
        }
      ],
      "payable": false,
      "stateMutability": "view",
      "type": "function"
    },
    {
      "constant": true,
      "inputs": [],
      "name": "mentorRate",
      "outputs": [
        {
          "name": "",
          "type": "uint256"
        }
      ],
      "payable": false,
      "stateMutability": "view",
      "type": "function"
    },
    {
      "constant": true,
      "inputs": [],
      "name": "moonDev",
      "outputs": [
        {
          "name": "",
          "type": "address"
        }
      ],
      "payable": false,
      "stateMutability": "view",
      "type": "function"
    },
    {
      "inputs": [],
      "payable": false,
      "stateMutability": "nonpayable",
      "type": "constructor"
    },
    {
      "anonymous": false,
      "inputs": [
        {
          "indexed": true,
          "name": "_orderId",
          "type": "uint256"
        },
        {
          "indexed": true,
          "name": "_bettor",
          "type": "address"
        },
        {
          "indexed": false,
          "name": "_tokenAddr",
          "type": "address"
        },
        {
          "indexed": false,
          "name": "_number",
          "type": "uint256"
        },
        {
          "indexed": false,
          "name": "_direction",
          "type": "uint256"
        },
        {
          "indexed": false,
          "name": "_amount",
          "type": "uint256"
        }
      ],
      "name": "DiceCreate",
      "type": "event"
    },
    {
      "anonymous": false,
      "inputs": [
        {
          "indexed": true,
          "name": "_orderId",
          "type": "uint256"
        },
        {
          "indexed": true,
          "name": "_bettor",
          "type": "address"
        },
        {
          "indexed": false,
          "name": "_tokenAddr",
          "type": "address"
        },
        {
          "indexed": false,
          "name": "_number",
          "type": "uint64"
        },
        {
          "indexed": false,
          "name": "_direction",
          "type": "uint64"
        },
        {
          "indexed": false,
          "name": "_amount",
          "type": "uint256"
        },
        {
          "indexed": false,
          "name": "_roll",
          "type": "uint64"
        },
        {
          "indexed": false,
          "name": "_winAmount",
          "type": "uint256"
        }
      ],
      "name": "DiceResult",
      "type": "event"
    },
    {
      "anonymous": false,
      "inputs": [
        {
          "indexed": true,
          "name": "_orderId",
          "type": "uint256"
        },
        {
          "indexed": true,
          "name": "_bettor",
          "type": "address"
        },
        {
          "indexed": false,
          "name": "_tokenAddr",
          "type": "address"
        },
        {
          "indexed": false,
          "name": "_number",
          "type": "uint64"
        },
        {
          "indexed": false,
          "name": "_direction",
          "type": "uint64"
        },
        {
          "indexed": false,
          "name": "_amount",
          "type": "uint256"
        }
      ],
      "name": "DiceRefund",
      "type": "event"
    },
    {
      "constant": false,
      "inputs": [
        {
          "name": "_gameId",
          "type": "uint256"
        }
      ],
      "name": "setGameId",
      "outputs": [],
      "payable": false,
      "stateMutability": "nonpayable",
      "type": "function"
    },
    {
      "constant": false,
      "inputs": [],
      "name": "enableReferralship",
      "outputs": [],
      "payable": false,
      "stateMutability": "nonpayable",
      "type": "function"
    },
    {
      "constant": false,
      "inputs": [],
      "name": "disableReferralship",
      "outputs": [],
      "payable": false,
      "stateMutability": "nonpayable",
      "type": "function"
    },
    {
      "constant": false,
      "inputs": [
        {
          "name": "_addr",
          "type": "address"
        }
      ],
      "name": "setOraclizeAddr",
      "outputs": [],
      "payable": false,
      "stateMutability": "nonpayable",
      "type": "function"
    },
    {
      "constant": true,
      "inputs": [],
      "name": "getOraclizeAddr",
      "outputs": [
        {
          "name": "",
          "type": "address"
        }
      ],
      "payable": false,
      "stateMutability": "view",
      "type": "function"
    },
    {
      "constant": false,
      "inputs": [
        {
          "name": "_addr",
          "type": "address"
        }
      ],
      "name": "setReferralshipAddr",
      "outputs": [],
      "payable": false,
      "stateMutability": "nonpayable",
      "type": "function"
    },
    {
      "constant": true,
      "inputs": [],
      "name": "getReferralshipAddr",
      "outputs": [
        {
          "name": "",
          "type": "address"
        }
      ],
      "payable": false,
      "stateMutability": "view",
      "type": "function"
    },
    {
      "constant": false,
      "inputs": [
        {
          "name": "_addr",
          "type": "address"
        }
      ],
      "name": "setMoonPoolAddr",
      "outputs": [],
      "payable": false,
      "stateMutability": "nonpayable",
      "type": "function"
    },
    {
      "constant": true,
      "inputs": [],
      "name": "getMoonPoolAddr",
      "outputs": [
        {
          "name": "",
          "type": "address"
        }
      ],
      "payable": false,
      "stateMutability": "view",
      "type": "function"
    },
    {
      "constant": false,
      "inputs": [
        {
          "name": "_addr",
          "type": "address"
        }
      ],
      "name": "setMoonDevAddr",
      "outputs": [],
      "payable": false,
      "stateMutability": "nonpayable",
      "type": "function"
    },
    {
      "constant": true,
      "inputs": [],
      "name": "getMoonDevAddr",
      "outputs": [
        {
          "name": "",
          "type": "address"
        }
      ],
      "payable": false,
      "stateMutability": "view",
      "type": "function"
    },
    {
      "constant": false,
      "inputs": [
        {
          "name": "_addr",
          "type": "address"
        },
        {
          "name": "_useful",
          "type": "bool"
        }
      ],
      "name": "setOperator",
      "outputs": [],
      "payable": false,
      "stateMutability": "nonpayable",
      "type": "function"
    },
    {
      "constant": false,
      "inputs": [
        {
          "name": "_addr",
          "type": "address"
        }
      ],
      "name": "setOperator",
      "outputs": [],
      "payable": false,
      "stateMutability": "nonpayable",
      "type": "function"
    },
    {
      "constant": false,
      "inputs": [
        {
          "name": "_addrToken",
          "type": "address"
        },
        {
          "name": "_maxOrderAmountArray",
          "type": "uint256[98]"
        }
      ],
      "name": "initOrderMaxAmount",
      "outputs": [],
      "payable": false,
      "stateMutability": "nonpayable",
      "type": "function"
    },
    {
      "constant": false,
      "inputs": [],
      "name": "initWinBonus",
      "outputs": [],
      "payable": false,
      "stateMutability": "nonpayable",
      "type": "function"
    },
    {
      "constant": false,
      "inputs": [
        {
          "name": "_rate",
          "type": "uint256"
        }
      ],
      "name": "setMentorRate",
      "outputs": [],
      "payable": false,
      "stateMutability": "nonpayable",
      "type": "function"
    },
    {
      "constant": false,
      "inputs": [
        {
          "name": "_tokenAddr",
          "type": "address"
        },
        {
          "name": "_tokenAmount",
          "type": "uint256"
        },
        {
          "name": "_number",
          "type": "uint16"
        },
        {
          "name": "_direction",
          "type": "uint16"
        },
        {
          "name": "_rcode",
          "type": "string"
        }
      ],
      "name": "rollDice",
      "outputs": [],
      "payable": true,
      "stateMutability": "payable",
      "type": "function"
    },
    {
      "constant": false,
      "inputs": [
        {
          "name": "_bettor",
          "type": "address"
        },
        {
          "name": "_seed",
          "type": "uint256"
        }
      ],
      "name": "__callback",
      "outputs": [],
      "payable": false,
      "stateMutability": "nonpayable",
      "type": "function"
    },
    {
      "constant": true,
      "inputs": [
        {
          "name": "_owner",
          "type": "address"
        }
      ],
      "name": "getOrder",
      "outputs": [
        {
          "name": "bettor",
          "type": "address"
        },
        {
          "name": "tokenAmount",
          "type": "uint256"
        },
        {
          "name": "orderId",
          "type": "uint32"
        },
        {
          "name": "direction",
          "type": "uint16"
        },
        {
          "name": "number",
          "type": "uint16"
        },
        {
          "name": "roll",
          "type": "uint16"
        },
        {
          "name": "addrToken",
          "type": "address"
        }
      ],
      "payable": false,
      "stateMutability": "view",
      "type": "function"
    },
    {
      "constant": true,
      "inputs": [
        {
          "name": "_ownerArray",
          "type": "address[]"
        }
      ],
      "name": "getOrderByIdArray",
      "outputs": [
        {
          "name": "bettorArray",
          "type": "address[]"
        },
        {
          "name": "tokenAmountArray",
          "type": "uint256[]"
        },
        {
          "name": "orderIdArray",
          "type": "uint32[]"
        },
        {
          "name": "directionArray",
          "type": "uint16[]"
        },
        {
          "name": "numberArray",
          "type": "uint16[]"
        },
        {
          "name": "rollArray",
          "type": "uint16[]"
        },
        {
          "name": "addrTokenArray",
          "type": "address[]"
        }
      ],
      "payable": false,
      "stateMutability": "view",
      "type": "function"
    },
    {
      "constant": false,
      "inputs": [
        {
          "name": "_amount",
          "type": "uint256"
        }
      ],
      "name": "withdrawBnb",
      "outputs": [],
      "payable": false,
      "stateMutability": "nonpayable",
      "type": "function"
    },
    {
      "constant": false,
      "inputs": [
        {
          "name": "_addrToken",
          "type": "address"
        },
        {
          "name": "_amount",
          "type": "uint160"
        }
      ],
      "name": "setMinOrderAmount",
      "outputs": [
        {
          "name": "",
          "type": "bool"
        }
      ],
      "payable": false,
      "stateMutability": "nonpayable",
      "type": "function"
    },
    {
      "constant": true,
      "inputs": [
        {
          "name": "_addrToken",
          "type": "address"
        }
      ],
      "name": "getMinOrderAmount",
      "outputs": [
        {
          "name": "",
          "type": "uint160"
        }
      ],
      "payable": false,
      "stateMutability": "view",
      "type": "function"
    },
    {
      "constant": false,
      "inputs": [
        {
          "name": "_tokenAddr",
          "type": "address"
        }
      ],
      "name": "enableToken",
      "outputs": [
        {
          "name": "",
          "type": "bool"
        }
      ],
      "payable": false,
      "stateMutability": "nonpayable",
      "type": "function"
    },
    {
      "constant": false,
      "inputs": [
        {
          "name": "_tokenAddr",
          "type": "address"
        }
      ],
      "name": "disableToken",
      "outputs": [
        {
          "name": "",
          "type": "bool"
        }
      ],
      "payable": false,
      "stateMutability": "nonpayable",
      "type": "function"
    },
    {
      "constant": true,
      "inputs": [
        {
          "name": "_tokenAddr",
          "type": "address"
        },
        {
          "name": "_number",
          "type": "uint16"
        }
      ],
      "name": "getMaxOrderAmount",
      "outputs": [
        {
          "name": "",
          "type": "uint256"
        }
      ],
      "payable": false,
      "stateMutability": "view",
      "type": "function"
    },
    {
      "constant": false,
      "inputs": [
        {
          "name": "_tokenAddr",
          "type": "address"
        },
        {
          "name": "_minAmount",
          "type": "uint160"
        },
        {
          "name": "_maxOrderAmountArray",
          "type": "uint256[98]"
        }
      ],
      "name": "initToken",
      "outputs": [],
      "payable": false,
      "stateMutability": "nonpayable",
      "type": "function"
    }
  ],
  "bytecode": "0x608060405260146006556000600760006101000a81548160ff0219169083151502179055506001606e553480156200003657600080fd5b5060008060006101000a81548160ff02191690831515021790555033600060016101000a81548173ffffffffffffffffffffffffffffffffffffffff021916908373ffffffffffffffffffffffffffffffffffffffff16021790555033600060016101000a81548173ffffffffffffffffffffffffffffffffffffffff021916908373ffffffffffffffffffffffffffffffffffffffff160217905550620000ec620000f2640100000000026401000000009004565b62000201565b60008060019054906101000a900473ffffffffffffffffffffffffffffffffffffffff1673ffffffffffffffffffffffffffffffffffffffff163373ffffffffffffffffffffffffffffffffffffffff16141515620001b9576040517f08c379a00000000000000000000000000000000000000000000000000000000081526004018080602001828103825260098152602001807f6e6f742061646d696e000000000000000000000000000000000000000000000081525060200191505060405180910390fd5b600190505b606081111515620001fe5761271081620f07a8811515620001db57fe5b0403600c82606281101515620001ed57fe5b0181905550806001019050620001be565b50565b614bd180620002116000396000f300608060405260043610610225576000357c0100000000000000000000000000000000000000000000000000000000900463ffffffff16806301408ea51461022a57806305514a3e1461028b57806305ca3841146102cc578063096db391146103235780631ed8c6491461037a5780631fa224bf146103fd57806323e27a64146104405780632cbc03451461049b5780632e4aab52146104de5780632e607758146104f55780633158923d1461054c57806334f62e3e1461058f5780633d9aa932146105fd5780634322744614610654578063459c979b146106af5780634c1c9fd7146106dc5780634c309df614610741578063543208c9146107b4578063558a7297146107cb578063570ca7351461081a5780635926cf1314610871578063609fb0e91461089e57806367c18aa1146108f55780636bf54e5f146109425780636eba2b131461099d578063704b6c0214610a9a57806378f0cfe014610add5780637cd9a28314610b0c578063862bd4d714610bd6578063a594ef5d14610c51578063ad0bcea014610c68578063b187bd2614610cab578063b3ab15fb14610cda578063bedb86fb14610d1d578063bfae2f0e14610d4c578063c0cfdd6514610da3578063c690908a14610fe3578063d7c81b551461103e578063e0dd956a14611069578063f0616ef714611096578063f32f5b84146110ed578063f999935814611118578063fa96a9541461116f578063fe5ffe17146111c6578063ff98cdd014611249575b600080fd5b34801561023657600080fd5b50610275600480360381019080803573ffffffffffffffffffffffffffffffffffffffff169060200190929190803590602001909291905050506112bd565b6040518082815260200191505060405180910390f35b34801561029757600080fd5b506102b6600480360381019080803590602001909291905050506112e4565b6040518082815260200191505060405180910390f35b3480156102d857600080fd5b506102e16112fe565b604051808273ffffffffffffffffffffffffffffffffffffffff1673ffffffffffffffffffffffffffffffffffffffff16815260200191505060405180910390f35b34801561032f57600080fd5b50610338611328565b604051808273ffffffffffffffffffffffffffffffffffffffff1673ffffffffffffffffffffffffffffffffffffffff16815260200191505060405180910390f35b34801561038657600080fd5b506103bb600480360381019080803573ffffffffffffffffffffffffffffffffffffffff16906020019092919050505061134e565b604051808273ffffffffffffffffffffffffffffffffffffffff1673ffffffffffffffffffffffffffffffffffffffff16815260200191505060405180910390f35b34801561040957600080fd5b5061043e600480360381019080803573ffffffffffffffffffffffffffffffffffffffff169060200190929190505050611381565b005b34801561044c57600080fd5b50610481600480360381019080803573ffffffffffffffffffffffffffffffffffffffff1690602001909291905050506114c6565b604051808215151515815260200191505060405180910390f35b3480156104a757600080fd5b506104dc600480360381019080803573ffffffffffffffffffffffffffffffffffffffff169060200190929190505050611584565b005b3480156104ea57600080fd5b506104f36116c9565b005b34801561050157600080fd5b5061050a6117ab565b604051808273ffffffffffffffffffffffffffffffffffffffff1673ffffffffffffffffffffffffffffffffffffffff16815260200191505060405180910390f35b34801561055857600080fd5b5061058d600480360381019080803573ffffffffffffffffffffffffffffffffffffffff1690602001909291905050506117d1565b005b34801561059b57600080fd5b506105fb600480360381019080803573ffffffffffffffffffffffffffffffffffffffff169060200190929190803573ffffffffffffffffffffffffffffffffffffffff16906020019092919080610c4001909192919290505050611916565b005b34801561060957600080fd5b50610612611ae5565b604051808273ffffffffffffffffffffffffffffffffffffffff1673ffffffffffffffffffffffffffffffffffffffff16815260200191505060405180910390f35b34801561066057600080fd5b50610695600480360381019080803573ffffffffffffffffffffffffffffffffffffffff169060200190929190505050611b0b565b604051808215151515815260200191505060405180910390f35b3480156106bb57600080fd5b506106da60048036038101908080359060200190929190505050611b2b565b005b3480156106e857600080fd5b5061072b600480360381019080803573ffffffffffffffffffffffffffffffffffffffff169060200190929190803561ffff169060200190929190505050611c25565b6040518082815260200191505060405180910390f35b34801561074d57600080fd5b506107b2600480360381019080803573ffffffffffffffffffffffffffffffffffffffff16906020019092919080610c400190606280602002604051908101604052809291908260626020028082843782019150505050509192919290505050611c81565b005b3480156107c057600080fd5b506107c9611de8565b005b3480156107d757600080fd5b50610818600480360381019080803573ffffffffffffffffffffffffffffffffffffffff169060200190929190803515159060200190929190505050611eca565b005b34801561082657600080fd5b5061082f612026565b604051808273ffffffffffffffffffffffffffffffffffffffff1673ffffffffffffffffffffffffffffffffffffffff16815260200191505060405180910390f35b34801561087d57600080fd5b5061089c6004803603810190808035906020019092919050505061204c565b005b3480156108aa57600080fd5b506108b361211b565b604051808273ffffffffffffffffffffffffffffffffffffffff1673ffffffffffffffffffffffffffffffffffffffff16815260200191505060405180910390f35b34801561090157600080fd5b50610940600480360381019080803573ffffffffffffffffffffffffffffffffffffffff16906020019092919080359060200190929190505050612145565b005b34801561094e57600080fd5b50610983600480360381019080803573ffffffffffffffffffffffffffffffffffffffff1690602001909291905050506126ba565b604051808215151515815260200191505060405180910390f35b3480156109a957600080fd5b506109de600480360381019080803573ffffffffffffffffffffffffffffffffffffffff1690602001909291905050506126da565b604051808873ffffffffffffffffffffffffffffffffffffffff1673ffffffffffffffffffffffffffffffffffffffff1681526020018781526020018663ffffffff1663ffffffff1681526020018561ffff1661ffff1681526020018461ffff1661ffff1681526020018361ffff1661ffff1681526020018273ffffffffffffffffffffffffffffffffffffffff1673ffffffffffffffffffffffffffffffffffffffff16815260200197505050505050505060405180910390f35b348015610aa657600080fd5b50610adb600480360381019080803573ffffffffffffffffffffffffffffffffffffffff169060200190929190505050612882565b005b348015610ae957600080fd5b50610af2612a30565b604051808215151515815260200191505060405180910390f35b348015610b1857600080fd5b50610b4d600480360381019080803573ffffffffffffffffffffffffffffffffffffffff169060200190929190505050612a43565b604051808763ffffffff1663ffffffff1681526020018673ffffffffffffffffffffffffffffffffffffffff1673ffffffffffffffffffffffffffffffffffffffff1681526020018561ffff1661ffff1681526020018461ffff1661ffff1681526020018361ffff1661ffff168152602001828152602001965050505050505060405180910390f35b348015610be257600080fd5b50610c37600480360381019080803573ffffffffffffffffffffffffffffffffffffffff169060200190929190803573ffffffffffffffffffffffffffffffffffffffff169060200190929190505050612ad9565b604051808215151515815260200191505060405180910390f35b348015610c5d57600080fd5b50610c66612bbe565b005b348015610c7457600080fd5b50610ca9600480360381019080803573ffffffffffffffffffffffffffffffffffffffff169060200190929190505050612cc8565b005b348015610cb757600080fd5b50610cc0612e0d565b604051808215151515815260200191505060405180910390f35b348015610ce657600080fd5b50610d1b600480360381019080803573ffffffffffffffffffffffffffffffffffffffff169060200190929190505050612e1f565b005b348015610d2957600080fd5b50610d4a600480360381019080803515159060200190929190505050612fcd565b005b348015610d5857600080fd5b50610d616130ae565b604051808273ffffffffffffffffffffffffffffffffffffffff1673ffffffffffffffffffffffffffffffffffffffff16815260200191505060405180910390f35b348015610daf57600080fd5b50610ddc6004803603810190808035906020019082018035906020019190919293919293905050506130d4565b604051808060200180602001806020018060200180602001806020018060200188810388528f818151815260200191508051906020019060200280838360005b83811015610e37578082015181840152602081019050610e1c565b5050505090500188810387528e818151815260200191508051906020019060200280838360005b83811015610e79578082015181840152602081019050610e5e565b5050505090500188810386528d818151815260200191508051906020019060200280838360005b83811015610ebb578082015181840152602081019050610ea0565b5050505090500188810385528c818151815260200191508051906020019060200280838360005b83811015610efd578082015181840152602081019050610ee2565b5050505090500188810384528b818151815260200191508051906020019060200280838360005b83811015610f3f578082015181840152602081019050610f24565b5050505090500188810383528a818151815260200191508051906020019060200280838360005b83811015610f81578082015181840152602081019050610f66565b50505050905001888103825289818151815260200191508051906020019060200280838360005b83811015610fc3578082015181840152602081019050610fa8565b505050509050019e50505050505050505050505050505060405180910390f35b348015610fef57600080fd5b50611024600480360381019080803573ffffffffffffffffffffffffffffffffffffffff16906020019092919050505061362d565b604051808215151515815260200191505060405180910390f35b34801561104a57600080fd5b506110536136eb565b6040518082815260200191505060405180910390f35b34801561107557600080fd5b50611094600480360381019080803590602001909291905050506136f1565b005b3480156110a257600080fd5b506110ab6137d0565b604051808273ffffffffffffffffffffffffffffffffffffffff1673ffffffffffffffffffffffffffffffffffffffff16815260200191505060405180910390f35b3480156110f957600080fd5b506111026137fa565b6040518082815260200191505060405180910390f35b34801561112457600080fd5b5061112d613800565b604051808273ffffffffffffffffffffffffffffffffffffffff1673ffffffffffffffffffffffffffffffffffffffff16815260200191505060405180910390f35b34801561117b57600080fd5b50611184613826565b604051808273ffffffffffffffffffffffffffffffffffffffff1673ffffffffffffffffffffffffffffffffffffffff16815260200191505060405180910390f35b3480156111d257600080fd5b50611207600480360381019080803573ffffffffffffffffffffffffffffffffffffffff169060200190929190505050613850565b604051808273ffffffffffffffffffffffffffffffffffffffff1673ffffffffffffffffffffffffffffffffffffffff16815260200191505060405180910390f35b6112bb600480360381019080803573ffffffffffffffffffffffffffffffffffffffff16906020019092919080359060200190929190803561ffff169060200190929190803561ffff1690602001909291908035906020019082018035906020019190919293919293905050506138b9565b005b600b602052816000526040600020816062811015156112d857fe5b01600091509150505481565b600c816062811015156112f357fe5b016000915090505481565b6000600260009054906101000a900473ffffffffffffffffffffffffffffffffffffffff16905090565b600460009054906101000a900473ffffffffffffffffffffffffffffffffffffffff1681565b600a6020528060005260406000206000915054906101000a900473ffffffffffffffffffffffffffffffffffffffff1681565b600060019054906101000a900473ffffffffffffffffffffffffffffffffffffffff1673ffffffffffffffffffffffffffffffffffffffff163373ffffffffffffffffffffffffffffffffffffffff16141515611446576040517f08c379a00000000000000000000000000000000000000000000000000000000081526004018080602001828103825260098152602001807f6e6f742061646d696e000000000000000000000000000000000000000000000081525060200191505060405180910390fd5b600073ffffffffffffffffffffffffffffffffffffffff168173ffffffffffffffffffffffffffffffffffffffff161415151561148257600080fd5b80600260006101000a81548173ffffffffffffffffffffffffffffffffffffffff021916908373ffffffffffffffffffffffffffffffffffffffff16021790555050565b60008060019054906101000a900473ffffffffffffffffffffffffffffffffffffffff1673ffffffffffffffffffffffffffffffffffffffff163373ffffffffffffffffffffffffffffffffffffffff1614151561152357600080fd5b6000600960008473ffffffffffffffffffffffffffffffffffffffff1673ffffffffffffffffffffffffffffffffffffffff16815260200190815260200160002060006101000a81548160ff02191690831515021790555060019050919050565b600060019054906101000a900473ffffffffffffffffffffffffffffffffffffffff1673ffffffffffffffffffffffffffffffffffffffff163373ffffffffffffffffffffffffffffffffffffffff16141515611649576040517f08c379a00000000000000000000000000000000000000000000000000000000081526004018080602001828103825260098152602001807f6e6f742061646d696e000000000000000000000000000000000000000000000081525060200191505060405180910390fd5b600073ffffffffffffffffffffffffffffffffffffffff168173ffffffffffffffffffffffffffffffffffffffff161415151561168557600080fd5b80600560006101000a81548173ffffffffffffffffffffffffffffffffffffffff021916908373ffffffffffffffffffffffffffffffffffffffff16021790555050565b600060019054906101000a900473ffffffffffffffffffffffffffffffffffffffff1673ffffffffffffffffffffffffffffffffffffffff163373ffffffffffffffffffffffffffffffffffffffff1614151561178e576040517f08c379a00000000000000000000000000000000000000000000000000000000081526004018080602001828103825260098152602001807f6e6f742061646d696e000000000000000000000000000000000000000000000081525060200191505060405180910390fd5b6001600760006101000a81548160ff021916908315150217905550565b600360009054906101000a900473ffffffffffffffffffffffffffffffffffffffff1681565b600060019054906101000a900473ffffffffffffffffffffffffffffffffffffffff1673ffffffffffffffffffffffffffffffffffffffff163373ffffffffffffffffffffffffffffffffffffffff16141515611896576040517f08c379a00000000000000000000000000000000000000000000000000000000081526004018080602001828103825260098152602001807f6e6f742061646d696e000000000000000000000000000000000000000000000081525060200191505060405180910390fd5b600073ffffffffffffffffffffffffffffffffffffffff168173ffffffffffffffffffffffffffffffffffffffff16141515156118d257600080fd5b80600360006101000a81548173ffffffffffffffffffffffffffffffffffffffff021916908373ffffffffffffffffffffffffffffffffffffffff16021790555050565b600060019054906101000a900473ffffffffffffffffffffffffffffffffffffffff1673ffffffffffffffffffffffffffffffffffffffff163373ffffffffffffffffffffffffffffffffffffffff161415156119db576040517f08c379a00000000000000000000000000000000000000000000000000000000081526004018080602001828103825260098152602001807f6e6f742061646d696e000000000000000000000000000000000000000000000081525060200191505060405180910390fd5b6001600960008573ffffffffffffffffffffffffffffffffffffffff1673ffffffffffffffffffffffffffffffffffffffff16815260200190815260200160002060006101000a81548160ff02191690831515021790555081600a60008573ffffffffffffffffffffffffffffffffffffffff1673ffffffffffffffffffffffffffffffffffffffff16815260200190815260200160002060006101000a81548173ffffffffffffffffffffffffffffffffffffffff021916908373ffffffffffffffffffffffffffffffffffffffff160217905550611ae0838260628060200260405190810160405280929190826062602002808284378201915050505050611c81565b505050565b600260009054906101000a900473ffffffffffffffffffffffffffffffffffffffff1681565b60096020528060005260406000206000915054906101000a900460ff1681565b600060019054906101000a900473ffffffffffffffffffffffffffffffffffffffff1673ffffffffffffffffffffffffffffffffffffffff163373ffffffffffffffffffffffffffffffffffffffff16141515611b8757600080fd5b600081118015611bae57503073ffffffffffffffffffffffffffffffffffffffff16318111155b1515611bb957600080fd5b600060019054906101000a900473ffffffffffffffffffffffffffffffffffffffff1673ffffffffffffffffffffffffffffffffffffffff166108fc829081150290604051600060405180830381858888f19350505050158015611c21573d6000803e3d6000fd5b5050565b6000600b60008473ffffffffffffffffffffffffffffffffffffffff1673ffffffffffffffffffffffffffffffffffffffff1681526020019081526020016000208261ffff16606281101515611c7757fe5b0154905092915050565b611c89614abd565b60008060019054906101000a900473ffffffffffffffffffffffffffffffffffffffff1673ffffffffffffffffffffffffffffffffffffffff163373ffffffffffffffffffffffffffffffffffffffff16141515611d4f576040517f08c379a00000000000000000000000000000000000000000000000000000000081526004018080602001828103825260098152602001807f6e6f742061646d696e000000000000000000000000000000000000000000000081525060200191505060405180910390fd5b600190505b606081111515611d93578281606281101515611d6c57fe5b60200201518282606281101515611d7f57fe5b602002018181525050806001019050611d54565b81600b60008673ffffffffffffffffffffffffffffffffffffffff1673ffffffffffffffffffffffffffffffffffffffff168152602001908152602001600020906062611de1929190614ae1565b5050505050565b600060019054906101000a900473ffffffffffffffffffffffffffffffffffffffff1673ffffffffffffffffffffffffffffffffffffffff163373ffffffffffffffffffffffffffffffffffffffff16141515611ead576040517f08c379a00000000000000000000000000000000000000000000000000000000081526004018080602001828103825260098152602001807f6e6f742061646d696e000000000000000000000000000000000000000000000081525060200191505060405180910390fd5b6000600760006101000a81548160ff021916908315150217905550565b600060019054906101000a900473ffffffffffffffffffffffffffffffffffffffff1673ffffffffffffffffffffffffffffffffffffffff163373ffffffffffffffffffffffffffffffffffffffff16141515611f8f576040517f08c379a00000000000000000000000000000000000000000000000000000000081526004018080602001828103825260098152602001807f6e6f742061646d696e000000000000000000000000000000000000000000000081525060200191505060405180910390fd5b600073ffffffffffffffffffffffffffffffffffffffff168273ffffffffffffffffffffffffffffffffffffffff1614151515611fcb57600080fd5b80600860008473ffffffffffffffffffffffffffffffffffffffff1673ffffffffffffffffffffffffffffffffffffffff16815260200190815260200160002060006101000a81548160ff0219169083151502179055505050565b600160009054906101000a900473ffffffffffffffffffffffffffffffffffffffff1681565b600060019054906101000a900473ffffffffffffffffffffffffffffffffffffffff1673ffffffffffffffffffffffffffffffffffffffff163373ffffffffffffffffffffffffffffffffffffffff16141515612111576040517f08c379a00000000000000000000000000000000000000000000000000000000081526004018080602001828103825260098152602001807f6e6f742061646d696e000000000000000000000000000000000000000000000081525060200191505060405180910390fd5b80606e8190555050565b6000600560009054906101000a900473ffffffffffffffffffffffffffffffffffffffff16905090565b600080600080600260009054906101000a900473ffffffffffffffffffffffffffffffffffffffff1673ffffffffffffffffffffffffffffffffffffffff163373ffffffffffffffffffffffffffffffffffffffff161415156121a757600080fd5b606f60008773ffffffffffffffffffffffffffffffffffffffff1673ffffffffffffffffffffffffffffffffffffffff16815260200190815260200160002093506064600360009054906101000a900473ffffffffffffffffffffffffffffffffffffffff1673ffffffffffffffffffffffffffffffffffffffff166330d593a2886040518263ffffffff167c0100000000000000000000000000000000000000000000000000000000028152600401808273ffffffffffffffffffffffffffffffffffffffff1673ffffffffffffffffffffffffffffffffffffffff168152602001915050602060405180830381600087803b1580156122a757600080fd5b505af11580156122bb573d6000803e3d6000fd5b505050506040513d60208110156122d157600080fd5b810190808051906020019092919050505086604051602001808360001916600019168152602001828152602001925050506040516020818303038152906040526040518082805190602001908083835b6020831015156123465780518252602082019150602081019050602083039250612321565b6001836020036101000a03801982511681845116808217855250505050505090500191505060405180910390206001900481151561238057fe5b0691508184600001601c6101000a81548161ffff021916908361ffff16021790555060008460000160189054906101000a900461ffff1661ffff1614156123e55783600001601a9054906101000a900461ffff1661ffff168261ffff16109250612405565b83600001601a9054906101000a900461ffff1661ffff168261ffff161192505b600073ffffffffffffffffffffffffffffffffffffffff168460000160049054906101000a900473ffffffffffffffffffffffffffffffffffffffff1673ffffffffffffffffffffffffffffffffffffffff16141561246d5761246c868560010154613f97565b5b600360009054906101000a900473ffffffffffffffffffffffffffffffffffffffff1673ffffffffffffffffffffffffffffffffffffffff16631d361504876040518263ffffffff167c0100000000000000000000000000000000000000000000000000000000028152600401808273ffffffffffffffffffffffffffffffffffffffff1673ffffffffffffffffffffffffffffffffffffffff168152602001915050602060405180830381600087803b15801561252a57600080fd5b505af115801561253e573d6000803e3d6000fd5b505050506040513d602081101561255457600080fd5b81019080805190602001909291905050509050821561257d576125788487836141bc565b6126b2565b8573ffffffffffffffffffffffffffffffffffffffff168460000160009054906101000a900463ffffffff1663ffffffff167fc5d2162f02280670683b824e6de417ac9f3dc922203e87fa172b9107d2b58e278660000160049054906101000a900473ffffffffffffffffffffffffffffffffffffffff1687600001601a9054906101000a900461ffff168860000160189054906101000a900461ffff168960010154886000604051808773ffffffffffffffffffffffffffffffffffffffff1673ffffffffffffffffffffffffffffffffffffffff1681526020018661ffff1667ffffffffffffffff1681526020018561ffff1667ffffffffffffffff1681526020018481526020018361ffff1667ffffffffffffffff168152602001828152602001965050505050505060405180910390a35b505050505050565b60086020528060005260406000206000915054906101000a900460ff1681565b60008060008060008060006126ed614b21565b606f60008a73ffffffffffffffffffffffffffffffffffffffff1673ffffffffffffffffffffffffffffffffffffffff16815260200190815260200160002060c060405190810160405290816000820160009054906101000a900463ffffffff1663ffffffff1663ffffffff1681526020016000820160049054906101000a900473ffffffffffffffffffffffffffffffffffffffff1673ffffffffffffffffffffffffffffffffffffffff1673ffffffffffffffffffffffffffffffffffffffff1681526020016000820160189054906101000a900461ffff1661ffff1661ffff16815260200160008201601a9054906101000a900461ffff1661ffff1661ffff16815260200160008201601c9054906101000a900461ffff1661ffff1661ffff16815260200160018201548152505090508060000151955088975060008663ffffffff161115612861578060a00151965080604001519450806060015193508060800151925080602001519150612876565b6000965060009450600093506000915060ff92505b50919395979092949650565b600060019054906101000a900473ffffffffffffffffffffffffffffffffffffffff1673ffffffffffffffffffffffffffffffffffffffff163373ffffffffffffffffffffffffffffffffffffffff16141515612947576040517f08c379a00000000000000000000000000000000000000000000000000000000081526004018080602001828103825260098152602001807f6e6f742061646d696e000000000000000000000000000000000000000000000081525060200191505060405180910390fd5b600073ffffffffffffffffffffffffffffffffffffffff168173ffffffffffffffffffffffffffffffffffffffff16141515156129ec576040517f08c379a000000000000000000000000000000000000000000000000000000000815260040180806020018281038252601c8152602001807f5f6e657741646d696e2063616e2774206265206164647265737320300000000081525060200191505060405180910390fd5b80600060016101000a81548173ffffffffffffffffffffffffffffffffffffffff021916908373ffffffffffffffffffffffffffffffffffffffff16021790555050565b600760009054906101000a900460ff1681565b606f6020528060005260406000206000915090508060000160009054906101000a900463ffffffff16908060000160049054906101000a900473ffffffffffffffffffffffffffffffffffffffff16908060000160189054906101000a900461ffff169080600001601a9054906101000a900461ffff169080600001601c9054906101000a900461ffff16908060010154905086565b60008060019054906101000a900473ffffffffffffffffffffffffffffffffffffffff1673ffffffffffffffffffffffffffffffffffffffff163373ffffffffffffffffffffffffffffffffffffffff16141515612b3657600080fd5b81600a60008573ffffffffffffffffffffffffffffffffffffffff1673ffffffffffffffffffffffffffffffffffffffff16815260200190815260200160002060006101000a81548173ffffffffffffffffffffffffffffffffffffffff021916908373ffffffffffffffffffffffffffffffffffffffff1602179055506001905092915050565b60008060019054906101000a900473ffffffffffffffffffffffffffffffffffffffff1673ffffffffffffffffffffffffffffffffffffffff163373ffffffffffffffffffffffffffffffffffffffff16141515612c84576040517f08c379a00000000000000000000000000000000000000000000000000000000081526004018080602001828103825260098152602001807f6e6f742061646d696e000000000000000000000000000000000000000000000081525060200191505060405180910390fd5b600190505b606081111515612cc55761271081620f07a8811515612ca457fe5b0403600c82606281101515612cb557fe5b0181905550806001019050612c89565b50565b600060019054906101000a900473ffffffffffffffffffffffffffffffffffffffff1673ffffffffffffffffffffffffffffffffffffffff163373ffffffffffffffffffffffffffffffffffffffff16141515612d8d576040517f08c379a00000000000000000000000000000000000000000000000000000000081526004018080602001828103825260098152602001807f6e6f742061646d696e000000000000000000000000000000000000000000000081525060200191505060405180910390fd5b600073ffffffffffffffffffffffffffffffffffffffff168173ffffffffffffffffffffffffffffffffffffffff1614151515612dc957600080fd5b80600460006101000a81548173ffffffffffffffffffffffffffffffffffffffff021916908373ffffffffffffffffffffffffffffffffffffffff16021790555050565b6000809054906101000a900460ff1681565b600060019054906101000a900473ffffffffffffffffffffffffffffffffffffffff1673ffffffffffffffffffffffffffffffffffffffff163373ffffffffffffffffffffffffffffffffffffffff16141515612ee4576040517f08c379a00000000000000000000000000000000000000000000000000000000081526004018080602001828103825260098152602001807f6e6f742061646d696e000000000000000000000000000000000000000000000081525060200191505060405180910390fd5b600073ffffffffffffffffffffffffffffffffffffffff168173ffffffffffffffffffffffffffffffffffffffff1614151515612f89576040517f08c379a00000000000000000000000000000000000000000000000000000000081526004018080602001828103825260188152602001807f5f616464722063616e277420626520616464726573732030000000000000000081525060200191505060405180910390fd5b80600160006101000a81548173ffffffffffffffffffffffffffffffffffffffff021916908373ffffffffffffffffffffffffffffffffffffffff16021790555050565b600060019054906101000a900473ffffffffffffffffffffffffffffffffffffffff1673ffffffffffffffffffffffffffffffffffffffff163373ffffffffffffffffffffffffffffffffffffffff16141515613092576040517f08c379a00000000000000000000000000000000000000000000000000000000081526004018080602001828103825260098152602001807f6e6f742061646d696e000000000000000000000000000000000000000000000081525060200191505060405180910390fd5b806000806101000a81548160ff02191690831515021790555050565b600060019054906101000a900473ffffffffffffffffffffffffffffffffffffffff1681565b606080606080606080606060006130e9614b21565b6000808c8c9050935060008411151561310157600080fd5b836040519080825280602002602001820160405280156131305781602001602082028038833980820191505090505b509a50836040519080825280602002602001820160405280156131625781602001602082028038833980820191505090505b509950836040519080825280602002602001820160405280156131945781602001602082028038833980820191505090505b509850836040519080825280602002602001820160405280156131c65781602001602082028038833980820191505090505b509750836040519080825280602002602001820160405280156131f85781602001602082028038833980820191505090505b5096508360405190808252806020026020018201604052801561322a5781602001602082028038833980820191505090505b5095508360405190808252806020026020018201604052801561325c5781602001602082028038833980820191505090505b509450600090505b8381101561361d578c8c82818110151561327a57fe5b9050602002013573ffffffffffffffffffffffffffffffffffffffff169150818b828151811015156132a857fe5b9060200190602002019073ffffffffffffffffffffffffffffffffffffffff16908173ffffffffffffffffffffffffffffffffffffffff1681525050606f60008373ffffffffffffffffffffffffffffffffffffffff1673ffffffffffffffffffffffffffffffffffffffff16815260200190815260200160002060c060405190810160405290816000820160009054906101000a900463ffffffff1663ffffffff1663ffffffff1681526020016000820160049054906101000a900473ffffffffffffffffffffffffffffffffffffffff1673ffffffffffffffffffffffffffffffffffffffff1673ffffffffffffffffffffffffffffffffffffffff1681526020016000820160189054906101000a900461ffff1661ffff1661ffff16815260200160008201601a9054906101000a900461ffff1661ffff1661ffff16815260200160008201601c9054906101000a900461ffff1661ffff1661ffff16815260200160018201548152505092506000836000015163ffffffff16111561354f578260a001518a8281518110151561343d57fe5b90602001906020020181815250508260000151898281518110151561345e57fe5b9060200190602002019063ffffffff16908163ffffffff16815250508260400151888281518110151561348d57fe5b9060200190602002019061ffff16908161ffff1681525050826060015187828151811015156134b857fe5b9060200190602002019061ffff16908161ffff1681525050826080015186828151811015156134e357fe5b9060200190602002019061ffff16908161ffff16815250508260200151858281518110151561350e57fe5b9060200190602002019073ffffffffffffffffffffffffffffffffffffffff16908173ffffffffffffffffffffffffffffffffffffffff1681525050613612565b60008a8281518110151561355f57fe5b90602001906020020181815250506000898281518110151561357d57fe5b9060200190602002019063ffffffff16908163ffffffff1681525050600088828151811015156135a957fe5b9060200190602002019061ffff16908161ffff1681525050600087828151811015156135d157fe5b9060200190602002019061ffff16908161ffff168152505060ff86828151811015156135f957fe5b9060200190602002019061ffff16908161ffff16815250505b806001019050613264565b5050505092959891949750929550565b60008060019054906101000a900473ffffffffffffffffffffffffffffffffffffffff1673ffffffffffffffffffffffffffffffffffffffff163373ffffffffffffffffffffffffffffffffffffffff1614151561368a57600080fd5b6001600960008473ffffffffffffffffffffffffffffffffffffffff1673ffffffffffffffffffffffffffffffffffffffff16815260200190815260200160002060006101000a81548160ff02191690831515021790555060019050919050565b606e5481565b600060019054906101000a900473ffffffffffffffffffffffffffffffffffffffff1673ffffffffffffffffffffffffffffffffffffffff163373ffffffffffffffffffffffffffffffffffffffff161415156137b6576040517f08c379a00000000000000000000000000000000000000000000000000000000081526004018080602001828103825260098152602001807f6e6f742061646d696e000000000000000000000000000000000000000000000081525060200191505060405180910390fd5b606481111515156137c657600080fd5b8060068190555050565b6000600460009054906101000a900473ffffffffffffffffffffffffffffffffffffffff16905090565b60065481565b600560009054906101000a900473ffffffffffffffffffffffffffffffffffffffff1681565b6000600360009054906101000a900473ffffffffffffffffffffffffffffffffffffffff16905090565b6000600a60008373ffffffffffffffffffffffffffffffffffffffff1673ffffffffffffffffffffffffffffffffffffffff16815260200190815260200160002060009054906101000a900473ffffffffffffffffffffffffffffffffffffffff169050919050565b60008060008060009054906101000a900460ff161515156138d957600080fd5b879250600073ffffffffffffffffffffffffffffffffffffffff168973ffffffffffffffffffffffffffffffffffffffff161415613915573492505b600960008a73ffffffffffffffffffffffffffffffffffffffff1673ffffffffffffffffffffffffffffffffffffffff16815260200190815260200160002060009054906101000a900460ff16915081151561397057600080fd5b600a60008a73ffffffffffffffffffffffffffffffffffffffff1673ffffffffffffffffffffffffffffffffffffffff16815260200190815260200160002060009054906101000a900473ffffffffffffffffffffffffffffffffffffffff1673ffffffffffffffffffffffffffffffffffffffff1683101515156139f457600080fd5b606f60003373ffffffffffffffffffffffffffffffffffffffff1673ffffffffffffffffffffffffffffffffffffffff168152602001908152602001600020905060008160000160009054906101000a900463ffffffff1663ffffffff161115613a7e5760ff81600001601c9054906101000a900461ffff1661ffff16101515613a7d57600080fd5b5b60008661ffff161415613b155760018761ffff1610158015613aa55750605f8761ffff1611155b1515613ab057600080fd5b600b60008a73ffffffffffffffffffffffffffffffffffffffff1673ffffffffffffffffffffffffffffffffffffffff1681526020019081526020016000208761ffff16606281101515613b0057fe5b01548311151515613b1057600080fd5b613bbe565b60018661ffff161415613baf5760048761ffff1610158015613b3c575060628761ffff1611155b1515613b4757600080fd5b600b60008a73ffffffffffffffffffffffffffffffffffffffff1673ffffffffffffffffffffffffffffffffffffffff1681526020019081526020016000208760630361ffff16606281101515613b9a57fe5b01548311151515613baa57600080fd5b613bbd565b60001515613bbc57600080fd5b5b5b600073ffffffffffffffffffffffffffffffffffffffff168973ffffffffffffffffffffffffffffffffffffffff161415613c6157600460009054906101000a900473ffffffffffffffffffffffffffffffffffffffff1673ffffffffffffffffffffffffffffffffffffffff166108fc849081150290604051600060405180830381858888f19350505050158015613c5b573d6000803e3d6000fd5b50613da1565b8873ffffffffffffffffffffffffffffffffffffffff166323b872dd33600460009054906101000a900473ffffffffffffffffffffffffffffffffffffffff16866040518463ffffffff167c0100000000000000000000000000000000000000000000000000000000028152600401808473ffffffffffffffffffffffffffffffffffffffff1673ffffffffffffffffffffffffffffffffffffffff1681526020018373ffffffffffffffffffffffffffffffffffffffff1673ffffffffffffffffffffffffffffffffffffffff1681526020018281526020019350505050602060405180830381600087803b158015613d5a57600080fd5b505af1158015613d6e573d6000803e3d6000fd5b505050506040513d6020811015613d8457600080fd5b81019080805190602001909291905050501515613da057600080fd5b5b600760009054906101000a900460ff1615613df457613df23386868080601f0160208091040260200160405190810160405280939291908181526020018383808284378201915050505050506146b0565b505b888160000160046101000a81548173ffffffffffffffffffffffffffffffffffffffff021916908373ffffffffffffffffffffffffffffffffffffffff16021790555060018160000160008282829054906101000a900463ffffffff160192506101000a81548163ffffffff021916908363ffffffff160217905550858160000160186101000a81548161ffff021916908361ffff1602179055508681600001601a6101000a81548161ffff021916908361ffff16021790555060ff81600001601c6101000a81548161ffff021916908361ffff1602179055508281600101819055503373ffffffffffffffffffffffffffffffffffffffff168160000160009054906101000a900463ffffffff1663ffffffff167fb87549425e4d1ee57d99ff589b5c97dec643cb426b639e00ed43fde4f24763558b8a8a88604051808573ffffffffffffffffffffffffffffffffffffffff1673ffffffffffffffffffffffffffffffffffffffff1681526020018461ffff1681526020018361ffff16815260200182815260200194505050505060405180910390a3505050505050505050565b6000806000915060009050600560009054906101000a900473ffffffffffffffffffffffffffffffffffffffff1673ffffffffffffffffffffffffffffffffffffffff166368c5c469600186866040518463ffffffff167c0100000000000000000000000000000000000000000000000000000000028152600401808481526020018373ffffffffffffffffffffffffffffffffffffffff1673ffffffffffffffffffffffffffffffffffffffff16815260200182815260200193505050506040805180830381600087803b15801561406f57600080fd5b505af1158015614083573d6000803e3d6000fd5b505050506040513d604081101561409957600080fd5b810190808051906020019092919080519060200190929190505050809250819350505060008211806140cb5750600081115b156141b657600460009054906101000a900473ffffffffffffffffffffffffffffffffffffffff1673ffffffffffffffffffffffffffffffffffffffff16632960ee308584846040518463ffffffff167c0100000000000000000000000000000000000000000000000000000000028152600401808473ffffffffffffffffffffffffffffffffffffffff1673ffffffffffffffffffffffffffffffffffffffff1681526020018381526020018281526020019350505050600060405180830381600087803b15801561419d57600080fd5b505af11580156141b1573d6000803e3d6000fd5b505050505b50505050565b60008060008086600001601a9054906101000a900461ffff169350614237600c60008960000160189054906101000a900461ffff1661ffff16146142035785606303614205565b855b61ffff1660628110151561421557fe5b0154612710896001015481151561422857fe5b0461496690919063ffffffff16565b9250614250838860010154614a3390919063ffffffff16565b9150600460009054906101000a900473ffffffffffffffffffffffffffffffffffffffff1673ffffffffffffffffffffffffffffffffffffffff16633be050398860000160049054906101000a900473ffffffffffffffffffffffffffffffffffffffff1688858b600101546040518563ffffffff167c0100000000000000000000000000000000000000000000000000000000028152600401808573ffffffffffffffffffffffffffffffffffffffff1673ffffffffffffffffffffffffffffffffffffffff1681526020018473ffffffffffffffffffffffffffffffffffffffff1673ffffffffffffffffffffffffffffffffffffffff168152602001838152602001828152602001945050505050602060405180830381600087803b15801561437b57600080fd5b505af115801561438f573d6000803e3d6000fd5b505050506040513d60208110156143a557600080fd5b810190808051906020019092919050505050600760009054906101000a900460ff16156145745760008573ffffffffffffffffffffffffffffffffffffffff16141515614573576127106144046006548561496690919063ffffffff16565b81151561440d57fe5b049050600460009054906101000a900473ffffffffffffffffffffffffffffffffffffffff1673ffffffffffffffffffffffffffffffffffffffff16633be050398860000160049054906101000a900473ffffffffffffffffffffffffffffffffffffffff16878460006040518563ffffffff167c0100000000000000000000000000000000000000000000000000000000028152600401808573ffffffffffffffffffffffffffffffffffffffff1673ffffffffffffffffffffffffffffffffffffffff1681526020018473ffffffffffffffffffffffffffffffffffffffff1673ffffffffffffffffffffffffffffffffffffffff168152602001838152602001828152602001945050505050602060405180830381600087803b15801561453657600080fd5b505af115801561454a573d6000803e3d6000fd5b505050506040513d602081101561456057600080fd5b8101908080519060200190929190505050505b5b8573ffffffffffffffffffffffffffffffffffffffff168760000160009054906101000a900463ffffffff1663ffffffff167fc5d2162f02280670683b824e6de417ac9f3dc922203e87fa172b9107d2b58e278960000160049054906101000a900473ffffffffffffffffffffffffffffffffffffffff16878b60000160189054906101000a900461ffff168c600101548d600001601c9054906101000a900461ffff1689604051808773ffffffffffffffffffffffffffffffffffffffff1673ffffffffffffffffffffffffffffffffffffffff1681526020018661ffff1667ffffffffffffffff1681526020018561ffff1667ffffffffffffffff1681526020018481526020018361ffff1667ffffffffffffffff168152602001828152602001965050505050505060405180910390a350505050505050565b6000600360009054906101000a900473ffffffffffffffffffffffffffffffffffffffff1673ffffffffffffffffffffffffffffffffffffffff1663b80e61f8836040518263ffffffff167c01000000000000000000000000000000000000000000000000000000000281526004018080602001828103825283818151815260200191508051906020019080838360005b8381101561475c578082015181840152602081019050614741565b50505050905090810190601f1680156147895780820380516001836020036101000a031916815260200191505b5092505050602060405180830381600087803b1580156147a857600080fd5b505af11580156147bc573d6000803e3d6000fd5b505050506040513d60208110156147d257600080fd5b810190808051906020019092919050505090508073ffffffffffffffffffffffffffffffffffffffff168373ffffffffffffffffffffffffffffffffffffffff161415151561482057600080fd5b600073ffffffffffffffffffffffffffffffffffffffff168173ffffffffffffffffffffffffffffffffffffffff1614151561496057600360009054906101000a900473ffffffffffffffffffffffffffffffffffffffff1673ffffffffffffffffffffffffffffffffffffffff1663bd275d8284836040518363ffffffff167c0100000000000000000000000000000000000000000000000000000000028152600401808373ffffffffffffffffffffffffffffffffffffffff1673ffffffffffffffffffffffffffffffffffffffff1681526020018273ffffffffffffffffffffffffffffffffffffffff1673ffffffffffffffffffffffffffffffffffffffff16815260200192505050600060405180830381600087803b15801561494757600080fd5b505af115801561495b573d6000803e3d6000fd5b505050505b92915050565b600080600084141561497b5760009150614a2c565b828402905082848281151561498c57fe5b04141515614a28576040517f08c379a00000000000000000000000000000000000000000000000000000000081526004018080602001828103825260218152602001807f536166654d6174683a206d756c7469706c69636174696f6e206f766572666c6f81526020017f770000000000000000000000000000000000000000000000000000000000000081525060400191505060405180910390fd5b8091505b5092915050565b6000808284019050838110151515614ab3576040517f08c379a000000000000000000000000000000000000000000000000000000000815260040180806020018281038252601b8152602001807f536166654d6174683a206164646974696f6e206f766572666c6f77000000000081525060200191505060405180910390fd5b8091505092915050565b610c4060405190810160405280606290602082028038833980820191505090505090565b8260628101928215614b10579160200282015b82811115614b0f578251825591602001919060010190614af4565b5b509050614b1d9190614b80565b5090565b60c060405190810160405280600063ffffffff168152602001600073ffffffffffffffffffffffffffffffffffffffff168152602001600061ffff168152602001600061ffff168152602001600061ffff168152602001600081525090565b614ba291905b80821115614b9e576000816000905550600101614b86565b5090565b905600a165627a7a72305820403276d645da5f35756f5532684610656f70dd874693fd11052ede0c7a760ccb0029",
  "source": "pragma solidity ^0.4.23;\n\nimport \"./BaseAdmin.sol\";\nimport \"./SafeMath.sol\";\n\ninterface IReferralship {\n    function getAddrByReferralCode(string   _code) external view returns(address);\n    function getReferralCodeByAddr(address  _addr) external view returns(string);\n    function getReferralShip(address _target) external view returns(address);\n    function setReferralShip(address _target, address _mentor) external;\n    function getCustomerSeed(address _target) external view returns(bytes32);\n}\n\ninterface IMoonPool {\n    function transferToWiner(address _tokenAddr,address _to, uint256 _amount, uint256 _originalAmount) external returns(bool);\n    function getPoolMoonBalance() external view returns(uint256);\n    function transferMoonWithDevRelease(address _to1, uint256 _amount1, uint256 _devReleaseAmount) external;\n}\n\ninterface IMoonDev {\n    function getMiningMoon(uint256 _gameId, address _miner, uint256 _trxAmount) external view returns(uint256 minerCnt, uint256 devCnt);\n}\n\ncontract MoonDice is BaseAdmin {\n    using SafeMath for uint256;\n\n    event DiceCreate(\n        uint256 indexed _orderId,\n        address indexed _bettor,\n        address _tokenAddr,\n        uint256 _number,\n        uint256 _direction,\n        uint256 _amount\n    );\n\n    event DiceResult(\n        uint256 indexed _orderId,\n        address indexed _bettor,\n        address _tokenAddr,\n        uint64  _number,\n        uint64  _direction,\n        uint256 _amount,\n        uint64  _roll,\n        uint256 _winAmount\n    );\n\n    event DiceRefund(\n        uint256 indexed _orderId,\n        address indexed _bettor,\n        address _tokenAddr,\n        uint64  _number,\n        uint64  _direction,\n        uint256 _amount\n    );\n\n    struct DiceOrder{\n        uint32  orderId;\n        address tokenAddr;\n        uint16  direction;\n        uint16  number;\n        uint16  roll;\n        uint256 tokenAmount;\n    }\n\n\n    address public oraclize;\n    IReferralship public referralship;\n    IMoonPool public moonPool;\n    IMoonDev public moonDev;\n\n    uint256 public mentorRate = 20;\n    bool public referralshipEnable=false;\n\n    mapping (address => bool) public addrOperatorMap;\n    mapping (address => bool) public supportTokenMap;\n\n    mapping (address=>uint160) public minOrderAmount;\n    mapping (address=> uint256[98]) public maxOrderAmountArrMap;\n\n    uint256[98] public winBonusArray;\n\n    uint256 public gameId=1;\n\n    mapping (address => DiceOrder) public betOrderMap;\n\n    constructor() public {\n        addrAdmin = msg.sender;\n        initWinBonus();\n    }\n\n    modifier whenNotPaused() {\n        require(!isPaused);\n        _;\n    }\n\n    function setGameId(uint256 _gameId)external onlyAdmin{\n        gameId=_gameId;\n    }\n\n    function enableReferralship()external onlyAdmin{\n        referralshipEnable=true;\n    }\n\n    function disableReferralship()external onlyAdmin{\n        referralshipEnable=false;\n    }\n\n    function setOraclizeAddr(address _addr) external onlyAdmin {\n        require(_addr != address(0));\n        oraclize = _addr;\n    }\n\n    function getOraclizeAddr() external view returns(address) {\n        return oraclize;\n    }\n\n    function setReferralshipAddr(address _addr) external onlyAdmin {\n        require(_addr != address(0));\n        referralship = IReferralship(_addr);\n    }\n\n    function getReferralshipAddr() external view returns(address) {\n        return address(referralship);\n    }\n\n    function setMoonPoolAddr(address _addr) external onlyAdmin {\n        require(_addr != address(0));\n        moonPool = IMoonPool(_addr);\n    }\n\n    function getMoonPoolAddr() external view returns(address) {\n        return address(moonPool);\n    }\n\n    function setMoonDevAddr(address _addr) external onlyAdmin {\n        require(_addr != address(0));\n        moonDev = IMoonDev(_addr);\n    }\n\n    function getMoonDevAddr() external view returns(address) {\n        return address(moonDev);\n    }\n\n    function setOperator(address _addr, bool _useful) external onlyAdmin {\n        require(_addr != address(0));\n        addrOperatorMap[_addr] = _useful;\n    }\n\n    function initOrderMaxAmount(address _addrToken, uint256[98] _maxOrderAmountArray) public onlyAdmin {\n        uint256[98] memory maxOrderAmountArray;\n        for (uint256 i = 1; i <= 96; ++i) {\n            maxOrderAmountArray[i] = _maxOrderAmountArray[i];\n        }\n        maxOrderAmountArrMap[_addrToken] = maxOrderAmountArray;\n    }\n\n\n    function initWinBonus() public onlyAdmin {\n        for (uint256 i = 1; i <= 96; ++i) {\n            winBonusArray[i] = 985000 / i - 10000;\n        }\n    }\n\n    function setMentorRate(uint256 _rate) external onlyAdmin {\n        require(_rate <= 100);\n        mentorRate = _rate;\n    }\n\n    function _trySetReferralCode(address _bettor, string _rcode)\n        private \n        returns(address mentor) \n    {\n        mentor = referralship.getAddrByReferralCode(_rcode);\n        require(_bettor != mentor);\n        if (mentor != address(0)) {\n            referralship.setReferralShip(_bettor, mentor);\n        }\n    }\n\n    /*\n       _tokenAddr = 0x00 BNB\n    */\n    function rollDice(address _tokenAddr, uint256 _tokenAmount, uint16 _number, uint16 _direction,string _rcode)\n    external\n    payable\n    whenNotPaused\n    {\n        uint256 tokenAmount=_tokenAmount;\n        if(_tokenAddr==address(0)){\n            tokenAmount= msg.value;\n        }\n        bool flag= supportTokenMap[_tokenAddr];\n        require(flag);\n        require(tokenAmount >= minOrderAmount[_tokenAddr]);\n        DiceOrder storage order = betOrderMap[msg.sender];\n        if (order.orderId > 0) {\n            require(order.roll < 255);\n        }\n        if (_direction == 0) {\n            require(_number >= 1 && _number <= 95);\n            require(tokenAmount <= maxOrderAmountArrMap[_tokenAddr][_number]);\n        } else if(_direction == 1) {\n            require(_number >= 4 && _number <= 98);\n            require(tokenAmount <= maxOrderAmountArrMap[_tokenAddr][99 - _number]);\n        } else {\n            require(false);\n        }\n        if(_tokenAddr==address(0)){\n            address(moonPool).transfer(tokenAmount);\n        }else{\n            require(IBEP20(_tokenAddr).transferFrom(msg.sender, address(moonPool), tokenAmount));\n        }\n        if(referralshipEnable){\n            _trySetReferralCode(msg.sender, _rcode);\n        }\n        order.tokenAddr= _tokenAddr;\n        order.orderId += 1;\n        order.direction = _direction;\n        order.number = _number;\n        order.roll = 255;\n        order.tokenAmount = tokenAmount;\n        emit DiceCreate(order.orderId, msg.sender, _tokenAddr, _number, _direction, tokenAmount);\n    }\n\n    function __callback(address _bettor, uint256 _seed) external {\n        require(msg.sender == oraclize);\n        DiceOrder storage order = betOrderMap[_bettor];\n        bool isWin;\n        uint16 roll = uint16(uint256(keccak256(abi.encodePacked(referralship.getCustomerSeed(_bettor), _seed))) % 100);\n        order.roll = roll;\n        if (order.direction == 0) {\n            isWin = roll < order.number;\n        } else {\n            isWin = roll > order.number;\n        }\n        if(order.tokenAddr==address(0)){\n            _miningMoon(_bettor,order.tokenAmount);\n        }\n        address mentor = referralship.getReferralShip(_bettor);\n        if (isWin) {\n            _sendWin(order, _bettor,mentor);\n        } else {\n            emit DiceResult(order.orderId, _bettor, order.tokenAddr, order.number, order.direction, order.tokenAmount, roll, 0);\n        }\n    }\n\n    function _sendWin(DiceOrder storage _order, address _bettor,address mentor)\n    internal\n    {\n        uint16 number = _order.number;\n        uint256 winBonus = (_order.tokenAmount / 10000).mul(winBonusArray[_order.direction == 0 ? number : 99 - number]);\n        uint256 totalWin = _order.tokenAmount.add(winBonus);\n        moonPool.transferToWiner(_order.tokenAddr,_bettor,totalWin,_order.tokenAmount);\n        if(referralshipEnable){\n            if (mentor != 0) {\n                uint256 mentorFee = winBonus.mul(mentorRate) / 10000;\n                moonPool.transferToWiner(_order.tokenAddr,mentor,mentorFee,0);\n            }\n        }\n        emit DiceResult(_order.orderId, _bettor,_order.tokenAddr, number, _order.direction, _order.tokenAmount, _order.roll, totalWin);\n    }\n\n    function _miningMoon(address _bettor, uint256 _amount) private {\n        uint256 mineCnt = 0;\n        uint256 devCnt = 0;\n        (mineCnt, devCnt) = moonDev.getMiningMoon(1, _bettor, _amount);\n        if (mineCnt > 0 || devCnt > 0) {\n            moonPool.transferMoonWithDevRelease(_bettor, mineCnt, devCnt);\n        }\n    }\n\n    function getOrder(address _owner)\n    external\n    view\n    returns(\n        address bettor,\n        uint256 tokenAmount,\n        uint32  orderId,\n        uint16  direction,\n        uint16  number,\n        uint16  roll,\n        address addrToken\n    )\n    {\n        DiceOrder memory order = betOrderMap[_owner];\n        orderId = order.orderId;\n        bettor = _owner;\n        if (orderId > 0) {\n            tokenAmount = order.tokenAmount;\n            direction = order.direction;\n            number = order.number;\n            roll = order.roll;\n            addrToken = order.tokenAddr;\n        } else {\n            tokenAmount = 0;\n            direction = 0;\n            number = 0;\n            addrToken = address(0);\n            roll = 255;\n        }\n    }\n\n    function getOrderByIdArray(address[] _ownerArray)\n    external\n    view\n    returns(\n        address[] bettorArray,\n        uint256[] tokenAmountArray,\n        uint32[]  orderIdArray,\n        uint16[]  directionArray,\n        uint16[]  numberArray,\n        uint16[]  rollArray,\n        address[] addrTokenArray\n    )\n    {\n        uint256 length = _ownerArray.length;\n        require(length > 0);\n        bettorArray = new address[](length);\n        tokenAmountArray = new uint256[](length);\n        orderIdArray = new uint32[](length);\n        directionArray = new uint16[](length);\n        numberArray = new uint16[](length);\n        rollArray = new uint16[](length);\n        addrTokenArray = new address[](length);\n\n        DiceOrder memory order;\n        address owner;\n        for (uint256 i = 0; i < length; ++i) {\n            owner = _ownerArray[i];\n            bettorArray[i] = owner;\n\n            order = betOrderMap[owner];\n            if (order.orderId > 0) {\n                tokenAmountArray[i] = order.tokenAmount;\n                orderIdArray[i] = order.orderId;\n                directionArray[i] = order.direction;\n                numberArray[i] = order.number;\n                rollArray[i] = order.roll;\n                addrTokenArray[i] = order.tokenAddr;\n            } else {\n                tokenAmountArray[i] = 0;\n                orderIdArray[i] = 0;\n                directionArray[i] = 0;\n                numberArray[i] = 0;\n                rollArray[i] = 255;\n            }\n        }\n    }\n\n\n    function withdrawBnb(uint256 _amount)\n        external \n    {\n        require(msg.sender == addrAdmin);\n        require(_amount > 0 && _amount <= address(this).balance);\n        addrAdmin.transfer(_amount);    \n    }\n\n    function setMinOrderAmount(address _addrToken,uint160 _amount)external returns(bool){\n        require(msg.sender == addrAdmin);\n        minOrderAmount[_addrToken]=_amount;\n        return true;\n    }\n\n    function getMinOrderAmount(address _addrToken)public view returns(uint160){\n        return minOrderAmount[_addrToken];\n    }\n\n    function enableToken(address _tokenAddr)external returns(bool){\n        require(msg.sender == addrAdmin);\n        supportTokenMap[_tokenAddr] = true;\n        return true;\n    }\n\n    function disableToken(address _tokenAddr) external returns(bool){\n        require(msg.sender == addrAdmin);\n        supportTokenMap[_tokenAddr] = false;\n        return true;\n    }\n\n    function getMaxOrderAmount(address _tokenAddr,uint16 _number) public view returns(uint256){\n        return maxOrderAmountArrMap[_tokenAddr][_number];\n    }\n\n    function initToken(address _tokenAddr, uint160 _minAmount,uint256[98] _maxOrderAmountArray) external onlyAdmin {\n        supportTokenMap[_tokenAddr] = true;\n        minOrderAmount[_tokenAddr] = _minAmount;\n        initOrderMaxAmount(_tokenAddr,_maxOrderAmountArray);\n    }\n}\n\n",
  "sourcePath": "/Users/gordon/bian/dapp/dice/contracts/MoonDice.sol",
  "compiler": {
    "name": "solc",
    "version": "0.4.25+commit.59dbf8f1.Emscripten.clang"
  },
  "schemaVersion": "3.2.0",
  "updatedAt": "2020-09-22T07:39:08.948Z",
  "networkType": "ethereum",
  "devdoc": {
    "methods": {}
  },
  "userdoc": {
    "methods": {}
  }
}