{
  "contractName": "MoonPool",
  "abi": [
    {
      "constant": true,
      "inputs": [
        {
          "name": "",
          "type": "address"
        }
      ],
      "name": "safeBetContracts",
      "outputs": [
        {
          "name": "",
          "type": "bool"
        }
      ],
      "payable": false,
      "stateMutability": "view",
      "type": "function"
    },
    {
      "constant": true,
      "inputs": [],
      "name": "operator",
      "outputs": [
        {
          "name": "",
          "type": "address"
        }
      ],
      "payable": false,
      "stateMutability": "view",
      "type": "function"
    },
    {
      "constant": false,
      "inputs": [
        {
          "name": "_newAdmin",
          "type": "address"
        }
      ],
      "name": "setAdmin",
      "outputs": [],
      "payable": false,
      "stateMutability": "nonpayable",
      "type": "function"
    },
    {
      "constant": true,
      "inputs": [
        {
          "name": "",
          "type": "address"
        }
      ],
      "name": "tokenOriginalAmountMap",
      "outputs": [
        {
          "name": "",
          "type": "uint256"
        }
      ],
      "payable": false,
      "stateMutability": "view",
      "type": "function"
    },
    {
      "constant": true,
      "inputs": [],
      "name": "safeWaterLevel",
      "outputs": [
        {
          "name": "",
          "type": "uint256"
        }
      ],
      "payable": false,
      "stateMutability": "view",
      "type": "function"
    },
    {
      "constant": true,
      "inputs": [],
      "name": "addrFinance",
      "outputs": [
        {
          "name": "",
          "type": "address"
        }
      ],
      "payable": false,
      "stateMutability": "view",
      "type": "function"
    },
    {
      "constant": true,
      "inputs": [],
      "name": "moonTotalCache",
      "outputs": [
        {
          "name": "",
          "type": "uint256"
        }
      ],
      "payable": false,
      "stateMutability": "view",
      "type": "function"
    },
    {
      "constant": true,
      "inputs": [],
      "name": "isPaused",
      "outputs": [
        {
          "name": "",
          "type": "bool"
        }
      ],
      "payable": false,
      "stateMutability": "view",
      "type": "function"
    },
    {
      "constant": true,
      "inputs": [
        {
          "name": "",
          "type": "address"
        }
      ],
      "name": "playerMoonCache",
      "outputs": [
        {
          "name": "",
          "type": "uint256"
        }
      ],
      "payable": false,
      "stateMutability": "view",
      "type": "function"
    },
    {
      "constant": false,
      "inputs": [
        {
          "name": "_pause",
          "type": "bool"
        }
      ],
      "name": "setPause",
      "outputs": [],
      "payable": false,
      "stateMutability": "nonpayable",
      "type": "function"
    },
    {
      "constant": true,
      "inputs": [],
      "name": "addrAdmin",
      "outputs": [
        {
          "name": "",
          "type": "address"
        }
      ],
      "payable": false,
      "stateMutability": "view",
      "type": "function"
    },
    {
      "constant": true,
      "inputs": [],
      "name": "addrTokenDev",
      "outputs": [
        {
          "name": "",
          "type": "address"
        }
      ],
      "payable": false,
      "stateMutability": "view",
      "type": "function"
    },
    {
      "constant": true,
      "inputs": [],
      "name": "addrOperator",
      "outputs": [
        {
          "name": "",
          "type": "address"
        }
      ],
      "payable": false,
      "stateMutability": "view",
      "type": "function"
    },
    {
      "constant": true,
      "inputs": [],
      "name": "addrDivider",
      "outputs": [
        {
          "name": "",
          "type": "address"
        }
      ],
      "payable": false,
      "stateMutability": "view",
      "type": "function"
    },
    {
      "constant": true,
      "inputs": [],
      "name": "addrBurner",
      "outputs": [
        {
          "name": "",
          "type": "address"
        }
      ],
      "payable": false,
      "stateMutability": "view",
      "type": "function"
    },
    {
      "constant": true,
      "inputs": [],
      "name": "moonDevCache",
      "outputs": [
        {
          "name": "",
          "type": "uint256"
        }
      ],
      "payable": false,
      "stateMutability": "view",
      "type": "function"
    },
    {
      "inputs": [],
      "payable": false,
      "stateMutability": "nonpayable",
      "type": "constructor"
    },
    {
      "payable": true,
      "stateMutability": "payable",
      "type": "fallback"
    },
    {
      "anonymous": false,
      "inputs": [
        {
          "indexed": true,
          "name": "_from",
          "type": "address"
        },
        {
          "indexed": true,
          "name": "_addrToken",
          "type": "address"
        },
        {
          "indexed": false,
          "name": "_value",
          "type": "uint256"
        }
      ],
      "name": "TokenBurn",
      "type": "event"
    },
    {
      "anonymous": false,
      "inputs": [
        {
          "indexed": true,
          "name": "flag",
          "type": "uint256"
        },
        {
          "indexed": false,
          "name": "addrToken",
          "type": "address"
        },
        {
          "indexed": false,
          "name": "tokenValue",
          "type": "uint256"
        }
      ],
      "name": "TokenDivide20",
      "type": "event"
    },
    {
      "constant": false,
      "inputs": [
        {
          "name": "_newFinance",
          "type": "address"
        }
      ],
      "name": "setFinance",
      "outputs": [],
      "payable": false,
      "stateMutability": "nonpayable",
      "type": "function"
    },
    {
      "constant": false,
      "inputs": [
        {
          "name": "_newBurner",
          "type": "address"
        }
      ],
      "name": "setBurner",
      "outputs": [],
      "payable": false,
      "stateMutability": "nonpayable",
      "type": "function"
    },
    {
      "constant": false,
      "inputs": [
        {
          "name": "_newOperator",
          "type": "address"
        }
      ],
      "name": "setOperator",
      "outputs": [],
      "payable": false,
      "stateMutability": "nonpayable",
      "type": "function"
    },
    {
      "constant": false,
      "inputs": [
        {
          "name": "_actionAddr",
          "type": "address"
        },
        {
          "name": "_useful",
          "type": "bool"
        }
      ],
      "name": "setSafeContract",
      "outputs": [],
      "payable": false,
      "stateMutability": "nonpayable",
      "type": "function"
    },
    {
      "constant": true,
      "inputs": [
        {
          "name": "_actionAddr",
          "type": "address"
        }
      ],
      "name": "getSafeContract",
      "outputs": [
        {
          "name": "",
          "type": "bool"
        }
      ],
      "payable": false,
      "stateMutability": "view",
      "type": "function"
    },
    {
      "constant": false,
      "inputs": [
        {
          "name": "_addr",
          "type": "address"
        }
      ],
      "name": "setTokenDevAddr",
      "outputs": [],
      "payable": false,
      "stateMutability": "nonpayable",
      "type": "function"
    },
    {
      "constant": false,
      "inputs": [
        {
          "name": "_addr",
          "type": "address"
        }
      ],
      "name": "setMoonTokenAddr",
      "outputs": [],
      "payable": false,
      "stateMutability": "nonpayable",
      "type": "function"
    },
    {
      "constant": true,
      "inputs": [],
      "name": "getMoonTokenAddr",
      "outputs": [
        {
          "name": "",
          "type": "address"
        }
      ],
      "payable": false,
      "stateMutability": "view",
      "type": "function"
    },
    {
      "constant": true,
      "inputs": [],
      "name": "getTokenDevAddr",
      "outputs": [
        {
          "name": "",
          "type": "address"
        }
      ],
      "payable": false,
      "stateMutability": "view",
      "type": "function"
    },
    {
      "constant": false,
      "inputs": [
        {
          "name": "_newLevel",
          "type": "uint256"
        }
      ],
      "name": "setSafeWaterLevel",
      "outputs": [],
      "payable": false,
      "stateMutability": "nonpayable",
      "type": "function"
    },
    {
      "constant": false,
      "inputs": [
        {
          "name": "_tokenAddr",
          "type": "address"
        },
        {
          "name": "_amount",
          "type": "uint256"
        }
      ],
      "name": "setTokenOriginalAmount",
      "outputs": [],
      "payable": false,
      "stateMutability": "nonpayable",
      "type": "function"
    },
    {
      "constant": false,
      "inputs": [
        {
          "name": "_to",
          "type": "address"
        },
        {
          "name": "_amount",
          "type": "uint256"
        },
        {
          "name": "_originalAmount",
          "type": "uint256"
        }
      ],
      "name": "transferBnb",
      "outputs": [
        {
          "name": "",
          "type": "bool"
        }
      ],
      "payable": false,
      "stateMutability": "nonpayable",
      "type": "function"
    },
    {
      "constant": false,
      "inputs": [
        {
          "name": "_tokenAddr",
          "type": "address"
        },
        {
          "name": "_to",
          "type": "address"
        },
        {
          "name": "_amount",
          "type": "uint256"
        },
        {
          "name": "_original",
          "type": "uint256"
        }
      ],
      "name": "transferToWiner",
      "outputs": [
        {
          "name": "",
          "type": "bool"
        }
      ],
      "payable": false,
      "stateMutability": "nonpayable",
      "type": "function"
    },
    {
      "constant": true,
      "inputs": [],
      "name": "getPoolMoonBalance",
      "outputs": [
        {
          "name": "",
          "type": "uint256"
        }
      ],
      "payable": false,
      "stateMutability": "view",
      "type": "function"
    },
    {
      "constant": true,
      "inputs": [],
      "name": "getDevCacheBalance",
      "outputs": [
        {
          "name": "",
          "type": "uint256"
        }
      ],
      "payable": false,
      "stateMutability": "view",
      "type": "function"
    },
    {
      "constant": true,
      "inputs": [],
      "name": "getTotalCacheBalance",
      "outputs": [
        {
          "name": "",
          "type": "uint256"
        }
      ],
      "payable": false,
      "stateMutability": "view",
      "type": "function"
    },
    {
      "constant": false,
      "inputs": [
        {
          "name": "_to",
          "type": "address"
        },
        {
          "name": "_amount",
          "type": "uint256"
        }
      ],
      "name": "transferMoon",
      "outputs": [],
      "payable": false,
      "stateMutability": "nonpayable",
      "type": "function"
    },
    {
      "constant": false,
      "inputs": [
        {
          "name": "_to1",
          "type": "address"
        },
        {
          "name": "_amount1",
          "type": "uint256"
        },
        {
          "name": "_devReleaseAmount",
          "type": "uint256"
        }
      ],
      "name": "transferMoonWithDevRelease",
      "outputs": [],
      "payable": false,
      "stateMutability": "nonpayable",
      "type": "function"
    },
    {
      "constant": false,
      "inputs": [],
      "name": "releaseDevMoon",
      "outputs": [],
      "payable": false,
      "stateMutability": "nonpayable",
      "type": "function"
    },
    {
      "constant": false,
      "inputs": [
        {
          "name": "_owner",
          "type": "address"
        }
      ],
      "name": "releaseMoon",
      "outputs": [],
      "payable": false,
      "stateMutability": "nonpayable",
      "type": "function"
    },
    {
      "constant": false,
      "inputs": [],
      "name": "releaseMoonSelf",
      "outputs": [],
      "payable": false,
      "stateMutability": "nonpayable",
      "type": "function"
    },
    {
      "constant": false,
      "inputs": [
        {
          "name": "_amount",
          "type": "uint256"
        }
      ],
      "name": "withdrawProfit",
      "outputs": [],
      "payable": false,
      "stateMutability": "nonpayable",
      "type": "function"
    },
    {
      "constant": false,
      "inputs": [
        {
          "name": "_amount",
          "type": "uint256"
        }
      ],
      "name": "withdrawMoon",
      "outputs": [],
      "payable": false,
      "stateMutability": "nonpayable",
      "type": "function"
    },
    {
      "constant": true,
      "inputs": [],
      "name": "getRole",
      "outputs": [
        {
          "name": "finance",
          "type": "address"
        },
        {
          "name": "burner",
          "type": "address"
        },
        {
          "name": "operator",
          "type": "address"
        },
        {
          "name": "divider",
          "type": "address"
        }
      ],
      "payable": false,
      "stateMutability": "view",
      "type": "function"
    },
    {
      "constant": false,
      "inputs": [
        {
          "name": "_tokenAddr",
          "type": "address"
        },
        {
          "name": "_to",
          "type": "address"
        },
        {
          "name": "_amount",
          "type": "uint256"
        },
        {
          "name": "_original",
          "type": "uint256"
        }
      ],
      "name": "transferToken",
      "outputs": [],
      "payable": false,
      "stateMutability": "nonpayable",
      "type": "function"
    },
    {
      "constant": false,
      "inputs": [
        {
          "name": "_addrToken",
          "type": "address"
        }
      ],
      "name": "burnToken",
      "outputs": [
        {
          "name": "",
          "type": "uint256"
        }
      ],
      "payable": false,
      "stateMutability": "nonpayable",
      "type": "function"
    },
    {
      "constant": false,
      "inputs": [
        {
          "name": "_addrToken",
          "type": "address"
        },
        {
          "name": "_flag",
          "type": "uint256"
        }
      ],
      "name": "transferDivide",
      "outputs": [],
      "payable": false,
      "stateMutability": "nonpayable",
      "type": "function"
    },
    {
      "constant": false,
      "inputs": [
        {
          "name": "_addrToken",
          "type": "address"
        },
        {
          "name": "_amount",
          "type": "uint256"
        }
      ],
      "name": "withdrawToken",
      "outputs": [],
      "payable": false,
      "stateMutability": "nonpayable",
      "type": "function"
    }
  ],
  "bytecode": "0x60806040526101f460085534801561001657600080fd5b5060008060006101000a81548160ff02191690831515021790555033600060016101000a81548173ffffffffffffffffffffffffffffffffffffffff021916908373ffffffffffffffffffffffffffffffffffffffff16021790555033600060016101000a81548173ffffffffffffffffffffffffffffffffffffffff021916908373ffffffffffffffffffffffffffffffffffffffff16021790555033600260006101000a81548173ffffffffffffffffffffffffffffffffffffffff021916908373ffffffffffffffffffffffffffffffffffffffff16021790555033600360006101000a81548173ffffffffffffffffffffffffffffffffffffffff021916908373ffffffffffffffffffffffffffffffffffffffff16021790555033600460006101000a81548173ffffffffffffffffffffffffffffffffffffffff021916908373ffffffffffffffffffffffffffffffffffffffff16021790555033600560006101000a81548173ffffffffffffffffffffffffffffffffffffffff021916908373ffffffffffffffffffffffffffffffffffffffff16021790555061427f806101c66000396000f30060806040526004361061021a576000357c0100000000000000000000000000000000000000000000000000000000900463ffffffff1680630304e2151461021c578063036ebef91461026957806307d940a3146102e05780630a782e08146103235780631ebd64f41461034e5780632960ee301461037b57806338d9538e146103d25780633be050391461042957806343fee7ab146104b8578063441deede14610513578063570ca7351461056e5780635d92fcce146105c5578063704b6c0214610608578063709ddbbd1461064b5780637665af0b146106a257806382cb9df9146106cd57806387612ccd14610724578063901072971461073b578063950dad19146107aa5780639a411183146108015780639b8d30641461082c5780639c3908591461086f5780639e281a9814610886578063a4187d55146108d3578063a996d6ce146108fe578063b187bd2614610941578063b3ab15fb14610970578063b5234330146109b3578063bedb86fb14610a0a578063bfae2f0e14610a39578063c029844814610a90578063c1cbc36314610abb578063cce0244d14610b12578063cf51096b14610b61578063d19d3de514610bb8578063d82a2bea14610be5578063de6eabdb14610c12578063e592b29c14610c5f578063eedb5bcd14610ca2578063f485e41014610cf9578063f7bd226214610d50578063f9279c7514610d7b578063fa9b95ef14610dd2578063fde0817414610e1f575b005b34801561022857600080fd5b50610267600480360381019080803573ffffffffffffffffffffffffffffffffffffffff16906020019092919080359060200190929190505050610f0f565b005b34801561027557600080fd5b506102de600480360381019080803573ffffffffffffffffffffffffffffffffffffffff169060200190929190803573ffffffffffffffffffffffffffffffffffffffff1690602001909291908035906020019092919080359060200190929190505050611064565b005b3480156102ec57600080fd5b50610321600480360381019080803573ffffffffffffffffffffffffffffffffffffffff1690602001909291905050506112ba565b005b34801561032f57600080fd5b506103386113ff565b6040518082815260200191505060405180910390f35b34801561035a57600080fd5b5061037960048036038101908080359060200190929190505050611409565b005b34801561038757600080fd5b506103d0600480360381019080803573ffffffffffffffffffffffffffffffffffffffff1690602001909291908035906020019092919080359060200190929190505050611708565b005b3480156103de57600080fd5b506103e76119d0565b604051808273ffffffffffffffffffffffffffffffffffffffff1673ffffffffffffffffffffffffffffffffffffffff16815260200191505060405180910390f35b34801561043557600080fd5b5061049e600480360381019080803573ffffffffffffffffffffffffffffffffffffffff169060200190929190803573ffffffffffffffffffffffffffffffffffffffff16906020019092919080359060200190929190803590602001909291905050506119fa565b604051808215151515815260200191505060405180910390f35b3480156104c457600080fd5b506104f9600480360381019080803573ffffffffffffffffffffffffffffffffffffffff169060200190929190505050611d23565b604051808215151515815260200191505060405180910390f35b34801561051f57600080fd5b50610554600480360381019080803573ffffffffffffffffffffffffffffffffffffffff169060200190929190505050611d43565b604051808215151515815260200191505060405180910390f35b34801561057a57600080fd5b50610583611d99565b604051808273ffffffffffffffffffffffffffffffffffffffff1673ffffffffffffffffffffffffffffffffffffffff16815260200191505060405180910390f35b3480156105d157600080fd5b50610606600480360381019080803573ffffffffffffffffffffffffffffffffffffffff169060200190929190505050611dbf565b005b34801561061457600080fd5b50610649600480360381019080803573ffffffffffffffffffffffffffffffffffffffff169060200190929190505050611f04565b005b34801561065757600080fd5b5061068c600480360381019080803573ffffffffffffffffffffffffffffffffffffffff1690602001909291905050506120b2565b6040518082815260200191505060405180910390f35b3480156106ae57600080fd5b506106b76120ca565b6040518082815260200191505060405180910390f35b3480156106d957600080fd5b506106e26120d0565b604051808273ffffffffffffffffffffffffffffffffffffffff1673ffffffffffffffffffffffffffffffffffffffff16815260200191505060405180910390f35b34801561073057600080fd5b506107396120f6565b005b34801561074757600080fd5b50610790600480360381019080803573ffffffffffffffffffffffffffffffffffffffff16906020019092919080359060200190929190803590602001909291905050506122c4565b604051808215151515815260200191505060405180910390f35b3480156107b657600080fd5b506107eb600480360381019080803573ffffffffffffffffffffffffffffffffffffffff1690602001909291905050506123c4565b6040518082815260200191505060405180910390f35b34801561080d57600080fd5b506108166126e9565b6040518082815260200191505060405180910390f35b34801561083857600080fd5b5061086d600480360381019080803573ffffffffffffffffffffffffffffffffffffffff1690602001909291905050506126ef565b005b34801561087b57600080fd5b506108846127cb565b005b34801561089257600080fd5b506108d1600480360381019080803573ffffffffffffffffffffffffffffffffffffffff16906020019092919080359060200190929190505050612a27565b005b3480156108df57600080fd5b506108e8612cbe565b6040518082815260200191505060405180910390f35b34801561090a57600080fd5b5061093f600480360381019080803573ffffffffffffffffffffffffffffffffffffffff169060200190929190505050612ddb565b005b34801561094d57600080fd5b50610956612f20565b604051808215151515815260200191505060405180910390f35b34801561097c57600080fd5b506109b1600480360381019080803573ffffffffffffffffffffffffffffffffffffffff169060200190929190505050612f32565b005b3480156109bf57600080fd5b506109f4600480360381019080803573ffffffffffffffffffffffffffffffffffffffff169060200190929190505050613066565b6040518082815260200191505060405180910390f35b348015610a1657600080fd5b50610a3760048036038101908080351515906020019092919050505061307e565b005b348015610a4557600080fd5b50610a4e61315f565b604051808273ffffffffffffffffffffffffffffffffffffffff1673ffffffffffffffffffffffffffffffffffffffff16815260200191505060405180910390f35b348015610a9c57600080fd5b50610aa5613185565b6040518082815260200191505060405180910390f35b348015610ac757600080fd5b50610ad061318f565b604051808273ffffffffffffffffffffffffffffffffffffffff1673ffffffffffffffffffffffffffffffffffffffff16815260200191505060405180910390f35b348015610b1e57600080fd5b50610b5f600480360381019080803573ffffffffffffffffffffffffffffffffffffffff1690602001909291908035151590602001909291905050506131b5565b005b348015610b6d57600080fd5b50610b766132d5565b604051808273ffffffffffffffffffffffffffffffffffffffff1673ffffffffffffffffffffffffffffffffffffffff16815260200191505060405180910390f35b348015610bc457600080fd5b50610be3600480360381019080803590602001909291905050506132fb565b005b348015610bf157600080fd5b50610c10600480360381019080803590602001909291905050506133d6565b005b348015610c1e57600080fd5b50610c5d600480360381019080803573ffffffffffffffffffffffffffffffffffffffff16906020019092919080359060200190929190505050613528565b005b348015610c6b57600080fd5b50610ca0600480360381019080803573ffffffffffffffffffffffffffffffffffffffff1690602001909291905050506137cf565b005b348015610cae57600080fd5b50610cb7613ae2565b604051808273ffffffffffffffffffffffffffffffffffffffff1673ffffffffffffffffffffffffffffffffffffffff16815260200191505060405180910390f35b348015610d0557600080fd5b50610d0e613b08565b604051808273ffffffffffffffffffffffffffffffffffffffff1673ffffffffffffffffffffffffffffffffffffffff16815260200191505060405180910390f35b348015610d5c57600080fd5b50610d65613b2e565b6040518082815260200191505060405180910390f35b348015610d8757600080fd5b50610d90613b34565b604051808273ffffffffffffffffffffffffffffffffffffffff1673ffffffffffffffffffffffffffffffffffffffff16815260200191505060405180910390f35b348015610dde57600080fd5b50610e1d600480360381019080803573ffffffffffffffffffffffffffffffffffffffff16906020019092919080359060200190929190505050613b5e565b005b348015610e2b57600080fd5b50610e34613f51565b604051808573ffffffffffffffffffffffffffffffffffffffff1673ffffffffffffffffffffffffffffffffffffffff1681526020018473ffffffffffffffffffffffffffffffffffffffff1673ffffffffffffffffffffffffffffffffffffffff1681526020018373ffffffffffffffffffffffffffffffffffffffff1673ffffffffffffffffffffffffffffffffffffffff1681526020018273ffffffffffffffffffffffffffffffffffffffff1673ffffffffffffffffffffffffffffffffffffffff16815260200194505050505060405180910390f35b600060019054906101000a900473ffffffffffffffffffffffffffffffffffffffff1673ffffffffffffffffffffffffffffffffffffffff163373ffffffffffffffffffffffffffffffffffffffff16141515610fd4576040517f08c379a00000000000000000000000000000000000000000000000000000000081526004018080602001828103825260098152602001807f6e6f742061646d696e000000000000000000000000000000000000000000000081525060200191505060405180910390fd5b600073ffffffffffffffffffffffffffffffffffffffff168273ffffffffffffffffffffffffffffffffffffffff16141580156110115750600081115b151561101c57600080fd5b80600d60008473ffffffffffffffffffffffffffffffffffffffff1673ffffffffffffffffffffffffffffffffffffffff168152602001908152602001600020819055505050565b6000806000809054906101000a900460ff1615151561108257600080fd5b600b60003373ffffffffffffffffffffffffffffffffffffffff1673ffffffffffffffffffffffffffffffffffffffff16815260200190815260200160002060009054906101000a900460ff1615156110da57600080fd5b8591508173ffffffffffffffffffffffffffffffffffffffff166370a08231306040518263ffffffff167c0100000000000000000000000000000000000000000000000000000000028152600401808273ffffffffffffffffffffffffffffffffffffffff1673ffffffffffffffffffffffffffffffffffffffff168152602001915050602060405180830381600087803b15801561117857600080fd5b505af115801561118c573d6000803e3d6000fd5b505050506040513d60208110156111a257600080fd5b810190808051906020019092919050505090506111d7600854612710838115156111c857fe5b04613ff190919063ffffffff16565b6111ea84866140be90919063ffffffff16565b111515156111f757600080fd5b8173ffffffffffffffffffffffffffffffffffffffff1663a9059cbb86866040518363ffffffff167c0100000000000000000000000000000000000000000000000000000000028152600401808373ffffffffffffffffffffffffffffffffffffffff1673ffffffffffffffffffffffffffffffffffffffff16815260200182815260200192505050600060405180830381600087803b15801561129a57600080fd5b505af11580156112ae573d6000803e3d6000fd5b50505050505050505050565b600060019054906101000a900473ffffffffffffffffffffffffffffffffffffffff1673ffffffffffffffffffffffffffffffffffffffff163373ffffffffffffffffffffffffffffffffffffffff1614151561137f576040517f08c379a00000000000000000000000000000000000000000000000000000000081526004018080602001828103825260098152602001807f6e6f742061646d696e000000000000000000000000000000000000000000000081525060200191505060405180910390fd5b600073ffffffffffffffffffffffffffffffffffffffff168173ffffffffffffffffffffffffffffffffffffffff16141515156113bb57600080fd5b80600460006101000a81548173ffffffffffffffffffffffffffffffffffffffff021916908373ffffffffffffffffffffffffffffffffffffffff16021790555050565b6000600a54905090565b600080600260009054906101000a900473ffffffffffffffffffffffffffffffffffffffff1673ffffffffffffffffffffffffffffffffffffffff163373ffffffffffffffffffffffffffffffffffffffff1614806114b55750600060019054906101000a900473ffffffffffffffffffffffffffffffffffffffff1673ffffffffffffffffffffffffffffffffffffffff163373ffffffffffffffffffffffffffffffffffffffff16145b15156114c057600080fd5b600760009054906101000a900473ffffffffffffffffffffffffffffffffffffffff1673ffffffffffffffffffffffffffffffffffffffff166370a08231306040518263ffffffff167c0100000000000000000000000000000000000000000000000000000000028152600401808273ffffffffffffffffffffffffffffffffffffffff1673ffffffffffffffffffffffffffffffffffffffff168152602001915050602060405180830381600087803b15801561157d57600080fd5b505af1158015611591573d6000803e3d6000fd5b505050506040513d60208110156115a757600080fd5b810190808051906020019092919050505091506115cf600954836140be90919063ffffffff16565b90508281101515156115e057600080fd5b600760009054906101000a900473ffffffffffffffffffffffffffffffffffffffff1673ffffffffffffffffffffffffffffffffffffffff1663a9059cbb600260009054906101000a900473ffffffffffffffffffffffffffffffffffffffff16856040518363ffffffff167c0100000000000000000000000000000000000000000000000000000000028152600401808373ffffffffffffffffffffffffffffffffffffffff1673ffffffffffffffffffffffffffffffffffffffff16815260200182815260200192505050602060405180830381600087803b1580156116c757600080fd5b505af11580156116db573d6000803e3d6000fd5b505050506040513d60208110156116f157600080fd5b810190808051906020019092919050505050505050565b6000806000806000809054906101000a900460ff1615151561172957600080fd5b600b60003373ffffffffffffffffffffffffffffffffffffffff1673ffffffffffffffffffffffffffffffffffffffff16815260200190815260200160002060009054906101000a900460ff1680156117af5750600073ffffffffffffffffffffffffffffffffffffffff168773ffffffffffffffffffffffffffffffffffffffff1614155b15156117ba57600080fd5b600760009054906101000a900473ffffffffffffffffffffffffffffffffffffffff1673ffffffffffffffffffffffffffffffffffffffff166370a08231306040518263ffffffff167c0100000000000000000000000000000000000000000000000000000000028152600401808273ffffffffffffffffffffffffffffffffffffffff1673ffffffffffffffffffffffffffffffffffffffff168152602001915050602060405180830381600087803b15801561187757600080fd5b505af115801561188b573d6000803e3d6000fd5b505050506040513d60208110156118a157600080fd5b810190808051906020019092919050505093506118c9600954856140be90919063ffffffff16565b92506118de858761410890919063ffffffff16565b91508183101515156118ef57600080fd5b600086111561199157600c60008873ffffffffffffffffffffffffffffffffffffffff1673ffffffffffffffffffffffffffffffffffffffff16815260200190815260200160002054905061194d868261410890919063ffffffff16565b600c60008973ffffffffffffffffffffffffffffffffffffffff1673ffffffffffffffffffffffffffffffffffffffff168152602001908152602001600020819055505b6119a68260095461410890919063ffffffff16565b6009819055506119c185600a5461410890919063ffffffff16565b600a8190555050505050505050565b6000600460009054906101000a900473ffffffffffffffffffffffffffffffffffffffff16905090565b60008060008060009054906101000a900460ff16151515611a1a57600080fd5b600b60003373ffffffffffffffffffffffffffffffffffffffff1673ffffffffffffffffffffffffffffffffffffffff16815260200190815260200160002060009054906101000a900460ff161515611a7257600080fd5b600073ffffffffffffffffffffffffffffffffffffffff168773ffffffffffffffffffffffffffffffffffffffff161415611b3c576008546127103073ffffffffffffffffffffffffffffffffffffffff1631811515611ace57fe5b0402611ae385876140be90919063ffffffff16565b11151515611af057600080fd5b8573ffffffffffffffffffffffffffffffffffffffff166108fc869081150290604051600060405180830381858888f19350505050158015611b36573d6000803e3d6000fd5b50611d15565b8691508173ffffffffffffffffffffffffffffffffffffffff166370a08231306040518263ffffffff167c0100000000000000000000000000000000000000000000000000000000028152600401808273ffffffffffffffffffffffffffffffffffffffff1673ffffffffffffffffffffffffffffffffffffffff168152602001915050602060405180830381600087803b158015611bda57600080fd5b505af1158015611bee573d6000803e3d6000fd5b505050506040513d6020811015611c0457600080fd5b81019080805190602001909291905050509050611c3960085461271083811515611c2a57fe5b04613ff190919063ffffffff16565b611c4c85876140be90919063ffffffff16565b11151515611c5957600080fd5b8173ffffffffffffffffffffffffffffffffffffffff1663a9059cbb87876040518363ffffffff167c0100000000000000000000000000000000000000000000000000000000028152600401808373ffffffffffffffffffffffffffffffffffffffff1673ffffffffffffffffffffffffffffffffffffffff16815260200182815260200192505050600060405180830381600087803b158015611cfc57600080fd5b505af1158015611d10573d6000803e3d6000fd5b505050505b600192505050949350505050565b600b6020528060005260406000206000915054906101000a900460ff1681565b6000600b60008373ffffffffffffffffffffffffffffffffffffffff1673ffffffffffffffffffffffffffffffffffffffff16815260200190815260200160002060009054906101000a900460ff169050919050565b600160009054906101000a900473ffffffffffffffffffffffffffffffffffffffff1681565b600060019054906101000a900473ffffffffffffffffffffffffffffffffffffffff1673ffffffffffffffffffffffffffffffffffffffff163373ffffffffffffffffffffffffffffffffffffffff16141515611e84576040517f08c379a00000000000000000000000000000000000000000000000000000000081526004018080602001828103825260098152602001807f6e6f742061646d696e000000000000000000000000000000000000000000000081525060200191505060405180910390fd5b600073ffffffffffffffffffffffffffffffffffffffff168173ffffffffffffffffffffffffffffffffffffffff1614151515611ec057600080fd5b80600760006101000a81548173ffffffffffffffffffffffffffffffffffffffff021916908373ffffffffffffffffffffffffffffffffffffffff16021790555050565b600060019054906101000a900473ffffffffffffffffffffffffffffffffffffffff1673ffffffffffffffffffffffffffffffffffffffff163373ffffffffffffffffffffffffffffffffffffffff16141515611fc9576040517f08c379a00000000000000000000000000000000000000000000000000000000081526004018080602001828103825260098152602001807f6e6f742061646d696e000000000000000000000000000000000000000000000081525060200191505060405180910390fd5b600073ffffffffffffffffffffffffffffffffffffffff168173ffffffffffffffffffffffffffffffffffffffff161415151561206e576040517f08c379a000000000000000000000000000000000000000000000000000000000815260040180806020018281038252601c8152602001807f5f6e657741646d696e2063616e2774206265206164647265737320300000000081525060200191505060405180910390fd5b80600060016101000a81548173ffffffffffffffffffffffffffffffffffffffff021916908373ffffffffffffffffffffffffffffffffffffffff16021790555050565b600d6020528060005260406000206000915090505481565b60085481565b600260009054906101000a900473ffffffffffffffffffffffffffffffffffffffff1681565b6000600c60003373ffffffffffffffffffffffffffffffffffffffff1673ffffffffffffffffffffffffffffffffffffffff16815260200190815260200160002054905060018111151561214957600080fd5b600954811115151561215a57600080fd5b612172600182036009546140be90919063ffffffff16565b6009819055506001600c60003373ffffffffffffffffffffffffffffffffffffffff1673ffffffffffffffffffffffffffffffffffffffff16815260200190815260200160002081905550600760009054906101000a900473ffffffffffffffffffffffffffffffffffffffff1673ffffffffffffffffffffffffffffffffffffffff1663a9059cbb33600184036040518363ffffffff167c0100000000000000000000000000000000000000000000000000000000028152600401808373ffffffffffffffffffffffffffffffffffffffff1673ffffffffffffffffffffffffffffffffffffffff16815260200182815260200192505050602060405180830381600087803b15801561228557600080fd5b505af1158015612299573d6000803e3d6000fd5b505050506040513d60208110156122af57600080fd5b81019080805190602001909291905050505050565b60008060009054906101000a900460ff161515156122e157600080fd5b600b60003373ffffffffffffffffffffffffffffffffffffffff1673ffffffffffffffffffffffffffffffffffffffff16815260200190815260200160002060009054906101000a900460ff16151561233957600080fd5b6008546127103073ffffffffffffffffffffffffffffffffffffffff163181151561236057fe5b04028284031115151561237257600080fd5b8373ffffffffffffffffffffffffffffffffffffffff166108fc849081150290604051600060405180830381858888f193505050501580156123b8573d6000803e3d6000fd5b50600190509392505050565b600080600080600560009054906101000a900473ffffffffffffffffffffffffffffffffffffffff1673ffffffffffffffffffffffffffffffffffffffff163373ffffffffffffffffffffffffffffffffffffffff1614806124735750600060019054906101000a900473ffffffffffffffffffffffffffffffffffffffff1673ffffffffffffffffffffffffffffffffffffffff163373ffffffffffffffffffffffffffffffffffffffff16145b151561247e57600080fd5b8492508273ffffffffffffffffffffffffffffffffffffffff166370a08231306040518263ffffffff167c0100000000000000000000000000000000000000000000000000000000028152600401808273ffffffffffffffffffffffffffffffffffffffff1673ffffffffffffffffffffffffffffffffffffffff168152602001915050602060405180830381600087803b15801561251c57600080fd5b505af1158015612530573d6000803e3d6000fd5b505050506040513d602081101561254657600080fd5b810190808051906020019092919050505091506125ab600d60008773ffffffffffffffffffffffffffffffffffffffff1673ffffffffffffffffffffffffffffffffffffffff16815260200190815260200160002054836140be90919063ffffffff16565b905080821115156125bb57600080fd5b60008111156126dc578273ffffffffffffffffffffffffffffffffffffffff166342966c68826040518263ffffffff167c010000000000000000000000000000000000000000000000000000000002815260040180828152602001915050602060405180830381600087803b15801561263357600080fd5b505af1158015612647573d6000803e3d6000fd5b505050506040513d602081101561265d57600080fd5b8101908080519060200190929190505050508473ffffffffffffffffffffffffffffffffffffffff163073ffffffffffffffffffffffffffffffffffffffff167fb37c6417ca02c8084d9b4013dd6cb0f56bbd792f58dee3354014d14f714fc16b836040518082815260200191505060405180910390a38093506126e1565b600093505b505050919050565b60095481565b600260009054906101000a900473ffffffffffffffffffffffffffffffffffffffff1673ffffffffffffffffffffffffffffffffffffffff163373ffffffffffffffffffffffffffffffffffffffff1614151561274b57600080fd5b600073ffffffffffffffffffffffffffffffffffffffff168173ffffffffffffffffffffffffffffffffffffffff161415151561278757600080fd5b80600260006101000a81548173ffffffffffffffffffffffffffffffffffffffff021916908373ffffffffffffffffffffffffffffffffffffffff16021790555050565b600260009054906101000a900473ffffffffffffffffffffffffffffffffffffffff1673ffffffffffffffffffffffffffffffffffffffff163373ffffffffffffffffffffffffffffffffffffffff1614806128745750600060019054906101000a900473ffffffffffffffffffffffffffffffffffffffff1673ffffffffffffffffffffffffffffffffffffffff163373ffffffffffffffffffffffffffffffffffffffff16145b806128cc5750600460009054906101000a900473ffffffffffffffffffffffffffffffffffffffff1673ffffffffffffffffffffffffffffffffffffffff163373ffffffffffffffffffffffffffffffffffffffff16145b15156128d757600080fd5b6000600a541180156128ed5750600a5460095410155b15156128f857600080fd5b6000600a81905550600760009054906101000a900473ffffffffffffffffffffffffffffffffffffffff1673ffffffffffffffffffffffffffffffffffffffff1663a9059cbb600460009054906101000a900473ffffffffffffffffffffffffffffffffffffffff16600a546040518363ffffffff167c0100000000000000000000000000000000000000000000000000000000028152600401808373ffffffffffffffffffffffffffffffffffffffff1673ffffffffffffffffffffffffffffffffffffffff16815260200182815260200192505050602060405180830381600087803b1580156129e957600080fd5b505af11580156129fd573d6000803e3d6000fd5b505050506040513d6020811015612a1357600080fd5b810190808051906020019092919050505050565b60008060008060019054906101000a900473ffffffffffffffffffffffffffffffffffffffff1673ffffffffffffffffffffffffffffffffffffffff163373ffffffffffffffffffffffffffffffffffffffff16141515612af0576040517f08c379a00000000000000000000000000000000000000000000000000000000081526004018080602001828103825260098152602001807f6e6f742061646d696e000000000000000000000000000000000000000000000081525060200191505060405180910390fd5b8492508273ffffffffffffffffffffffffffffffffffffffff166370a08231306040518263ffffffff167c0100000000000000000000000000000000000000000000000000000000028152600401808273ffffffffffffffffffffffffffffffffffffffff1673ffffffffffffffffffffffffffffffffffffffff168152602001915050602060405180830381600087803b158015612b8e57600080fd5b505af1158015612ba2573d6000803e3d6000fd5b505050506040513d6020811015612bb857600080fd5b8101908080519060200190929190505050915083905081841115612bda578190505b8273ffffffffffffffffffffffffffffffffffffffff1663a9059cbb600260009054906101000a900473ffffffffffffffffffffffffffffffffffffffff16836040518363ffffffff167c0100000000000000000000000000000000000000000000000000000000028152600401808373ffffffffffffffffffffffffffffffffffffffff1673ffffffffffffffffffffffffffffffffffffffff16815260200182815260200192505050600060405180830381600087803b158015612c9f57600080fd5b505af1158015612cb3573d6000803e3d6000fd5b505050505050505050565b600080600760009054906101000a900473ffffffffffffffffffffffffffffffffffffffff1673ffffffffffffffffffffffffffffffffffffffff166370a08231306040518263ffffffff167c0100000000000000000000000000000000000000000000000000000000028152600401808273ffffffffffffffffffffffffffffffffffffffff1673ffffffffffffffffffffffffffffffffffffffff168152602001915050602060405180830381600087803b158015612d7e57600080fd5b505af1158015612d92573d6000803e3d6000fd5b505050506040513d6020811015612da857600080fd5b8101908080519060200190929190505050905060095481101515612dd25760095481039150612dd7565b600091505b5090565b600060019054906101000a900473ffffffffffffffffffffffffffffffffffffffff1673ffffffffffffffffffffffffffffffffffffffff163373ffffffffffffffffffffffffffffffffffffffff16141515612ea0576040517f08c379a00000000000000000000000000000000000000000000000000000000081526004018080602001828103825260098152602001807f6e6f742061646d696e000000000000000000000000000000000000000000000081525060200191505060405180910390fd5b600073ffffffffffffffffffffffffffffffffffffffff168173ffffffffffffffffffffffffffffffffffffffff1614151515612edc57600080fd5b80600560006101000a81548173ffffffffffffffffffffffffffffffffffffffff021916908373ffffffffffffffffffffffffffffffffffffffff16021790555050565b6000809054906101000a900460ff1681565b600360009054906101000a900473ffffffffffffffffffffffffffffffffffffffff1673ffffffffffffffffffffffffffffffffffffffff163373ffffffffffffffffffffffffffffffffffffffff161480612fdb5750600060019054906101000a900473ffffffffffffffffffffffffffffffffffffffff1673ffffffffffffffffffffffffffffffffffffffff163373ffffffffffffffffffffffffffffffffffffffff16145b1515612fe657600080fd5b600073ffffffffffffffffffffffffffffffffffffffff168173ffffffffffffffffffffffffffffffffffffffff161415151561302257600080fd5b80600360006101000a81548173ffffffffffffffffffffffffffffffffffffffff021916908373ffffffffffffffffffffffffffffffffffffffff16021790555050565b600c6020528060005260406000206000915090505481565b600060019054906101000a900473ffffffffffffffffffffffffffffffffffffffff1673ffffffffffffffffffffffffffffffffffffffff163373ffffffffffffffffffffffffffffffffffffffff16141515613143576040517f08c379a00000000000000000000000000000000000000000000000000000000081526004018080602001828103825260098152602001807f6e6f742061646d696e000000000000000000000000000000000000000000000081525060200191505060405180910390fd5b806000806101000a81548160ff02191690831515021790555050565b600060019054906101000a900473ffffffffffffffffffffffffffffffffffffffff1681565b6000600954905090565b600460009054906101000a900473ffffffffffffffffffffffffffffffffffffffff1681565b600060019054906101000a900473ffffffffffffffffffffffffffffffffffffffff1673ffffffffffffffffffffffffffffffffffffffff163373ffffffffffffffffffffffffffffffffffffffff1614151561327a576040517f08c379a00000000000000000000000000000000000000000000000000000000081526004018080602001828103825260098152602001807f6e6f742061646d696e000000000000000000000000000000000000000000000081525060200191505060405180910390fd5b80600b60008473ffffffffffffffffffffffffffffffffffffffff1673ffffffffffffffffffffffffffffffffffffffff16815260200190815260200160002060006101000a81548160ff0219169083151502179055505050565b600360009054906101000a900473ffffffffffffffffffffffffffffffffffffffff1681565b600060019054906101000a900473ffffffffffffffffffffffffffffffffffffffff1673ffffffffffffffffffffffffffffffffffffffff163373ffffffffffffffffffffffffffffffffffffffff1614806133a45750600360009054906101000a900473ffffffffffffffffffffffffffffffffffffffff1673ffffffffffffffffffffffffffffffffffffffff163373ffffffffffffffffffffffffffffffffffffffff16145b15156133af57600080fd5b6000811180156133c157506113888111155b15156133cc57600080fd5b8060088190555050565b600260009054906101000a900473ffffffffffffffffffffffffffffffffffffffff1673ffffffffffffffffffffffffffffffffffffffff163373ffffffffffffffffffffffffffffffffffffffff16148061347f5750600060019054906101000a900473ffffffffffffffffffffffffffffffffffffffff1673ffffffffffffffffffffffffffffffffffffffff163373ffffffffffffffffffffffffffffffffffffffff16145b151561348a57600080fd5b6000811180156134b157503073ffffffffffffffffffffffffffffffffffffffff16318111155b15156134bc57600080fd5b600260009054906101000a900473ffffffffffffffffffffffffffffffffffffffff1673ffffffffffffffffffffffffffffffffffffffff166108fc829081150290604051600060405180830381858888f19350505050158015613524573d6000803e3d6000fd5b5050565b60008060009054906101000a900460ff1615151561354557600080fd5b600b60003373ffffffffffffffffffffffffffffffffffffffff1673ffffffffffffffffffffffffffffffffffffffff16815260200190815260200160002060009054906101000a900460ff16151561359d57600080fd5b60008214156135ab576137ca565b600760009054906101000a900473ffffffffffffffffffffffffffffffffffffffff1673ffffffffffffffffffffffffffffffffffffffff166370a08231306040518263ffffffff167c0100000000000000000000000000000000000000000000000000000000028152600401808273ffffffffffffffffffffffffffffffffffffffff1673ffffffffffffffffffffffffffffffffffffffff168152602001915050602060405180830381600087803b15801561366857600080fd5b505af115801561367c573d6000803e3d6000fd5b505050506040513d602081101561369257600080fd5b81019080805190602001909291905050509050816136bb600954836140be90919063ffffffff16565b101515156136c857600080fd5b600760009054906101000a900473ffffffffffffffffffffffffffffffffffffffff1673ffffffffffffffffffffffffffffffffffffffff1663a9059cbb84846040518363ffffffff167c0100000000000000000000000000000000000000000000000000000000028152600401808373ffffffffffffffffffffffffffffffffffffffff1673ffffffffffffffffffffffffffffffffffffffff16815260200182815260200192505050602060405180830381600087803b15801561378d57600080fd5b505af11580156137a1573d6000803e3d6000fd5b505050506040513d60208110156137b757600080fd5b8101908080519060200190929190505050505b505050565b6000600360009054906101000a900473ffffffffffffffffffffffffffffffffffffffff1673ffffffffffffffffffffffffffffffffffffffff163373ffffffffffffffffffffffffffffffffffffffff16148061387a5750600060019054906101000a900473ffffffffffffffffffffffffffffffffffffffff1673ffffffffffffffffffffffffffffffffffffffff163373ffffffffffffffffffffffffffffffffffffffff16145b806138ce5750600b60003373ffffffffffffffffffffffffffffffffffffffff1673ffffffffffffffffffffffffffffffffffffffff16815260200190815260200160002060009054906101000a900460ff165b15156138d957600080fd5b600073ffffffffffffffffffffffffffffffffffffffff168273ffffffffffffffffffffffffffffffffffffffff161415151561391557600080fd5b600c60008373ffffffffffffffffffffffffffffffffffffffff1673ffffffffffffffffffffffffffffffffffffffff16815260200190815260200160002054905060018111151561396657600080fd5b600954811115151561397757600080fd5b61398f600182036009546140be90919063ffffffff16565b6009819055506001600c60008473ffffffffffffffffffffffffffffffffffffffff1673ffffffffffffffffffffffffffffffffffffffff16815260200190815260200160002081905550600760009054906101000a900473ffffffffffffffffffffffffffffffffffffffff1673ffffffffffffffffffffffffffffffffffffffff1663a9059cbb83600184036040518363ffffffff167c0100000000000000000000000000000000000000000000000000000000028152600401808373ffffffffffffffffffffffffffffffffffffffff1673ffffffffffffffffffffffffffffffffffffffff16815260200182815260200192505050602060405180830381600087803b158015613aa257600080fd5b505af1158015613ab6573d6000803e3d6000fd5b505050506040513d6020811015613acc57600080fd5b8101908080519060200190929190505050505050565b600660009054906101000a900473ffffffffffffffffffffffffffffffffffffffff1681565b600560009054906101000a900473ffffffffffffffffffffffffffffffffffffffff1681565b600a5481565b6000600760009054906101000a900473ffffffffffffffffffffffffffffffffffffffff16905090565b600080600080600360009054906101000a900473ffffffffffffffffffffffffffffffffffffffff1673ffffffffffffffffffffffffffffffffffffffff163373ffffffffffffffffffffffffffffffffffffffff161480613c0d5750600060019054906101000a900473ffffffffffffffffffffffffffffffffffffffff1673ffffffffffffffffffffffffffffffffffffffff163373ffffffffffffffffffffffffffffffffffffffff16145b1515613c1857600080fd5b600073ffffffffffffffffffffffffffffffffffffffff168673ffffffffffffffffffffffffffffffffffffffff1614151515613c5457600080fd5b600d60008773ffffffffffffffffffffffffffffffffffffffff1673ffffffffffffffffffffffffffffffffffffffff168152602001908152602001600020549350600084111515613ca557600080fd5b8592508273ffffffffffffffffffffffffffffffffffffffff166370a08231306040518263ffffffff167c0100000000000000000000000000000000000000000000000000000000028152600401808273ffffffffffffffffffffffffffffffffffffffff1673ffffffffffffffffffffffffffffffffffffffff168152602001915050602060405180830381600087803b158015613d4357600080fd5b505af1158015613d57573d6000803e3d6000fd5b505050506040513d6020811015613d6d57600080fd5b8101908080519060200190929190505050915083821115613edb5783820390508273ffffffffffffffffffffffffffffffffffffffff1663a9059cbb600660009054906101000a900473ffffffffffffffffffffffffffffffffffffffff16836040518363ffffffff167c0100000000000000000000000000000000000000000000000000000000028152600401808373ffffffffffffffffffffffffffffffffffffffff1673ffffffffffffffffffffffffffffffffffffffff16815260200182815260200192505050600060405180830381600087803b158015613e5257600080fd5b505af1158015613e66573d6000803e3d6000fd5b50505050847f3423df465fd14e0b4e7bb9d00cbc78029f698ce1e49909bcada64029d0d21a8c8783604051808373ffffffffffffffffffffffffffffffffffffffff1673ffffffffffffffffffffffffffffffffffffffff1681526020018281526020019250505060405180910390a2613f49565b847f3423df465fd14e0b4e7bb9d00cbc78029f698ce1e49909bcada64029d0d21a8c876000604051808373ffffffffffffffffffffffffffffffffffffffff1673ffffffffffffffffffffffffffffffffffffffff1681526020018281526020019250505060405180910390a25b505050505050565b600080600080600260009054906101000a900473ffffffffffffffffffffffffffffffffffffffff169350600560009054906101000a900473ffffffffffffffffffffffffffffffffffffffff169250600360009054906101000a900473ffffffffffffffffffffffffffffffffffffffff169150600660009054906101000a900473ffffffffffffffffffffffffffffffffffffffff16905090919293565b600080600084141561400657600091506140b7565b828402905082848281151561401757fe5b041415156140b3576040517f08c379a00000000000000000000000000000000000000000000000000000000081526004018080602001828103825260218152602001807f536166654d6174683a206d756c7469706c69636174696f6e206f766572666c6f81526020017f770000000000000000000000000000000000000000000000000000000000000081525060400191505060405180910390fd5b8091505b5092915050565b600061410083836040805190810160405280601e81526020017f536166654d6174683a207375627472616374696f6e206f766572666c6f770000815250614192565b905092915050565b6000808284019050838110151515614188576040517f08c379a000000000000000000000000000000000000000000000000000000000815260040180806020018281038252601b8152602001807f536166654d6174683a206164646974696f6e206f766572666c6f77000000000081525060200191505060405180910390fd5b8091505092915050565b6000808484111583901515614242576040517f08c379a00000000000000000000000000000000000000000000000000000000081526004018080602001828103825283818151815260200191508051906020019080838360005b838110156142075780820151818401526020810190506141ec565b50505050905090810190601f1680156142345780820380516001836020036101000a031916815260200191505b509250505060405180910390fd5b5083850390508091505093925050505600a165627a7a723058201eaeeecb8f5241ac75b751e29537e7b4adab8cfa6f9f188b3d8e2c79cdc00f790029",
  "source": "pragma solidity ^0.4.23;\n\nimport \"./BaseAdmin.sol\";\nimport \"./SafeMath.sol\";\n\ninterface IBEP20Base {\n    function balanceOf(address _from) external view returns(uint256);\n    function transfer(address _to, uint256 _value) external;\n    function burn(uint256 _value) external returns (bool);\n}\n\ninterface IMoonToken {\n    function balanceOf(address _from) external view returns(uint256);\n    function transfer(address _to, uint256 _value) external returns(bool);\n    function transferFrom(address _from, address _to, uint256 _value) external returns(bool);\n    function burn(uint256 _value) external returns (bool);\n}\ncontract MoonPool is BaseAdmin {\n    using SafeMath for uint256;\n\n    address public addrFinance;\n    address public addrOperator;\n    address public addrTokenDev;\n    address public addrBurner;\n    address public addrDivider;\n\n\n    IMoonToken moonToken;\n\n    uint256 public safeWaterLevel = 500;\n    uint256 public moonTotalCache;\n    uint256 public moonDevCache;\n    mapping (address => bool) public safeBetContracts;\n    mapping (address => uint256) public playerMoonCache;\n    mapping (address => uint256) public tokenOriginalAmountMap;\n\n\n    event TokenBurn(\n        address indexed _from,\n        address indexed _addrToken,\n        uint256 _value\n    );\n\n    event TokenDivide20(\n        uint256 indexed flag,\n        address addrToken,\n        uint256 tokenValue\n    );\n\n\n\n    constructor() public {\n        addrAdmin = msg.sender;\n        addrFinance = msg.sender;\n        addrOperator = msg.sender;\n        addrTokenDev = msg.sender;\n        addrBurner = msg.sender;\n    }\n\n    function() external payable {\n        \n    }\n\n    modifier whenNotPaused() {\n        require(!isPaused);\n        _;\n    }\n\n    modifier onlyOperator() {\n        require(msg.sender == addrAdmin || msg.sender == addrOperator);\n        _;\n    }\n\n    function setFinance(address _newFinance) external {\n        require(msg.sender == addrFinance);\n        require(_newFinance != address(0));\n        addrFinance = _newFinance;\n    }\n\n    function setBurner(address _newBurner) external onlyAdmin {\n        require(_newBurner != address(0));\n        addrBurner = _newBurner;\n    }\n\n    function setOperator(address _newOperator) external {\n        require(msg.sender == addrOperator || msg.sender == addrAdmin);\n        require(_newOperator != address(0));\n        addrOperator = _newOperator;\n    }\n\n    function setSafeContract(address _actionAddr, bool _useful) external onlyAdmin {\n        safeBetContracts[_actionAddr] = _useful;\n    }\n\n    function getSafeContract(address _actionAddr) external view returns(bool) {\n        return safeBetContracts[_actionAddr];\n    } \n\n    function setTokenDevAddr(address _addr) external onlyAdmin {\n        require(_addr != address(0));\n        addrTokenDev = _addr;\n    }\n\n    function setMoonTokenAddr(address _addr) external onlyAdmin {\n        require(_addr != address(0));\n        moonToken = IMoonToken(_addr);\n    }\n\n    function getMoonTokenAddr() external view returns(address) {\n        return address(moonToken);\n    }\n\n    function getTokenDevAddr() external view returns(address) {\n        return addrTokenDev;\n    }\n\n    function setSafeWaterLevel(uint256 _newLevel) external onlyOperator {\n        require(_newLevel > 0 && _newLevel <= 5000);\n        safeWaterLevel = _newLevel;\n    }\n\n    function setTokenOriginalAmount(address _tokenAddr, uint256 _amount) external onlyAdmin {\n        require(_tokenAddr != address(0) && _amount > 0);\n        tokenOriginalAmountMap[_tokenAddr] = _amount;\n    }\n\n    function transferBnb(address _to, uint256 _amount, uint256 _originalAmount) external whenNotPaused returns(bool) {\n        require(safeBetContracts[msg.sender]);\n        require((_amount - _originalAmount) <= (address(this).balance / 10000 * safeWaterLevel));\n        _to.transfer(_amount);\n        return true;\n    }\n\n    function transferToWiner(address _tokenAddr, address _to, uint256 _amount, uint256 _original) external whenNotPaused returns(bool) {\n        require(safeBetContracts[msg.sender]);\n        if(_tokenAddr==address(0)){\n            require(_amount.sub(_original) <= (address(this).balance / 10000 * safeWaterLevel));\n            _to.transfer(_amount);\n        }else{\n            IBEP20Base token = IBEP20Base(_tokenAddr);\n            uint256 tokenBalance = token.balanceOf(address(this));\n            require(_amount.sub(_original) <= (tokenBalance / 10000).mul(safeWaterLevel));\n            token.transfer(_to, _amount);\n        }\n        return true;\n    }\n\n    function getPoolMoonBalance() external view returns(uint256) {\n        uint256 ownBalance = moonToken.balanceOf(address(this));\n        if (ownBalance >= moonTotalCache) {\n            return ownBalance - moonTotalCache;\n        } else {\n            return 0;\n        }\n    }\n\n    function getDevCacheBalance() external view returns(uint256) {\n        return moonDevCache;\n    }\n\n    function getTotalCacheBalance() external view returns(uint256) {\n        return moonTotalCache;\n    }\n\n    function transferMoon(address _to, uint256 _amount)\n        external \n        whenNotPaused \n    {\n        require(safeBetContracts[msg.sender]);\n        if (_amount == 0) {\n            return;\n        }\n        uint256 ownBalance = moonToken.balanceOf(address(this));\n        require(ownBalance.sub(moonTotalCache) >= _amount);\n        moonToken.transfer(_to, _amount);\n    }\n\n\n    function transferMoonWithDevRelease(address _to1, uint256 _amount1, uint256 _devReleaseAmount)\n        external \n        whenNotPaused \n    {\n        require(safeBetContracts[msg.sender] && _to1 != address(0));\n        uint256 ownBalance = moonToken.balanceOf(address(this));\n        uint256 realBalance = ownBalance.sub(moonTotalCache);\n        uint256 totalAmount = _amount1.add(_devReleaseAmount);\n        require(realBalance >= totalAmount);\n        if (_amount1 > 0) {\n            uint256 oldToVal = playerMoonCache[_to1];\n            playerMoonCache[_to1] = oldToVal.add(_amount1);\n        }\n        moonTotalCache=moonTotalCache.add(totalAmount);\n        moonDevCache=moonDevCache.add(_devReleaseAmount);\n    }\n\n    function releaseDevMoon() external {\n        require(msg.sender == addrFinance || msg.sender == addrAdmin || msg.sender == addrTokenDev);   \n        require(moonDevCache> 0 && moonTotalCache>= moonDevCache);\n\n        moonDevCache=0;\n        moonToken.transfer(addrTokenDev, moonDevCache);\n    }\n\n    function releaseMoon(address _owner) external {\n        require(msg.sender == addrOperator || msg.sender == addrAdmin || safeBetContracts[msg.sender]);\n        require(_owner != address(0));\n        uint256 cacheVal = playerMoonCache[_owner];\n        require(cacheVal > 1);\n        require(cacheVal <= moonTotalCache);\n        moonTotalCache=moonTotalCache.sub(cacheVal - 1);\n        playerMoonCache[_owner] = 1;\n        moonToken.transfer(_owner, cacheVal - 1);\n    }\n\n    function releaseMoonSelf() external {\n        uint256 cacheVal = playerMoonCache[msg.sender];\n        require(cacheVal > 1);\n        require(cacheVal <= moonTotalCache);\n        moonTotalCache=moonTotalCache.sub(cacheVal - 1);\n        playerMoonCache[msg.sender] = 1;\n        moonToken.transfer(msg.sender, cacheVal - 1);\n    }\n\n    function withdrawProfit(uint256 _amount)\n        external \n    {\n        require(msg.sender == addrFinance || msg.sender == addrAdmin);\n        require(_amount > 0 && _amount <= address(this).balance);\n        addrFinance.transfer(_amount);    \n    }\n\n    function withdrawMoon(uint256 _amount)\n        external \n    {\n        require(msg.sender == addrFinance || msg.sender == addrAdmin);\n        uint256 ownBalance = moonToken.balanceOf(address(this));\n        uint256 realBalance = ownBalance.sub(moonTotalCache);\n        require(realBalance >= _amount);\n        moonToken.transfer(addrFinance, _amount);\n    }\n\n    function getRole() external view returns(address finance, address burner, address operator, address divider) {\n        finance = addrFinance;\n        burner = addrBurner;\n        operator = addrOperator;\n        divider = addrDivider;\n    }\n\n    function transferToken(address _tokenAddr, address _to, uint256 _amount, uint256 _original)\n    external\n    whenNotPaused\n    {\n        require(safeBetContracts[msg.sender]);\n        IBEP20Base token = IBEP20Base(_tokenAddr);\n        uint256 tokenBalance = token.balanceOf(address(this));\n        require(_amount.sub(_original) <= (tokenBalance / 10000).mul(safeWaterLevel));\n        token.transfer(_to, _amount);\n    }\n\n    function burnToken(address _addrToken) external returns(uint256) {\n        require(msg.sender == addrBurner || msg.sender == addrAdmin);\n        IBEP20Base token = IBEP20Base(_addrToken);\n        uint256 tokenBalance = token.balanceOf(address(this));\n        uint256 tokenProfit = tokenBalance.sub(tokenOriginalAmountMap[_addrToken]);\n        require(tokenBalance > tokenProfit);\n        if (tokenProfit > 0) {\n            token.burn(tokenProfit);\n            emit TokenBurn(address(this), _addrToken, tokenProfit);\n            return tokenProfit;\n        } else {\n            return 0;\n        }\n    }\n\n    function transferDivide(address _addrToken, uint256 _flag) external {\n        require(msg.sender == addrOperator || msg.sender == addrAdmin);\n        require(_addrToken != address(0));\n        uint256 originalVal = tokenOriginalAmountMap[_addrToken];\n        require(originalVal > 0);\n        IBEP20Base token = IBEP20Base(_addrToken);\n        uint256 curBalance = token.balanceOf(address(this));\n        if (curBalance > originalVal) {\n            uint256 val = curBalance - originalVal;\n            token.transfer(addrDivider, val);\n            emit TokenDivide20(_flag, _addrToken, val);\n        } else {\n            emit TokenDivide20(_flag, _addrToken, 0);\n        }\n    }\n\n\n    function withdrawToken(address _addrToken, uint256 _amount) external onlyAdmin {\n        IBEP20Base token = IBEP20Base(_addrToken);\n        uint256 tokenBalance = token.balanceOf(address(this));\n        uint256 wAmount = _amount;\n        if (_amount > tokenBalance) {\n            wAmount = tokenBalance;\n        }\n        token.transfer(addrFinance, wAmount);\n    }\n\n\n\n}\n",
  "sourcePath": "/Users/gordon/bian/dapp/dice/contracts/MoonPool.sol",
  "compiler": {
    "name": "solc",
    "version": "0.4.25+commit.59dbf8f1.Emscripten.clang"
  },
  "schemaVersion": "3.2.0",
  "updatedAt": "2020-09-22T07:39:08.980Z",
  "networkType": "ethereum",
  "devdoc": {
    "methods": {}
  },
  "userdoc": {
    "methods": {}
  }
}