{
  "contractName": "MoonDividend",
  "abi": [
    {
      "constant": true,
      "inputs": [],
      "name": "snapshotValidDuration",
      "outputs": [
        {
          "name": "",
          "type": "uint64"
        }
      ],
      "payable": false,
      "stateMutability": "view",
      "type": "function"
    },
    {
      "constant": false,
      "inputs": [
        {
          "name": "bep20s",
          "type": "address[]"
        }
      ],
      "name": "updateVersion",
      "outputs": [],
      "payable": false,
      "stateMutability": "nonpayable",
      "type": "function"
    },
    {
      "constant": true,
      "inputs": [],
      "name": "status",
      "outputs": [
        {
          "name": "",
          "type": "uint8"
        }
      ],
      "payable": false,
      "stateMutability": "view",
      "type": "function"
    },
    {
      "constant": true,
      "inputs": [],
      "name": "finance",
      "outputs": [
        {
          "name": "",
          "type": "address"
        }
      ],
      "payable": false,
      "stateMutability": "view",
      "type": "function"
    },
    {
      "constant": true,
      "inputs": [
        {
          "name": "",
          "type": "uint256"
        }
      ],
      "name": "stakerInfos",
      "outputs": [
        {
          "name": "staker",
          "type": "address"
        },
        {
          "name": "stakingAmt",
          "type": "uint64"
        }
      ],
      "payable": false,
      "stateMutability": "view",
      "type": "function"
    },
    {
      "constant": true,
      "inputs": [],
      "name": "moonStakerIns",
      "outputs": [
        {
          "name": "",
          "type": "address"
        }
      ],
      "payable": false,
      "stateMutability": "view",
      "type": "function"
    },
    {
      "constant": true,
      "inputs": [],
      "name": "operator",
      "outputs": [
        {
          "name": "",
          "type": "address"
        }
      ],
      "payable": false,
      "stateMutability": "view",
      "type": "function"
    },
    {
      "constant": true,
      "inputs": [],
      "name": "nextDividendIndex",
      "outputs": [
        {
          "name": "",
          "type": "uint256"
        }
      ],
      "payable": false,
      "stateMutability": "view",
      "type": "function"
    },
    {
      "constant": false,
      "inputs": [
        {
          "name": "_newAdmin",
          "type": "address"
        }
      ],
      "name": "setAdmin",
      "outputs": [],
      "payable": false,
      "stateMutability": "nonpayable",
      "type": "function"
    },
    {
      "constant": true,
      "inputs": [],
      "name": "stakeSnapshot",
      "outputs": [
        {
          "name": "totalStakingAmount",
          "type": "uint64"
        },
        {
          "name": "devStakingAmount",
          "type": "uint64"
        },
        {
          "name": "stakerCnt",
          "type": "uint32"
        },
        {
          "name": "nextStaker",
          "type": "uint32"
        },
        {
          "name": "nextStakingIndex",
          "type": "uint32"
        },
        {
          "name": "snapshotVersion",
          "type": "uint32"
        },
        {
          "name": "completeTime",
          "type": "uint32"
        }
      ],
      "payable": false,
      "stateMutability": "view",
      "type": "function"
    },
    {
      "constant": false,
      "inputs": [
        {
          "name": "_addr",
          "type": "address"
        }
      ],
      "name": "setFinance",
      "outputs": [],
      "payable": false,
      "stateMutability": "nonpayable",
      "type": "function"
    },
    {
      "constant": true,
      "inputs": [],
      "name": "isPaused",
      "outputs": [
        {
          "name": "",
          "type": "bool"
        }
      ],
      "payable": false,
      "stateMutability": "view",
      "type": "function"
    },
    {
      "constant": false,
      "inputs": [
        {
          "name": "_addr",
          "type": "address"
        }
      ],
      "name": "setOperator",
      "outputs": [],
      "payable": false,
      "stateMutability": "nonpayable",
      "type": "function"
    },
    {
      "constant": false,
      "inputs": [
        {
          "name": "_pause",
          "type": "bool"
        }
      ],
      "name": "setPause",
      "outputs": [],
      "payable": false,
      "stateMutability": "nonpayable",
      "type": "function"
    },
    {
      "constant": true,
      "inputs": [],
      "name": "addrAdmin",
      "outputs": [
        {
          "name": "",
          "type": "address"
        }
      ],
      "payable": false,
      "stateMutability": "view",
      "type": "function"
    },
    {
      "constant": true,
      "inputs": [
        {
          "name": "",
          "type": "uint256"
        }
      ],
      "name": "dividendList",
      "outputs": [
        {
          "name": "bnbValue",
          "type": "uint256"
        },
        {
          "name": "start",
          "type": "uint32"
        },
        {
          "name": "end",
          "type": "uint32"
        }
      ],
      "payable": false,
      "stateMutability": "view",
      "type": "function"
    },
    {
      "inputs": [],
      "payable": false,
      "stateMutability": "nonpayable",
      "type": "constructor"
    },
    {
      "payable": true,
      "stateMutability": "payable",
      "type": "fallback"
    },
    {
      "anonymous": false,
      "inputs": [
        {
          "indexed": false,
          "name": "snapshotVersion",
          "type": "uint32"
        },
        {
          "indexed": false,
          "name": "totalStakingAmount",
          "type": "uint64"
        },
        {
          "indexed": false,
          "name": "devStakingAmount",
          "type": "uint64"
        },
        {
          "indexed": false,
          "name": "stakerCnt",
          "type": "uint32"
        }
      ],
      "name": "SnapshotStarted",
      "type": "event"
    },
    {
      "anonymous": false,
      "inputs": [
        {
          "indexed": false,
          "name": "snapshotVersion",
          "type": "uint32"
        },
        {
          "indexed": false,
          "name": "totalStakingAmount",
          "type": "uint64"
        },
        {
          "indexed": false,
          "name": "devStakingAmount",
          "type": "uint64"
        },
        {
          "indexed": false,
          "name": "stakingInfoLength",
          "type": "uint32"
        }
      ],
      "name": "SnapshotCompleted",
      "type": "event"
    },
    {
      "anonymous": false,
      "inputs": [
        {
          "indexed": true,
          "name": "round",
          "type": "uint256"
        },
        {
          "indexed": false,
          "name": "totalStakingAmount",
          "type": "uint64"
        },
        {
          "indexed": false,
          "name": "bnbValue",
          "type": "uint256"
        },
        {
          "indexed": false,
          "name": "bep20s",
          "type": "uint256[]"
        },
        {
          "indexed": false,
          "name": "stakingInfoLength",
          "type": "uint32"
        },
        {
          "indexed": false,
          "name": "start",
          "type": "uint32"
        }
      ],
      "name": "MoonStakingDividendPlusCreate",
      "type": "event"
    },
    {
      "anonymous": false,
      "inputs": [
        {
          "indexed": true,
          "name": "round",
          "type": "uint256"
        },
        {
          "indexed": true,
          "name": "dividIndex",
          "type": "uint256"
        },
        {
          "indexed": true,
          "name": "staker",
          "type": "address"
        },
        {
          "indexed": false,
          "name": "stakingAmnt",
          "type": "uint64"
        }
      ],
      "name": "MoonStakingDividendPlusStep",
      "type": "event"
    },
    {
      "anonymous": false,
      "inputs": [
        {
          "indexed": true,
          "name": "round",
          "type": "uint256"
        },
        {
          "indexed": false,
          "name": "bnbValue",
          "type": "uint256"
        },
        {
          "indexed": false,
          "name": "bep20s",
          "type": "uint256[]"
        },
        {
          "indexed": false,
          "name": "stakingInfoLength",
          "type": "uint32"
        },
        {
          "indexed": false,
          "name": "end",
          "type": "uint32"
        }
      ],
      "name": "MoonStakingDividendPlusComplete",
      "type": "event"
    },
    {
      "constant": false,
      "inputs": [
        {
          "name": "_snapshotValidDuration",
          "type": "uint64"
        }
      ],
      "name": "setSnapshotValidDuration",
      "outputs": [],
      "payable": false,
      "stateMutability": "nonpayable",
      "type": "function"
    },
    {
      "constant": false,
      "inputs": [
        {
          "name": "_stakerContractAddr",
          "type": "address"
        }
      ],
      "name": "setMoonStakerContract",
      "outputs": [],
      "payable": false,
      "stateMutability": "nonpayable",
      "type": "function"
    },
    {
      "constant": false,
      "inputs": [],
      "name": "createStakeSnapshot",
      "outputs": [
        {
          "name": "",
          "type": "uint256"
        },
        {
          "name": "",
          "type": "uint256"
        }
      ],
      "payable": false,
      "stateMutability": "nonpayable",
      "type": "function"
    },
    {
      "constant": false,
      "inputs": [
        {
          "name": "loopCnt",
          "type": "uint256"
        }
      ],
      "name": "doNextSnapshot",
      "outputs": [
        {
          "name": "",
          "type": "bool"
        }
      ],
      "payable": false,
      "stateMutability": "nonpayable",
      "type": "function"
    },
    {
      "constant": false,
      "inputs": [
        {
          "name": "addrs",
          "type": "address[]"
        }
      ],
      "name": "createDividend",
      "outputs": [
        {
          "name": "",
          "type": "bool"
        }
      ],
      "payable": false,
      "stateMutability": "nonpayable",
      "type": "function"
    },
    {
      "constant": false,
      "inputs": [
        {
          "name": "index",
          "type": "uint256"
        },
        {
          "name": "addrs",
          "type": "address[]"
        }
      ],
      "name": "createDividend",
      "outputs": [
        {
          "name": "",
          "type": "bool"
        }
      ],
      "payable": false,
      "stateMutability": "nonpayable",
      "type": "function"
    },
    {
      "constant": false,
      "inputs": [
        {
          "name": "loopCnt",
          "type": "uint256"
        }
      ],
      "name": "doNextDividend",
      "outputs": [
        {
          "name": "",
          "type": "bool"
        }
      ],
      "payable": false,
      "stateMutability": "nonpayable",
      "type": "function"
    },
    {
      "constant": false,
      "inputs": [],
      "name": "forwardNextDividendIndex",
      "outputs": [
        {
          "name": "",
          "type": "uint256"
        }
      ],
      "payable": false,
      "stateMutability": "nonpayable",
      "type": "function"
    },
    {
      "constant": true,
      "inputs": [],
      "name": "getCurrentDivideInfo",
      "outputs": [
        {
          "name": "round",
          "type": "uint256"
        },
        {
          "name": "curStatus",
          "type": "uint256"
        },
        {
          "name": "nextStaker",
          "type": "uint256"
        },
        {
          "name": "nextStakingIndex",
          "type": "uint256"
        },
        {
          "name": "stakerCnt",
          "type": "uint256"
        },
        {
          "name": "completeTime",
          "type": "uint256"
        },
        {
          "name": "curDividendIndex",
          "type": "uint256"
        },
        {
          "name": "start",
          "type": "uint256"
        }
      ],
      "payable": false,
      "stateMutability": "view",
      "type": "function"
    }
  ],
  "bytecode": "0x608060405262015180600260146101000a81548167ffffffffffffffff021916908367ffffffffffffffff1602179055503480156200003d57600080fd5b5060008060006101000a81548160ff02191690831515021790555033600060016101000a81548173ffffffffffffffffffffffffffffffffffffffff021916908373ffffffffffffffffffffffffffffffffffffffff16021790555033600260006101000a81548173ffffffffffffffffffffffffffffffffffffffff021916908373ffffffffffffffffffffffffffffffffffffffff1602179055506004608060405190810160405280600081526020016000604051908082528060200260200182016040528015620001205781602001602082028038833980820191505090505b508152602001600063ffffffff168152602001600063ffffffff168152509080600181540180825580915050906001820390600052602060002090600302016000909192909190915060008201518160000155602082015181600101908051906020019062000191929190620001e9565b5060408201518160020160006101000a81548163ffffffff021916908363ffffffff16021790555060608201518160020160046101000a81548163ffffffff021916908363ffffffff16021790555050505062000263565b82805482825590600052602060002090810192821562000228579160200282015b82811115620002275782518255916020019190600101906200020a565b5b5090506200023791906200023b565b5090565b6200026091905b808211156200025c57600081600090555060010162000242565b5090565b90565b613ccd80620002736000396000f300608060405260043610610149576000357c0100000000000000000000000000000000000000000000000000000000900463ffffffff16806314b693e61461014b578063161fb3711461018a5780631a7a4049146101dd578063200d2ed214610218578063280e03d714610251578063313b7b19146102ae578063334704331461030557806337e1a2321461038d5780633d683b2b146103e9578063405e87fc1461042057806349986eed14610477578063570ca735146104bc5780636d65db5614610513578063704b6c021461053e57806385294b8b1461058157806399ff59b1146105c65780639b8d30641461067f578063a1ed6ba1146106c2578063b187bd2614610705578063b2002ef414610734578063b3ab15fb14610766578063bedb86fb146107a9578063bfae2f0e146107d8578063d11072381461082f578063df03471914610896575b005b34801561015757600080fd5b506101606108c1565b604051808267ffffffffffffffff1667ffffffffffffffff16815260200191505060405180910390f35b34801561019657600080fd5b506101c36004803603810190808035906020019082018035906020019190919293919293905050506108db565b604051808215151515815260200191505060405180910390f35b3480156101e957600080fd5b50610216600480360381019080803590602001908201803590602001919091929391929390505050610a85565b005b34801561022457600080fd5b5061022d610cc4565b6040518082600681111561023d57fe5b60ff16815260200191505060405180910390f35b34801561025d57600080fd5b5061029460048036038101908080359060200190929190803590602001908201803590602001919091929391929390505050610cd7565b604051808215151515815260200191505060405180910390f35b3480156102ba57600080fd5b506102c3610ddf565b604051808273ffffffffffffffffffffffffffffffffffffffff1673ffffffffffffffffffffffffffffffffffffffff16815260200191505060405180910390f35b34801561031157600080fd5b5061033060048036038101908080359060200190929190505050610e05565b604051808373ffffffffffffffffffffffffffffffffffffffff1673ffffffffffffffffffffffffffffffffffffffff1681526020018267ffffffffffffffff1667ffffffffffffffff1681526020019250505060405180910390f35b34801561039957600080fd5b506103a2610e68565b604051808981526020018881526020018781526020018681526020018581526020018481526020018381526020018281526020019850505050505050505060405180910390f35b3480156103f557600080fd5b5061041e600480360381019080803567ffffffffffffffff169060200190929190505050610f61565b005b34801561042c57600080fd5b50610435611052565b604051808273ffffffffffffffffffffffffffffffffffffffff1673ffffffffffffffffffffffffffffffffffffffff16815260200191505060405180910390f35b34801561048357600080fd5b506104a260048036038101908080359060200190929190505050611078565b604051808215151515815260200191505060405180910390f35b3480156104c857600080fd5b506104d161177f565b604051808273ffffffffffffffffffffffffffffffffffffffff1673ffffffffffffffffffffffffffffffffffffffff16815260200191505060405180910390f35b34801561051f57600080fd5b506105286117a5565b6040518082815260200191505060405180910390f35b34801561054a57600080fd5b5061057f600480360381019080803573ffffffffffffffffffffffffffffffffffffffff1690602001909291905050506117ab565b005b34801561058d57600080fd5b506105ac60048036038101908080359060200190929190505050611959565b604051808215151515815260200191505060405180910390f35b3480156105d257600080fd5b506105db611e4b565b604051808867ffffffffffffffff1667ffffffffffffffff1681526020018767ffffffffffffffff1667ffffffffffffffff1681526020018663ffffffff1663ffffffff1681526020018563ffffffff1663ffffffff1681526020018463ffffffff1663ffffffff1681526020018363ffffffff1663ffffffff1681526020018263ffffffff1663ffffffff16815260200197505050505050505060405180910390f35b34801561068b57600080fd5b506106c0600480360381019080803573ffffffffffffffffffffffffffffffffffffffff169060200190929190505050611ef3565b005b3480156106ce57600080fd5b50610703600480360381019080803573ffffffffffffffffffffffffffffffffffffffff1690602001909291905050506120a1565b005b34801561071157600080fd5b5061071a61224f565b604051808215151515815260200191505060405180910390f35b34801561074057600080fd5b50610749612261565b604051808381526020018281526020019250505060405180910390f35b34801561077257600080fd5b506107a7600480360381019080803573ffffffffffffffffffffffffffffffffffffffff169060200190929190505050612940565b005b3480156107b557600080fd5b506107d6600480360381019080803515159060200190929190505050612aee565b005b3480156107e457600080fd5b506107ed612bcf565b604051808273ffffffffffffffffffffffffffffffffffffffff1673ffffffffffffffffffffffffffffffffffffffff16815260200191505060405180910390f35b34801561083b57600080fd5b5061085a60048036038101908080359060200190929190505050612bf5565b604051808481526020018363ffffffff1663ffffffff1681526020018263ffffffff1663ffffffff168152602001935050505060405180910390f35b3480156108a257600080fd5b506108ab612c4e565b6040518082815260200191505060405180910390f35b600260149054906101000a900467ffffffffffffffff1681565b6000600160009054906101000a900473ffffffffffffffffffffffffffffffffffffffff1673ffffffffffffffffffffffffffffffffffffffff163373ffffffffffffffffffffffffffffffffffffffff161415156109a2576040517f08c379a00000000000000000000000000000000000000000000000000000000081526004018080602001828103825260068152602001807f6e6f74206f70000000000000000000000000000000000000000000000000000081525060200191505060405180910390fd5b600360068111156109af57fe5b6002601c9054906101000a900460ff1660068111156109ca57fe5b141515610a3f576040517f08c379a000000000000000000000000000000000000000000000000000000000815260040180806020018281038252600c8152602001807f737461747573206572726f72000000000000000000000000000000000000000081525060200191505060405180910390fd5b610a7d600480549050848480806020026020016040519081016040528093929190818152602001838360200280828437820191505050505050612dcb565b905092915050565b60006060600060019054906101000a900473ffffffffffffffffffffffffffffffffffffffff1673ffffffffffffffffffffffffffffffffffffffff163373ffffffffffffffffffffffffffffffffffffffff16141515610b4e576040517f08c379a00000000000000000000000000000000000000000000000000000000081526004018080602001828103825260098152602001807f6e6f742061646d696e000000000000000000000000000000000000000000000081525060200191505060405180910390fd5b600073ffffffffffffffffffffffffffffffffffffffff16600260009054906101000a900473ffffffffffffffffffffffffffffffffffffffff1673ffffffffffffffffffffffffffffffffffffffff1614151515610c15576040517f08c379a000000000000000000000000000000000000000000000000000000000815260040180806020018281038252600c8152602001807f66696e616e63652069732030000000000000000000000000000000000000000081525060200191505060405180910390fd5b610c6d8484808060200260200160405190810160405280939291908181526020018383602002808284378201915050505050503073ffffffffffffffffffffffffffffffffffffffff1661312990919063ffffffff16565b91509150610cbe8282600260009054906101000a900473ffffffffffffffffffffffffffffffffffffffff1673ffffffffffffffffffffffffffffffffffffffff166132ed9092919063ffffffff16565b50505050565b6002601c9054906101000a900460ff1681565b60008060019054906101000a900473ffffffffffffffffffffffffffffffffffffffff1673ffffffffffffffffffffffffffffffffffffffff163373ffffffffffffffffffffffffffffffffffffffff16141515610d9d576040517f08c379a00000000000000000000000000000000000000000000000000000000081526004018080602001828103825260098152602001807f6e6f742061646d696e000000000000000000000000000000000000000000000081525060200191505060405180910390fd5b610dd684848480806020026020016040519081016040528093929190818152602001838360200280828437820191505050505050612dcb565b90509392505050565b600260009054906101000a900473ffffffffffffffffffffffffffffffffffffffff1681565b600881815481101515610e1457fe5b906000526020600020016000915090508060000160009054906101000a900473ffffffffffffffffffffffffffffffffffffffff16908060000160149054906101000a900467ffffffffffffffff16905082565b600080600080600080600080600060016004805490500398506002601c9054906101000a900460ff166006811115610e9c57fe5b9750600489815481101515610ead57fe5b9060005260206000209060030201905060055492508060020160009054906101000a900463ffffffff1663ffffffff1691508060020160049054906101000a900463ffffffff1663ffffffff169350600660000160149054906101000a900463ffffffff1663ffffffff169650600660000160189054906101000a900463ffffffff1663ffffffff169550600660000160109054906101000a900463ffffffff1663ffffffff169450509091929394959697565b600060019054906101000a900473ffffffffffffffffffffffffffffffffffffffff1673ffffffffffffffffffffffffffffffffffffffff163373ffffffffffffffffffffffffffffffffffffffff16141515611026576040517f08c379a00000000000000000000000000000000000000000000000000000000081526004018080602001828103825260098152602001807f6e6f742061646d696e000000000000000000000000000000000000000000000081525060200191505060405180910390fd5b80600260146101000a81548167ffffffffffffffff021916908367ffffffffffffffff16021790555050565b600360009054906101000a900473ffffffffffffffffffffffffffffffffffffffff1681565b6000806000806000806000600160009054906101000a900473ffffffffffffffffffffffffffffffffffffffff1673ffffffffffffffffffffffffffffffffffffffff163373ffffffffffffffffffffffffffffffffffffffff16141515611148576040517f08c379a00000000000000000000000000000000000000000000000000000000081526004018080602001828103825260068152602001807f6e6f74206f70000000000000000000000000000000000000000000000000000081525060200191505060405180910390fd5b6002601c9054906101000a900460ff1695506001600681111561116757fe5b86600681111561117357fe5b148061119557506002600681111561118757fe5b86600681111561119357fe5b145b1515611209576040517f08c379a000000000000000000000000000000000000000000000000000000000815260040180806020018281038252600c8152602001807f737461747573206572726f72000000000000000000000000000000000000000081525060200191505060405180910390fd5b600088111515611281576040517f08c379a00000000000000000000000000000000000000000000000000000000081526004018080602001828103825260098152602001807f6c6f6f70436e742030000000000000000000000000000000000000000000000081525060200191505060405180910390fd5b6002600681111561128e57fe5b86600681111561129a57fe5b1415156112c557600280601c6101000a81548160ff021916908360068111156112bf57fe5b02179055505b600660000160109054906101000a900463ffffffff169450600660000160149054906101000a900463ffffffff16935060008463ffffffff1614156113815761137c6040805190810160405280600260009054906101000a900473ffffffffffffffffffffffffffffffffffffffff1673ffffffffffffffffffffffffffffffffffffffff168152602001600660000160089054906101000a900467ffffffffffffffff1667ffffffffffffffff16815250613417565b600193505b600092505b8783101561174b578463ffffffff168463ffffffff161015156115b15783600660000160146101000a81548163ffffffff021916908363ffffffff16021790555060036002601c6101000a81548160ff021916908360068111156113e657fe5b0217905550600360009054906101000a900473ffffffffffffffffffffffffffffffffffffffff1673ffffffffffffffffffffffffffffffffffffffff1663941e8e4d60006040518263ffffffff167c01000000000000000000000000000000000000000000000000000000000281526004018082151515158152602001915050600060405180830381600087803b15801561148157600080fd5b505af1158015611495573d6000803e3d6000fd5b5050505042600660010160006101000a81548163ffffffff021916908363ffffffff1602179055507f0b0b865a94f64a4460fa4e8449633c2c36b9f7a7398850bea03652fd6550c2e86006600001601c9054906101000a900463ffffffff16600660000160009054906101000a900467ffffffffffffffff16600660000160089054906101000a900467ffffffffffffffff16600660000160189054906101000a900463ffffffff16604051808563ffffffff1663ffffffff1681526020018467ffffffffffffffff1667ffffffffffffffff1681526020018367ffffffffffffffff1667ffffffffffffffff1681526020018263ffffffff1663ffffffff16815260200194505050505060405180910390a160019650611774565b600360009054906101000a900473ffffffffffffffffffffffffffffffffffffffff1673ffffffffffffffffffffffffffffffffffffffff1663732158b8856040518263ffffffff167c0100000000000000000000000000000000000000000000000000000000028152600401808263ffffffff1681526020019150506040805180830381600087803b15801561164757600080fd5b505af115801561165b573d6000803e3d6000fd5b505050506040513d604081101561167157600080fd5b810190808051906020019092919080519060200190929190505050915091506000811180156116cd5750600073ffffffffffffffffffffffffffffffffffffffff168273ffffffffffffffffffffffffffffffffffffffff1614155b80156116f557506116f38273ffffffffffffffffffffffffffffffffffffffff166135bf565b155b156117385761173760408051908101604052808473ffffffffffffffffffffffffffffffffffffffff1681526020018367ffffffffffffffff16815250613417565b5b6001840193508280600101935050611386565b83600660000160146101000a81548163ffffffff021916908363ffffffff160217905550600096505b505050505050919050565b600160009054906101000a900473ffffffffffffffffffffffffffffffffffffffff1681565b60055481565b600060019054906101000a900473ffffffffffffffffffffffffffffffffffffffff1673ffffffffffffffffffffffffffffffffffffffff163373ffffffffffffffffffffffffffffffffffffffff16141515611870576040517f08c379a00000000000000000000000000000000000000000000000000000000081526004018080602001828103825260098152602001807f6e6f742061646d696e000000000000000000000000000000000000000000000081525060200191505060405180910390fd5b600073ffffffffffffffffffffffffffffffffffffffff168173ffffffffffffffffffffffffffffffffffffffff1614151515611915576040517f08c379a000000000000000000000000000000000000000000000000000000000815260040180806020018281038252601c8152602001807f5f6e657741646d696e2063616e2774206265206164647265737320300000000081525060200191505060405180910390fd5b80600060016101000a81548173ffffffffffffffffffffffffffffffffffffffff021916908373ffffffffffffffffffffffffffffffffffffffff16021790555050565b6000806000806000806000806000806000806000600160009054906101000a900473ffffffffffffffffffffffffffffffffffffffff1673ffffffffffffffffffffffffffffffffffffffff163373ffffffffffffffffffffffffffffffffffffffff16141515611a32576040517f08c379a00000000000000000000000000000000000000000000000000000000081526004018080602001828103825260068152602001807f6e6f74206f70000000000000000000000000000000000000000000000000000081525060200191505060405180910390fd5b6002601c9054906101000a900460ff169b5060046006811115611a5157fe5b8c6006811115611a5d57fe5b1480611a7f575060056006811115611a7157fe5b8c6006811115611a7d57fe5b145b1515611af3576040517f08c379a000000000000000000000000000000000000000000000000000000000815260040180806020018281038252600c8152602001807f737461747573206572726f72000000000000000000000000000000000000000081525060200191505060405180910390fd5b60008e111515611b6b576040517f08c379a00000000000000000000000000000000000000000000000000000000081526004018080602001828103825260098152602001807f6c6f6f70436e742030000000000000000000000000000000000000000000000081525060200191505060405180910390fd5b60056006811115611b7857fe5b8c6006811115611b8457fe5b141515611bb05760056002601c6101000a81548160ff02191690836006811115611baa57fe5b02179055505b6001600480549050039a5060048b815481101515611bca57fe5b90600052602060002090600302019950600660000160189054906101000a900463ffffffff169850600660000160009054906101000a900467ffffffffffffffff169750600554965089600001549550896001019450600093505b8d841015611e2e578863ffffffff1687101515611d4d5786600581905550428a60020160046101000a81548163ffffffff021916908363ffffffff16021790555060066002601c6101000a81548160ff02191690836006811115611c8557fe5b02179055508a7fbb76ccc24ce40a8cb1c2311a60f32c37f9ea39fb26f8f1e5abb037f0049f2d9787878c8e60020160049054906101000a900463ffffffff1660405180858152602001806020018463ffffffff1663ffffffff1681526020018363ffffffff1663ffffffff1681526020018281038252858181548152602001915080548015611d3357602002820191906000526020600020905b815481526020019060010190808311611d1f575b50509550505050505060405180910390a260019c50611e3a565b600887815481101515611d5c57fe5b9060005260206000200192508260000160009054906101000a900473ffffffffffffffffffffffffffffffffffffffff1691508260000160149054906101000a900467ffffffffffffffff1690508173ffffffffffffffffffffffffffffffffffffffff16878c7febcf36c0fe1eda3346569ea4d001a645de8cd14028c4c140e7cfaa7c72b4cf7a84604051808267ffffffffffffffff1667ffffffffffffffff16815260200191505060405180910390a4611e1b82828a89896135d8565b6001870196508380600101945050611c25565b8660058190555060009c505b505050505050505050505050919050565b60068060000160009054906101000a900467ffffffffffffffff16908060000160089054906101000a900467ffffffffffffffff16908060000160109054906101000a900463ffffffff16908060000160149054906101000a900463ffffffff16908060000160189054906101000a900463ffffffff169080600001601c9054906101000a900463ffffffff16908060010160009054906101000a900463ffffffff16905087565b600260009054906101000a900473ffffffffffffffffffffffffffffffffffffffff1673ffffffffffffffffffffffffffffffffffffffff163373ffffffffffffffffffffffffffffffffffffffff16141515611fb8576040517f08c379a000000000000000000000000000000000000000000000000000000000815260040180806020018281038252600b8152602001807f6e6f742066696e616e636500000000000000000000000000000000000000000081525060200191505060405180910390fd5b600073ffffffffffffffffffffffffffffffffffffffff168173ffffffffffffffffffffffffffffffffffffffff161415151561205d576040517f08c379a000000000000000000000000000000000000000000000000000000000815260040180806020018281038252600a8152602001807f5f6164647220697320300000000000000000000000000000000000000000000081525060200191505060405180910390fd5b80600260006101000a81548173ffffffffffffffffffffffffffffffffffffffff021916908373ffffffffffffffffffffffffffffffffffffffff16021790555050565b600060019054906101000a900473ffffffffffffffffffffffffffffffffffffffff1673ffffffffffffffffffffffffffffffffffffffff163373ffffffffffffffffffffffffffffffffffffffff16141515612166576040517f08c379a00000000000000000000000000000000000000000000000000000000081526004018080602001828103825260098152602001807f6e6f742061646d696e000000000000000000000000000000000000000000000081525060200191505060405180910390fd5b600073ffffffffffffffffffffffffffffffffffffffff168173ffffffffffffffffffffffffffffffffffffffff161415151561220b576040517f08c379a00000000000000000000000000000000000000000000000000000000081526004018080602001828103825260188152602001807f5f7374616b6572436f6e7472616374416464722069732030000000000000000081525060200191505060405180910390fd5b80600360006101000a81548173ffffffffffffffffffffffffffffffffffffffff021916908373ffffffffffffffffffffffffffffffffffffffff16021790555050565b6000809054906101000a900460ff1681565b600080600080600160009054906101000a900473ffffffffffffffffffffffffffffffffffffffff1673ffffffffffffffffffffffffffffffffffffffff163373ffffffffffffffffffffffffffffffffffffffff1614151561232c576040517f08c379a00000000000000000000000000000000000000000000000000000000081526004018080602001828103825260068152602001807f6e6f74206f70000000000000000000000000000000000000000000000000000081525060200191505060405180910390fd5b6000600681111561233957fe5b6002601c9054906101000a900460ff16600681111561235457fe5b148061238557506003600681111561236857fe5b6002601c9054906101000a900460ff16600681111561238357fe5b145b806123b4575060068081111561239757fe5b6002601c9054906101000a900460ff1660068111156123b257fe5b145b1515612428576040517f08c379a000000000000000000000000000000000000000000000000000000000815260040180806020018281038252600c8152602001807f737461747573206572726f72000000000000000000000000000000000000000081525060200191505060405180910390fd5b600360009054906101000a900473ffffffffffffffffffffffffffffffffffffffff1673ffffffffffffffffffffffffffffffffffffffff16630335fd4d6040518163ffffffff167c01000000000000000000000000000000000000000000000000000000000281526004016040805180830381600087803b1580156124ad57600080fd5b505af11580156124c1573d6000803e3d6000fd5b505050506040513d60408110156124d757600080fd5b8101908080519060200190929190805190602001909291905050509150915060008211151561256e576040517f08c379a000000000000000000000000000000000000000000000000000000000815260040180806020018281038252600e8152602001807f646576416d6f756e74206973203000000000000000000000000000000000000081525060200191505060405180910390fd5b6000811115156125e6576040517f08c379a00000000000000000000000000000000000000000000000000000000081526004018080602001828103825260108152602001807f746f74616c416d6f756e7420697320300000000000000000000000000000000081525060200191505060405180910390fd5b80600660000160006101000a81548167ffffffffffffffff021916908367ffffffffffffffff16021790555081600660000160086101000a81548167ffffffffffffffff021916908367ffffffffffffffff1602179055506001600360009054906101000a900473ffffffffffffffffffffffffffffffffffffffff1673ffffffffffffffffffffffffffffffffffffffff1663438f32e46040518163ffffffff167c0100000000000000000000000000000000000000000000000000000000028152600401602060405180830381600087803b1580156126c657600080fd5b505af11580156126da573d6000803e3d6000fd5b505050506040513d60208110156126f057600080fd5b810190808051906020019092919050505001600660000160106101000a81548163ffffffff021916908363ffffffff1602179055506000600660000160146101000a81548163ffffffff021916908363ffffffff1602179055506000600660000160186101000a81548163ffffffff021916908363ffffffff16021790555060016006600001601c8282829054906101000a900463ffffffff160192506101000a81548163ffffffff021916908363ffffffff160217905550600360009054906101000a900473ffffffffffffffffffffffffffffffffffffffff1673ffffffffffffffffffffffffffffffffffffffff1663941e8e4d60016040518263ffffffff167c01000000000000000000000000000000000000000000000000000000000281526004018082151515158152602001915050600060405180830381600087803b15801561283f57600080fd5b505af1158015612853573d6000803e3d6000fd5b505050507ffa6dad6eb312f5e9ebe90f6a22f124900d874d0d484b32918fe9854468a6ef976006600001601c9054906101000a900463ffffffff168284600660000160109054906101000a900463ffffffff16604051808563ffffffff1663ffffffff1681526020018467ffffffffffffffff1667ffffffffffffffff1681526020018367ffffffffffffffff1667ffffffffffffffff1681526020018263ffffffff1663ffffffff16815260200194505050505060405180910390a160016002601c6101000a81548160ff0219169083600681111561292f57fe5b021790555081819350935050509091565b600060019054906101000a900473ffffffffffffffffffffffffffffffffffffffff1673ffffffffffffffffffffffffffffffffffffffff163373ffffffffffffffffffffffffffffffffffffffff16141515612a05576040517f08c379a00000000000000000000000000000000000000000000000000000000081526004018080602001828103825260098152602001807f6e6f742061646d696e000000000000000000000000000000000000000000000081525060200191505060405180910390fd5b600073ffffffffffffffffffffffffffffffffffffffff168173ffffffffffffffffffffffffffffffffffffffff1614151515612aaa576040517f08c379a00000000000000000000000000000000000000000000000000000000081526004018080602001828103825260188152602001807f5f616464722063616e277420626520616464726573732030000000000000000081525060200191505060405180910390fd5b80600160006101000a81548173ffffffffffffffffffffffffffffffffffffffff021916908373ffffffffffffffffffffffffffffffffffffffff16021790555050565b600060019054906101000a900473ffffffffffffffffffffffffffffffffffffffff1673ffffffffffffffffffffffffffffffffffffffff163373ffffffffffffffffffffffffffffffffffffffff16141515612bb3576040517f08c379a00000000000000000000000000000000000000000000000000000000081526004018080602001828103825260098152602001807f6e6f742061646d696e000000000000000000000000000000000000000000000081525060200191505060405180910390fd5b806000806101000a81548160ff02191690831515021790555050565b600060019054906101000a900473ffffffffffffffffffffffffffffffffffffffff1681565b600481815481101515612c0457fe5b90600052602060002090600302016000915090508060000154908060020160009054906101000a900463ffffffff16908060020160049054906101000a900463ffffffff16905083565b6000600160009054906101000a900473ffffffffffffffffffffffffffffffffffffffff1673ffffffffffffffffffffffffffffffffffffffff163373ffffffffffffffffffffffffffffffffffffffff16141515612d15576040517f08c379a00000000000000000000000000000000000000000000000000000000081526004018080602001828103825260068152602001807f6e6f74206f70000000000000000000000000000000000000000000000000000081525060200191505060405180910390fd5b6002601c9054906101000a900460ff166006811115612d3057fe5b60056006811115612d3d57fe5b141515612db2576040517f08c379a000000000000000000000000000000000000000000000000000000000815260040180806020018281038252600c8152602001807f737461747573206572726f72000000000000000000000000000000000000000081525060200191505060405180910390fd5b6001600560008282540192505081905550600554905090565b60008060006060429250600260149054906101000a900467ffffffffffffffff1667ffffffffffffffff16600660010160009054906101000a900463ffffffff16840363ffffffff161115612e235760009350613120565b612e4c853073ffffffffffffffffffffffffffffffffffffffff1661312990919063ffffffff16565b9150915060048054905086101515612f375760046080604051908101604052808481526020018381526020018563ffffffff168152602001600063ffffffff1681525090806001815401808255809150509060018203906000526020600020906003020160009091929091909150600082015181600001556020820151816001019080519060200190612ee0929190613c2f565b5060408201518160020160006101000a81548163ffffffff021916908363ffffffff16021790555060608201518160020160046101000a81548163ffffffff021916908363ffffffff160217905550505050612ffc565b6080604051908101604052808381526020018281526020018463ffffffff168152602001600063ffffffff16815250600487815481101515612f7557fe5b9060005260206000209060030201600082015181600001556020820151816001019080519060200190612fa9929190613c2f565b5060408201518160020160006101000a81548163ffffffff021916908363ffffffff16021790555060608201518160020160046101000a81548163ffffffff021916908363ffffffff1602179055509050505b6000600581905550857f236497678c48af11b98795525b7ed7d9048f22e37e2812a42b38ccde50a3e651600660000160009054906101000a900467ffffffffffffffff168484600660000160189054906101000a900463ffffffff1688604051808667ffffffffffffffff1667ffffffffffffffff168152602001858152602001806020018463ffffffff1663ffffffff1681526020018363ffffffff1663ffffffff168152602001828103825285818151815260200191508051906020019060200280838360005b838110156130e05780820151818401526020810190506130c5565b50505050905001965050505050505060405180910390a260046002601c6101000a81548160ff0219169083600681111561311657fe5b0217905550600193505b50505092915050565b60006060600080606060008060008973ffffffffffffffffffffffffffffffffffffffff1631955088519450846040519080825280602002602001820160405280156131845781602001602082028038833980820191505090505b509350600092505b848310156132da5788838151811015156131a257fe5b9060200190602002015191508173ffffffffffffffffffffffffffffffffffffffff166370a082318b6040518263ffffffff167c0100000000000000000000000000000000000000000000000000000000028152600401808273ffffffffffffffffffffffffffffffffffffffff1673ffffffffffffffffffffffffffffffffffffffff168152602001915050602060405180830381600087803b15801561324957600080fd5b505af115801561325d573d6000803e3d6000fd5b505050506040513d602081101561327357600080fd5b810190808051906020019092919050505090506affffffffffffffffffffff811660588373ffffffffffffffffffffffffffffffffffffffff169060020a020184848151811015156132c157fe5b906020019060200201818152505060018301925061318c565b8584975097505050505050509250929050565b60008060008060008073ffffffffffffffffffffffffffffffffffffffff168873ffffffffffffffffffffffffffffffffffffffff1614151515613399576040517f08c379a000000000000000000000000000000000000000000000000000000000815260040180806020018281038252600a8152602001807f5f6164647220697320300000000000000000000000000000000000000000000081525060200191505060405180910390fd5b6000945060008711156133b1576133b088886137b3565b5b85519350600091505b8382101561340d5785828151811015156133d057fe5b9060200190602002015190506affffffffffffffffffffff811694506058819060020a90049250613402888487613856565b6001820191506133ba565b5050505050505050565b6000600660000160189054906101000a900463ffffffff1663ffffffff169050600880549050811015156134ed5760088290806001815401808255809150509060018203906000526020600020016000909192909190915060008201518160000160006101000a81548173ffffffffffffffffffffffffffffffffffffffff021916908373ffffffffffffffffffffffffffffffffffffffff16021790555060208201518160000160146101000a81548167ffffffffffffffff021916908367ffffffffffffffff160217905550505050613581565b816008828154811015156134fd57fe5b9060005260206000200160008201518160000160006101000a81548173ffffffffffffffffffffffffffffffffffffffff021916908373ffffffffffffffffffffffffffffffffffffffff16021790555060208201518160000160146101000a81548167ffffffffffffffff021916908367ffffffffffffffff1602179055509050505b6001600660000160188282829054906101000a900463ffffffff160192506101000a81548163ffffffff021916908363ffffffff1602179055505050565b600080823b905060008163ffffffff1611915050919050565b60008060008060008073ffffffffffffffffffffffffffffffffffffffff168a73ffffffffffffffffffffffffffffffffffffffff1614151515613684576040517f08c379a000000000000000000000000000000000000000000000000000000000815260040180806020018281038252600b8152602001807f7374616b6572206973203000000000000000000000000000000000000000000081525060200191505060405180910390fd5b60008711156136ef576136ee6136c98967ffffffffffffffff166136bb8c67ffffffffffffffff168b613a4e90919063ffffffff16565b613b1b90919063ffffffff16565b8b73ffffffffffffffffffffffffffffffffffffffff166137b390919063ffffffff16565b5b85805490509450600092505b848310156137a757858381548110151561371157fe5b906000526020600020015491506affffffffffffffffffffff821690506058829060020a9004935061379c846137768a67ffffffffffffffff166137688d67ffffffffffffffff1686613a4e90919063ffffffff16565b613b1b90919063ffffffff16565b8c73ffffffffffffffffffffffffffffffffffffffff166138569092919063ffffffff16565b6001830192506136fb565b50505050505050505050565b6000811115613852578173ffffffffffffffffffffffffffffffffffffffff166108fc829081150290604051600060405180830381858888f19350505050158015613802573d6000803e3d6000fd5b508173ffffffffffffffffffffffffffffffffffffffff167f066ebf901587aec1338abcd7716912d4ab714a550c993de14a7a8c8b6a735aba826040518082815260200191505060405180910390a25b5050565b600073ffffffffffffffffffffffffffffffffffffffff168273ffffffffffffffffffffffffffffffffffffffff16141515156138fb576040517f08c379a00000000000000000000000000000000000000000000000000000000081526004018080602001828103825260098152602001807f616464722069732030000000000000000000000000000000000000000000000081525060200191505060405180910390fd5b6000811115613a49578173ffffffffffffffffffffffffffffffffffffffff1663a9059cbb84836040518363ffffffff167c0100000000000000000000000000000000000000000000000000000000028152600401808373ffffffffffffffffffffffffffffffffffffffff1673ffffffffffffffffffffffffffffffffffffffff16815260200182815260200192505050602060405180830381600087803b1580156139a757600080fd5b505af11580156139bb573d6000803e3d6000fd5b505050506040513d60208110156139d157600080fd5b8101908080519060200190929190505050508173ffffffffffffffffffffffffffffffffffffffff168373ffffffffffffffffffffffffffffffffffffffff167f52a1ece0f3428b1c7032ada833db5214b033972154dcfa1f22bf4e6fb29927a3836040518082815260200191505060405180910390a35b505050565b6000806000841415613a635760009150613b14565b8284029050828482811515613a7457fe5b04141515613b10576040517f08c379a00000000000000000000000000000000000000000000000000000000081526004018080602001828103825260218152602001807f536166654d6174683a206d756c7469706c69636174696f6e206f766572666c6f81526020017f770000000000000000000000000000000000000000000000000000000000000081525060400191505060405180910390fd5b8091505b5092915050565b6000613b5d83836040805190810160405280601a81526020017f536166654d6174683a206469766973696f6e206279207a65726f000000000000815250613b65565b905092915050565b6000806000841183901515613c15576040517f08c379a00000000000000000000000000000000000000000000000000000000081526004018080602001828103825283818151815260200191508051906020019080838360005b83811015613bda578082015181840152602081019050613bbf565b50505050905090810190601f168015613c075780820380516001836020036101000a031916815260200191505b509250505060405180910390fd5b508385811515613c2157fe5b049050809150509392505050565b828054828255906000526020600020908101928215613c6b579160200282015b82811115613c6a578251825591602001919060010190613c4f565b5b509050613c789190613c7c565b5090565b613c9e91905b80821115613c9a576000816000905550600101613c82565b5090565b905600a165627a7a7230582087bcc6ce0d030e8004f172c9f43d89130f30865421b5e830248aa3d1086fcf890029",
  "source": "pragma solidity ^0.4.23;\n\nimport \"./BaseAdmin.sol\";\nimport \"./SafeMath.sol\";\nimport \"./AddressUtil.sol\";\n\ninterface IMoonStakerContract {\n    function setStakePause(bool _pause) external;\n    function getTotalStakeMoon() external view returns(uint256 devAmount, uint256 totalAmount);\n    function getMaxHolderIndex() external view returns(uint256);\n    function getMoonAmountByIndex(uint256 _index) external view returns(address owner, uint256 moonAmount);\n}\n\ncontract MoonDividend is FinanceAdmin {\n    using SafeMath for uint256;\n    using SafeMath64 for uint64;\n    using AddressUtil for address;\n\n    event SnapshotStarted(uint32 snapshotVersion, uint64 totalStakingAmount, uint64 devStakingAmount, uint32 stakerCnt);\n    event SnapshotCompleted(uint32 snapshotVersion, uint64 totalStakingAmount, uint64 devStakingAmount, uint32 stakingInfoLength);\n    event MoonStakingDividendPlusCreate(uint256 indexed round,uint64 totalStakingAmount, uint256 bnbValue, uint256[] bep20s, uint32 stakingInfoLength, uint32 start);\n    event MoonStakingDividendPlusStep(uint256 indexed round, uint256 indexed dividIndex, address indexed staker, uint64 stakingAmnt);\n    event MoonStakingDividendPlusComplete(uint256 indexed round, uint256 bnbValue, uint256[] bep20s, uint32 stakingInfoLength, uint32 end);\n\n    struct Dividend {\n        uint256 bnbValue;\n        uint256[] bep20s;\n\n        uint32 start;\n        uint32 end;\n    }\n\n    struct StakeSnapshot {\n        uint64 totalStakingAmount;\n        uint64 devStakingAmount;\n        uint32 stakerCnt;\n        uint32 nextStaker;\n        uint32 nextStakingIndex;\n        uint32 snapshotVersion;\n        uint32 completeTime;\n    }\n\n    struct StakingInfo {\n        address staker;\n        uint64 stakingAmt;\n    }\n\n    uint64 public snapshotValidDuration = 24*60*60;\n\n    enum Status {\n        INIT,//0\n        INIT_SNAPSHOT,//1\n        DOING_SNAPSHOT,//2\n        COMPLETE_SNAPSHOT,//3\n        INIT_DIVIDEND,//4\n        DOING_DIVIDEND,//5\n        COMPLETE_DIVIDEND//6\n    }\n\n    Status public status;\n\n    IMoonStakerContract public moonStakerIns;\n\n    Dividend[] public dividendList;\n\n    uint256 public nextDividendIndex;\n\n    StakeSnapshot public stakeSnapshot;\n\n    StakingInfo[] public stakerInfos;\n\n    constructor() public {\n        dividendList.push(Dividend(0, new uint256[](0), 0, 0));\n    }\n\n    function() external payable {}\n\n    function setSnapshotValidDuration(uint64 _snapshotValidDuration) external onlyAdmin {\n        snapshotValidDuration = _snapshotValidDuration;\n    }\n\n    function setMoonStakerContract(address _stakerContractAddr) external onlyAdmin {\n        require(_stakerContractAddr != address(0), \"_stakerContractAddr is 0\");\n        moonStakerIns = IMoonStakerContract(_stakerContractAddr);\n    }\n\n    function updateStakingInfo(StakingInfo staking) internal {\n        uint256 index = stakeSnapshot.nextStakingIndex;\n        if (index >= stakerInfos.length) {\n            stakerInfos.push(staking);\n        } else {\n            stakerInfos[index] = staking;\n        }\n        stakeSnapshot.nextStakingIndex += 1;\n    }\n\n    function createStakeSnapshot() external onlyOperator returns (uint256, uint256) {\n        require(status == Status.INIT ||\n        status == Status.COMPLETE_SNAPSHOT ||\n        status == Status.COMPLETE_DIVIDEND, \"status error\");\n        (uint256 devAmount, uint256 totalAmount) = moonStakerIns.getTotalStakeMoon();\n        require(devAmount > 0, \"devAmount is 0\");\n        require(totalAmount > 0, \"totalAmount is 0\");\n\n        stakeSnapshot.totalStakingAmount = uint64(totalAmount);\n        stakeSnapshot.devStakingAmount = uint64(devAmount);\n\n        stakeSnapshot.stakerCnt = uint32(moonStakerIns.getMaxHolderIndex() + 1);\n        stakeSnapshot.nextStaker = 0;\n        stakeSnapshot.nextStakingIndex = 0;\n        stakeSnapshot.snapshotVersion += 1;\n\n        moonStakerIns.setStakePause(true);\n\n        emit SnapshotStarted(stakeSnapshot.snapshotVersion, uint64(totalAmount), uint64(devAmount), stakeSnapshot.stakerCnt);\n        status = Status.INIT_SNAPSHOT;\n        return (devAmount, totalAmount);\n    }\n\n    function doNextSnapshot(uint256 loopCnt) external onlyOperator returns (bool) {\n        Status ss = status;\n        require(ss == Status.INIT_SNAPSHOT || ss == Status.DOING_SNAPSHOT, \"status error\");\n        require(loopCnt > 0, \"loopCnt 0\");\n\n        if (ss != Status.DOING_SNAPSHOT) {\n            status = Status.DOING_SNAPSHOT;\n        }\n        uint32 stakerCnt = stakeSnapshot.stakerCnt;\n\n        uint32 nextStaker = stakeSnapshot.nextStaker;\n\n        if (nextStaker == 0) {\n            updateStakingInfo(StakingInfo(finance, stakeSnapshot.devStakingAmount));\n            nextStaker = 1;\n        }\n\n        for (uint256 i = 0; i < loopCnt; i++) {\n            if (nextStaker >= stakerCnt) {\n                stakeSnapshot.nextStaker = nextStaker;\n                status = Status.COMPLETE_SNAPSHOT;\n                moonStakerIns.setStakePause(false);\n                stakeSnapshot.completeTime = uint32(block.timestamp);\n                emit SnapshotCompleted(stakeSnapshot.snapshotVersion, stakeSnapshot.totalStakingAmount, stakeSnapshot.devStakingAmount, stakeSnapshot.nextStakingIndex);\n                return true;\n            }\n            (address staker, uint256 stakingAmount) = moonStakerIns.getMoonAmountByIndex(nextStaker);\n            if (stakingAmount > 0 && staker!= address(0) && !staker.isContract()) {\n                updateStakingInfo(StakingInfo(staker, uint64(stakingAmount)));\n            }\n            nextStaker += 1;\n        }\n\n        stakeSnapshot.nextStaker = nextStaker;\n        return false;\n    }\n\n    function createDividend(IBEP20[] addrs) external onlyOperator returns (bool) {\n        require(status == Status.COMPLETE_SNAPSHOT, \"status error\");\n        return _createDividend(dividendList.length, addrs);\n    }\n\n    function createDividend(uint256 index, IBEP20[] addrs) external onlyAdmin returns (bool) {\n        return _createDividend(index,  addrs);\n    }\n\n    function _createDividend(uint256 index, IBEP20[] addrs) internal returns (bool) {\n        uint32 t = uint32(block.timestamp);\n        if (t - stakeSnapshot.completeTime > snapshotValidDuration) {\n            return false;\n        }\n\n        (uint256 bnbValue, uint256[] memory bep20s) = address(this).getAllBalance(addrs);\n        if (index >= dividendList.length) {\n            dividendList.push(Dividend(bnbValue, bep20s, t, 0));\n        } else {\n            dividendList[index] = Dividend(bnbValue, bep20s, t, 0);\n        }\n        nextDividendIndex = 0;\n\n        emit MoonStakingDividendPlusCreate(index,stakeSnapshot.totalStakingAmount, bnbValue, bep20s, stakeSnapshot.nextStakingIndex, t);\n        status = Status.INIT_DIVIDEND;\n        return true;\n    }\n\n    function doNextDividend(uint256 loopCnt) external onlyOperator returns (bool) {\n        Status ss = status;\n        require(ss == Status.INIT_DIVIDEND || ss == Status.DOING_DIVIDEND, \"status error\");\n        require(loopCnt > 0, \"loopCnt 0\");\n        if (ss != Status.DOING_DIVIDEND) {\n            status = Status.DOING_DIVIDEND;\n        }\n\n        uint256 roundIndex = dividendList.length - 1;\n        Dividend storage dividend = dividendList[roundIndex];\n\n        uint32 stakingIndex = stakeSnapshot.nextStakingIndex;\n        uint64 totalStakingAmount = stakeSnapshot.totalStakingAmount;\n        uint256 divideIndex = nextDividendIndex;\n        uint256 bnbValue = dividend.bnbValue;\n        uint256[] storage bep20s= dividend.bep20s;\n\n        for (uint256 i = 0; i < loopCnt; i++) {\n            if (divideIndex >= stakingIndex) {\n                nextDividendIndex = divideIndex;\n                dividend.end = uint32(block.timestamp);\n                status = Status.COMPLETE_DIVIDEND;\n                emit MoonStakingDividendPlusComplete(roundIndex, bnbValue, bep20s, stakingIndex, dividend.end);\n                return true;\n            }\n\n            StakingInfo storage staking = stakerInfos[divideIndex];\n            address staker = staking.staker;\n            uint64 stakingAmt = staking.stakingAmt;\n            emit MoonStakingDividendPlusStep(roundIndex, divideIndex, staker, stakingAmt);\n            _transferToStacker(staker, stakingAmt, totalStakingAmount, bnbValue, bep20s);\n            divideIndex += 1;\n        }\n        nextDividendIndex = divideIndex;\n        return false;\n    }\n\n    function forwardNextDividendIndex() external onlyOperator returns(uint256) {\n        require(Status.DOING_DIVIDEND == status, \"status error\");\n        nextDividendIndex += 1;\n        return nextDividendIndex;\n    }\n\n    function getCurrentDivideInfo()\n    external\n    view\n    returns(\n        uint256 round,\n        uint256 curStatus,\n        uint256 nextStaker,\n        uint256 nextStakingIndex,\n        uint256 stakerCnt,\n        uint256 completeTime,\n        uint256 curDividendIndex,\n        uint256 start\n    )\n    {\n        round = uint256(dividendList.length - 1);\n        curStatus = uint256(status);\n\n        Dividend storage curDivide = dividendList[round];\n        curDividendIndex = nextDividendIndex;\n        start = curDivide.start;\n        completeTime = curDivide.end;\n\n        nextStaker = stakeSnapshot.nextStaker;\n        nextStakingIndex = stakeSnapshot.nextStakingIndex;\n        stakerCnt = stakeSnapshot.stakerCnt;\n    }\n\n    function _transferToStacker(address staker, uint64 stakingAmt, uint64 totalStakingAmount, uint256 _bnbValue, uint256[] storage bep20s) internal {\n        require(staker != address(0), \"staker is 0\");\n        if (_bnbValue > 0){\n            staker.transferBnb(_bnbValue.mul(stakingAmt).div(totalStakingAmount));\n        }\n\n        uint256 len = bep20s.length;\n        address tokenAddr;\n        for (uint256 i = 0; i < len; i += 1){\n            /*\n                |-- 21 Byte (address) --|-- 11 Byte (value) --|\n            */\n            uint256 bep20 = bep20s[i];\n            /*\n                11*8\n            */\n            uint256 val = bep20 & 0xffffffffffffffffffffff;\n            tokenAddr = address(bep20 >> 88);\n            staker.transferBep20(tokenAddr, val.mul(stakingAmt).div(totalStakingAmount));\n        }\n    }\n}\n",
  "sourcePath": "/Users/gordon/bian/dapp/dice/contracts/MoonDividend.sol",
  "compiler": {
    "name": "solc",
    "version": "0.4.25+commit.59dbf8f1.Emscripten.clang"
  },
  "schemaVersion": "3.2.0",
  "updatedAt": "2020-09-22T07:39:08.966Z",
  "networkType": "ethereum",
  "devdoc": {
    "methods": {}
  },
  "userdoc": {
    "methods": {}
  }
}