{
  "contractName": "Referralship",
  "abi": [
    {
      "constant": true,
      "inputs": [
        {
          "name": "",
          "type": "address"
        }
      ],
      "name": "referralCodeMap",
      "outputs": [
        {
          "name": "",
          "type": "string"
        }
      ],
      "payable": false,
      "stateMutability": "view",
      "type": "function"
    },
    {
      "constant": false,
      "inputs": [],
      "name": "doUnpause",
      "outputs": [],
      "payable": false,
      "stateMutability": "nonpayable",
      "type": "function"
    },
    {
      "constant": false,
      "inputs": [],
      "name": "doPause",
      "outputs": [],
      "payable": false,
      "stateMutability": "nonpayable",
      "type": "function"
    },
    {
      "constant": false,
      "inputs": [
        {
          "name": "_newAdmin",
          "type": "address"
        }
      ],
      "name": "setAdmin",
      "outputs": [],
      "payable": false,
      "stateMutability": "nonpayable",
      "type": "function"
    },
    {
      "constant": true,
      "inputs": [
        {
          "name": "",
          "type": "address"
        }
      ],
      "name": "safeOperator",
      "outputs": [
        {
          "name": "",
          "type": "bool"
        }
      ],
      "payable": false,
      "stateMutability": "view",
      "type": "function"
    },
    {
      "constant": true,
      "inputs": [],
      "name": "isPaused",
      "outputs": [
        {
          "name": "",
          "type": "bool"
        }
      ],
      "payable": false,
      "stateMutability": "view",
      "type": "function"
    },
    {
      "constant": true,
      "inputs": [
        {
          "name": "",
          "type": "bytes32"
        }
      ],
      "name": "referralCodeOwner",
      "outputs": [
        {
          "name": "",
          "type": "address"
        }
      ],
      "payable": false,
      "stateMutability": "view",
      "type": "function"
    },
    {
      "constant": true,
      "inputs": [
        {
          "name": "",
          "type": "address"
        }
      ],
      "name": "referralShipMap",
      "outputs": [
        {
          "name": "",
          "type": "address"
        }
      ],
      "payable": false,
      "stateMutability": "view",
      "type": "function"
    },
    {
      "inputs": [],
      "payable": false,
      "stateMutability": "nonpayable",
      "type": "constructor"
    },
    {
      "anonymous": false,
      "inputs": [
        {
          "indexed": true,
          "name": "_owner",
          "type": "address"
        },
        {
          "indexed": false,
          "name": "_code",
          "type": "string"
        }
      ],
      "name": "CreateReferral",
      "type": "event"
    },
    {
      "anonymous": false,
      "inputs": [
        {
          "indexed": true,
          "name": "_target",
          "type": "address"
        },
        {
          "indexed": true,
          "name": "_mentor",
          "type": "address"
        }
      ],
      "name": "ReferralShip",
      "type": "event"
    },
    {
      "constant": false,
      "inputs": [
        {
          "name": "_addr",
          "type": "address"
        },
        {
          "name": "_useful",
          "type": "bool"
        }
      ],
      "name": "setOperator",
      "outputs": [],
      "payable": false,
      "stateMutability": "nonpayable",
      "type": "function"
    },
    {
      "constant": true,
      "inputs": [
        {
          "name": "_code",
          "type": "string"
        }
      ],
      "name": "getAddrByReferralCode",
      "outputs": [
        {
          "name": "",
          "type": "address"
        }
      ],
      "payable": false,
      "stateMutability": "view",
      "type": "function"
    },
    {
      "constant": true,
      "inputs": [
        {
          "name": "_addr",
          "type": "address"
        }
      ],
      "name": "getReferralCodeByAddr",
      "outputs": [
        {
          "name": "",
          "type": "string"
        }
      ],
      "payable": false,
      "stateMutability": "view",
      "type": "function"
    },
    {
      "constant": true,
      "inputs": [
        {
          "name": "_target",
          "type": "address"
        }
      ],
      "name": "getReferralShip",
      "outputs": [
        {
          "name": "",
          "type": "address"
        }
      ],
      "payable": false,
      "stateMutability": "view",
      "type": "function"
    },
    {
      "constant": false,
      "inputs": [
        {
          "name": "_code",
          "type": "string"
        }
      ],
      "name": "createReferralCode",
      "outputs": [],
      "payable": false,
      "stateMutability": "nonpayable",
      "type": "function"
    },
    {
      "constant": false,
      "inputs": [
        {
          "name": "_target",
          "type": "address"
        },
        {
          "name": "_mentor",
          "type": "address"
        }
      ],
      "name": "setReferralShip",
      "outputs": [],
      "payable": false,
      "stateMutability": "nonpayable",
      "type": "function"
    },
    {
      "constant": false,
      "inputs": [
        {
          "name": "_seed",
          "type": "bytes32"
        }
      ],
      "name": "setCustomerSeed",
      "outputs": [],
      "payable": false,
      "stateMutability": "nonpayable",
      "type": "function"
    },
    {
      "constant": true,
      "inputs": [
        {
          "name": "_target",
          "type": "address"
        }
      ],
      "name": "getCustomerSeed",
      "outputs": [
        {
          "name": "",
          "type": "bytes32"
        }
      ],
      "payable": false,
      "stateMutability": "view",
      "type": "function"
    },
    {
      "constant": true,
      "inputs": [],
      "name": "getMySeed",
      "outputs": [
        {
          "name": "",
          "type": "bytes32"
        }
      ],
      "payable": false,
      "stateMutability": "view",
      "type": "function"
    }
  ],
  "bytecode": "0x608060405260008060006101000a81548160ff02191690831515021790555034801561002a57600080fd5b5033600060016101000a81548173ffffffffffffffffffffffffffffffffffffffff021916908373ffffffffffffffffffffffffffffffffffffffff16021790555033600060016101000a81548173ffffffffffffffffffffffffffffffffffffffff021916908373ffffffffffffffffffffffffffffffffffffffff1602179055504142604051602001808373ffffffffffffffffffffffffffffffffffffffff1673ffffffffffffffffffffffffffffffffffffffff166c01000000000000000000000000028152601401828152602001925050506040516020818303038152906040526040518082805190602001908083835b6020831015156101455780518252602082019150602081019050602083039250610120565b6001836020036101000a0380198251168184511680821785525050505050509050019150506040518091039020600681600019169055506113728061018b6000396000f3006080604052600436106100f1576000357c0100000000000000000000000000000000000000000000000000000000900463ffffffff1680631d361504146100f65780632d78094d1461017957806330d593a21461023557806330efb8d3146102945780633e0183d1146102ab57806349643881146102e6578063558a72971461031957806367d0661d14610368578063704b6c021461037f5780637291a26d146103c25780637b8b65a81461041d578063b187bd26146104d9578063b80e61f814610508578063bd275d8214610583578063c4f343fd146105e6578063df8da68f14610657578063fd594bc614610688575b600080fd5b34801561010257600080fd5b50610137600480360381019080803573ffffffffffffffffffffffffffffffffffffffff16906020019092919050505061070b565b604051808273ffffffffffffffffffffffffffffffffffffffff1673ffffffffffffffffffffffffffffffffffffffff16815260200191505060405180910390f35b34801561018557600080fd5b506101ba600480360381019080803573ffffffffffffffffffffffffffffffffffffffff169060200190929190505050610774565b6040518080602001828103825283818151815260200191508051906020019080838360005b838110156101fa5780820151818401526020810190506101df565b50505050905090810190601f1680156102275780820380516001836020036101000a031916815260200191505b509250505060405180910390f35b34801561024157600080fd5b50610276600480360381019080803573ffffffffffffffffffffffffffffffffffffffff169060200190929190505050610824565b60405180826000191660001916815260200191505060405180910390f35b3480156102a057600080fd5b506102a96108ea565b005b3480156102b757600080fd5b506102e4600480360381019080803590602001908201803590602001919091929391929390505050610962565b005b3480156102f257600080fd5b506102fb610c07565b60405180826000191660001916815260200191505060405180910390f35b34801561032557600080fd5b50610366600480360381019080803573ffffffffffffffffffffffffffffffffffffffff169060200190929190803515159060200190929190505050610c73565b005b34801561037457600080fd5b5061037d610d2a565b005b34801561038b57600080fd5b506103c0600480360381019080803573ffffffffffffffffffffffffffffffffffffffff169060200190929190505050610da2565b005b3480156103ce57600080fd5b50610403600480360381019080803573ffffffffffffffffffffffffffffffffffffffff169060200190929190505050610e7e565b604051808215151515815260200191505060405180910390f35b34801561042957600080fd5b5061045e600480360381019080803573ffffffffffffffffffffffffffffffffffffffff169060200190929190505050610e9e565b6040518080602001828103825283818151815260200191508051906020019080838360005b8381101561049e578082015181840152602081019050610483565b50505050905090810190601f1680156104cb5780820380516001836020036101000a031916815260200191505b509250505060405180910390f35b3480156104e557600080fd5b506104ee610f7f565b604051808215151515815260200191505060405180910390f35b34801561051457600080fd5b50610541600480360381019080803590602001908201803590602001919091929391929390505050610f91565b604051808273ffffffffffffffffffffffffffffffffffffffff1673ffffffffffffffffffffffffffffffffffffffff16815260200191505060405180910390f35b34801561058f57600080fd5b506105e4600480360381019080803573ffffffffffffffffffffffffffffffffffffffff169060200190929190803573ffffffffffffffffffffffffffffffffffffffff169060200190929190505050611064565b005b3480156105f257600080fd5b5061061560048036038101908080356000191690602001909291905050506111f0565b604051808273ffffffffffffffffffffffffffffffffffffffff1673ffffffffffffffffffffffffffffffffffffffff16815260200191505060405180910390f35b34801561066357600080fd5b506106866004803603810190808035600019169060200190929190505050611223565b005b34801561069457600080fd5b506106c9600480360381019080803573ffffffffffffffffffffffffffffffffffffffff16906020019092919050505061126e565b604051808273ffffffffffffffffffffffffffffffffffffffff1673ffffffffffffffffffffffffffffffffffffffff16815260200191505060405180910390f35b6000600360008373ffffffffffffffffffffffffffffffffffffffff1673ffffffffffffffffffffffffffffffffffffffff16815260200190815260200160002060009054906101000a900473ffffffffffffffffffffffffffffffffffffffff169050919050565b60016020528060005260406000206000915090508054600181600116156101000203166002900480601f01602080910402602001604051908101604052809291908181526020018280546001816001161561010002031660029004801561081c5780601f106107f15761010080835404028352916020019161081c565b820191906000526020600020905b8154815290600101906020018083116107ff57829003601f168201915b505050505081565b600080600460003373ffffffffffffffffffffffffffffffffffffffff1673ffffffffffffffffffffffffffffffffffffffff16815260200190815260200160002060009054906101000a900460ff16151561087f57600080fd5b600560008473ffffffffffffffffffffffffffffffffffffffff1673ffffffffffffffffffffffffffffffffffffffff16815260200190815260200160002054905060006001026000191681600019161415156108de578091506108e4565b60065491505b50919050565b600060019054906101000a900473ffffffffffffffffffffffffffffffffffffffff1673ffffffffffffffffffffffffffffffffffffffff163373ffffffffffffffffffffffffffffffffffffffff1614151561094657600080fd5b60008060006101000a81548160ff021916908315150217905550565b600080600080600160003373ffffffffffffffffffffffffffffffffffffffff1673ffffffffffffffffffffffffffffffffffffffff1681526020019081526020016000208054600181600116156101000203166002900490501415156109c857600080fd5b848490509250600483101580156109e0575060108311155b15156109eb57600080fd5b8484604051602001808383808284378201915050925050506040516020818303038152906040526040518082805190602001908083835b602083101515610a475780518252602082019150602081019050602083039250610a22565b6001836020036101000a0380198251168184511680821785525050505050509050019150506040518091039020915060026000836000191660001916815260200190815260200160002060009054906101000a900473ffffffffffffffffffffffffffffffffffffffff169050600073ffffffffffffffffffffffffffffffffffffffff168173ffffffffffffffffffffffffffffffffffffffff16141515610aef57600080fd5b8484600160003373ffffffffffffffffffffffffffffffffffffffff1673ffffffffffffffffffffffffffffffffffffffff1681526020019081526020016000209190610b3d9291906112a1565b503360026000846000191660001916815260200190815260200160002060006101000a81548173ffffffffffffffffffffffffffffffffffffffff021916908373ffffffffffffffffffffffffffffffffffffffff1602179055503373ffffffffffffffffffffffffffffffffffffffff167fb5aa31ac488ff285e3bb58347c17b922dca5fe0d57b9dcbb0f75db6490c4ad768686604051808060200182810382528484828181526020019250808284378201915050935050505060405180910390a25050505050565b600080600560003373ffffffffffffffffffffffffffffffffffffffff1673ffffffffffffffffffffffffffffffffffffffff1681526020019081526020016000205490506000600102600019168160001916141515610c6957809150610c6f565b60065491505b5090565b600060019054906101000a900473ffffffffffffffffffffffffffffffffffffffff1673ffffffffffffffffffffffffffffffffffffffff163373ffffffffffffffffffffffffffffffffffffffff16141515610ccf57600080fd5b80600460008473ffffffffffffffffffffffffffffffffffffffff1673ffffffffffffffffffffffffffffffffffffffff16815260200190815260200160002060006101000a81548160ff0219169083151502179055505050565b600060019054906101000a900473ffffffffffffffffffffffffffffffffffffffff1673ffffffffffffffffffffffffffffffffffffffff163373ffffffffffffffffffffffffffffffffffffffff16141515610d8657600080fd5b60016000806101000a81548160ff021916908315150217905550565b600060019054906101000a900473ffffffffffffffffffffffffffffffffffffffff1673ffffffffffffffffffffffffffffffffffffffff163373ffffffffffffffffffffffffffffffffffffffff16141515610dfe57600080fd5b600073ffffffffffffffffffffffffffffffffffffffff168173ffffffffffffffffffffffffffffffffffffffff1614151515610e3a57600080fd5b80600060016101000a81548173ffffffffffffffffffffffffffffffffffffffff021916908373ffffffffffffffffffffffffffffffffffffffff16021790555050565b60046020528060005260406000206000915054906101000a900460ff1681565b6060600160008373ffffffffffffffffffffffffffffffffffffffff1673ffffffffffffffffffffffffffffffffffffffff1681526020019081526020016000208054600181600116156101000203166002900480601f016020809104026020016040519081016040528092919081815260200182805460018160011615610100020316600290048015610f735780601f10610f4857610100808354040283529160200191610f73565b820191906000526020600020905b815481529060010190602001808311610f5657829003601f168201915b50505050509050919050565b6000809054906101000a900460ff1681565b6000808383604051602001808383808284378201915050925050506040516020818303038152906040526040518082805190602001908083835b602083101515610ff05780518252602082019150602081019050602083039250610fcb565b6001836020036101000a0380198251168184511680821785525050505050509050019150506040518091039020905060026000826000191660001916815260200190815260200160002060009054906101000a900473ffffffffffffffffffffffffffffffffffffffff1691505092915050565b600460003373ffffffffffffffffffffffffffffffffffffffff1673ffffffffffffffffffffffffffffffffffffffff16815260200190815260200160002060009054906101000a900460ff16806111095750600060019054906101000a900473ffffffffffffffffffffffffffffffffffffffff1673ffffffffffffffffffffffffffffffffffffffff163373ffffffffffffffffffffffffffffffffffffffff16145b151561111457600080fd5b80600360008473ffffffffffffffffffffffffffffffffffffffff1673ffffffffffffffffffffffffffffffffffffffff16815260200190815260200160002060006101000a81548173ffffffffffffffffffffffffffffffffffffffff021916908373ffffffffffffffffffffffffffffffffffffffff1602179055508073ffffffffffffffffffffffffffffffffffffffff168273ffffffffffffffffffffffffffffffffffffffff167ff78129d82828347ace3fae607c607b8ce8f51e2265d6701363942308f28434a360405160405180910390a35050565b60026020528060005260406000206000915054906101000a900473ffffffffffffffffffffffffffffffffffffffff1681565b80600560003373ffffffffffffffffffffffffffffffffffffffff1673ffffffffffffffffffffffffffffffffffffffff168152602001908152602001600020816000191690555050565b60036020528060005260406000206000915054906101000a900473ffffffffffffffffffffffffffffffffffffffff1681565b828054600181600116156101000203166002900490600052602060002090601f016020900481019282601f106112e257803560ff1916838001178555611310565b82800160010185558215611310579182015b8281111561130f5782358255916020019190600101906112f4565b5b50905061131d9190611321565b5090565b61134391905b8082111561133f576000816000905550600101611327565b5090565b905600a165627a7a72305820c3cd4ba71c8c0086cf12c77e1f5c7f2c04d004a8eb03657542e4d19f7abc38da0029",
  "source": "pragma solidity ^0.4.23;\n\ncontract AccessAdmin {\n    bool public isPaused = false;\n    address addrAdmin;\n\n    constructor() public {\n        addrAdmin = msg.sender;\n    }\n\n    modifier onlyAdmin() {\n        require(msg.sender == addrAdmin);\n        _;\n    }\n\n    modifier whenNotPaused() {\n        require(!isPaused);\n        _;\n    }\n\n    function setAdmin(address _newAdmin) external onlyAdmin {\n        require(_newAdmin != address(0));\n        addrAdmin = _newAdmin;\n    }\n\n    function doPause() external onlyAdmin {\n        isPaused = true;\n    }\n\n    function doUnpause() external onlyAdmin {\n        isPaused = false;\n    }\n}\n\ncontract Referralship is AccessAdmin {\n    event CreateReferral(\n        address indexed _owner,\n        string _code\n    );\n\n    event ReferralShip(\n        address indexed _target,\n        address indexed _mentor\n    );\n\n    mapping(address => string)  public referralCodeMap;\n    mapping(bytes32 => address) public referralCodeOwner;\n    mapping(address => address) public referralShipMap;\n    mapping(address => bool) public safeOperator;\n    mapping(address => bytes32) customerSeedMap;\n    bytes32 shareSeed;\n\n    constructor() public {\n        addrAdmin = msg.sender;\n        shareSeed = keccak256(abi.encodePacked(block.coinbase, block.timestamp));\n    }\n\n    function setOperator(address _addr, bool _useful)\n    external\n    onlyAdmin\n    {\n        safeOperator[_addr] = _useful;\n    }\n\n    function getAddrByReferralCode(string _code)\n    external\n    view\n    returns (address)\n    {\n        bytes32 codeHash = keccak256(abi.encodePacked(_code));\n        return referralCodeOwner[codeHash];\n    }\n\n    function getReferralCodeByAddr(address _addr)\n    external\n    view\n    returns (string)\n    {\n        return referralCodeMap[_addr];\n    }\n\n    function getReferralShip(address _target)\n    external\n    view\n    returns (address)\n    {\n        return referralShipMap[_target];\n    }\n\n\n    function createReferralCode(string _code)\n    external\n    {\n        require(bytes(referralCodeMap[msg.sender]).length == 0);\n        uint256 codeLen = bytes(_code).length;\n        require(codeLen >= 4 && codeLen <= 16);\n\n        bytes32 codeHash = keccak256(abi.encodePacked(_code));\n        address tmp = referralCodeOwner[codeHash];\n\n        require(tmp == address(0));\n\n        referralCodeMap[msg.sender] = _code;\n        referralCodeOwner[codeHash] = msg.sender;\n\n        emit CreateReferral(msg.sender, _code);\n    }\n\n    function setReferralShip(address _target, address _mentor) external {\n        require(safeOperator[msg.sender] || msg.sender == addrAdmin);\n        referralShipMap[_target] = _mentor;\n\n        emit ReferralShip(_target, _mentor);\n    }\n\n    function setCustomerSeed(bytes32 _seed)\n    external\n    {\n        customerSeedMap[msg.sender] = _seed;\n    }\n\n    function getCustomerSeed(address _target)\n    external\n    view\n    returns (bytes32)\n    {\n        require(safeOperator[msg.sender]);\n        bytes32 seed = customerSeedMap[_target];\n        if (seed != bytes32(0)) {\n            return seed;\n        } else {\n            return shareSeed;\n        }\n    }\n\n    function getMySeed()\n    external\n    view\n    returns (bytes32)\n    {\n        bytes32 seed = customerSeedMap[msg.sender];\n        if (seed != bytes32(0)) {\n            return seed;\n        } else {\n            return shareSeed;\n        }\n    }\n}\n",
  "sourcePath": "/Users/gordon/bian/dapp/dice/contracts/Referralship.sol",
  "compiler": {
    "name": "solc",
    "version": "0.4.25+commit.59dbf8f1.Emscripten.clang"
  },
  "schemaVersion": "3.2.0",
  "updatedAt": "2020-09-22T07:39:09.025Z",
  "networkType": "ethereum",
  "devdoc": {
    "methods": {}
  },
  "userdoc": {
    "methods": {}
  }
}