{
  "contractName": "AccessAdmin",
  "abi": [
    {
      "constant": true,
      "inputs": [],
      "name": "isPaused",
      "outputs": [
        {
          "name": "",
          "type": "bool"
        }
      ],
      "payable": false,
      "stateMutability": "view",
      "type": "function"
    },
    {
      "inputs": [],
      "payable": false,
      "stateMutability": "nonpayable",
      "type": "constructor"
    },
    {
      "constant": false,
      "inputs": [
        {
          "name": "_newAdmin",
          "type": "address"
        }
      ],
      "name": "setAdmin",
      "outputs": [],
      "payable": false,
      "stateMutability": "nonpayable",
      "type": "function"
    },
    {
      "constant": false,
      "inputs": [],
      "name": "doPause",
      "outputs": [],
      "payable": false,
      "stateMutability": "nonpayable",
      "type": "function"
    },
    {
      "constant": false,
      "inputs": [],
      "name": "doUnpause",
      "outputs": [],
      "payable": false,
      "stateMutability": "nonpayable",
      "type": "function"
    }
  ],
  "bytecode": "0x608060405260008060006101000a81548160ff02191690831515021790555034801561002a57600080fd5b5033600060016101000a81548173ffffffffffffffffffffffffffffffffffffffff021916908373ffffffffffffffffffffffffffffffffffffffff1602179055506103118061007b6000396000f300608060405260043610610062576000357c0100000000000000000000000000000000000000000000000000000000900463ffffffff16806330efb8d31461006757806367d0661d1461007e578063704b6c0214610095578063b187bd26146100d8575b600080fd5b34801561007357600080fd5b5061007c610107565b005b34801561008a57600080fd5b5061009361017f565b005b3480156100a157600080fd5b506100d6600480360381019080803573ffffffffffffffffffffffffffffffffffffffff1690602001909291905050506101f7565b005b3480156100e457600080fd5b506100ed6102d3565b604051808215151515815260200191505060405180910390f35b600060019054906101000a900473ffffffffffffffffffffffffffffffffffffffff1673ffffffffffffffffffffffffffffffffffffffff163373ffffffffffffffffffffffffffffffffffffffff1614151561016357600080fd5b60008060006101000a81548160ff021916908315150217905550565b600060019054906101000a900473ffffffffffffffffffffffffffffffffffffffff1673ffffffffffffffffffffffffffffffffffffffff163373ffffffffffffffffffffffffffffffffffffffff161415156101db57600080fd5b60016000806101000a81548160ff021916908315150217905550565b600060019054906101000a900473ffffffffffffffffffffffffffffffffffffffff1673ffffffffffffffffffffffffffffffffffffffff163373ffffffffffffffffffffffffffffffffffffffff1614151561025357600080fd5b600073ffffffffffffffffffffffffffffffffffffffff168173ffffffffffffffffffffffffffffffffffffffff161415151561028f57600080fd5b80600060016101000a81548173ffffffffffffffffffffffffffffffffffffffff021916908373ffffffffffffffffffffffffffffffffffffffff16021790555050565b6000809054906101000a900460ff16815600a165627a7a7230582059824c1fba9e31522e726cd28bd7a2f310d8fcd7900f12b24ad543aa409b51680029",
  "source": "pragma solidity ^0.4.23;\n\ncontract AccessAdmin {\n    bool public isPaused = false;\n    address addrAdmin;\n\n    constructor() public {\n        addrAdmin = msg.sender;\n    }\n\n    modifier onlyAdmin() {\n        require(msg.sender == addrAdmin);\n        _;\n    }\n\n    modifier whenNotPaused() {\n        require(!isPaused);\n        _;\n    }\n\n    function setAdmin(address _newAdmin) external onlyAdmin {\n        require(_newAdmin != address(0));\n        addrAdmin = _newAdmin;\n    }\n\n    function doPause() external onlyAdmin {\n        isPaused = true;\n    }\n\n    function doUnpause() external onlyAdmin {\n        isPaused = false;\n    }\n}\n\ncontract Referralship is AccessAdmin {\n    event CreateReferral(\n        address indexed _owner,\n        string _code\n    );\n\n    event ReferralShip(\n        address indexed _target,\n        address indexed _mentor\n    );\n\n    mapping(address => string)  public referralCodeMap;\n    mapping(bytes32 => address) public referralCodeOwner;\n    mapping(address => address) public referralShipMap;\n    mapping(address => bool) public safeOperator;\n    mapping(address => bytes32) customerSeedMap;\n    bytes32 public shareSeed;\n\n    constructor() public {\n        addrAdmin = msg.sender;\n        shareSeed = keccak256(abi.encodePacked(block.coinbase, block.timestamp));\n    }\n\n    function setOperator(address _addr, bool _useful)\n    external\n    onlyAdmin\n    {\n        safeOperator[_addr] = _useful;\n    }\n\n    function getAddrByReferralCode(string _code)\n    external\n    view\n    returns (address)\n    {\n        bytes32 codeHash = keccak256(abi.encodePacked(_code));\n        return referralCodeOwner[codeHash];\n    }\n\n    function getReferralCodeByAddr(address _addr)\n    external\n    view\n    returns (string)\n    {\n        return referralCodeMap[_addr];\n    }\n\n    function getReferralShip(address _target)\n    external\n    view\n    returns (address)\n    {\n        return referralShipMap[_target];\n    }\n\n\n    function createReferralCode(string _code)\n    external\n    {\n        require(bytes(referralCodeMap[msg.sender]).length == 0);\n        uint256 codeLen = bytes(_code).length;\n        require(codeLen >= 4 && codeLen <= 16);\n\n        bytes32 codeHash = keccak256(abi.encodePacked(_code));\n        address tmp = referralCodeOwner[codeHash];\n\n        require(tmp == address(0));\n\n        referralCodeMap[msg.sender] = _code;\n        referralCodeOwner[codeHash] = msg.sender;\n\n        emit CreateReferral(msg.sender, _code);\n    }\n\n    function setReferralShip(address _target, address _mentor) external {\n        require(safeOperator[msg.sender] || msg.sender == addrAdmin);\n        referralShipMap[_target] = _mentor;\n\n        emit ReferralShip(_target, _mentor);\n    }\n\n    function setCustomerSeed(bytes32 _seed)\n    external\n    {\n        customerSeedMap[msg.sender] = _seed;\n    }\n\n    function getCustomerSeed(address _target)\n    external\n    view\n    returns (bytes32)\n    {\n        require(safeOperator[msg.sender]);\n        bytes32 seed = customerSeedMap[_target];\n        if (seed != bytes32(0)) {\n            return seed;\n        } else {\n            return shareSeed;\n        }\n    }\n\n    function getMySeed()\n    external\n    view\n    returns (bytes32)\n    {\n        bytes32 seed = customerSeedMap[msg.sender];\n        if (seed != bytes32(0)) {\n            return seed;\n        } else {\n            return shareSeed;\n        }\n    }\n}\n",
  "sourcePath": "/Users/gordon/bian/dapp/dice/contracts/Referralship.sol",
  "compiler": {
    "name": "solc",
    "version": "0.4.25+commit.59dbf8f1.Emscripten.clang"
  },
  "schemaVersion": "3.2.0",
  "updatedAt": "2020-09-24T09:22:32.786Z",
  "devdoc": {
    "methods": {}
  },
  "userdoc": {
    "methods": {}
  }
}