{
  "contractName": "BLinkPool",
  "abi": [
    {
      "constant": true,
      "inputs": [
        {
          "name": "",
          "type": "address"
        }
      ],
      "name": "playerBLinkCache",
      "outputs": [
        {
          "name": "",
          "type": "uint256"
        }
      ],
      "payable": false,
      "stateMutability": "view",
      "type": "function"
    },
    {
      "constant": false,
      "inputs": [
        {
          "name": "tokenAddrs",
          "type": "address[]"
        }
      ],
      "name": "updateVersion",
      "outputs": [],
      "payable": false,
      "stateMutability": "nonpayable",
      "type": "function"
    },
    {
      "constant": true,
      "inputs": [
        {
          "name": "",
          "type": "address"
        }
      ],
      "name": "safeBetContracts",
      "outputs": [
        {
          "name": "",
          "type": "bool"
        }
      ],
      "payable": false,
      "stateMutability": "view",
      "type": "function"
    },
    {
      "constant": true,
      "inputs": [],
      "name": "operator",
      "outputs": [
        {
          "name": "",
          "type": "address"
        }
      ],
      "payable": false,
      "stateMutability": "view",
      "type": "function"
    },
    {
      "constant": true,
      "inputs": [],
      "name": "winkRate",
      "outputs": [
        {
          "name": "",
          "type": "uint256"
        }
      ],
      "payable": false,
      "stateMutability": "view",
      "type": "function"
    },
    {
      "constant": false,
      "inputs": [
        {
          "name": "_newAdmin",
          "type": "address"
        }
      ],
      "name": "setAdmin",
      "outputs": [],
      "payable": false,
      "stateMutability": "nonpayable",
      "type": "function"
    },
    {
      "constant": true,
      "inputs": [
        {
          "name": "",
          "type": "address"
        }
      ],
      "name": "tokenOriginalAmountMap",
      "outputs": [
        {
          "name": "",
          "type": "uint256"
        }
      ],
      "payable": false,
      "stateMutability": "view",
      "type": "function"
    },
    {
      "constant": true,
      "inputs": [],
      "name": "safeWaterLevel",
      "outputs": [
        {
          "name": "",
          "type": "uint256"
        }
      ],
      "payable": false,
      "stateMutability": "view",
      "type": "function"
    },
    {
      "constant": true,
      "inputs": [],
      "name": "addrFinance",
      "outputs": [
        {
          "name": "",
          "type": "address"
        }
      ],
      "payable": false,
      "stateMutability": "view",
      "type": "function"
    },
    {
      "constant": true,
      "inputs": [],
      "name": "blinkTotalCache",
      "outputs": [
        {
          "name": "",
          "type": "uint256"
        }
      ],
      "payable": false,
      "stateMutability": "view",
      "type": "function"
    },
    {
      "constant": false,
      "inputs": [
        {
          "name": "_addr",
          "type": "address"
        }
      ],
      "name": "setFinance",
      "outputs": [],
      "payable": false,
      "stateMutability": "nonpayable",
      "type": "function"
    },
    {
      "constant": true,
      "inputs": [],
      "name": "blinkDevCache",
      "outputs": [
        {
          "name": "",
          "type": "uint256"
        }
      ],
      "payable": false,
      "stateMutability": "view",
      "type": "function"
    },
    {
      "constant": true,
      "inputs": [],
      "name": "isPaused",
      "outputs": [
        {
          "name": "",
          "type": "bool"
        }
      ],
      "payable": false,
      "stateMutability": "view",
      "type": "function"
    },
    {
      "constant": false,
      "inputs": [
        {
          "name": "_addr",
          "type": "address"
        }
      ],
      "name": "setOperator",
      "outputs": [],
      "payable": false,
      "stateMutability": "nonpayable",
      "type": "function"
    },
    {
      "constant": false,
      "inputs": [
        {
          "name": "_pause",
          "type": "bool"
        }
      ],
      "name": "setPause",
      "outputs": [],
      "payable": false,
      "stateMutability": "nonpayable",
      "type": "function"
    },
    {
      "constant": true,
      "inputs": [],
      "name": "addrAdmin",
      "outputs": [
        {
          "name": "",
          "type": "address"
        }
      ],
      "payable": false,
      "stateMutability": "view",
      "type": "function"
    },
    {
      "constant": true,
      "inputs": [],
      "name": "addrTokenDev",
      "outputs": [
        {
          "name": "",
          "type": "address"
        }
      ],
      "payable": false,
      "stateMutability": "view",
      "type": "function"
    },
    {
      "constant": true,
      "inputs": [],
      "name": "addrWinkDivider",
      "outputs": [
        {
          "name": "",
          "type": "address"
        }
      ],
      "payable": false,
      "stateMutability": "view",
      "type": "function"
    },
    {
      "constant": true,
      "inputs": [],
      "name": "addrDivider",
      "outputs": [
        {
          "name": "",
          "type": "address"
        }
      ],
      "payable": false,
      "stateMutability": "view",
      "type": "function"
    },
    {
      "constant": true,
      "inputs": [],
      "name": "addrBurner",
      "outputs": [
        {
          "name": "",
          "type": "address"
        }
      ],
      "payable": false,
      "stateMutability": "view",
      "type": "function"
    },
    {
      "inputs": [],
      "payable": false,
      "stateMutability": "nonpayable",
      "type": "constructor"
    },
    {
      "payable": true,
      "stateMutability": "payable",
      "type": "fallback"
    },
    {
      "anonymous": false,
      "inputs": [
        {
          "indexed": true,
          "name": "_from",
          "type": "address"
        },
        {
          "indexed": true,
          "name": "_addrToken",
          "type": "address"
        },
        {
          "indexed": false,
          "name": "_value",
          "type": "uint256"
        }
      ],
      "name": "TokenBurn",
      "type": "event"
    },
    {
      "anonymous": false,
      "inputs": [
        {
          "indexed": true,
          "name": "_index",
          "type": "uint256"
        },
        {
          "indexed": false,
          "name": "addrToken",
          "type": "address"
        },
        {
          "indexed": false,
          "name": "tokenValue",
          "type": "uint256"
        }
      ],
      "name": "TokenDivide",
      "type": "event"
    },
    {
      "constant": false,
      "inputs": [
        {
          "name": "_newBurner",
          "type": "address"
        }
      ],
      "name": "setBurner",
      "outputs": [],
      "payable": false,
      "stateMutability": "nonpayable",
      "type": "function"
    },
    {
      "constant": false,
      "inputs": [
        {
          "name": "_addr",
          "type": "address"
        }
      ],
      "name": "setAddrDivider",
      "outputs": [],
      "payable": false,
      "stateMutability": "nonpayable",
      "type": "function"
    },
    {
      "constant": false,
      "inputs": [
        {
          "name": "_newWinkDivider",
          "type": "address"
        }
      ],
      "name": "setWinkDivider",
      "outputs": [],
      "payable": false,
      "stateMutability": "nonpayable",
      "type": "function"
    },
    {
      "constant": false,
      "inputs": [
        {
          "name": "_newRate",
          "type": "uint256"
        }
      ],
      "name": "setWinkRate",
      "outputs": [],
      "payable": false,
      "stateMutability": "nonpayable",
      "type": "function"
    },
    {
      "constant": false,
      "inputs": [
        {
          "name": "_actionAddr",
          "type": "address"
        },
        {
          "name": "_useful",
          "type": "bool"
        }
      ],
      "name": "setSafeContract",
      "outputs": [],
      "payable": false,
      "stateMutability": "nonpayable",
      "type": "function"
    },
    {
      "constant": true,
      "inputs": [
        {
          "name": "_actionAddr",
          "type": "address"
        }
      ],
      "name": "getSafeContract",
      "outputs": [
        {
          "name": "",
          "type": "bool"
        }
      ],
      "payable": false,
      "stateMutability": "view",
      "type": "function"
    },
    {
      "constant": false,
      "inputs": [
        {
          "name": "_addr",
          "type": "address"
        }
      ],
      "name": "setTokenDevAddr",
      "outputs": [],
      "payable": false,
      "stateMutability": "nonpayable",
      "type": "function"
    },
    {
      "constant": false,
      "inputs": [
        {
          "name": "_addr",
          "type": "address"
        }
      ],
      "name": "setBLinkTokenAddr",
      "outputs": [],
      "payable": false,
      "stateMutability": "nonpayable",
      "type": "function"
    },
    {
      "constant": true,
      "inputs": [],
      "name": "getBLinkTokenAddr",
      "outputs": [
        {
          "name": "",
          "type": "address"
        }
      ],
      "payable": false,
      "stateMutability": "view",
      "type": "function"
    },
    {
      "constant": false,
      "inputs": [
        {
          "name": "_addr",
          "type": "address"
        }
      ],
      "name": "setBLinkMinePool",
      "outputs": [],
      "payable": false,
      "stateMutability": "nonpayable",
      "type": "function"
    },
    {
      "constant": true,
      "inputs": [],
      "name": "getBLinkMinePool",
      "outputs": [
        {
          "name": "",
          "type": "address"
        }
      ],
      "payable": false,
      "stateMutability": "view",
      "type": "function"
    },
    {
      "constant": true,
      "inputs": [],
      "name": "getTokenDevAddr",
      "outputs": [
        {
          "name": "",
          "type": "address"
        }
      ],
      "payable": false,
      "stateMutability": "view",
      "type": "function"
    },
    {
      "constant": false,
      "inputs": [
        {
          "name": "_newLevel",
          "type": "uint256"
        }
      ],
      "name": "setSafeWaterLevel",
      "outputs": [],
      "payable": false,
      "stateMutability": "nonpayable",
      "type": "function"
    },
    {
      "constant": false,
      "inputs": [
        {
          "name": "_tokenAddr",
          "type": "address"
        },
        {
          "name": "_amount",
          "type": "uint256"
        }
      ],
      "name": "setTokenOriginalAmount",
      "outputs": [],
      "payable": false,
      "stateMutability": "nonpayable",
      "type": "function"
    },
    {
      "constant": false,
      "inputs": [
        {
          "name": "_to",
          "type": "address"
        },
        {
          "name": "_amount",
          "type": "uint256"
        },
        {
          "name": "_originalAmount",
          "type": "uint256"
        }
      ],
      "name": "transferBnb",
      "outputs": [
        {
          "name": "",
          "type": "bool"
        }
      ],
      "payable": false,
      "stateMutability": "nonpayable",
      "type": "function"
    },
    {
      "constant": false,
      "inputs": [
        {
          "name": "_tokenAddr",
          "type": "address"
        },
        {
          "name": "_to",
          "type": "address"
        },
        {
          "name": "_amount",
          "type": "uint256"
        },
        {
          "name": "_original",
          "type": "uint256"
        }
      ],
      "name": "transferToWiner",
      "outputs": [
        {
          "name": "",
          "type": "bool"
        }
      ],
      "payable": false,
      "stateMutability": "nonpayable",
      "type": "function"
    },
    {
      "constant": true,
      "inputs": [],
      "name": "getPoolBLinkBalance",
      "outputs": [
        {
          "name": "",
          "type": "uint256"
        }
      ],
      "payable": false,
      "stateMutability": "view",
      "type": "function"
    },
    {
      "constant": true,
      "inputs": [],
      "name": "getDevCacheBalance",
      "outputs": [
        {
          "name": "",
          "type": "uint256"
        }
      ],
      "payable": false,
      "stateMutability": "view",
      "type": "function"
    },
    {
      "constant": true,
      "inputs": [],
      "name": "getTotalCacheBalance",
      "outputs": [
        {
          "name": "",
          "type": "uint256"
        }
      ],
      "payable": false,
      "stateMutability": "view",
      "type": "function"
    },
    {
      "constant": true,
      "inputs": [],
      "name": "getPoolBnbCount",
      "outputs": [
        {
          "name": "",
          "type": "uint256"
        }
      ],
      "payable": false,
      "stateMutability": "view",
      "type": "function"
    },
    {
      "constant": false,
      "inputs": [
        {
          "name": "_to1",
          "type": "address"
        },
        {
          "name": "_amount",
          "type": "uint256"
        },
        {
          "name": "_devReleaseAmount",
          "type": "uint256"
        }
      ],
      "name": "transferBLinkWithDevRelease",
      "outputs": [],
      "payable": false,
      "stateMutability": "nonpayable",
      "type": "function"
    },
    {
      "constant": false,
      "inputs": [],
      "name": "releaseDevBLink",
      "outputs": [],
      "payable": false,
      "stateMutability": "nonpayable",
      "type": "function"
    },
    {
      "constant": false,
      "inputs": [
        {
          "name": "_owner",
          "type": "address"
        }
      ],
      "name": "releaseBLink",
      "outputs": [],
      "payable": false,
      "stateMutability": "nonpayable",
      "type": "function"
    },
    {
      "constant": false,
      "inputs": [],
      "name": "releaseBLinkSelf",
      "outputs": [],
      "payable": false,
      "stateMutability": "nonpayable",
      "type": "function"
    },
    {
      "constant": false,
      "inputs": [
        {
          "name": "_amount",
          "type": "uint256"
        }
      ],
      "name": "withdrawProfit",
      "outputs": [],
      "payable": false,
      "stateMutability": "nonpayable",
      "type": "function"
    },
    {
      "constant": false,
      "inputs": [
        {
          "name": "_tokenAddr",
          "type": "address"
        },
        {
          "name": "_to",
          "type": "address"
        },
        {
          "name": "_amount",
          "type": "uint256"
        },
        {
          "name": "_original",
          "type": "uint256"
        }
      ],
      "name": "transferToken",
      "outputs": [],
      "payable": false,
      "stateMutability": "nonpayable",
      "type": "function"
    },
    {
      "constant": false,
      "inputs": [
        {
          "name": "_addrToken",
          "type": "address"
        }
      ],
      "name": "burnToken",
      "outputs": [
        {
          "name": "",
          "type": "uint256"
        }
      ],
      "payable": false,
      "stateMutability": "nonpayable",
      "type": "function"
    },
    {
      "constant": false,
      "inputs": [
        {
          "name": "_addrTokens",
          "type": "address[]"
        }
      ],
      "name": "transferToDivide",
      "outputs": [],
      "payable": false,
      "stateMutability": "nonpayable",
      "type": "function"
    },
    {
      "constant": false,
      "inputs": [
        {
          "name": "_addrToken",
          "type": "address"
        },
        {
          "name": "_amount",
          "type": "uint256"
        }
      ],
      "name": "withdrawToken",
      "outputs": [],
      "payable": false,
      "stateMutability": "nonpayable",
      "type": "function"
    }
  ],
  "bytecode": "0x60806040526103e86009556032600c5534801561001b57600080fd5b5060008060006101000a81548160ff02191690831515021790555033600060016101000a81548173ffffffffffffffffffffffffffffffffffffffff021916908373ffffffffffffffffffffffffffffffffffffffff16021790555033600260006101000a81548173ffffffffffffffffffffffffffffffffffffffff021916908373ffffffffffffffffffffffffffffffffffffffff16021790555033600360006101000a81548173ffffffffffffffffffffffffffffffffffffffff021916908373ffffffffffffffffffffffffffffffffffffffff16021790555033600460006101000a81548173ffffffffffffffffffffffffffffffffffffffff021916908373ffffffffffffffffffffffffffffffffffffffff16021790555069021e19e0c9bab2400000600f60008073ffffffffffffffffffffffffffffffffffffffff1673ffffffffffffffffffffffffffffffffffffffff16815260200190815260200160002081905550614e2b806101976000396000f300608060405260043610610251576000357c0100000000000000000000000000000000000000000000000000000000900463ffffffff1680630304e21514610253578063036ebef9146102a057806307d940a3146103175780630a782e081461035a5780630b11f4ba146103855780631347e277146103dc5780631a7a4049146104175780631caf03e114610452578063292bc54c1461047f57806338d9538e146104965780633be05039146104ed57806343fee7ab1461057c578063441deede146105d757806353cfb3f3146106325780635438dd2214610675578063570ca735146106b85780635b846cb71461070f578063683be141146107525780636da8e01814610769578063704b6c0214610794578063709ddbbd146107d75780637665af0b1461082e57806382cb9df9146108595780638df293b5146108b057806390107297146108db578063950dad191461094a5780639b8d3064146109a15780639e281a98146109e4578063a502809414610a31578063a996d6ce14610a5c578063acb47dd714610a9f578063b187bd2614610aca578063b3ab15fb14610af9578063bedb86fb14610b3c578063bfae2f0e14610b6b578063c029844814610bc2578063c07c1b1314610bed578063c1cbc36314610c18578063cce0244d14610c6f578063d19d3de514610cbe578063d82a2bea14610ceb578063da62a3ab14610d18578063e7266c8c14610d6f578063eedb5bcd14610db2578063ef15b06714610e09578063f042a79014610e60578063f485e41014610eb7578063fa0cdd4214610f0e578063ff5727cf14610f51575b005b34801561025f57600080fd5b5061029e600480360381019080803573ffffffffffffffffffffffffffffffffffffffff16906020019092919080359060200190929190505050610fa8565b005b3480156102ac57600080fd5b50610315600480360381019080803573ffffffffffffffffffffffffffffffffffffffff169060200190929190803573ffffffffffffffffffffffffffffffffffffffff1690602001909291908035906020019092919080359060200190929190505050611048565b005b34801561032357600080fd5b50610358600480360381019080803573ffffffffffffffffffffffffffffffffffffffff1690602001909291905050506112c2565b005b34801561036657600080fd5b5061036f611407565b6040518082815260200191505060405180910390f35b34801561039157600080fd5b506103c6600480360381019080803573ffffffffffffffffffffffffffffffffffffffff169060200190929190505050611411565b6040518082815260200191505060405180910390f35b3480156103e857600080fd5b50610415600480360381019080803590602001908201803590602001919091929391929390505050611429565b005b34801561042357600080fd5b5061045060048036038101908080359060200190820180359060200191909192939192939050505061158f565b005b34801561045e57600080fd5b5061047d600480360381019080803590602001909291905050506117f8565b005b34801561048b57600080fd5b506104946118e2565b005b3480156104a257600080fd5b506104ab611b1a565b604051808273ffffffffffffffffffffffffffffffffffffffff1673ffffffffffffffffffffffffffffffffffffffff16815260200191505060405180910390f35b3480156104f957600080fd5b50610562600480360381019080803573ffffffffffffffffffffffffffffffffffffffff169060200190929190803573ffffffffffffffffffffffffffffffffffffffff1690602001909291908035906020019092919080359060200190929190505050611b44565b604051808215151515815260200191505060405180910390f35b34801561058857600080fd5b506105bd600480360381019080803573ffffffffffffffffffffffffffffffffffffffff169060200190929190505050611e91565b604051808215151515815260200191505060405180910390f35b3480156105e357600080fd5b50610618600480360381019080803573ffffffffffffffffffffffffffffffffffffffff169060200190929190505050611eb1565b604051808215151515815260200191505060405180910390f35b34801561063e57600080fd5b50610673600480360381019080803573ffffffffffffffffffffffffffffffffffffffff169060200190929190505050611f07565b005b34801561068157600080fd5b506106b6600480360381019080803573ffffffffffffffffffffffffffffffffffffffff16906020019092919050505061204c565b005b3480156106c457600080fd5b506106cd61233b565b604051808273ffffffffffffffffffffffffffffffffffffffff1673ffffffffffffffffffffffffffffffffffffffff16815260200191505060405180910390f35b34801561071b57600080fd5b50610750600480360381019080803573ffffffffffffffffffffffffffffffffffffffff169060200190929190505050612361565b005b34801561075e57600080fd5b506107676124a6565b005b34801561077557600080fd5b5061077e612650565b6040518082815260200191505060405180910390f35b3480156107a057600080fd5b506107d5600480360381019080803573ffffffffffffffffffffffffffffffffffffffff169060200190929190505050612656565b005b3480156107e357600080fd5b50610818600480360381019080803573ffffffffffffffffffffffffffffffffffffffff169060200190929190505050612804565b6040518082815260200191505060405180910390f35b34801561083a57600080fd5b5061084361281c565b6040518082815260200191505060405180910390f35b34801561086557600080fd5b5061086e612822565b604051808273ffffffffffffffffffffffffffffffffffffffff1673ffffffffffffffffffffffffffffffffffffffff16815260200191505060405180910390f35b3480156108bc57600080fd5b506108c5612848565b6040518082815260200191505060405180910390f35b3480156108e757600080fd5b50610930600480360381019080803573ffffffffffffffffffffffffffffffffffffffff169060200190929190803590602001909291908035906020019092919050505061284e565b604051808215151515815260200191505060405180910390f35b34801561095657600080fd5b5061098b600480360381019080803573ffffffffffffffffffffffffffffffffffffffff16906020019092919050505061294e565b6040518082815260200191505060405180910390f35b3480156109ad57600080fd5b506109e2600480360381019080803573ffffffffffffffffffffffffffffffffffffffff169060200190929190505050612c73565b005b3480156109f057600080fd5b50610a2f600480360381019080803573ffffffffffffffffffffffffffffffffffffffff16906020019092919080359060200190929190505050612e21565b005b348015610a3d57600080fd5b50610a466130dc565b6040518082815260200191505060405180910390f35b348015610a6857600080fd5b50610a9d600480360381019080803573ffffffffffffffffffffffffffffffffffffffff16906020019092919050505061321b565b005b348015610aab57600080fd5b50610ab4613360565b6040518082815260200191505060405180910390f35b348015610ad657600080fd5b50610adf613366565b604051808215151515815260200191505060405180910390f35b348015610b0557600080fd5b50610b3a600480360381019080803573ffffffffffffffffffffffffffffffffffffffff169060200190929190505050613378565b005b348015610b4857600080fd5b50610b69600480360381019080803515159060200190929190505050613526565b005b348015610b7757600080fd5b50610b80613607565b604051808273ffffffffffffffffffffffffffffffffffffffff1673ffffffffffffffffffffffffffffffffffffffff16815260200191505060405180910390f35b348015610bce57600080fd5b50610bd761362d565b6040518082815260200191505060405180910390f35b348015610bf957600080fd5b50610c02613637565b6040518082815260200191505060405180910390f35b348015610c2457600080fd5b50610c2d613669565b604051808273ffffffffffffffffffffffffffffffffffffffff1673ffffffffffffffffffffffffffffffffffffffff16815260200191505060405180910390f35b348015610c7b57600080fd5b50610cbc600480360381019080803573ffffffffffffffffffffffffffffffffffffffff16906020019092919080351515906020019092919050505061368f565b005b348015610cca57600080fd5b50610ce9600480360381019080803590602001909291905050506137af565b005b348015610cf757600080fd5b50610d166004803603810190808035906020019092919050505061382e565b005b348015610d2457600080fd5b50610d2d613980565b604051808273ffffffffffffffffffffffffffffffffffffffff1673ffffffffffffffffffffffffffffffffffffffff16815260200191505060405180910390f35b348015610d7b57600080fd5b50610db0600480360381019080803573ffffffffffffffffffffffffffffffffffffffff1690602001909291905050506139a6565b005b348015610dbe57600080fd5b50610dc7613aeb565b604051808273ffffffffffffffffffffffffffffffffffffffff1673ffffffffffffffffffffffffffffffffffffffff16815260200191505060405180910390f35b348015610e1557600080fd5b50610e1e613b11565b604051808273ffffffffffffffffffffffffffffffffffffffff1673ffffffffffffffffffffffffffffffffffffffff16815260200191505060405180910390f35b348015610e6c57600080fd5b50610eb5600480360381019080803573ffffffffffffffffffffffffffffffffffffffff1690602001909291908035906020019092919080359060200190929190505050613b3b565b005b348015610ec357600080fd5b50610ecc613e25565b604051808273ffffffffffffffffffffffffffffffffffffffff1673ffffffffffffffffffffffffffffffffffffffff16815260200191505060405180910390f35b348015610f1a57600080fd5b50610f4f600480360381019080803573ffffffffffffffffffffffffffffffffffffffff169060200190929190505050613e4b565b005b348015610f5d57600080fd5b50610f66613f5d565b604051808273ffffffffffffffffffffffffffffffffffffffff1673ffffffffffffffffffffffffffffffffffffffff16815260200191505060405180910390f35b600d60003373ffffffffffffffffffffffffffffffffffffffff1673ffffffffffffffffffffffffffffffffffffffff16815260200190815260200160002060009054906101000a900460ff16151561100057600080fd5b80600f60008473ffffffffffffffffffffffffffffffffffffffff1673ffffffffffffffffffffffffffffffffffffffff168152602001908152602001600020819055505050565b6000806000809054906101000a900460ff1615151561106657600080fd5b600d60003373ffffffffffffffffffffffffffffffffffffffff1673ffffffffffffffffffffffffffffffffffffffff16815260200190815260200160002060009054906101000a900460ff1615156110be57600080fd5b8591508173ffffffffffffffffffffffffffffffffffffffff166370a08231306040518263ffffffff167c0100000000000000000000000000000000000000000000000000000000028152600401808273ffffffffffffffffffffffffffffffffffffffff1673ffffffffffffffffffffffffffffffffffffffff168152602001915050602060405180830381600087803b15801561115c57600080fd5b505af1158015611170573d6000803e3d6000fd5b505050506040513d602081101561118657600080fd5b810190808051906020019092919050505090506111bb600954612710838115156111ac57fe5b04613f8790919063ffffffff16565b6111ce848661405490919063ffffffff16565b111515156111db57600080fd5b8173ffffffffffffffffffffffffffffffffffffffff1663a9059cbb86866040518363ffffffff167c0100000000000000000000000000000000000000000000000000000000028152600401808373ffffffffffffffffffffffffffffffffffffffff1673ffffffffffffffffffffffffffffffffffffffff16815260200182815260200192505050602060405180830381600087803b15801561127e57600080fd5b505af1158015611292573d6000803e3d6000fd5b505050506040513d60208110156112a857600080fd5b810190808051906020019092919050505050505050505050565b600060019054906101000a900473ffffffffffffffffffffffffffffffffffffffff1673ffffffffffffffffffffffffffffffffffffffff163373ffffffffffffffffffffffffffffffffffffffff16141515611387576040517f08c379a00000000000000000000000000000000000000000000000000000000081526004018080602001828103825260098152602001807f6e6f742061646d696e000000000000000000000000000000000000000000000081525060200191505060405180910390fd5b600073ffffffffffffffffffffffffffffffffffffffff168173ffffffffffffffffffffffffffffffffffffffff16141515156113c357600080fd5b80600360006101000a81548173ffffffffffffffffffffffffffffffffffffffff021916908373ffffffffffffffffffffffffffffffffffffffff16021790555050565b6000600b54905090565b600e6020528060005260406000206000915090505481565b6000806000600160009054906101000a900473ffffffffffffffffffffffffffffffffffffffff1673ffffffffffffffffffffffffffffffffffffffff163373ffffffffffffffffffffffffffffffffffffffff1614806114d35750600d60003373ffffffffffffffffffffffffffffffffffffffff1673ffffffffffffffffffffffffffffffffffffffff16815260200190815260200160002060009054906101000a900460ff165b8061152b5750600060019054906101000a900473ffffffffffffffffffffffffffffffffffffffff1673ffffffffffffffffffffffffffffffffffffffff163373ffffffffffffffffffffffffffffffffffffffff16145b151561153657600080fd5b848490509250600090505b828110156115885761157d858583818110151561155a57fe5b9050602002013573ffffffffffffffffffffffffffffffffffffffff164261409e565b600181019050611541565b5050505050565b6060600060019054906101000a900473ffffffffffffffffffffffffffffffffffffffff1673ffffffffffffffffffffffffffffffffffffffff163373ffffffffffffffffffffffffffffffffffffffff16141515611656576040517f08c379a00000000000000000000000000000000000000000000000000000000081526004018080602001828103825260098152602001807f6e6f742061646d696e000000000000000000000000000000000000000000000081525060200191505060405180910390fd5b600073ffffffffffffffffffffffffffffffffffffffff16600260009054906101000a900473ffffffffffffffffffffffffffffffffffffffff1673ffffffffffffffffffffffffffffffffffffffff161415151561171d576040517f08c379a000000000000000000000000000000000000000000000000000000000815260040180806020018281038252600c8152602001807f66696e616e63652069732030000000000000000000000000000000000000000081525060200191505060405180910390fd5b6117758383808060200260200160405190810160405280939291908181526020018383602002808284378201915050505050503073ffffffffffffffffffffffffffffffffffffffff166145f190919063ffffffff16565b90506117f383838080602002602001604051908101604052809392919081815260200183836020028082843782019150505050505082600260009054906101000a900473ffffffffffffffffffffffffffffffffffffffff1673ffffffffffffffffffffffffffffffffffffffff166147a19092919063ffffffff16565b505050565b600060019054906101000a900473ffffffffffffffffffffffffffffffffffffffff1673ffffffffffffffffffffffffffffffffffffffff163373ffffffffffffffffffffffffffffffffffffffff161415156118bd576040517f08c379a00000000000000000000000000000000000000000000000000000000081526004018080602001828103825260098152602001807f6e6f742061646d696e000000000000000000000000000000000000000000000081525060200191505060405180910390fd5b6000811180156118cd5750606481105b15156118d857600080fd5b80600c8190555050565b600260009054906101000a900473ffffffffffffffffffffffffffffffffffffffff1673ffffffffffffffffffffffffffffffffffffffff163373ffffffffffffffffffffffffffffffffffffffff16148061198b5750600060019054906101000a900473ffffffffffffffffffffffffffffffffffffffff1673ffffffffffffffffffffffffffffffffffffffff163373ffffffffffffffffffffffffffffffffffffffff16145b806119e35750600360009054906101000a900473ffffffffffffffffffffffffffffffffffffffff1673ffffffffffffffffffffffffffffffffffffffff163373ffffffffffffffffffffffffffffffffffffffff16145b15156119ee57600080fd5b6000600b54118015611a045750600b54600a5410155b1515611a0f57600080fd5b6000600b81905550600860009054906101000a900473ffffffffffffffffffffffffffffffffffffffff1673ffffffffffffffffffffffffffffffffffffffff1663a67b23a1600360009054906101000a900473ffffffffffffffffffffffffffffffffffffffff16600b546040518363ffffffff167c0100000000000000000000000000000000000000000000000000000000028152600401808373ffffffffffffffffffffffffffffffffffffffff1673ffffffffffffffffffffffffffffffffffffffff16815260200182815260200192505050600060405180830381600087803b158015611b0057600080fd5b505af1158015611b14573d6000803e3d6000fd5b50505050565b6000600360009054906101000a900473ffffffffffffffffffffffffffffffffffffffff16905090565b60008060008060009054906101000a900460ff16151515611b6457600080fd5b600d60003373ffffffffffffffffffffffffffffffffffffffff1673ffffffffffffffffffffffffffffffffffffffff16815260200190815260200160002060009054906101000a900460ff161515611bbc57600080fd5b600073ffffffffffffffffffffffffffffffffffffffff168773ffffffffffffffffffffffffffffffffffffffff161415611c86576009546127103073ffffffffffffffffffffffffffffffffffffffff1631811515611c1857fe5b0402611c2d858761405490919063ffffffff16565b11151515611c3a57600080fd5b8573ffffffffffffffffffffffffffffffffffffffff166108fc869081150290604051600060405180830381858888f19350505050158015611c80573d6000803e3d6000fd5b50611e83565b8691508173ffffffffffffffffffffffffffffffffffffffff166370a08231306040518263ffffffff167c0100000000000000000000000000000000000000000000000000000000028152600401808273ffffffffffffffffffffffffffffffffffffffff1673ffffffffffffffffffffffffffffffffffffffff168152602001915050602060405180830381600087803b158015611d2457600080fd5b505af1158015611d38573d6000803e3d6000fd5b505050506040513d6020811015611d4e57600080fd5b81019080805190602001909291905050509050611d8360095461271083811515611d7457fe5b04613f8790919063ffffffff16565b611d96858761405490919063ffffffff16565b11151515611da357600080fd5b8173ffffffffffffffffffffffffffffffffffffffff1663a9059cbb87876040518363ffffffff167c0100000000000000000000000000000000000000000000000000000000028152600401808373ffffffffffffffffffffffffffffffffffffffff1673ffffffffffffffffffffffffffffffffffffffff16815260200182815260200192505050602060405180830381600087803b158015611e4657600080fd5b505af1158015611e5a573d6000803e3d6000fd5b505050506040513d6020811015611e7057600080fd5b8101908080519060200190929190505050505b600192505050949350505050565b600d6020528060005260406000206000915054906101000a900460ff1681565b6000600d60008373ffffffffffffffffffffffffffffffffffffffff1673ffffffffffffffffffffffffffffffffffffffff16815260200190815260200160002060009054906101000a900460ff169050919050565b600060019054906101000a900473ffffffffffffffffffffffffffffffffffffffff1673ffffffffffffffffffffffffffffffffffffffff163373ffffffffffffffffffffffffffffffffffffffff16141515611fcc576040517f08c379a00000000000000000000000000000000000000000000000000000000081526004018080602001828103825260098152602001807f6e6f742061646d696e000000000000000000000000000000000000000000000081525060200191505060405180910390fd5b600073ffffffffffffffffffffffffffffffffffffffff168173ffffffffffffffffffffffffffffffffffffffff161415151561200857600080fd5b80600860006101000a81548173ffffffffffffffffffffffffffffffffffffffff021916908373ffffffffffffffffffffffffffffffffffffffff16021790555050565b6000600160009054906101000a900473ffffffffffffffffffffffffffffffffffffffff1673ffffffffffffffffffffffffffffffffffffffff163373ffffffffffffffffffffffffffffffffffffffff1614806120f75750600060019054906101000a900473ffffffffffffffffffffffffffffffffffffffff1673ffffffffffffffffffffffffffffffffffffffff163373ffffffffffffffffffffffffffffffffffffffff16145b8061214b5750600d60003373ffffffffffffffffffffffffffffffffffffffff1673ffffffffffffffffffffffffffffffffffffffff16815260200190815260200160002060009054906101000a900460ff165b151561215657600080fd5b600073ffffffffffffffffffffffffffffffffffffffff168273ffffffffffffffffffffffffffffffffffffffff161415151561219257600080fd5b600e60008373ffffffffffffffffffffffffffffffffffffffff1673ffffffffffffffffffffffffffffffffffffffff1681526020019081526020016000205490506001811115156121e357600080fd5b600a5481111515156121f457600080fd5b61220c60018203600a5461405490919063ffffffff16565b600a819055506001600e60008473ffffffffffffffffffffffffffffffffffffffff1673ffffffffffffffffffffffffffffffffffffffff16815260200190815260200160002081905550600860009054906101000a900473ffffffffffffffffffffffffffffffffffffffff1673ffffffffffffffffffffffffffffffffffffffff1663a67b23a183600184036040518363ffffffff167c0100000000000000000000000000000000000000000000000000000000028152600401808373ffffffffffffffffffffffffffffffffffffffff1673ffffffffffffffffffffffffffffffffffffffff16815260200182815260200192505050600060405180830381600087803b15801561231f57600080fd5b505af1158015612333573d6000803e3d6000fd5b505050505050565b600160009054906101000a900473ffffffffffffffffffffffffffffffffffffffff1681565b600060019054906101000a900473ffffffffffffffffffffffffffffffffffffffff1673ffffffffffffffffffffffffffffffffffffffff163373ffffffffffffffffffffffffffffffffffffffff16141515612426576040517f08c379a00000000000000000000000000000000000000000000000000000000081526004018080602001828103825260098152602001807f6e6f742061646d696e000000000000000000000000000000000000000000000081525060200191505060405180910390fd5b600073ffffffffffffffffffffffffffffffffffffffff168173ffffffffffffffffffffffffffffffffffffffff161415151561246257600080fd5b80600760006101000a81548173ffffffffffffffffffffffffffffffffffffffff021916908373ffffffffffffffffffffffffffffffffffffffff16021790555050565b6000600e60003373ffffffffffffffffffffffffffffffffffffffff1673ffffffffffffffffffffffffffffffffffffffff1681526020019081526020016000205490506001811115156124f957600080fd5b600a54811115151561250a57600080fd5b61252260018203600a5461405490919063ffffffff16565b600a819055506001600e60003373ffffffffffffffffffffffffffffffffffffffff1673ffffffffffffffffffffffffffffffffffffffff16815260200190815260200160002081905550600860009054906101000a900473ffffffffffffffffffffffffffffffffffffffff1673ffffffffffffffffffffffffffffffffffffffff1663a67b23a133600184036040518363ffffffff167c0100000000000000000000000000000000000000000000000000000000028152600401808373ffffffffffffffffffffffffffffffffffffffff1673ffffffffffffffffffffffffffffffffffffffff16815260200182815260200192505050600060405180830381600087803b15801561263557600080fd5b505af1158015612649573d6000803e3d6000fd5b5050505050565b600c5481565b600060019054906101000a900473ffffffffffffffffffffffffffffffffffffffff1673ffffffffffffffffffffffffffffffffffffffff163373ffffffffffffffffffffffffffffffffffffffff1614151561271b576040517f08c379a00000000000000000000000000000000000000000000000000000000081526004018080602001828103825260098152602001807f6e6f742061646d696e000000000000000000000000000000000000000000000081525060200191505060405180910390fd5b600073ffffffffffffffffffffffffffffffffffffffff168173ffffffffffffffffffffffffffffffffffffffff16141515156127c0576040517f08c379a000000000000000000000000000000000000000000000000000000000815260040180806020018281038252601c8152602001807f5f6e657741646d696e2063616e2774206265206164647265737320300000000081525060200191505060405180910390fd5b80600060016101000a81548173ffffffffffffffffffffffffffffffffffffffff021916908373ffffffffffffffffffffffffffffffffffffffff16021790555050565b600f6020528060005260406000206000915090505481565b60095481565b600260009054906101000a900473ffffffffffffffffffffffffffffffffffffffff1681565b600a5481565b60008060009054906101000a900460ff1615151561286b57600080fd5b600d60003373ffffffffffffffffffffffffffffffffffffffff1673ffffffffffffffffffffffffffffffffffffffff16815260200190815260200160002060009054906101000a900460ff1615156128c357600080fd5b6009546127103073ffffffffffffffffffffffffffffffffffffffff16318115156128ea57fe5b0402828403111515156128fc57600080fd5b8373ffffffffffffffffffffffffffffffffffffffff166108fc849081150290604051600060405180830381858888f19350505050158015612942573d6000803e3d6000fd5b50600190509392505050565b600080600080600460009054906101000a900473ffffffffffffffffffffffffffffffffffffffff1673ffffffffffffffffffffffffffffffffffffffff163373ffffffffffffffffffffffffffffffffffffffff1614806129fd5750600060019054906101000a900473ffffffffffffffffffffffffffffffffffffffff1673ffffffffffffffffffffffffffffffffffffffff163373ffffffffffffffffffffffffffffffffffffffff16145b1515612a0857600080fd5b8492508273ffffffffffffffffffffffffffffffffffffffff166370a08231306040518263ffffffff167c0100000000000000000000000000000000000000000000000000000000028152600401808273ffffffffffffffffffffffffffffffffffffffff1673ffffffffffffffffffffffffffffffffffffffff168152602001915050602060405180830381600087803b158015612aa657600080fd5b505af1158015612aba573d6000803e3d6000fd5b505050506040513d6020811015612ad057600080fd5b81019080805190602001909291905050509150612b35600f60008773ffffffffffffffffffffffffffffffffffffffff1673ffffffffffffffffffffffffffffffffffffffff168152602001908152602001600020548361405490919063ffffffff16565b90508082111515612b4557600080fd5b6000811115612c66578273ffffffffffffffffffffffffffffffffffffffff166342966c68826040518263ffffffff167c010000000000000000000000000000000000000000000000000000000002815260040180828152602001915050602060405180830381600087803b158015612bbd57600080fd5b505af1158015612bd1573d6000803e3d6000fd5b505050506040513d6020811015612be757600080fd5b8101908080519060200190929190505050508473ffffffffffffffffffffffffffffffffffffffff163073ffffffffffffffffffffffffffffffffffffffff167fb37c6417ca02c8084d9b4013dd6cb0f56bbd792f58dee3354014d14f714fc16b836040518082815260200191505060405180910390a3809350612c6b565b600093505b505050919050565b600260009054906101000a900473ffffffffffffffffffffffffffffffffffffffff1673ffffffffffffffffffffffffffffffffffffffff163373ffffffffffffffffffffffffffffffffffffffff16141515612d38576040517f08c379a000000000000000000000000000000000000000000000000000000000815260040180806020018281038252600b8152602001807f6e6f742066696e616e636500000000000000000000000000000000000000000081525060200191505060405180910390fd5b600073ffffffffffffffffffffffffffffffffffffffff168173ffffffffffffffffffffffffffffffffffffffff1614151515612ddd576040517f08c379a000000000000000000000000000000000000000000000000000000000815260040180806020018281038252600a8152602001807f5f6164647220697320300000000000000000000000000000000000000000000081525060200191505060405180910390fd5b80600260006101000a81548173ffffffffffffffffffffffffffffffffffffffff021916908373ffffffffffffffffffffffffffffffffffffffff16021790555050565b60008060008060019054906101000a900473ffffffffffffffffffffffffffffffffffffffff1673ffffffffffffffffffffffffffffffffffffffff163373ffffffffffffffffffffffffffffffffffffffff16141515612eea576040517f08c379a00000000000000000000000000000000000000000000000000000000081526004018080602001828103825260098152602001807f6e6f742061646d696e000000000000000000000000000000000000000000000081525060200191505060405180910390fd5b8492508273ffffffffffffffffffffffffffffffffffffffff166370a08231306040518263ffffffff167c0100000000000000000000000000000000000000000000000000000000028152600401808273ffffffffffffffffffffffffffffffffffffffff1673ffffffffffffffffffffffffffffffffffffffff168152602001915050602060405180830381600087803b158015612f8857600080fd5b505af1158015612f9c573d6000803e3d6000fd5b505050506040513d6020811015612fb257600080fd5b8101908080519060200190929190505050915083905081841115612fd4578190505b8273ffffffffffffffffffffffffffffffffffffffff1663a9059cbb600260009054906101000a900473ffffffffffffffffffffffffffffffffffffffff16836040518363ffffffff167c0100000000000000000000000000000000000000000000000000000000028152600401808373ffffffffffffffffffffffffffffffffffffffff1673ffffffffffffffffffffffffffffffffffffffff16815260200182815260200192505050602060405180830381600087803b15801561309957600080fd5b505af11580156130ad573d6000803e3d6000fd5b505050506040513d60208110156130c357600080fd5b8101908080519060200190929190505050505050505050565b600080600760009054906101000a900473ffffffffffffffffffffffffffffffffffffffff1673ffffffffffffffffffffffffffffffffffffffff166370a08231600860009054906101000a900473ffffffffffffffffffffffffffffffffffffffff166040518263ffffffff167c0100000000000000000000000000000000000000000000000000000000028152600401808273ffffffffffffffffffffffffffffffffffffffff1673ffffffffffffffffffffffffffffffffffffffff168152602001915050602060405180830381600087803b1580156131be57600080fd5b505af11580156131d2573d6000803e3d6000fd5b505050506040513d60208110156131e857600080fd5b81019080805190602001909291905050509050600a548110151561321257600a5481039150613217565b600091505b5090565b600060019054906101000a900473ffffffffffffffffffffffffffffffffffffffff1673ffffffffffffffffffffffffffffffffffffffff163373ffffffffffffffffffffffffffffffffffffffff161415156132e0576040517f08c379a00000000000000000000000000000000000000000000000000000000081526004018080602001828103825260098152602001807f6e6f742061646d696e000000000000000000000000000000000000000000000081525060200191505060405180910390fd5b600073ffffffffffffffffffffffffffffffffffffffff168173ffffffffffffffffffffffffffffffffffffffff161415151561331c57600080fd5b80600460006101000a81548173ffffffffffffffffffffffffffffffffffffffff021916908373ffffffffffffffffffffffffffffffffffffffff16021790555050565b600b5481565b6000809054906101000a900460ff1681565b600060019054906101000a900473ffffffffffffffffffffffffffffffffffffffff1673ffffffffffffffffffffffffffffffffffffffff163373ffffffffffffffffffffffffffffffffffffffff1614151561343d576040517f08c379a00000000000000000000000000000000000000000000000000000000081526004018080602001828103825260098152602001807f6e6f742061646d696e000000000000000000000000000000000000000000000081525060200191505060405180910390fd5b600073ffffffffffffffffffffffffffffffffffffffff168173ffffffffffffffffffffffffffffffffffffffff16141515156134e2576040517f08c379a00000000000000000000000000000000000000000000000000000000081526004018080602001828103825260188152602001807f5f616464722063616e277420626520616464726573732030000000000000000081525060200191505060405180910390fd5b80600160006101000a81548173ffffffffffffffffffffffffffffffffffffffff021916908373ffffffffffffffffffffffffffffffffffffffff16021790555050565b600060019054906101000a900473ffffffffffffffffffffffffffffffffffffffff1673ffffffffffffffffffffffffffffffffffffffff163373ffffffffffffffffffffffffffffffffffffffff161415156135eb576040517f08c379a00000000000000000000000000000000000000000000000000000000081526004018080602001828103825260098152602001807f6e6f742061646d696e000000000000000000000000000000000000000000000081525060200191505060405180910390fd5b806000806101000a81548160ff02191690831515021790555050565b600060019054906101000a900473ffffffffffffffffffffffffffffffffffffffff1681565b6000600a54905090565b6000670de0b6b3a76400003073ffffffffffffffffffffffffffffffffffffffff163181151561366357fe5b04905090565b600360009054906101000a900473ffffffffffffffffffffffffffffffffffffffff1681565b600060019054906101000a900473ffffffffffffffffffffffffffffffffffffffff1673ffffffffffffffffffffffffffffffffffffffff163373ffffffffffffffffffffffffffffffffffffffff16141515613754576040517f08c379a00000000000000000000000000000000000000000000000000000000081526004018080602001828103825260098152602001807f6e6f742061646d696e000000000000000000000000000000000000000000000081525060200191505060405180910390fd5b80600d60008473ffffffffffffffffffffffffffffffffffffffff1673ffffffffffffffffffffffffffffffffffffffff16815260200190815260200160002060006101000a81548160ff0219169083151502179055505050565b600d60003373ffffffffffffffffffffffffffffffffffffffff1673ffffffffffffffffffffffffffffffffffffffff16815260200190815260200160002060009054906101000a900460ff16151561380757600080fd5b60008111801561381957506113888111155b151561382457600080fd5b8060098190555050565b600260009054906101000a900473ffffffffffffffffffffffffffffffffffffffff1673ffffffffffffffffffffffffffffffffffffffff163373ffffffffffffffffffffffffffffffffffffffff1614806138d75750600060019054906101000a900473ffffffffffffffffffffffffffffffffffffffff1673ffffffffffffffffffffffffffffffffffffffff163373ffffffffffffffffffffffffffffffffffffffff16145b15156138e257600080fd5b60008111801561390957503073ffffffffffffffffffffffffffffffffffffffff16318111155b151561391457600080fd5b600260009054906101000a900473ffffffffffffffffffffffffffffffffffffffff1673ffffffffffffffffffffffffffffffffffffffff166108fc829081150290604051600060405180830381858888f1935050505015801561397c573d6000803e3d6000fd5b5050565b600660009054906101000a900473ffffffffffffffffffffffffffffffffffffffff1681565b600060019054906101000a900473ffffffffffffffffffffffffffffffffffffffff1673ffffffffffffffffffffffffffffffffffffffff163373ffffffffffffffffffffffffffffffffffffffff16141515613a6b576040517f08c379a00000000000000000000000000000000000000000000000000000000081526004018080602001828103825260098152602001807f6e6f742061646d696e000000000000000000000000000000000000000000000081525060200191505060405180910390fd5b600073ffffffffffffffffffffffffffffffffffffffff168173ffffffffffffffffffffffffffffffffffffffff1614151515613aa757600080fd5b80600560006101000a81548173ffffffffffffffffffffffffffffffffffffffff021916908373ffffffffffffffffffffffffffffffffffffffff16021790555050565b600560009054906101000a900473ffffffffffffffffffffffffffffffffffffffff1681565b6000600760009054906101000a900473ffffffffffffffffffffffffffffffffffffffff16905090565b6000806000806000809054906101000a900460ff16151515613b5c57600080fd5b600d60003373ffffffffffffffffffffffffffffffffffffffff1673ffffffffffffffffffffffffffffffffffffffff16815260200190815260200160002060009054906101000a900460ff168015613be25750600073ffffffffffffffffffffffffffffffffffffffff168773ffffffffffffffffffffffffffffffffffffffff1614155b1515613bed57600080fd5b600760009054906101000a900473ffffffffffffffffffffffffffffffffffffffff1673ffffffffffffffffffffffffffffffffffffffff166370a08231600860009054906101000a900473ffffffffffffffffffffffffffffffffffffffff166040518263ffffffff167c0100000000000000000000000000000000000000000000000000000000028152600401808273ffffffffffffffffffffffffffffffffffffffff1673ffffffffffffffffffffffffffffffffffffffff168152602001915050602060405180830381600087803b158015613ccc57600080fd5b505af1158015613ce0573d6000803e3d6000fd5b505050506040513d6020811015613cf657600080fd5b81019080805190602001909291905050509350613d1e600a548561405490919063ffffffff16565b9250613d3385876148b090919063ffffffff16565b9150818310151515613d4457600080fd5b6000861115613de657600e60008873ffffffffffffffffffffffffffffffffffffffff1673ffffffffffffffffffffffffffffffffffffffff168152602001908152602001600020549050613da286826148b090919063ffffffff16565b600e60008973ffffffffffffffffffffffffffffffffffffffff1673ffffffffffffffffffffffffffffffffffffffff168152602001908152602001600020819055505b613dfb82600a546148b090919063ffffffff16565b600a81905550613e1685600b546148b090919063ffffffff16565b600b8190555050505050505050565b600460009054906101000a900473ffffffffffffffffffffffffffffffffffffffff1681565b8073ffffffffffffffffffffffffffffffffffffffff163373ffffffffffffffffffffffffffffffffffffffff161480613ed25750600060019054906101000a900473ffffffffffffffffffffffffffffffffffffffff1673ffffffffffffffffffffffffffffffffffffffff163373ffffffffffffffffffffffffffffffffffffffff16145b1515613edd57600080fd5b600073ffffffffffffffffffffffffffffffffffffffff168173ffffffffffffffffffffffffffffffffffffffff1614151515613f1957600080fd5b80600660006101000a81548173ffffffffffffffffffffffffffffffffffffffff021916908373ffffffffffffffffffffffffffffffffffffffff16021790555050565b6000600860009054906101000a900473ffffffffffffffffffffffffffffffffffffffff16905090565b6000806000841415613f9c576000915061404d565b8284029050828482811515613fad57fe5b04141515614049576040517f08c379a00000000000000000000000000000000000000000000000000000000081526004018080602001828103825260218152602001807f536166654d6174683a206d756c7469706c69636174696f6e206f766572666c6f81526020017f770000000000000000000000000000000000000000000000000000000000000081525060400191505060405180910390fd5b8091505b5092915050565b600061409683836040805190810160405280601e81526020017f536166654d6174683a207375627472616374696f6e206f766572666c6f77000081525061493a565b905092915050565b6000806000806000600f60008873ffffffffffffffffffffffffffffffffffffffff1673ffffffffffffffffffffffffffffffffffffffff1681526020019081526020016000205494506000851115156140f757600080fd5b600073ffffffffffffffffffffffffffffffffffffffff168773ffffffffffffffffffffffffffffffffffffffff16141561414b573073ffffffffffffffffffffffffffffffffffffffff16319350614227565b8692508273ffffffffffffffffffffffffffffffffffffffff166370a08231306040518263ffffffff167c0100000000000000000000000000000000000000000000000000000000028152600401808273ffffffffffffffffffffffffffffffffffffffff1673ffffffffffffffffffffffffffffffffffffffff168152602001915050602060405180830381600087803b1580156141e957600080fd5b505af11580156141fd573d6000803e3d6000fd5b505050506040513d602081101561421357600080fd5b810190808051906020019092919050505093505b60009150600090508484111561457a5784840391506142646064614256600c5485613f8790919063ffffffff16565b6149fb90919063ffffffff16565b9050600073ffffffffffffffffffffffffffffffffffffffff168773ffffffffffffffffffffffffffffffffffffffff16141561437457600660009054906101000a900473ffffffffffffffffffffffffffffffffffffffff1673ffffffffffffffffffffffffffffffffffffffff166108fc829081150290604051600060405180830381858888f19350505050158015614303573d6000803e3d6000fd5b50600560009054906101000a900473ffffffffffffffffffffffffffffffffffffffff1673ffffffffffffffffffffffffffffffffffffffff166108fc8284039081150290604051600060405180830381858888f1935050505015801561436e573d6000803e3d6000fd5b50614579565b8273ffffffffffffffffffffffffffffffffffffffff1663a9059cbb600660009054906101000a900473ffffffffffffffffffffffffffffffffffffffff16836040518363ffffffff167c0100000000000000000000000000000000000000000000000000000000028152600401808373ffffffffffffffffffffffffffffffffffffffff1673ffffffffffffffffffffffffffffffffffffffff16815260200182815260200192505050602060405180830381600087803b15801561443957600080fd5b505af115801561444d573d6000803e3d6000fd5b505050506040513d602081101561446357600080fd5b8101908080519060200190929190505050508273ffffffffffffffffffffffffffffffffffffffff1663a9059cbb600560009054906101000a900473ffffffffffffffffffffffffffffffffffffffff168385036040518363ffffffff167c0100000000000000000000000000000000000000000000000000000000028152600401808373ffffffffffffffffffffffffffffffffffffffff1673ffffffffffffffffffffffffffffffffffffffff16815260200182815260200192505050602060405180830381600087803b15801561453c57600080fd5b505af1158015614550573d6000803e3d6000fd5b505050506040513d602081101561456657600080fd5b8101908080519060200190929190505050505b5b857f552f6286617d78dd147bc5f684e352867f1e620e6a58fddb5c6bd2ac3712754688838503604051808373ffffffffffffffffffffffffffffffffffffffff1673ffffffffffffffffffffffffffffffffffffffff1681526020018281526020019250505060405180910390a250505050505050565b6060600080606060008060008873ffffffffffffffffffffffffffffffffffffffff16319550875194508460405190808252806020026020018201604052801561464a5781602001602082028038833980820191505090505b5093508584600081518110151561465d57fe5b9060200190602002018181525050600192505b8483101561479257878381518110151561468657fe5b9060200190602002015191508173ffffffffffffffffffffffffffffffffffffffff166370a082318a6040518263ffffffff167c0100000000000000000000000000000000000000000000000000000000028152600401808273ffffffffffffffffffffffffffffffffffffffff1673ffffffffffffffffffffffffffffffffffffffff168152602001915050602060405180830381600087803b15801561472d57600080fd5b505af1158015614741573d6000803e3d6000fd5b505050506040513d602081101561475757600080fd5b8101908080519060200190929190505050905080848481518110151561477957fe5b9060200190602002018181525050600183019250614670565b83965050505050505092915050565b600080600080600073ffffffffffffffffffffffffffffffffffffffff168773ffffffffffffffffffffffffffffffffffffffff161415151561484c576040517f08c379a000000000000000000000000000000000000000000000000000000000815260040180806020018281038252600a8152602001807f5f6164647220697320300000000000000000000000000000000000000000000081525060200191505060405180910390fd5b84519350600090505b838110156148a757848181518110151561486b57fe5b906020019060200201519250858181518110151561488557fe5b90602001906020020151915061489c878385614a45565b600181019050614855565b50505050505050565b6000808284019050838110151515614930576040517f08c379a000000000000000000000000000000000000000000000000000000000815260040180806020018281038252601b8152602001807f536166654d6174683a206164646974696f6e206f766572666c6f77000000000081525060200191505060405180910390fd5b8091505092915050565b60008084841115839015156149ea576040517f08c379a00000000000000000000000000000000000000000000000000000000081526004018080602001828103825283818151815260200191508051906020019080838360005b838110156149af578082015181840152602081019050614994565b50505050905090810190601f1680156149dc5780820380516001836020036101000a031916815260200191505b509250505060405180910390fd5b508385039050809150509392505050565b6000614a3d83836040805190810160405280601a81526020017f536166654d6174683a206469766973696f6e206279207a65726f000000000000815250614a9a565b905092915050565b600073ffffffffffffffffffffffffffffffffffffffff168273ffffffffffffffffffffffffffffffffffffffff161415614a8957614a848382614b64565b614a95565b614a94838383614c07565b5b505050565b6000806000841183901515614b4a576040517f08c379a00000000000000000000000000000000000000000000000000000000081526004018080602001828103825283818151815260200191508051906020019080838360005b83811015614b0f578082015181840152602081019050614af4565b50505050905090810190601f168015614b3c5780820380516001836020036101000a031916815260200191505b509250505060405180910390fd5b508385811515614b5657fe5b049050809150509392505050565b6000811115614c03578173ffffffffffffffffffffffffffffffffffffffff166108fc829081150290604051600060405180830381858888f19350505050158015614bb3573d6000803e3d6000fd5b508173ffffffffffffffffffffffffffffffffffffffff167f066ebf901587aec1338abcd7716912d4ab714a550c993de14a7a8c8b6a735aba826040518082815260200191505060405180910390a25b5050565b600073ffffffffffffffffffffffffffffffffffffffff168273ffffffffffffffffffffffffffffffffffffffff1614151515614cac576040517f08c379a00000000000000000000000000000000000000000000000000000000081526004018080602001828103825260098152602001807f616464722069732030000000000000000000000000000000000000000000000081525060200191505060405180910390fd5b6000811115614dfa578173ffffffffffffffffffffffffffffffffffffffff1663a9059cbb84836040518363ffffffff167c0100000000000000000000000000000000000000000000000000000000028152600401808373ffffffffffffffffffffffffffffffffffffffff1673ffffffffffffffffffffffffffffffffffffffff16815260200182815260200192505050602060405180830381600087803b158015614d5857600080fd5b505af1158015614d6c573d6000803e3d6000fd5b505050506040513d6020811015614d8257600080fd5b8101908080519060200190929190505050508173ffffffffffffffffffffffffffffffffffffffff168373ffffffffffffffffffffffffffffffffffffffff167f52a1ece0f3428b1c7032ada833db5214b033972154dcfa1f22bf4e6fb29927a3836040518082815260200191505060405180910390a35b5050505600a165627a7a72305820338c59c5d2303defbc2986f56f58d369fab8dc78b26e5f8f70183dc4144103630029",
  "source": "pragma solidity ^0.4.23;\n\nimport \"./BaseAdmin.sol\";\nimport \"./SafeMath.sol\";\n\ninterface IBLinkToken {\n    function balanceOf(address _from) external view returns(uint256);\n    function transfer(address _to, uint256 _value) external returns(bool);\n    function transferFrom(address _from, address _to, uint256 _value) external returns(bool);\n    function burn(uint256 _value) external returns (bool);\n}\n\ninterface IBLinkMinePool{\n    function transferBLink(address _to, uint256 _amount) external;\n}\n\n/*\n    BLink \n*/\ncontract BLinkPool is FinanceAdmin {\n    using SafeMath for uint256;\n\n    address public addrTokenDev;\n    address public addrBurner;\n    address public addrDivider;//BLink\n    address public addrWinkDivider;//Wink\n\n    IBLinkToken blinkToken;\n\n    /*\n        \n    */\n    IBLinkMinePool blinkMinePool;\n\n    uint256 public safeWaterLevel = 1000;\n    uint256 public blinkTotalCache;\n    uint256 public blinkDevCache;\n\n    /*\n         bsctoken win\n    */\n    uint256 public winkRate=50;\n    mapping (address => bool) public safeBetContracts;\n    mapping (address => uint256) public playerBLinkCache;\n\n    mapping (address => uint256) public tokenOriginalAmountMap;\n\n\n    event TokenBurn(\n        address indexed _from,\n        address indexed _addrToken,\n        uint256 _value\n    );\n\n    event TokenDivide(\n        uint256 indexed _index,\n        address addrToken,\n        uint256 tokenValue\n    );\n\n    constructor() public {\n        addrTokenDev = msg.sender;\n        addrBurner = msg.sender;\n        tokenOriginalAmountMap[address(0)]=10000*1e18;\n    }\n\n    function() external payable {\n        \n    }\n\n    modifier whenNotPaused() {\n        require(!isPaused);\n        _;\n    }\n\n    function setBurner(address _newBurner) external onlyAdmin {\n        require(_newBurner != address(0));\n        addrBurner = _newBurner;\n    }\n    function setAddrDivider(address _addr) external onlyAdmin {\n        require(_addr!= address(0));\n        addrDivider= _addr;\n    }\n\n    function setWinkDivider(address _newWinkDivider) external {\n        require(msg.sender == _newWinkDivider || msg.sender == addrAdmin);\n        require(_newWinkDivider != address(0));\n        addrWinkDivider = _newWinkDivider;\n    }\n\n    function setWinkRate(uint256 _newRate)external onlyAdmin {\n        require(_newRate>0 && _newRate<100);\n        winkRate=_newRate;\n    }\n\n    function setSafeContract(address _actionAddr, bool _useful) external onlyAdmin {\n        safeBetContracts[_actionAddr] = _useful;\n    }\n\n    function getSafeContract(address _actionAddr) external view returns(bool) {\n        return safeBetContracts[_actionAddr];\n    } \n\n    function setTokenDevAddr(address _addr) external onlyAdmin {\n        require(_addr != address(0));\n        addrTokenDev = _addr;\n    }\n\n    function setBLinkTokenAddr(address _addr) external onlyAdmin {\n        require(_addr != address(0));\n        blinkToken = IBLinkToken(_addr);\n    }\n\n    function getBLinkTokenAddr() external view returns(address) {\n        return address(blinkToken);\n    }\n\n    function setBLinkMinePool(address _addr) external onlyAdmin{\n        require(_addr != address(0));\n        blinkMinePool=IBLinkMinePool(_addr);\n    }\n\n    function getBLinkMinePool() external view returns(address) {\n        return address(blinkMinePool);\n    }\n\n    function getTokenDevAddr() external view returns(address) {\n        return addrTokenDev;\n    }\n\n    function setSafeWaterLevel(uint256 _newLevel) external{\n        require(safeBetContracts[msg.sender]);\n        require(_newLevel > 0 && _newLevel <= 5000);\n        safeWaterLevel = _newLevel;\n    }\n\n    function setTokenOriginalAmount(address _tokenAddr, uint256 _amount){\n        require(safeBetContracts[msg.sender]);\n        tokenOriginalAmountMap[_tokenAddr] = _amount;\n    }\n\n    function transferBnb(address _to, uint256 _amount, uint256 _originalAmount) external whenNotPaused returns(bool) {\n        require(safeBetContracts[msg.sender]);\n        require((_amount - _originalAmount) <= (address(this).balance / 10000 * safeWaterLevel));\n        _to.transfer(_amount);\n        return true;\n    }\n\n    function transferToWiner(address _tokenAddr, address _to, uint256 _amount, uint256 _original) external whenNotPaused returns(bool) {\n        require(safeBetContracts[msg.sender]);\n        if(_tokenAddr==address(0)){\n            require(_amount.sub(_original) <= (address(this).balance / 10000 * safeWaterLevel));\n            _to.transfer(_amount);\n        }else{\n            IBEP20 token = IBEP20(_tokenAddr);\n            uint256 tokenBalance = token.balanceOf(address(this));\n            require(_amount.sub(_original) <= (tokenBalance / 10000).mul(safeWaterLevel));\n            token.transfer(_to, _amount);\n        }\n        return true;\n    }\n\n    function getPoolBLinkBalance() external view returns(uint256) {\n        uint256 ownBalance = blinkToken.balanceOf(address(blinkMinePool));\n        if (ownBalance >= blinkTotalCache) {\n            return ownBalance - blinkTotalCache;\n        } else {\n            return 0;\n        }\n    }\n\n    function getDevCacheBalance() external view returns(uint256) {\n        return blinkDevCache;\n    }\n\n    function getTotalCacheBalance() external view returns(uint256) {\n        return blinkTotalCache;\n    }\n\n    function getPoolBnbCount() external view returns(uint256) {\n        return address(this).balance/1e18;\n    }\n\n    function transferBLinkWithDevRelease(address _to1, uint256 _amount, uint256 _devReleaseAmount)\n        external \n        whenNotPaused \n    {\n        require(safeBetContracts[msg.sender] && _to1 != address(0));\n        uint256 ownBalance = blinkToken.balanceOf(address(blinkMinePool));\n        uint256 realBalance = ownBalance.sub(blinkTotalCache);\n        uint256 totalAmount = _amount.add(_devReleaseAmount);\n        require(realBalance >= totalAmount);\n        if (_amount > 0) {\n            uint256 oldToVal = playerBLinkCache[_to1];\n            playerBLinkCache[_to1] = oldToVal.add(_amount);\n        }\n        blinkTotalCache=blinkTotalCache.add(totalAmount);\n        blinkDevCache=blinkDevCache.add(_devReleaseAmount);\n    }\n\n    function releaseDevBLink() external {\n        require(msg.sender == addrFinance || msg.sender == addrAdmin || msg.sender == addrTokenDev);   \n        require(blinkDevCache> 0 && blinkTotalCache>= blinkDevCache);\n\n        blinkDevCache=0;\n        blinkMinePool.transferBLink(addrTokenDev, blinkDevCache);\n    }\n\n    function releaseBLink(address _owner) external {\n        require(msg.sender == operator || msg.sender == addrAdmin || safeBetContracts[msg.sender]);\n        require(_owner != address(0));\n        uint256 cacheVal = playerBLinkCache[_owner];\n        require(cacheVal > 1);\n        require(cacheVal <= blinkTotalCache);\n        blinkTotalCache=blinkTotalCache.sub(cacheVal - 1);\n        playerBLinkCache[_owner] = 1;\n        blinkMinePool.transferBLink(_owner, cacheVal - 1);\n    }\n\n    function releaseBLinkSelf() external {\n        uint256 cacheVal = playerBLinkCache[msg.sender];\n        require(cacheVal > 1);\n        require(cacheVal <= blinkTotalCache);\n        blinkTotalCache=blinkTotalCache.sub(cacheVal - 1);\n        playerBLinkCache[msg.sender] = 1;\n        blinkMinePool.transferBLink(msg.sender, cacheVal - 1);\n    }\n\n    function withdrawProfit(uint256 _amount)\n        external \n    {\n        require(msg.sender == addrFinance || msg.sender == addrAdmin);\n        require(_amount > 0 && _amount <= address(this).balance);\n        addrFinance.transfer(_amount);    \n    }\n\n    function transferToken(address _tokenAddr, address _to, uint256 _amount, uint256 _original)\n    external\n    whenNotPaused\n    {\n        require(safeBetContracts[msg.sender]);\n        IBEP20 token = IBEP20(_tokenAddr);\n        uint256 tokenBalance = token.balanceOf(address(this));\n        require(_amount.sub(_original) <= (tokenBalance / 10000).mul(safeWaterLevel));\n        token.transfer(_to, _amount);\n    }\n\n    function burnToken(address _addrToken) external returns(uint256) {\n        require(msg.sender == addrBurner || msg.sender == addrAdmin);\n        IBEP20 token = IBEP20(_addrToken);\n        uint256 tokenBalance = token.balanceOf(address(this));\n        uint256 tokenProfit = tokenBalance.sub(tokenOriginalAmountMap[_addrToken]);\n        require(tokenBalance > tokenProfit);\n        if (tokenProfit > 0) {\n            token.burn(tokenProfit);\n            emit TokenBurn(address(this), _addrToken, tokenProfit);\n            return tokenProfit;\n        } else {\n            return 0;\n        }\n    }\n\n    function transferToDivide(address[] _addrTokens) external {\n        require(msg.sender == operator || safeBetContracts[msg.sender] || msg.sender == addrAdmin);\n        uint256 len = _addrTokens.length;\n        address tokenAddr;\n        for(uint256 i = 0; i < len; i += 1){\n            _transferTokenToDivide(_addrTokens[i],block.timestamp);\n        }\n    }\n\n    function _transferTokenToDivide(address _addrToken,uint256 _index) internal{\n        uint256 originalVal = tokenOriginalAmountMap[_addrToken];\n        require(originalVal > 0);\n        uint256 curBalance;\n        IBEP20 token ;\n        if(_addrToken==address(0)){\n            curBalance=address(this).balance;\n        }else{\n            token= IBEP20(_addrToken);\n            curBalance= token.balanceOf(address(this));\n        }\n        uint256 val =0;\n        uint256 valWin =0;\n\n        if(curBalance>originalVal){\n            val = curBalance - originalVal;\n            valWin=val.mul(winkRate).div(100);\n            if(_addrToken==address(0)){\n                addrWinkDivider.transfer(valWin);\n                addrDivider.transfer(val-valWin);\n            }else{\n                token.transfer(addrWinkDivider, valWin);\n                token.transfer(addrDivider, val-valWin);\n            }\n        }\n        emit TokenDivide(_index, _addrToken, val-valWin);\n    }\n\n    function withdrawToken(address _addrToken, uint256 _amount) external onlyAdmin {\n        IBEP20 token = IBEP20(_addrToken);\n        uint256 tokenBalance = token.balanceOf(address(this));\n        uint256 wAmount = _amount;\n        if (_amount > tokenBalance) {\n            wAmount = tokenBalance;\n        }\n        token.transfer(addrFinance, wAmount);\n    }\n\n}\n",
  "sourcePath": "/Users/gordon/bian/dapp/dice/contracts/BLinkPool.sol",
  "compiler": {
    "name": "solc",
    "version": "0.4.25+commit.59dbf8f1.Emscripten.clang"
  },
  "schemaVersion": "3.2.0",
  "updatedAt": "2020-09-27T09:48:32.680Z",
  "devdoc": {
    "methods": {}
  },
  "userdoc": {
    "methods": {}
  }
}