{
  "contractName": "BLinkDividend",
  "abi": [
    {
      "constant": true,
      "inputs": [],
      "name": "snapshotValidDuration",
      "outputs": [
        {
          "name": "",
          "type": "uint64"
        }
      ],
      "payable": false,
      "stateMutability": "view",
      "type": "function"
    },
    {
      "constant": true,
      "inputs": [],
      "name": "blinkStakerIns",
      "outputs": [
        {
          "name": "",
          "type": "address"
        }
      ],
      "payable": false,
      "stateMutability": "view",
      "type": "function"
    },
    {
      "constant": false,
      "inputs": [
        {
          "name": "tokenAddrs",
          "type": "address[]"
        }
      ],
      "name": "updateVersion",
      "outputs": [],
      "payable": false,
      "stateMutability": "nonpayable",
      "type": "function"
    },
    {
      "constant": true,
      "inputs": [],
      "name": "status",
      "outputs": [
        {
          "name": "",
          "type": "uint8"
        }
      ],
      "payable": false,
      "stateMutability": "view",
      "type": "function"
    },
    {
      "constant": true,
      "inputs": [
        {
          "name": "",
          "type": "uint256"
        }
      ],
      "name": "stakerInfos",
      "outputs": [
        {
          "name": "staker",
          "type": "address"
        },
        {
          "name": "stakingAmt",
          "type": "uint256"
        }
      ],
      "payable": false,
      "stateMutability": "view",
      "type": "function"
    },
    {
      "constant": true,
      "inputs": [],
      "name": "operator",
      "outputs": [
        {
          "name": "",
          "type": "address"
        }
      ],
      "payable": false,
      "stateMutability": "view",
      "type": "function"
    },
    {
      "constant": true,
      "inputs": [],
      "name": "nextDividendIndex",
      "outputs": [
        {
          "name": "",
          "type": "uint256"
        }
      ],
      "payable": false,
      "stateMutability": "view",
      "type": "function"
    },
    {
      "constant": false,
      "inputs": [
        {
          "name": "_newAdmin",
          "type": "address"
        }
      ],
      "name": "setAdmin",
      "outputs": [],
      "payable": false,
      "stateMutability": "nonpayable",
      "type": "function"
    },
    {
      "constant": true,
      "inputs": [],
      "name": "addrFinance",
      "outputs": [
        {
          "name": "",
          "type": "address"
        }
      ],
      "payable": false,
      "stateMutability": "view",
      "type": "function"
    },
    {
      "constant": true,
      "inputs": [],
      "name": "stakeSnapshot",
      "outputs": [
        {
          "name": "totalStakingAmount",
          "type": "uint256"
        },
        {
          "name": "devStakingAmount",
          "type": "uint256"
        },
        {
          "name": "stakerCnt",
          "type": "uint32"
        },
        {
          "name": "nextStaker",
          "type": "uint32"
        },
        {
          "name": "nextStakingIndex",
          "type": "uint32"
        },
        {
          "name": "snapshotVersion",
          "type": "uint32"
        },
        {
          "name": "completeTime",
          "type": "uint32"
        }
      ],
      "payable": false,
      "stateMutability": "view",
      "type": "function"
    },
    {
      "constant": false,
      "inputs": [
        {
          "name": "_addr",
          "type": "address"
        }
      ],
      "name": "setFinance",
      "outputs": [],
      "payable": false,
      "stateMutability": "nonpayable",
      "type": "function"
    },
    {
      "constant": true,
      "inputs": [],
      "name": "isPaused",
      "outputs": [
        {
          "name": "",
          "type": "bool"
        }
      ],
      "payable": false,
      "stateMutability": "view",
      "type": "function"
    },
    {
      "constant": false,
      "inputs": [
        {
          "name": "_addr",
          "type": "address"
        }
      ],
      "name": "setOperator",
      "outputs": [],
      "payable": false,
      "stateMutability": "nonpayable",
      "type": "function"
    },
    {
      "constant": false,
      "inputs": [
        {
          "name": "_pause",
          "type": "bool"
        }
      ],
      "name": "setPause",
      "outputs": [],
      "payable": false,
      "stateMutability": "nonpayable",
      "type": "function"
    },
    {
      "constant": true,
      "inputs": [],
      "name": "addrAdmin",
      "outputs": [
        {
          "name": "",
          "type": "address"
        }
      ],
      "payable": false,
      "stateMutability": "view",
      "type": "function"
    },
    {
      "constant": true,
      "inputs": [
        {
          "name": "",
          "type": "uint256"
        }
      ],
      "name": "dividendList",
      "outputs": [
        {
          "name": "start",
          "type": "uint32"
        },
        {
          "name": "end",
          "type": "uint32"
        }
      ],
      "payable": false,
      "stateMutability": "view",
      "type": "function"
    },
    {
      "inputs": [],
      "payable": false,
      "stateMutability": "nonpayable",
      "type": "constructor"
    },
    {
      "payable": true,
      "stateMutability": "payable",
      "type": "fallback"
    },
    {
      "anonymous": false,
      "inputs": [
        {
          "indexed": false,
          "name": "snapshotVersion",
          "type": "uint32"
        },
        {
          "indexed": false,
          "name": "totalStakingAmount",
          "type": "uint256"
        },
        {
          "indexed": false,
          "name": "devStakingAmount",
          "type": "uint256"
        },
        {
          "indexed": false,
          "name": "stakerCnt",
          "type": "uint32"
        }
      ],
      "name": "SnapshotStarted",
      "type": "event"
    },
    {
      "anonymous": false,
      "inputs": [
        {
          "indexed": false,
          "name": "snapshotVersion",
          "type": "uint32"
        },
        {
          "indexed": false,
          "name": "totalStakingAmount",
          "type": "uint256"
        },
        {
          "indexed": false,
          "name": "devStakingAmount",
          "type": "uint256"
        },
        {
          "indexed": false,
          "name": "stakingInfoLength",
          "type": "uint32"
        }
      ],
      "name": "SnapshotCompleted",
      "type": "event"
    },
    {
      "anonymous": false,
      "inputs": [
        {
          "indexed": true,
          "name": "round",
          "type": "uint256"
        },
        {
          "indexed": false,
          "name": "totalStakingAmount",
          "type": "uint256"
        },
        {
          "indexed": false,
          "name": "tokenAddrs",
          "type": "address[]"
        },
        {
          "indexed": false,
          "name": "tokenValues",
          "type": "uint256[]"
        },
        {
          "indexed": false,
          "name": "stakingInfoLength",
          "type": "uint32"
        },
        {
          "indexed": false,
          "name": "start",
          "type": "uint32"
        }
      ],
      "name": "BLinkStakingDividendCreate",
      "type": "event"
    },
    {
      "anonymous": false,
      "inputs": [
        {
          "indexed": true,
          "name": "round",
          "type": "uint256"
        },
        {
          "indexed": true,
          "name": "dividIndex",
          "type": "uint256"
        },
        {
          "indexed": true,
          "name": "staker",
          "type": "address"
        },
        {
          "indexed": false,
          "name": "stakingAmnt",
          "type": "uint256"
        }
      ],
      "name": "BLinkStakingDividendStep",
      "type": "event"
    },
    {
      "anonymous": false,
      "inputs": [
        {
          "indexed": true,
          "name": "round",
          "type": "uint256"
        },
        {
          "indexed": false,
          "name": "tokenAddrs",
          "type": "address[]"
        },
        {
          "indexed": false,
          "name": "tokenValues",
          "type": "uint256[]"
        },
        {
          "indexed": false,
          "name": "stakingInfoLength",
          "type": "uint32"
        },
        {
          "indexed": false,
          "name": "end",
          "type": "uint32"
        }
      ],
      "name": "BLinkStakingDividendComplete",
      "type": "event"
    },
    {
      "constant": false,
      "inputs": [
        {
          "name": "_snapshotValidDuration",
          "type": "uint64"
        }
      ],
      "name": "setSnapshotValidDuration",
      "outputs": [],
      "payable": false,
      "stateMutability": "nonpayable",
      "type": "function"
    },
    {
      "constant": false,
      "inputs": [
        {
          "name": "_stakerContractAddr",
          "type": "address"
        }
      ],
      "name": "setBLinkStakerContract",
      "outputs": [],
      "payable": false,
      "stateMutability": "nonpayable",
      "type": "function"
    },
    {
      "constant": false,
      "inputs": [],
      "name": "createStakeSnapshot",
      "outputs": [
        {
          "name": "",
          "type": "uint256"
        },
        {
          "name": "",
          "type": "uint256"
        }
      ],
      "payable": false,
      "stateMutability": "nonpayable",
      "type": "function"
    },
    {
      "constant": false,
      "inputs": [
        {
          "name": "loopCnt",
          "type": "uint256"
        }
      ],
      "name": "doNextSnapshot",
      "outputs": [
        {
          "name": "",
          "type": "bool"
        }
      ],
      "payable": false,
      "stateMutability": "nonpayable",
      "type": "function"
    },
    {
      "constant": false,
      "inputs": [
        {
          "name": "addrs",
          "type": "address[]"
        }
      ],
      "name": "createDividend",
      "outputs": [
        {
          "name": "",
          "type": "bool"
        }
      ],
      "payable": false,
      "stateMutability": "nonpayable",
      "type": "function"
    },
    {
      "constant": false,
      "inputs": [
        {
          "name": "index",
          "type": "uint256"
        },
        {
          "name": "addrs",
          "type": "address[]"
        }
      ],
      "name": "createDividend",
      "outputs": [
        {
          "name": "",
          "type": "bool"
        }
      ],
      "payable": false,
      "stateMutability": "nonpayable",
      "type": "function"
    },
    {
      "constant": false,
      "inputs": [
        {
          "name": "loopCnt",
          "type": "uint256"
        }
      ],
      "name": "doNextDividend",
      "outputs": [
        {
          "name": "",
          "type": "bool"
        }
      ],
      "payable": false,
      "stateMutability": "nonpayable",
      "type": "function"
    },
    {
      "constant": false,
      "inputs": [],
      "name": "forwardNextDividendIndex",
      "outputs": [
        {
          "name": "",
          "type": "uint256"
        }
      ],
      "payable": false,
      "stateMutability": "nonpayable",
      "type": "function"
    },
    {
      "constant": true,
      "inputs": [],
      "name": "getCurrentDivideInfo",
      "outputs": [
        {
          "name": "round",
          "type": "uint256"
        },
        {
          "name": "curStatus",
          "type": "uint256"
        },
        {
          "name": "nextStaker",
          "type": "uint256"
        },
        {
          "name": "nextStakingIndex",
          "type": "uint256"
        },
        {
          "name": "stakerCnt",
          "type": "uint256"
        },
        {
          "name": "curDividendIndex",
          "type": "uint256"
        },
        {
          "name": "start",
          "type": "uint256"
        },
        {
          "name": "lastCompleteTime",
          "type": "uint256"
        }
      ],
      "payable": false,
      "stateMutability": "view",
      "type": "function"
    }
  ],
  "bytecode": "0x608060405262015180600260146101000a81548167ffffffffffffffff021916908367ffffffffffffffff1602179055506000600a553480156200004257600080fd5b5060008060006101000a81548160ff02191690831515021790555033600060016101000a81548173ffffffffffffffffffffffffffffffffffffffff021916908373ffffffffffffffffffffffffffffffffffffffff16021790555033600260006101000a81548173ffffffffffffffffffffffffffffffffffffffff021916908373ffffffffffffffffffffffffffffffffffffffff160217905550600460806040519081016040528060006040519080825280602002602001820160405280156200011e5781602001602082028038833980820191505090505b5081526020016000604051908082528060200260200182016040528015620001555781602001602082028038833980820191505090505b508152602001600063ffffffff168152602001600063ffffffff16815250908060018154018082558091505090600182039060005260206000209060030201600090919290919091506000820151816000019080519060200190620001bc92919062000233565b506020820151816001019080519060200190620001db929190620002c2565b5060408201518160020160006101000a81548163ffffffff021916908363ffffffff16021790555060608201518160020160046101000a81548163ffffffff021916908363ffffffff16021790555050505062000382565b828054828255906000526020600020908101928215620002af579160200282015b82811115620002ae5782518260006101000a81548173ffffffffffffffffffffffffffffffffffffffff021916908373ffffffffffffffffffffffffffffffffffffffff1602179055509160200191906001019062000254565b5b509050620002be919062000314565b5090565b82805482825590600052602060002090810192821562000301579160200282015b8281111562000300578251825591602001919060010190620002e3565b5b5090506200031091906200035a565b5090565b6200035791905b808211156200035357600081816101000a81549073ffffffffffffffffffffffffffffffffffffffff0219169055506001016200031b565b5090565b90565b6200037f91905b808211156200037b57600081600090555060010162000361565b5090565b90565b613cf880620003926000396000f300608060405260043610610149576000357c0100000000000000000000000000000000000000000000000000000000900463ffffffff16806314b693e61461014b57806314d329d51461018a578063161fb371146101e15780631a7a404914610234578063200d2ed21461026f578063280e03d7146102a8578063334704331461030557806337e1a232146103795780633d683b2b146103d557806349986eed1461040c578063570ca735146104515780636d65db56146104a8578063704b6c02146104d357806382cb9df91461051657806385294b8b1461056d57806399ff59b1146105b25780639b8d306414610643578063b187bd2614610686578063b2002ef4146106b5578063b3ab15fb146106e7578063bedb86fb1461072a578063bfae2f0e14610759578063d1107238146107b0578063d4b9455814610810578063df03471914610853575b005b34801561015757600080fd5b5061016061087e565b604051808267ffffffffffffffff1667ffffffffffffffff16815260200191505060405180910390f35b34801561019657600080fd5b5061019f610898565b604051808273ffffffffffffffffffffffffffffffffffffffff1673ffffffffffffffffffffffffffffffffffffffff16815260200191505060405180910390f35b3480156101ed57600080fd5b5061021a6004803603810190808035906020019082018035906020019190919293919293905050506108be565b604051808215151515815260200191505060405180910390f35b34801561024057600080fd5b5061026d600480360381019080803590602001908201803590602001919091929391929390505050610a68565b005b34801561027b57600080fd5b50610284610cd1565b6040518082600681111561029457fe5b60ff16815260200191505060405180910390f35b3480156102b457600080fd5b506102eb60048036038101908080359060200190929190803590602001908201803590602001919091929391929390505050610ce4565b604051808215151515815260200191505060405180910390f35b34801561031157600080fd5b5061033060048036038101908080359060200190929190505050610dec565b604051808373ffffffffffffffffffffffffffffffffffffffff1673ffffffffffffffffffffffffffffffffffffffff1681526020018281526020019250505060405180910390f35b34801561038557600080fd5b5061038e610e3f565b604051808981526020018881526020018781526020018681526020018581526020018481526020018381526020018281526020019850505050505050505060405180910390f35b3480156103e157600080fd5b5061040a600480360381019080803567ffffffffffffffff169060200190929190505050610f20565b005b34801561041857600080fd5b5061043760048036038101908080359060200190929190505050611011565b604051808215151515815260200191505060405180910390f35b34801561045d57600080fd5b506104666116aa565b604051808273ffffffffffffffffffffffffffffffffffffffff1673ffffffffffffffffffffffffffffffffffffffff16815260200191505060405180910390f35b3480156104b457600080fd5b506104bd6116d0565b6040518082815260200191505060405180910390f35b3480156104df57600080fd5b50610514600480360381019080803573ffffffffffffffffffffffffffffffffffffffff1690602001909291905050506116d6565b005b34801561052257600080fd5b5061052b611884565b604051808273ffffffffffffffffffffffffffffffffffffffff1673ffffffffffffffffffffffffffffffffffffffff16815260200191505060405180910390f35b34801561057957600080fd5b50610598600480360381019080803590602001909291905050506118aa565b604051808215151515815260200191505060405180910390f35b3480156105be57600080fd5b506105c7611dde565b604051808881526020018781526020018663ffffffff1663ffffffff1681526020018563ffffffff1663ffffffff1681526020018463ffffffff1663ffffffff1681526020018363ffffffff1663ffffffff1681526020018263ffffffff1663ffffffff16815260200197505050505050505060405180910390f35b34801561064f57600080fd5b50610684600480360381019080803573ffffffffffffffffffffffffffffffffffffffff169060200190929190505050611e5e565b005b34801561069257600080fd5b5061069b61200c565b604051808215151515815260200191505060405180910390f35b3480156106c157600080fd5b506106ca61201e565b604051808381526020018281526020019250505060405180910390f35b3480156106f357600080fd5b50610728600480360381019080803573ffffffffffffffffffffffffffffffffffffffff1690602001909291905050506126a5565b005b34801561073657600080fd5b50610757600480360381019080803515159060200190929190505050612853565b005b34801561076557600080fd5b5061076e612934565b604051808273ffffffffffffffffffffffffffffffffffffffff1673ffffffffffffffffffffffffffffffffffffffff16815260200191505060405180910390f35b3480156107bc57600080fd5b506107db6004803603810190808035906020019092919050505061295a565b604051808363ffffffff1663ffffffff1681526020018263ffffffff1663ffffffff1681526020019250505060405180910390f35b34801561081c57600080fd5b50610851600480360381019080803573ffffffffffffffffffffffffffffffffffffffff1690602001909291905050506129ad565b005b34801561085f57600080fd5b50610868612b5b565b6040518082815260200191505060405180910390f35b600260149054906101000a900467ffffffffffffffff1681565b600360009054906101000a900473ffffffffffffffffffffffffffffffffffffffff1681565b6000600160009054906101000a900473ffffffffffffffffffffffffffffffffffffffff1673ffffffffffffffffffffffffffffffffffffffff163373ffffffffffffffffffffffffffffffffffffffff16141515610985576040517f08c379a00000000000000000000000000000000000000000000000000000000081526004018080602001828103825260068152602001807f6e6f74206f70000000000000000000000000000000000000000000000000000081525060200191505060405180910390fd5b6003600681111561099257fe5b6002601c9054906101000a900460ff1660068111156109ad57fe5b141515610a22576040517f08c379a000000000000000000000000000000000000000000000000000000000815260040180806020018281038252600c8152602001807f737461747573206572726f72000000000000000000000000000000000000000081525060200191505060405180910390fd5b610a60600480549050848480806020026020016040519081016040528093929190818152602001838360200280828437820191505050505050612cd8565b905092915050565b6060600060019054906101000a900473ffffffffffffffffffffffffffffffffffffffff1673ffffffffffffffffffffffffffffffffffffffff163373ffffffffffffffffffffffffffffffffffffffff16141515610b2f576040517f08c379a00000000000000000000000000000000000000000000000000000000081526004018080602001828103825260098152602001807f6e6f742061646d696e000000000000000000000000000000000000000000000081525060200191505060405180910390fd5b600073ffffffffffffffffffffffffffffffffffffffff16600260009054906101000a900473ffffffffffffffffffffffffffffffffffffffff1673ffffffffffffffffffffffffffffffffffffffff1614151515610bf6576040517f08c379a000000000000000000000000000000000000000000000000000000000815260040180806020018281038252600c8152602001807f66696e616e63652069732030000000000000000000000000000000000000000081525060200191505060405180910390fd5b610c4e8383808060200260200160405190810160405280939291908181526020018383602002808284378201915050505050503073ffffffffffffffffffffffffffffffffffffffff1661307090919063ffffffff16565b9050610ccc83838080602002602001604051908101604052809392919081815260200183836020028082843782019150505050505082600260009054906101000a900473ffffffffffffffffffffffffffffffffffffffff1673ffffffffffffffffffffffffffffffffffffffff166132209092919063ffffffff16565b505050565b6002601c9054906101000a900460ff1681565b60008060019054906101000a900473ffffffffffffffffffffffffffffffffffffffff1673ffffffffffffffffffffffffffffffffffffffff163373ffffffffffffffffffffffffffffffffffffffff16141515610daa576040517f08c379a00000000000000000000000000000000000000000000000000000000081526004018080602001828103825260098152602001807f6e6f742061646d696e000000000000000000000000000000000000000000000081525060200191505060405180910390fd5b610de384848480806020026020016040519081016040528093929190818152602001838360200280828437820191505050505050612cd8565b90509392505050565b600981815481101515610dfb57fe5b90600052602060002090600202016000915090508060000160009054906101000a900473ffffffffffffffffffffffffffffffffffffffff16908060010154905082565b600080600080600080600080600060016004805490500398506002601c9054906101000a900460ff166006811115610e7357fe5b9750600489815481101515610e8457fe5b9060005260206000209060030201905060055493508060020160009054906101000a900463ffffffff1663ffffffff169250600a549150600660020160049054906101000a900463ffffffff1663ffffffff169650600660020160089054906101000a900463ffffffff1663ffffffff169550600660020160009054906101000a900463ffffffff1663ffffffff169450509091929394959697565b600060019054906101000a900473ffffffffffffffffffffffffffffffffffffffff1673ffffffffffffffffffffffffffffffffffffffff163373ffffffffffffffffffffffffffffffffffffffff16141515610fe5576040517f08c379a00000000000000000000000000000000000000000000000000000000081526004018080602001828103825260098152602001807f6e6f742061646d696e000000000000000000000000000000000000000000000081525060200191505060405180910390fd5b80600260146101000a81548167ffffffffffffffff021916908367ffffffffffffffff16021790555050565b6000806000806000806000600160009054906101000a900473ffffffffffffffffffffffffffffffffffffffff1673ffffffffffffffffffffffffffffffffffffffff163373ffffffffffffffffffffffffffffffffffffffff161415156110e1576040517f08c379a00000000000000000000000000000000000000000000000000000000081526004018080602001828103825260068152602001807f6e6f74206f70000000000000000000000000000000000000000000000000000081525060200191505060405180910390fd5b6002601c9054906101000a900460ff1695506001600681111561110057fe5b86600681111561110c57fe5b148061112e57506002600681111561112057fe5b86600681111561112c57fe5b145b15156111a2576040517f08c379a000000000000000000000000000000000000000000000000000000000815260040180806020018281038252600c8152602001807f737461747573206572726f72000000000000000000000000000000000000000081525060200191505060405180910390fd5b60008811151561121a576040517f08c379a00000000000000000000000000000000000000000000000000000000081526004018080602001828103825260098152602001807f6c6f6f70436e742030000000000000000000000000000000000000000000000081525060200191505060405180910390fd5b6002600681111561122757fe5b86600681111561123357fe5b14151561125e57600280601c6101000a81548160ff0219169083600681111561125857fe5b02179055505b600660020160009054906101000a900463ffffffff169450600660020160049054906101000a900463ffffffff16935060008463ffffffff1614156112fc576112f76040805190810160405280600260009054906101000a900473ffffffffffffffffffffffffffffffffffffffff1673ffffffffffffffffffffffffffffffffffffffff16815260200160066001015481525061332f565b600193505b600092505b87831015611676578463ffffffff168463ffffffff161015156114dc5783600660020160046101000a81548163ffffffff021916908363ffffffff16021790555060036002601c6101000a81548160ff0219169083600681111561136157fe5b0217905550600360009054906101000a900473ffffffffffffffffffffffffffffffffffffffff1673ffffffffffffffffffffffffffffffffffffffff1663941e8e4d60006040518263ffffffff167c01000000000000000000000000000000000000000000000000000000000281526004018082151515158152602001915050600060405180830381600087803b1580156113fc57600080fd5b505af1158015611410573d6000803e3d6000fd5b5050505042600660020160106101000a81548163ffffffff021916908363ffffffff1602179055507f0f0fdff55d94d15090da2ed8782af15b34b9c9ef499f5ada2def871e69cc09b56006600201600c9054906101000a900463ffffffff16600660000154600660010154600660020160089054906101000a900463ffffffff16604051808563ffffffff1663ffffffff1681526020018481526020018381526020018263ffffffff1663ffffffff16815260200194505050505060405180910390a16001965061169f565b600360009054906101000a900473ffffffffffffffffffffffffffffffffffffffff1673ffffffffffffffffffffffffffffffffffffffff166321ec49a2856040518263ffffffff167c0100000000000000000000000000000000000000000000000000000000028152600401808263ffffffff1681526020019150506040805180830381600087803b15801561157257600080fd5b505af1158015611586573d6000803e3d6000fd5b505050506040513d604081101561159c57600080fd5b810190808051906020019092919080519060200190929190505050915091506000811180156115f85750600073ffffffffffffffffffffffffffffffffffffffff168273ffffffffffffffffffffffffffffffffffffffff1614155b8015611620575061161e8273ffffffffffffffffffffffffffffffffffffffff16613495565b155b156116635761166260408051908101604052808473ffffffffffffffffffffffffffffffffffffffff1681526020018367ffffffffffffffff1681525061332f565b5b6001840193508280600101935050611301565b83600660020160046101000a81548163ffffffff021916908363ffffffff160217905550600096505b505050505050919050565b600160009054906101000a900473ffffffffffffffffffffffffffffffffffffffff1681565b60055481565b600060019054906101000a900473ffffffffffffffffffffffffffffffffffffffff1673ffffffffffffffffffffffffffffffffffffffff163373ffffffffffffffffffffffffffffffffffffffff1614151561179b576040517f08c379a00000000000000000000000000000000000000000000000000000000081526004018080602001828103825260098152602001807f6e6f742061646d696e000000000000000000000000000000000000000000000081525060200191505060405180910390fd5b600073ffffffffffffffffffffffffffffffffffffffff168173ffffffffffffffffffffffffffffffffffffffff1614151515611840576040517f08c379a000000000000000000000000000000000000000000000000000000000815260040180806020018281038252601c8152602001807f5f6e657741646d696e2063616e2774206265206164647265737320300000000081525060200191505060405180910390fd5b80600060016101000a81548173ffffffffffffffffffffffffffffffffffffffff021916908373ffffffffffffffffffffffffffffffffffffffff16021790555050565b600260009054906101000a900473ffffffffffffffffffffffffffffffffffffffff1681565b6000806000806000806000806000806000806000600160009054906101000a900473ffffffffffffffffffffffffffffffffffffffff1673ffffffffffffffffffffffffffffffffffffffff163373ffffffffffffffffffffffffffffffffffffffff16141515611983576040517f08c379a00000000000000000000000000000000000000000000000000000000081526004018080602001828103825260068152602001807f6e6f74206f70000000000000000000000000000000000000000000000000000081525060200191505060405180910390fd5b6002601c9054906101000a900460ff169b50600460068111156119a257fe5b8c60068111156119ae57fe5b14806119d05750600560068111156119c257fe5b8c60068111156119ce57fe5b145b1515611a44576040517f08c379a000000000000000000000000000000000000000000000000000000000815260040180806020018281038252600c8152602001807f737461747573206572726f72000000000000000000000000000000000000000081525060200191505060405180910390fd5b60008e111515611abc576040517f08c379a00000000000000000000000000000000000000000000000000000000081526004018080602001828103825260098152602001807f6c6f6f70436e742030000000000000000000000000000000000000000000000081525060200191505060405180910390fd5b60056006811115611ac957fe5b8c6006811115611ad557fe5b141515611b015760056002601c6101000a81548160ff02191690836006811115611afb57fe5b02179055505b6001600480549050039a5060048b815481101515611b1b57fe5b90600052602060002090600302019950600660020160089054906101000a900463ffffffff16985060066000015497506005549650896000019550896001019450600093505b8d841015611dc1578863ffffffff1687101515611d045786600581905550428a60020160046101000a81548163ffffffff021916908363ffffffff16021790555042600a8190555060066002601c6101000a81548160ff02191690836006811115611bc857fe5b02179055508a7f1ff59d307d4e1a503ba0c62b1c13f57e7b771c1794c1b64c23dd8df4a7931d4487878c8e60020160049054906101000a900463ffffffff166040518080602001806020018563ffffffff1663ffffffff1681526020018463ffffffff1663ffffffff1681526020018381038352878181548152602001915080548015611caa57602002820191906000526020600020905b8160009054906101000a900473ffffffffffffffffffffffffffffffffffffffff1673ffffffffffffffffffffffffffffffffffffffff1681526020019060010190808311611c60575b50508381038252868181548152602001915080548015611ce957602002820191906000526020600020905b815481526020019060010190808311611cd5575b5050965050505050505060405180910390a260019c50611dcd565b600987815481101515611d1357fe5b906000526020600020906002020192508260000160009054906101000a900473ffffffffffffffffffffffffffffffffffffffff169150826001015490508173ffffffffffffffffffffffffffffffffffffffff16878c7face6700b15a6039421a4c680c94c643a8ec86f0bd7f70c19bdb2a12b171a973b846040518082815260200191505060405180910390a4611dae82828a89896134ae565b6001870196508380600101945050611b61565b8660058190555060009c505b505050505050505050505050919050565b60068060000154908060010154908060020160009054906101000a900463ffffffff16908060020160049054906101000a900463ffffffff16908060020160089054906101000a900463ffffffff169080600201600c9054906101000a900463ffffffff16908060020160109054906101000a900463ffffffff16905087565b600260009054906101000a900473ffffffffffffffffffffffffffffffffffffffff1673ffffffffffffffffffffffffffffffffffffffff163373ffffffffffffffffffffffffffffffffffffffff16141515611f23576040517f08c379a000000000000000000000000000000000000000000000000000000000815260040180806020018281038252600b8152602001807f6e6f742066696e616e636500000000000000000000000000000000000000000081525060200191505060405180910390fd5b600073ffffffffffffffffffffffffffffffffffffffff168173ffffffffffffffffffffffffffffffffffffffff1614151515611fc8576040517f08c379a000000000000000000000000000000000000000000000000000000000815260040180806020018281038252600a8152602001807f5f6164647220697320300000000000000000000000000000000000000000000081525060200191505060405180910390fd5b80600260006101000a81548173ffffffffffffffffffffffffffffffffffffffff021916908373ffffffffffffffffffffffffffffffffffffffff16021790555050565b6000809054906101000a900460ff1681565b600080600080600160009054906101000a900473ffffffffffffffffffffffffffffffffffffffff1673ffffffffffffffffffffffffffffffffffffffff163373ffffffffffffffffffffffffffffffffffffffff161415156120e9576040517f08c379a00000000000000000000000000000000000000000000000000000000081526004018080602001828103825260068152602001807f6e6f74206f70000000000000000000000000000000000000000000000000000081525060200191505060405180910390fd5b600060068111156120f657fe5b6002601c9054906101000a900460ff16600681111561211157fe5b148061214257506003600681111561212557fe5b6002601c9054906101000a900460ff16600681111561214057fe5b145b80612171575060068081111561215457fe5b6002601c9054906101000a900460ff16600681111561216f57fe5b145b15156121e5576040517f08c379a000000000000000000000000000000000000000000000000000000000815260040180806020018281038252600c8152602001807f737461747573206572726f72000000000000000000000000000000000000000081525060200191505060405180910390fd5b600360009054906101000a900473ffffffffffffffffffffffffffffffffffffffff1673ffffffffffffffffffffffffffffffffffffffff166353b6089e6040518163ffffffff167c01000000000000000000000000000000000000000000000000000000000281526004016040805180830381600087803b15801561226a57600080fd5b505af115801561227e573d6000803e3d6000fd5b505050506040513d604081101561229457600080fd5b8101908080519060200190929190805190602001909291905050509150915060008211151561232b576040517f08c379a000000000000000000000000000000000000000000000000000000000815260040180806020018281038252600e8152602001807f646576416d6f756e74206973203000000000000000000000000000000000000081525060200191505060405180910390fd5b6000811115156123a3576040517f08c379a00000000000000000000000000000000000000000000000000000000081526004018080602001828103825260108152602001807f746f74616c416d6f756e7420697320300000000000000000000000000000000081525060200191505060405180910390fd5b80600660000181905550816006600101819055506001600360009054906101000a900473ffffffffffffffffffffffffffffffffffffffff1673ffffffffffffffffffffffffffffffffffffffff1663438f32e46040518163ffffffff167c0100000000000000000000000000000000000000000000000000000000028152600401602060405180830381600087803b15801561243f57600080fd5b505af1158015612453573d6000803e3d6000fd5b505050506040513d602081101561246957600080fd5b810190808051906020019092919050505001600660020160006101000a81548163ffffffff021916908363ffffffff1602179055506000600660020160046101000a81548163ffffffff021916908363ffffffff1602179055506000600660020160086101000a81548163ffffffff021916908363ffffffff16021790555060016006600201600c8282829054906101000a900463ffffffff160192506101000a81548163ffffffff021916908363ffffffff160217905550600360009054906101000a900473ffffffffffffffffffffffffffffffffffffffff1673ffffffffffffffffffffffffffffffffffffffff1663941e8e4d60016040518263ffffffff167c01000000000000000000000000000000000000000000000000000000000281526004018082151515158152602001915050600060405180830381600087803b1580156125b857600080fd5b505af11580156125cc573d6000803e3d6000fd5b505050507fcd338465e518d36877dba1464caa40485d4b66f4d26a39d31b696b9d2a59ad9e6006600201600c9054906101000a900463ffffffff168284600660020160009054906101000a900463ffffffff16604051808563ffffffff1663ffffffff1681526020018467ffffffffffffffff1681526020018367ffffffffffffffff1681526020018263ffffffff1663ffffffff16815260200194505050505060405180910390a160016002601c6101000a81548160ff0219169083600681111561269457fe5b021790555081819350935050509091565b600060019054906101000a900473ffffffffffffffffffffffffffffffffffffffff1673ffffffffffffffffffffffffffffffffffffffff163373ffffffffffffffffffffffffffffffffffffffff1614151561276a576040517f08c379a00000000000000000000000000000000000000000000000000000000081526004018080602001828103825260098152602001807f6e6f742061646d696e000000000000000000000000000000000000000000000081525060200191505060405180910390fd5b600073ffffffffffffffffffffffffffffffffffffffff168173ffffffffffffffffffffffffffffffffffffffff161415151561280f576040517f08c379a00000000000000000000000000000000000000000000000000000000081526004018080602001828103825260188152602001807f5f616464722063616e277420626520616464726573732030000000000000000081525060200191505060405180910390fd5b80600160006101000a81548173ffffffffffffffffffffffffffffffffffffffff021916908373ffffffffffffffffffffffffffffffffffffffff16021790555050565b600060019054906101000a900473ffffffffffffffffffffffffffffffffffffffff1673ffffffffffffffffffffffffffffffffffffffff163373ffffffffffffffffffffffffffffffffffffffff16141515612918576040517f08c379a00000000000000000000000000000000000000000000000000000000081526004018080602001828103825260098152602001807f6e6f742061646d696e000000000000000000000000000000000000000000000081525060200191505060405180910390fd5b806000806101000a81548160ff02191690831515021790555050565b600060019054906101000a900473ffffffffffffffffffffffffffffffffffffffff1681565b60048181548110151561296957fe5b90600052602060002090600302016000915090508060020160009054906101000a900463ffffffff16908060020160049054906101000a900463ffffffff16905082565b600060019054906101000a900473ffffffffffffffffffffffffffffffffffffffff1673ffffffffffffffffffffffffffffffffffffffff163373ffffffffffffffffffffffffffffffffffffffff16141515612a72576040517f08c379a00000000000000000000000000000000000000000000000000000000081526004018080602001828103825260098152602001807f6e6f742061646d696e000000000000000000000000000000000000000000000081525060200191505060405180910390fd5b600073ffffffffffffffffffffffffffffffffffffffff168173ffffffffffffffffffffffffffffffffffffffff1614151515612b17576040517f08c379a00000000000000000000000000000000000000000000000000000000081526004018080602001828103825260188152602001807f5f7374616b6572436f6e7472616374416464722069732030000000000000000081525060200191505060405180910390fd5b80600360006101000a81548173ffffffffffffffffffffffffffffffffffffffff021916908373ffffffffffffffffffffffffffffffffffffffff16021790555050565b6000600160009054906101000a900473ffffffffffffffffffffffffffffffffffffffff1673ffffffffffffffffffffffffffffffffffffffff163373ffffffffffffffffffffffffffffffffffffffff16141515612c22576040517f08c379a00000000000000000000000000000000000000000000000000000000081526004018080602001828103825260068152602001807f6e6f74206f70000000000000000000000000000000000000000000000000000081525060200191505060405180910390fd5b6002601c9054906101000a900460ff166006811115612c3d57fe5b60056006811115612c4a57fe5b141515612cbf576040517f08c379a000000000000000000000000000000000000000000000000000000000815260040180806020018281038252600c8152602001807f737461747573206572726f72000000000000000000000000000000000000000081525060200191505060405180910390fd5b6001600560008282540192505081905550600554905090565b6000806060429150600260149054906101000a900467ffffffffffffffff1667ffffffffffffffff16600660020160109054906101000a900463ffffffff16830363ffffffff161115612d2e5760009250613068565b612d57843073ffffffffffffffffffffffffffffffffffffffff1661307090919063ffffffff16565b905060048054905085101515612e535760046080604051908101604052808681526020018381526020018463ffffffff168152602001600063ffffffff16815250908060018154018082558091505090600182039060005260206000209060030201600090919290919091506000820151816000019080519060200190612ddf929190613b8d565b506020820151816001019080519060200190612dfc929190613c17565b5060408201518160020160006101000a81548163ffffffff021916908363ffffffff16021790555060608201518160020160046101000a81548163ffffffff021916908363ffffffff160217905550505050612f2b565b6080604051908101604052808581526020018281526020018363ffffffff168152602001600063ffffffff16815250600486815481101515612e9157fe5b90600052602060002090600302016000820151816000019080519060200190612ebb929190613b8d565b506020820151816001019080519060200190612ed8929190613c17565b5060408201518160020160006101000a81548163ffffffff021916908363ffffffff16021790555060608201518160020160046101000a81548163ffffffff021916908363ffffffff1602179055509050505b6000600581905550847f50a0ea87b424c695a0b455a4c705f3108abc13e3471c5568b10cd9f6e12c43f06006600001548684600660020160089054906101000a900463ffffffff16876040518086815260200180602001806020018563ffffffff1663ffffffff1681526020018463ffffffff1663ffffffff168152602001838103835287818151815260200191508051906020019060200280838360005b83811015612fe5578082015181840152602081019050612fca565b50505050905001838103825286818151815260200191508051906020019060200280838360005b8381101561302757808201518184015260208101905061300c565b5050505090500197505050505050505060405180910390a260046002601c6101000a81548160ff0219169083600681111561305e57fe5b0217905550600192505b505092915050565b6060600080606060008060008873ffffffffffffffffffffffffffffffffffffffff1631955087519450846040519080825280602002602001820160405280156130c95781602001602082028038833980820191505090505b509350858460008151811015156130dc57fe5b9060200190602002018181525050600192505b8483101561321157878381518110151561310557fe5b9060200190602002015191508173ffffffffffffffffffffffffffffffffffffffff166370a082318a6040518263ffffffff167c0100000000000000000000000000000000000000000000000000000000028152600401808273ffffffffffffffffffffffffffffffffffffffff1673ffffffffffffffffffffffffffffffffffffffff168152602001915050602060405180830381600087803b1580156131ac57600080fd5b505af11580156131c0573d6000803e3d6000fd5b505050506040513d60208110156131d657600080fd5b810190808051906020019092919050505090508084848151811015156131f857fe5b90602001906020020181815250506001830192506130ef565b83965050505050505092915050565b600080600080600073ffffffffffffffffffffffffffffffffffffffff168773ffffffffffffffffffffffffffffffffffffffff16141515156132cb576040517f08c379a000000000000000000000000000000000000000000000000000000000815260040180806020018281038252600a8152602001807f5f6164647220697320300000000000000000000000000000000000000000000081525060200191505060405180910390fd5b84519350600090505b838110156133265784818151811015156132ea57fe5b906020019060200201519250858181518110151561330457fe5b90602001906020020151915061331b8783856136bc565b6001810190506132d4565b50505050505050565b6000600660020160089054906101000a900463ffffffff1663ffffffff169050600980549050811015156133e4576009829080600181540180825580915050906001820390600052602060002090600202016000909192909190915060008201518160000160006101000a81548173ffffffffffffffffffffffffffffffffffffffff021916908373ffffffffffffffffffffffffffffffffffffffff16021790555060208201518160010155505050613457565b816009828154811015156133f457fe5b906000526020600020906002020160008201518160000160006101000a81548173ffffffffffffffffffffffffffffffffffffffff021916908373ffffffffffffffffffffffffffffffffffffffff160217905550602082015181600101559050505b6001600660020160088282829054906101000a900463ffffffff160192506101000a81548163ffffffff021916908363ffffffff1602179055505050565b600080823b905060008163ffffffff1611915050919050565b6000606060008073ffffffffffffffffffffffffffffffffffffffff168873ffffffffffffffffffffffffffffffffffffffff1614151515613558576040517f08c379a000000000000000000000000000000000000000000000000000000000815260040180806020018281038252600b8152602001807f7374616b6572206973203000000000000000000000000000000000000000000081525060200191505060405180910390fd5b848054905092508260405190808252806020026020018201604052801561358e5781602001602082028038833980820191505090505b509150600090505b82811015613602576135db866135cd8987858154811015156135b457fe5b906000526020600020015461371190919063ffffffff16565b6137de90919063ffffffff16565b82828151811015156135e957fe5b9060200190602002018181525050600181019050613596565b6136b28580548060200260200160405190810160405280929190818152602001828054801561368657602002820191906000526020600020905b8160009054906101000a900473ffffffffffffffffffffffffffffffffffffffff1673ffffffffffffffffffffffffffffffffffffffff168152602001906001019080831161363c575b5050505050838a73ffffffffffffffffffffffffffffffffffffffff166132209092919063ffffffff16565b5050505050505050565b600073ffffffffffffffffffffffffffffffffffffffff168273ffffffffffffffffffffffffffffffffffffffff161415613700576136fb8382613828565b61370c565b61370b8383836138cb565b5b505050565b600080600084141561372657600091506137d7565b828402905082848281151561373757fe5b041415156137d3576040517f08c379a00000000000000000000000000000000000000000000000000000000081526004018080602001828103825260218152602001807f536166654d6174683a206d756c7469706c69636174696f6e206f766572666c6f81526020017f770000000000000000000000000000000000000000000000000000000000000081525060400191505060405180910390fd5b8091505b5092915050565b600061382083836040805190810160405280601a81526020017f536166654d6174683a206469766973696f6e206279207a65726f000000000000815250613ac3565b905092915050565b60008111156138c7578173ffffffffffffffffffffffffffffffffffffffff166108fc829081150290604051600060405180830381858888f19350505050158015613877573d6000803e3d6000fd5b508173ffffffffffffffffffffffffffffffffffffffff167f066ebf901587aec1338abcd7716912d4ab714a550c993de14a7a8c8b6a735aba826040518082815260200191505060405180910390a25b5050565b600073ffffffffffffffffffffffffffffffffffffffff168273ffffffffffffffffffffffffffffffffffffffff1614151515613970576040517f08c379a00000000000000000000000000000000000000000000000000000000081526004018080602001828103825260098152602001807f616464722069732030000000000000000000000000000000000000000000000081525060200191505060405180910390fd5b6000811115613abe578173ffffffffffffffffffffffffffffffffffffffff1663a9059cbb84836040518363ffffffff167c0100000000000000000000000000000000000000000000000000000000028152600401808373ffffffffffffffffffffffffffffffffffffffff1673ffffffffffffffffffffffffffffffffffffffff16815260200182815260200192505050602060405180830381600087803b158015613a1c57600080fd5b505af1158015613a30573d6000803e3d6000fd5b505050506040513d6020811015613a4657600080fd5b8101908080519060200190929190505050508173ffffffffffffffffffffffffffffffffffffffff168373ffffffffffffffffffffffffffffffffffffffff167f52a1ece0f3428b1c7032ada833db5214b033972154dcfa1f22bf4e6fb29927a3836040518082815260200191505060405180910390a35b505050565b6000806000841183901515613b73576040517f08c379a00000000000000000000000000000000000000000000000000000000081526004018080602001828103825283818151815260200191508051906020019080838360005b83811015613b38578082015181840152602081019050613b1d565b50505050905090810190601f168015613b655780820380516001836020036101000a031916815260200191505b509250505060405180910390fd5b508385811515613b7f57fe5b049050809150509392505050565b828054828255906000526020600020908101928215613c06579160200282015b82811115613c055782518260006101000a81548173ffffffffffffffffffffffffffffffffffffffff021916908373ffffffffffffffffffffffffffffffffffffffff16021790555091602001919060010190613bad565b5b509050613c139190613c64565b5090565b828054828255906000526020600020908101928215613c53579160200282015b82811115613c52578251825591602001919060010190613c37565b5b509050613c609190613ca7565b5090565b613ca491905b80821115613ca057600081816101000a81549073ffffffffffffffffffffffffffffffffffffffff021916905550600101613c6a565b5090565b90565b613cc991905b80821115613cc5576000816000905550600101613cad565b5090565b905600a165627a7a72305820ee82f94a19032236b1093fa0b5b2adecb7af2ed22be659799fd3c9b2faf106380029",
  "source": "pragma solidity ^0.4.23;\n\nimport \"./BaseAdmin.sol\";\nimport \"./SafeMath.sol\";\nimport \"./AddressUtil.sol\";\n\ninterface IBLinkStakerContract {\n    function setStakePause(bool _pause) external;\n    function getTotalStakeBLink() external view returns(uint256 devAmount, uint256 totalAmount);\n    function getMaxHolderIndex() external view returns(uint256);\n    function getBLinkAmountByIndex(uint256 _index) external view returns(address owner, uint256 blinkAmount);\n}\n\ncontract BLinkDividend is FinanceAdmin {\n    using SafeMath for uint256;\n    using SafeMath64 for uint64;\n    using AddressUtil for address;\n\n    event SnapshotStarted(uint32 snapshotVersion, uint256 totalStakingAmount, uint256 devStakingAmount, uint32 stakerCnt);\n    event SnapshotCompleted(uint32 snapshotVersion, uint256 totalStakingAmount, uint256 devStakingAmount, uint32 stakingInfoLength);\n    event BLinkStakingDividendCreate(uint256 indexed round,uint256 totalStakingAmount, address[] tokenAddrs, uint256[] tokenValues, uint32 stakingInfoLength, uint32 start);\n    event BLinkStakingDividendStep(uint256 indexed round, uint256 indexed dividIndex, address indexed staker, uint256 stakingAmnt);\n    event BLinkStakingDividendComplete(uint256 indexed round, address[] tokenAddrs, uint256[] tokenValues, uint32 stakingInfoLength, uint32 end);\n\n    struct Dividend {\n        address[] tokenAddrs;\n        uint256[] tokenValues;\n        uint32 start;\n        uint32 end;\n    }\n\n    struct StakeSnapshot {\n        uint256 totalStakingAmount;\n        uint256 devStakingAmount;\n        uint32 stakerCnt;\n        uint32 nextStaker;\n        uint32 nextStakingIndex;\n        uint32 snapshotVersion;\n        uint32 completeTime;\n    }\n\n    struct StakingInfo {\n        address staker;\n        uint256 stakingAmt;\n    }\n\n    uint64 public snapshotValidDuration = 24*60*60;\n\n    enum Status {\n        INIT,//0\n        INIT_SNAPSHOT,//1\n        DOING_SNAPSHOT,//2\n        COMPLETE_SNAPSHOT,//3\n        INIT_DIVIDEND,//4\n        DOING_DIVIDEND,//5\n        COMPLETE_DIVIDEND//6\n    }\n\n    Status public status;\n\n    IBLinkStakerContract public blinkStakerIns;\n\n    Dividend[] public dividendList;\n\n    uint256 public nextDividendIndex;\n\n    StakeSnapshot public stakeSnapshot;\n\n    StakingInfo[] public stakerInfos;\n\n    uint256 lastDivideCompleteTime=0;\n\n    constructor() public {\n        dividendList.push(Dividend(new address[](0), new uint256[](0), 0, 0));\n    }\n\n    function() external payable {}\n\n    function setSnapshotValidDuration(uint64 _snapshotValidDuration) external onlyAdmin {\n        snapshotValidDuration = _snapshotValidDuration;\n    }\n\n    function setBLinkStakerContract(address _stakerContractAddr) external onlyAdmin {\n        require(_stakerContractAddr != address(0), \"_stakerContractAddr is 0\");\n        blinkStakerIns = IBLinkStakerContract(_stakerContractAddr);\n    }\n\n    function updateStakingInfo(StakingInfo staking) internal {\n        uint256 index = stakeSnapshot.nextStakingIndex;\n        if (index >= stakerInfos.length) {\n            stakerInfos.push(staking);\n        } else {\n            stakerInfos[index] = staking;\n        }\n        stakeSnapshot.nextStakingIndex += 1;\n    }\n\n    function createStakeSnapshot() external onlyOperator returns (uint256, uint256) {\n        require(status == Status.INIT ||\n        status == Status.COMPLETE_SNAPSHOT ||\n        status == Status.COMPLETE_DIVIDEND, \"status error\");\n        (uint256 devAmount, uint256 totalAmount) = blinkStakerIns.getTotalStakeBLink();\n        require(devAmount > 0, \"devAmount is 0\");\n        require(totalAmount > 0, \"totalAmount is 0\");\n\n        stakeSnapshot.totalStakingAmount = totalAmount;\n        stakeSnapshot.devStakingAmount = devAmount;\n\n        stakeSnapshot.stakerCnt = uint32(blinkStakerIns.getMaxHolderIndex() + 1);\n        stakeSnapshot.nextStaker = 0;\n        stakeSnapshot.nextStakingIndex = 0;\n        stakeSnapshot.snapshotVersion += 1;\n\n        blinkStakerIns.setStakePause(true);\n\n        emit SnapshotStarted(stakeSnapshot.snapshotVersion, uint64(totalAmount), uint64(devAmount), stakeSnapshot.stakerCnt);\n        status = Status.INIT_SNAPSHOT;\n        return (devAmount, totalAmount);\n    }\n\n    function doNextSnapshot(uint256 loopCnt) external onlyOperator returns (bool) {\n        Status ss = status;\n        require(ss == Status.INIT_SNAPSHOT || ss == Status.DOING_SNAPSHOT, \"status error\");\n        require(loopCnt > 0, \"loopCnt 0\");\n\n        if (ss != Status.DOING_SNAPSHOT) {\n            status = Status.DOING_SNAPSHOT;\n        }\n        uint32 stakerCnt = stakeSnapshot.stakerCnt;\n\n        uint32 nextStaker = stakeSnapshot.nextStaker;\n\n        if (nextStaker == 0) {\n            updateStakingInfo(StakingInfo(addrFinance, stakeSnapshot.devStakingAmount));\n            nextStaker = 1;\n        }\n\n        for (uint256 i = 0; i < loopCnt; i++) {\n            if (nextStaker >= stakerCnt) {\n                stakeSnapshot.nextStaker = nextStaker;\n                status = Status.COMPLETE_SNAPSHOT;\n                blinkStakerIns.setStakePause(false);\n                stakeSnapshot.completeTime = uint32(block.timestamp);\n                emit SnapshotCompleted(stakeSnapshot.snapshotVersion, stakeSnapshot.totalStakingAmount, stakeSnapshot.devStakingAmount, stakeSnapshot.nextStakingIndex);\n                return true;\n            }\n            (address staker, uint256 stakingAmount) = blinkStakerIns.getBLinkAmountByIndex(nextStaker);\n            if (stakingAmount > 0 && staker!= address(0) && !staker.isContract()) {\n                updateStakingInfo(StakingInfo(staker, uint64(stakingAmount)));\n            }\n            nextStaker += 1;\n        }\n\n        stakeSnapshot.nextStaker = nextStaker;\n        return false;\n    }\n\n    function createDividend(address[] addrs) external onlyOperator returns (bool) {\n        require(status == Status.COMPLETE_SNAPSHOT, \"status error\");\n        return _createDividend(dividendList.length, addrs);\n    }\n\n    function createDividend(uint256 index, address[] addrs) external onlyAdmin returns (bool) {\n        return _createDividend(index,  addrs);\n    }\n\n    function _createDividend(uint256 index, address[] addrs) internal returns (bool) {\n        uint32 t = uint32(block.timestamp);\n        if (t - stakeSnapshot.completeTime > snapshotValidDuration) {\n            return false;\n        }\n        uint256[] memory tokenValues= address(this).getAllBalance(addrs);\n        if (index >= dividendList.length) {\n            dividendList.push(Dividend(addrs, tokenValues, t, 0));\n        } else {\n            dividendList[index] = Dividend(addrs, tokenValues, t, 0);\n        }\n        nextDividendIndex = 0;\n        emit BLinkStakingDividendCreate(index,stakeSnapshot.totalStakingAmount, addrs, tokenValues, stakeSnapshot.nextStakingIndex, t);\n        status = Status.INIT_DIVIDEND;\n        return true;\n    }\n\n    function doNextDividend(uint256 loopCnt) external onlyOperator returns (bool) {\n        Status ss = status;\n        require(ss == Status.INIT_DIVIDEND || ss == Status.DOING_DIVIDEND, \"status error\");\n        require(loopCnt > 0, \"loopCnt 0\");\n        if (ss != Status.DOING_DIVIDEND) {\n            status = Status.DOING_DIVIDEND;\n        }\n\n        uint256 roundIndex = dividendList.length - 1;\n        Dividend storage dividend = dividendList[roundIndex];\n\n        uint32 stakingIndex = stakeSnapshot.nextStakingIndex;\n        uint256 totalStakingAmount = stakeSnapshot.totalStakingAmount;\n        uint256 divideIndex = nextDividendIndex;\n\n        address[] storage tokenAddrs = dividend.tokenAddrs;\n        uint256[] storage tokenValues= dividend.tokenValues;\n\n        for (uint256 i = 0; i < loopCnt; i++) {\n            if (divideIndex >= stakingIndex) {\n                nextDividendIndex = divideIndex;\n                dividend.end = uint32(block.timestamp);\n                lastDivideCompleteTime=block.timestamp;\n                status = Status.COMPLETE_DIVIDEND;\n                emit BLinkStakingDividendComplete(roundIndex, tokenAddrs, tokenValues, stakingIndex, dividend.end);\n                return true;\n            }\n            StakingInfo storage staking = stakerInfos[divideIndex];\n            address staker = staking.staker;\n            uint256 stakingAmt = staking.stakingAmt;\n            emit BLinkStakingDividendStep(roundIndex, divideIndex, staker, stakingAmt);\n            _transferToStacker(staker, stakingAmt, totalStakingAmount, tokenAddrs, tokenValues);\n            divideIndex += 1;\n        }\n        nextDividendIndex = divideIndex;\n        return false;\n    }\n\n    function forwardNextDividendIndex() external onlyOperator returns(uint256) {\n        require(Status.DOING_DIVIDEND == status, \"status error\");\n        nextDividendIndex += 1;\n        return nextDividendIndex;\n    }\n\n    function getCurrentDivideInfo()\n    external\n    view\n    returns(\n        uint256 round,\n        uint256 curStatus,\n        uint256 nextStaker,\n        uint256 nextStakingIndex,\n        uint256 stakerCnt,\n        uint256 curDividendIndex,\n        uint256 start,\n        uint256 lastCompleteTime\n    )\n    {\n        round = uint256(dividendList.length - 1);\n        curStatus = uint256(status);\n\n        Dividend storage curDivide = dividendList[round];\n        curDividendIndex = nextDividendIndex;\n        start = curDivide.start;\n        lastCompleteTime = lastDivideCompleteTime;\n\n        nextStaker = stakeSnapshot.nextStaker;\n        nextStakingIndex = stakeSnapshot.nextStakingIndex;\n        stakerCnt = stakeSnapshot.stakerCnt;\n    }\n\n    function _transferToStacker(address staker, uint256 stakingAmt, uint256 totalStakingAmount, address[] storage tokenAddrs, uint256[] storage tokenValues) internal {\n        require(staker != address(0), \"staker is 0\");\n        uint256 len = tokenAddrs.length;\n        uint256[] memory stakerValues = new uint[](len);\n        for (uint256 i = 0; i < len; i += 1){\n            stakerValues[i]=tokenValues[i].mul(stakingAmt).div(totalStakingAmount);\n        }\n        staker.transferAll(tokenAddrs,stakerValues);\n    }\n}\n",
  "sourcePath": "/Users/gordon/bian/dapp/dice/contracts/BLinkDividend.sol",
  "compiler": {
    "name": "solc",
    "version": "0.4.25+commit.59dbf8f1.Emscripten.clang"
  },
  "schemaVersion": "3.2.0",
  "updatedAt": "2020-09-27T09:48:32.647Z",
  "devdoc": {
    "methods": {}
  },
  "userdoc": {
    "methods": {}
  }
}