{
  "contractName": "BLinkDev",
  "abi": [
    {
      "constant": true,
      "inputs": [],
      "name": "operator",
      "outputs": [
        {
          "name": "",
          "type": "address"
        }
      ],
      "payable": false,
      "stateMutability": "view",
      "type": "function"
    },
    {
      "constant": true,
      "inputs": [],
      "name": "globalPromotionStart",
      "outputs": [
        {
          "name": "",
          "type": "uint64"
        }
      ],
      "payable": false,
      "stateMutability": "view",
      "type": "function"
    },
    {
      "constant": true,
      "inputs": [],
      "name": "devMinePercent",
      "outputs": [
        {
          "name": "",
          "type": "uint256"
        }
      ],
      "payable": false,
      "stateMutability": "view",
      "type": "function"
    },
    {
      "constant": false,
      "inputs": [
        {
          "name": "_newAdmin",
          "type": "address"
        }
      ],
      "name": "setAdmin",
      "outputs": [],
      "payable": false,
      "stateMutability": "nonpayable",
      "type": "function"
    },
    {
      "constant": true,
      "inputs": [],
      "name": "blinkPool",
      "outputs": [
        {
          "name": "",
          "type": "address"
        }
      ],
      "payable": false,
      "stateMutability": "view",
      "type": "function"
    },
    {
      "constant": true,
      "inputs": [],
      "name": "isPaused",
      "outputs": [
        {
          "name": "",
          "type": "bool"
        }
      ],
      "payable": false,
      "stateMutability": "view",
      "type": "function"
    },
    {
      "constant": false,
      "inputs": [
        {
          "name": "_pause",
          "type": "bool"
        }
      ],
      "name": "setPause",
      "outputs": [],
      "payable": false,
      "stateMutability": "nonpayable",
      "type": "function"
    },
    {
      "constant": true,
      "inputs": [],
      "name": "addrAdmin",
      "outputs": [
        {
          "name": "",
          "type": "address"
        }
      ],
      "payable": false,
      "stateMutability": "view",
      "type": "function"
    },
    {
      "constant": true,
      "inputs": [],
      "name": "addrTokenDev",
      "outputs": [
        {
          "name": "",
          "type": "address"
        }
      ],
      "payable": false,
      "stateMutability": "view",
      "type": "function"
    },
    {
      "constant": true,
      "inputs": [],
      "name": "addrOperator",
      "outputs": [
        {
          "name": "",
          "type": "address"
        }
      ],
      "payable": false,
      "stateMutability": "view",
      "type": "function"
    },
    {
      "constant": true,
      "inputs": [],
      "name": "globalPromotion",
      "outputs": [
        {
          "name": "",
          "type": "uint256"
        }
      ],
      "payable": false,
      "stateMutability": "view",
      "type": "function"
    },
    {
      "constant": true,
      "inputs": [],
      "name": "blinkToken",
      "outputs": [
        {
          "name": "",
          "type": "address"
        }
      ],
      "payable": false,
      "stateMutability": "view",
      "type": "function"
    },
    {
      "constant": true,
      "inputs": [],
      "name": "globalPromotionEnd",
      "outputs": [
        {
          "name": "",
          "type": "uint64"
        }
      ],
      "payable": false,
      "stateMutability": "view",
      "type": "function"
    },
    {
      "constant": true,
      "inputs": [],
      "name": "addrDevChild",
      "outputs": [
        {
          "name": "",
          "type": "address"
        }
      ],
      "payable": false,
      "stateMutability": "view",
      "type": "function"
    },
    {
      "inputs": [],
      "payable": false,
      "stateMutability": "nonpayable",
      "type": "constructor"
    },
    {
      "constant": false,
      "inputs": [
        {
          "name": "_newOperator",
          "type": "address"
        }
      ],
      "name": "setOperator",
      "outputs": [],
      "payable": false,
      "stateMutability": "nonpayable",
      "type": "function"
    },
    {
      "constant": true,
      "inputs": [],
      "name": "getAddrParam",
      "outputs": [
        {
          "name": "diceAddr",
          "type": "address"
        },
        {
          "name": "poolAddr",
          "type": "address"
        }
      ],
      "payable": false,
      "stateMutability": "view",
      "type": "function"
    },
    {
      "constant": false,
      "inputs": [
        {
          "name": "_addrBLink",
          "type": "address"
        },
        {
          "name": "_addrPool",
          "type": "address"
        }
      ],
      "name": "setAddrParam",
      "outputs": [],
      "payable": false,
      "stateMutability": "nonpayable",
      "type": "function"
    },
    {
      "constant": false,
      "inputs": [
        {
          "name": "_addr",
          "type": "address"
        }
      ],
      "name": "setTokenDevAddr",
      "outputs": [],
      "payable": false,
      "stateMutability": "nonpayable",
      "type": "function"
    },
    {
      "constant": false,
      "inputs": [
        {
          "name": "_addr",
          "type": "address"
        }
      ],
      "name": "setDevChildAddr",
      "outputs": [],
      "payable": false,
      "stateMutability": "nonpayable",
      "type": "function"
    },
    {
      "constant": false,
      "inputs": [
        {
          "name": "_per",
          "type": "uint256"
        }
      ],
      "name": "setDevMinePercent",
      "outputs": [],
      "payable": false,
      "stateMutability": "nonpayable",
      "type": "function"
    },
    {
      "constant": false,
      "inputs": [
        {
          "name": "_start",
          "type": "uint64"
        },
        {
          "name": "_end",
          "type": "uint64"
        },
        {
          "name": "_rate",
          "type": "uint64"
        }
      ],
      "name": "setGlobalPromotion",
      "outputs": [],
      "payable": false,
      "stateMutability": "nonpayable",
      "type": "function"
    },
    {
      "constant": false,
      "inputs": [
        {
          "name": "_gameId",
          "type": "uint256"
        },
        {
          "name": "_start",
          "type": "uint64"
        },
        {
          "name": "_end",
          "type": "uint64"
        },
        {
          "name": "_rate",
          "type": "uint64"
        }
      ],
      "name": "setGamePromotion",
      "outputs": [],
      "payable": false,
      "stateMutability": "nonpayable",
      "type": "function"
    },
    {
      "constant": true,
      "inputs": [],
      "name": "getGlobalPromotion",
      "outputs": [
        {
          "name": "start",
          "type": "uint64"
        },
        {
          "name": "end",
          "type": "uint64"
        },
        {
          "name": "rate",
          "type": "uint64"
        }
      ],
      "payable": false,
      "stateMutability": "view",
      "type": "function"
    },
    {
      "constant": true,
      "inputs": [
        {
          "name": "_gameId",
          "type": "uint256"
        }
      ],
      "name": "getGamePromotion",
      "outputs": [
        {
          "name": "gameId",
          "type": "uint256"
        },
        {
          "name": "start",
          "type": "uint64"
        },
        {
          "name": "end",
          "type": "uint64"
        },
        {
          "name": "rate",
          "type": "uint64"
        }
      ],
      "payable": false,
      "stateMutability": "view",
      "type": "function"
    },
    {
      "constant": true,
      "inputs": [],
      "name": "getDevBLinkAmount",
      "outputs": [
        {
          "name": "",
          "type": "uint256"
        }
      ],
      "payable": false,
      "stateMutability": "view",
      "type": "function"
    },
    {
      "constant": true,
      "inputs": [
        {
          "name": "_gameId",
          "type": "uint256"
        },
        {
          "name": "_miner",
          "type": "address"
        },
        {
          "name": "_amount",
          "type": "uint256"
        }
      ],
      "name": "getMiningBLink",
      "outputs": [
        {
          "name": "_minerCnt",
          "type": "uint256"
        },
        {
          "name": "_devCnt",
          "type": "uint256"
        }
      ],
      "payable": false,
      "stateMutability": "view",
      "type": "function"
    }
  ],
  "bytecode": "0x6080604052603160075560006008556000600960006101000a81548167ffffffffffffffff021916908367ffffffffffffffff1602179055506000600960086101000a81548167ffffffffffffffff021916908367ffffffffffffffff16021790555034801561006e57600080fd5b5060008060006101000a81548160ff02191690831515021790555033600060016101000a81548173ffffffffffffffffffffffffffffffffffffffff021916908373ffffffffffffffffffffffffffffffffffffffff16021790555033600060016101000a81548173ffffffffffffffffffffffffffffffffffffffff021916908373ffffffffffffffffffffffffffffffffffffffff16021790555033600460006101000a81548173ffffffffffffffffffffffffffffffffffffffff021916908373ffffffffffffffffffffffffffffffffffffffff1602179055506125618061015b6000396000f300608060405260043610610154576000357c0100000000000000000000000000000000000000000000000000000000900463ffffffff16806303f210721461015957806307d940a3146101cb578063274b43791461020e5780632b0b4d3d146102395780633e11fdcc14610266578063570ca735146102a9578063586939ac1461030057806367b487da1461033f578063704b6c021461036a578063740f32f2146103ad57806396a3713d1461040c5780639fc6af1d1461049e578063aae8210b14610513578063b187bd261461056a578063b3ab15fb14610599578063b8edb976146105dc578063bedb86fb1461063f578063bfae2f0e1461066e578063c1cbc363146106c5578063cded51321461071c578063cf51096b146107a6578063da08f714146107fd578063e07703af14610828578063ec42b87f14610891578063fb28e03b146108e8578063fe8b8a0514610927575b600080fd5b34801561016557600080fd5b506101ae60048036038101908080359060200190929190803573ffffffffffffffffffffffffffffffffffffffff1690602001909291908035906020019092919050505061097e565b604051808381526020018281526020019250505060405180910390f35b3480156101d757600080fd5b5061020c600480360381019080803573ffffffffffffffffffffffffffffffffffffffff169060200190929190505050610d5c565b005b34801561021a57600080fd5b50610223610ea1565b6040518082815260200191505060405180910390f35b34801561024557600080fd5b5061026460048036038101908080359060200190929190505050611238565b005b34801561027257600080fd5b506102a7600480360381019080803573ffffffffffffffffffffffffffffffffffffffff169060200190929190505050611323565b005b3480156102b557600080fd5b506102be611468565b604051808273ffffffffffffffffffffffffffffffffffffffff1673ffffffffffffffffffffffffffffffffffffffff16815260200191505060405180910390f35b34801561030c57600080fd5b5061031561148e565b604051808267ffffffffffffffff1667ffffffffffffffff16815260200191505060405180910390f35b34801561034b57600080fd5b506103546114a8565b6040518082815260200191505060405180910390f35b34801561037657600080fd5b506103ab600480360381019080803573ffffffffffffffffffffffffffffffffffffffff1690602001909291905050506114ae565b005b3480156103b957600080fd5b5061040a600480360381019080803567ffffffffffffffff169060200190929190803567ffffffffffffffff169060200190929190803567ffffffffffffffff16906020019092919050505061165c565b005b34801561041857600080fd5b50610437600480360381019080803590602001909291905050506117cd565b604051808581526020018467ffffffffffffffff1667ffffffffffffffff1681526020018367ffffffffffffffff1667ffffffffffffffff1681526020018267ffffffffffffffff1667ffffffffffffffff16815260200194505050505060405180910390f35b3480156104aa57600080fd5b506104b36118ee565b604051808467ffffffffffffffff1667ffffffffffffffff1681526020018367ffffffffffffffff1667ffffffffffffffff1681526020018267ffffffffffffffff1667ffffffffffffffff168152602001935050505060405180910390f35b34801561051f57600080fd5b5061052861192d565b604051808273ffffffffffffffffffffffffffffffffffffffff1673ffffffffffffffffffffffffffffffffffffffff16815260200191505060405180910390f35b34801561057657600080fd5b5061057f611953565b604051808215151515815260200191505060405180910390f35b3480156105a557600080fd5b506105da600480360381019080803573ffffffffffffffffffffffffffffffffffffffff169060200190929190505050611965565b005b3480156105e857600080fd5b5061063d600480360381019080803573ffffffffffffffffffffffffffffffffffffffff169060200190929190803573ffffffffffffffffffffffffffffffffffffffff169060200190929190505050611aaa565b005b34801561064b57600080fd5b5061066c600480360381019080803515159060200190929190505050611c6a565b005b34801561067a57600080fd5b50610683611d4b565b604051808273ffffffffffffffffffffffffffffffffffffffff1673ffffffffffffffffffffffffffffffffffffffff16815260200191505060405180910390f35b3480156106d157600080fd5b506106da611d71565b604051808273ffffffffffffffffffffffffffffffffffffffff1673ffffffffffffffffffffffffffffffffffffffff16815260200191505060405180910390f35b34801561072857600080fd5b50610731611d97565b604051808373ffffffffffffffffffffffffffffffffffffffff1673ffffffffffffffffffffffffffffffffffffffff1681526020018273ffffffffffffffffffffffffffffffffffffffff1673ffffffffffffffffffffffffffffffffffffffff1681526020019250505060405180910390f35b3480156107b257600080fd5b506107bb611de8565b604051808273ffffffffffffffffffffffffffffffffffffffff1673ffffffffffffffffffffffffffffffffffffffff16815260200191505060405180910390f35b34801561080957600080fd5b50610812611e0e565b6040518082815260200191505060405180910390f35b34801561083457600080fd5b5061088f60048036038101908080359060200190929190803567ffffffffffffffff169060200190929190803567ffffffffffffffff169060200190929190803567ffffffffffffffff169060200190929190505050611e14565b005b34801561089d57600080fd5b506108a6612108565b604051808273ffffffffffffffffffffffffffffffffffffffff1673ffffffffffffffffffffffffffffffffffffffff16815260200191505060405180910390f35b3480156108f457600080fd5b506108fd61212e565b604051808267ffffffffffffffff1667ffffffffffffffff16815260200191505060405180910390f35b34801561093357600080fd5b5061093c612148565b604051808273ffffffffffffffffffffffffffffffffffffffff1673ffffffffffffffffffffffffffffffffffffffff16815260200191505060405180910390f35b600080600080600061098e6124e4565b6000600360009054906101000a900473ffffffffffffffffffffffffffffffffffffffff1673ffffffffffffffffffffffffffffffffffffffff1663a50280946040518163ffffffff167c0100000000000000000000000000000000000000000000000000000000028152600401602060405180830381600087803b158015610a1657600080fd5b505af1158015610a2a573d6000803e3d6000fd5b505050506040513d6020811015610a4057600080fd5b810190808051906020019092919050505094506000851415610a69576000965060009550610d4f565b429350610a94600465048c2739500060018803811515610a8557fe5b0461216e90919063ffffffff16565b6103e40388811515610aa257fe5b0492506000600854118015610ae15750600960009054906101000a900467ffffffffffffffff1667ffffffffffffffff168467ffffffffffffffff1610155b8015610b175750600960089054906101000a900467ffffffffffffffff1667ffffffffffffffff168467ffffffffffffffff1611155b15610b4557612710610b346008548561216e90919063ffffffff16565b811515610b3d57fe5b049250610cbf565b600a60008b8152602001908152602001600020608060405190810160405290816000820160009054906101000a900467ffffffffffffffff1667ffffffffffffffff1667ffffffffffffffff1681526020016000820160089054906101000a900467ffffffffffffffff1667ffffffffffffffff1667ffffffffffffffff1681526020016000820160109054906101000a900467ffffffffffffffff1667ffffffffffffffff1667ffffffffffffffff1681526020016000820160189054906101000a900467ffffffffffffffff1667ffffffffffffffff1667ffffffffffffffff168152505091506000826020015167ffffffffffffffff16118015610c645750816040015167ffffffffffffffff168467ffffffffffffffff1610155b8015610c885750816060015167ffffffffffffffff168467ffffffffffffffff1611155b15610cbe57612710610cb1836020015167ffffffffffffffff168561216e90919063ffffffff16565b811515610cba57fe5b0492505b5b600754606403610cda6007548561216e90919063ffffffff16565b811515610ce357fe5b04905084610cfa828561223b90919063ffffffff16565b1115610d4757610d2b6064610d1d6007546064038861216e90919063ffffffff16565b6122c590919063ffffffff16565b9650610d40878661230f90919063ffffffff16565b9550610d4e565b8296508095505b5b5050505050935093915050565b600060019054906101000a900473ffffffffffffffffffffffffffffffffffffffff1673ffffffffffffffffffffffffffffffffffffffff163373ffffffffffffffffffffffffffffffffffffffff16141515610e21576040517f08c379a00000000000000000000000000000000000000000000000000000000081526004018080602001828103825260098152602001807f6e6f742061646d696e000000000000000000000000000000000000000000000081525060200191505060405180910390fd5b600073ffffffffffffffffffffffffffffffffffffffff168173ffffffffffffffffffffffffffffffffffffffff1614151515610e5d57600080fd5b80600560006101000a81548173ffffffffffffffffffffffffffffffffffffffff021916908373ffffffffffffffffffffffffffffffffffffffff16021790555050565b600080600080600360009054906101000a900473ffffffffffffffffffffffffffffffffffffffff1673ffffffffffffffffffffffffffffffffffffffff16630a782e086040518163ffffffff167c0100000000000000000000000000000000000000000000000000000000028152600401602060405180830381600087803b158015610f2d57600080fd5b505af1158015610f41573d6000803e3d6000fd5b505050506040513d6020811015610f5757600080fd5b81019080805190602001909291905050509250600260009054906101000a900473ffffffffffffffffffffffffffffffffffffffff1673ffffffffffffffffffffffffffffffffffffffff166370a08231600560009054906101000a900473ffffffffffffffffffffffffffffffffffffffff166040518263ffffffff167c0100000000000000000000000000000000000000000000000000000000028152600401808273ffffffffffffffffffffffffffffffffffffffff1673ffffffffffffffffffffffffffffffffffffffff168152602001915050602060405180830381600087803b15801561104957600080fd5b505af115801561105d573d6000803e3d6000fd5b505050506040513d602081101561107357600080fd5b81019080805190602001909291905050509150611099828461223b90919063ffffffff16565b9250600073ffffffffffffffffffffffffffffffffffffffff16600660009054906101000a900473ffffffffffffffffffffffffffffffffffffffff1673ffffffffffffffffffffffffffffffffffffffff1614151561122f57600260009054906101000a900473ffffffffffffffffffffffffffffffffffffffff1673ffffffffffffffffffffffffffffffffffffffff166370a08231600660009054906101000a900473ffffffffffffffffffffffffffffffffffffffff166040518263ffffffff167c0100000000000000000000000000000000000000000000000000000000028152600401808273ffffffffffffffffffffffffffffffffffffffff1673ffffffffffffffffffffffffffffffffffffffff168152602001915050602060405180830381600087803b1580156111d257600080fd5b505af11580156111e6573d6000803e3d6000fd5b505050506040513d60208110156111fc57600080fd5b81019080805190602001909291905050509050600081111561122e5761122b818461223b90919063ffffffff16565b92505b5b82935050505090565b600060019054906101000a900473ffffffffffffffffffffffffffffffffffffffff1673ffffffffffffffffffffffffffffffffffffffff163373ffffffffffffffffffffffffffffffffffffffff161415156112fd576040517f08c379a00000000000000000000000000000000000000000000000000000000081526004018080602001828103825260098152602001807f6e6f742061646d696e000000000000000000000000000000000000000000000081525060200191505060405180910390fd5b60008111801561130e5750603c8111155b151561131957600080fd5b8060078190555050565b600060019054906101000a900473ffffffffffffffffffffffffffffffffffffffff1673ffffffffffffffffffffffffffffffffffffffff163373ffffffffffffffffffffffffffffffffffffffff161415156113e8576040517f08c379a00000000000000000000000000000000000000000000000000000000081526004018080602001828103825260098152602001807f6e6f742061646d696e000000000000000000000000000000000000000000000081525060200191505060405180910390fd5b600073ffffffffffffffffffffffffffffffffffffffff168173ffffffffffffffffffffffffffffffffffffffff161415151561142457600080fd5b80600660006101000a81548173ffffffffffffffffffffffffffffffffffffffff021916908373ffffffffffffffffffffffffffffffffffffffff16021790555050565b600160009054906101000a900473ffffffffffffffffffffffffffffffffffffffff1681565b600960009054906101000a900467ffffffffffffffff1681565b60075481565b600060019054906101000a900473ffffffffffffffffffffffffffffffffffffffff1673ffffffffffffffffffffffffffffffffffffffff163373ffffffffffffffffffffffffffffffffffffffff16141515611573576040517f08c379a00000000000000000000000000000000000000000000000000000000081526004018080602001828103825260098152602001807f6e6f742061646d696e000000000000000000000000000000000000000000000081525060200191505060405180910390fd5b600073ffffffffffffffffffffffffffffffffffffffff168173ffffffffffffffffffffffffffffffffffffffff1614151515611618576040517f08c379a000000000000000000000000000000000000000000000000000000000815260040180806020018281038252601c8152602001807f5f6e657741646d696e2063616e2774206265206164647265737320300000000081525060200191505060405180910390fd5b80600060016101000a81548173ffffffffffffffffffffffffffffffffffffffff021916908373ffffffffffffffffffffffffffffffffffffffff16021790555050565b600060019054906101000a900473ffffffffffffffffffffffffffffffffffffffff1673ffffffffffffffffffffffffffffffffffffffff163373ffffffffffffffffffffffffffffffffffffffff1614806117055750600460009054906101000a900473ffffffffffffffffffffffffffffffffffffffff1673ffffffffffffffffffffffffffffffffffffffff163373ffffffffffffffffffffffffffffffffffffffff16145b151561171057600080fd5b8267ffffffffffffffff168267ffffffffffffffff1611151561173257600080fd5b6113888167ffffffffffffffff161015801561175a575061c3508167ffffffffffffffff1611155b151561176557600080fd5b8067ffffffffffffffff1660088190555082600960006101000a81548167ffffffffffffffff021916908367ffffffffffffffff16021790555081600960086101000a81548167ffffffffffffffff021916908367ffffffffffffffff160217905550505050565b6000806000806117db6124e4565b60008611156118e657600a6000878152602001908152602001600020608060405190810160405290816000820160009054906101000a900467ffffffffffffffff1667ffffffffffffffff1667ffffffffffffffff1681526020016000820160089054906101000a900467ffffffffffffffff1667ffffffffffffffff1667ffffffffffffffff1681526020016000820160109054906101000a900467ffffffffffffffff1667ffffffffffffffff1667ffffffffffffffff1681526020016000820160189054906101000a900467ffffffffffffffff1667ffffffffffffffff1667ffffffffffffffff168152505090508594508060400151935080606001519250806020015191505b509193509193565b6000806000600960009054906101000a900467ffffffffffffffff169250600960089054906101000a900467ffffffffffffffff169150809050909192565b600360009054906101000a900473ffffffffffffffffffffffffffffffffffffffff1681565b6000809054906101000a900460ff1681565b600060019054906101000a900473ffffffffffffffffffffffffffffffffffffffff1673ffffffffffffffffffffffffffffffffffffffff163373ffffffffffffffffffffffffffffffffffffffff16141515611a2a576040517f08c379a00000000000000000000000000000000000000000000000000000000081526004018080602001828103825260098152602001807f6e6f742061646d696e000000000000000000000000000000000000000000000081525060200191505060405180910390fd5b600073ffffffffffffffffffffffffffffffffffffffff168173ffffffffffffffffffffffffffffffffffffffff1614151515611a6657600080fd5b80600460006101000a81548173ffffffffffffffffffffffffffffffffffffffff021916908373ffffffffffffffffffffffffffffffffffffffff16021790555050565b600060019054906101000a900473ffffffffffffffffffffffffffffffffffffffff1673ffffffffffffffffffffffffffffffffffffffff163373ffffffffffffffffffffffffffffffffffffffff16141515611b6f576040517f08c379a00000000000000000000000000000000000000000000000000000000081526004018080602001828103825260098152602001807f6e6f742061646d696e000000000000000000000000000000000000000000000081525060200191505060405180910390fd5b600073ffffffffffffffffffffffffffffffffffffffff168273ffffffffffffffffffffffffffffffffffffffff1614158015611bd95750600073ffffffffffffffffffffffffffffffffffffffff168173ffffffffffffffffffffffffffffffffffffffff1614155b1515611be457600080fd5b81600260006101000a81548173ffffffffffffffffffffffffffffffffffffffff021916908373ffffffffffffffffffffffffffffffffffffffff16021790555080600360006101000a81548173ffffffffffffffffffffffffffffffffffffffff021916908373ffffffffffffffffffffffffffffffffffffffff1602179055505050565b600060019054906101000a900473ffffffffffffffffffffffffffffffffffffffff1673ffffffffffffffffffffffffffffffffffffffff163373ffffffffffffffffffffffffffffffffffffffff16141515611d2f576040517f08c379a00000000000000000000000000000000000000000000000000000000081526004018080602001828103825260098152602001807f6e6f742061646d696e000000000000000000000000000000000000000000000081525060200191505060405180910390fd5b806000806101000a81548160ff02191690831515021790555050565b600060019054906101000a900473ffffffffffffffffffffffffffffffffffffffff1681565b600560009054906101000a900473ffffffffffffffffffffffffffffffffffffffff1681565b600080600260009054906101000a900473ffffffffffffffffffffffffffffffffffffffff169150600360009054906101000a900473ffffffffffffffffffffffffffffffffffffffff1690509091565b600460009054906101000a900473ffffffffffffffffffffffffffffffffffffffff1681565b60085481565b611e1c6124e4565b600060019054906101000a900473ffffffffffffffffffffffffffffffffffffffff1673ffffffffffffffffffffffffffffffffffffffff163373ffffffffffffffffffffffffffffffffffffffff161480611ec55750600460009054906101000a900473ffffffffffffffffffffffffffffffffffffffff1673ffffffffffffffffffffffffffffffffffffffff163373ffffffffffffffffffffffffffffffffffffffff16145b1515611ed057600080fd5b600085118015611ef357508367ffffffffffffffff168367ffffffffffffffff16115b1515611efe57600080fd5b60008267ffffffffffffffff161480611f3b57506113888267ffffffffffffffff1610158015611f3a575061c3508267ffffffffffffffff1611155b5b1515611f4657600080fd5b60008267ffffffffffffffff1614151561207e576080604051908101604052808667ffffffffffffffff1681526020018367ffffffffffffffff1681526020018567ffffffffffffffff1681526020018467ffffffffffffffff16815250905080600a600087815260200190815260200160002060008201518160000160006101000a81548167ffffffffffffffff021916908367ffffffffffffffff16021790555060208201518160000160086101000a81548167ffffffffffffffff021916908367ffffffffffffffff16021790555060408201518160000160106101000a81548167ffffffffffffffff021916908367ffffffffffffffff16021790555060608201518160000160186101000a81548167ffffffffffffffff021916908367ffffffffffffffff160217905550905050612101565b600a6000868152602001908152602001600020600080820160006101000a81549067ffffffffffffffff02191690556000820160086101000a81549067ffffffffffffffff02191690556000820160106101000a81549067ffffffffffffffff02191690556000820160186101000a81549067ffffffffffffffff021916905550505b5050505050565b600260009054906101000a900473ffffffffffffffffffffffffffffffffffffffff1681565b600960089054906101000a900467ffffffffffffffff1681565b600660009054906101000a900473ffffffffffffffffffffffffffffffffffffffff1681565b60008060008414156121835760009150612234565b828402905082848281151561219457fe5b04141515612230576040517f08c379a00000000000000000000000000000000000000000000000000000000081526004018080602001828103825260218152602001807f536166654d6174683a206d756c7469706c69636174696f6e206f766572666c6f81526020017f770000000000000000000000000000000000000000000000000000000000000081525060400191505060405180910390fd5b8091505b5092915050565b60008082840190508381101515156122bb576040517f08c379a000000000000000000000000000000000000000000000000000000000815260040180806020018281038252601b8152602001807f536166654d6174683a206164646974696f6e206f766572666c6f77000000000081525060200191505060405180910390fd5b8091505092915050565b600061230783836040805190810160405280601a81526020017f536166654d6174683a206469766973696f6e206279207a65726f000000000000815250612359565b905092915050565b600061235183836040805190810160405280601e81526020017f536166654d6174683a207375627472616374696f6e206f766572666c6f770000815250612423565b905092915050565b6000806000841183901515612409576040517f08c379a00000000000000000000000000000000000000000000000000000000081526004018080602001828103825283818151815260200191508051906020019080838360005b838110156123ce5780820151818401526020810190506123b3565b50505050905090810190601f1680156123fb5780820380516001836020036101000a031916815260200191505b509250505060405180910390fd5b50838581151561241557fe5b049050809150509392505050565b60008084841115839015156124d3576040517f08c379a00000000000000000000000000000000000000000000000000000000081526004018080602001828103825283818151815260200191508051906020019080838360005b8381101561249857808201518184015260208101905061247d565b50505050905090810190601f1680156124c55780820380516001836020036101000a031916815260200191505b509250505060405180910390fd5b508385039050809150509392505050565b608060405190810160405280600067ffffffffffffffff168152602001600067ffffffffffffffff168152602001600067ffffffffffffffff168152602001600067ffffffffffffffff16815250905600a165627a7a723058204411072bfc53cad24035ebc6afc7f864c87a044feaeeecd6ce9fc64ccc3c11c90029",
  "source": "pragma solidity ^0.4.23;\n\nimport \"./BaseAdmin.sol\";\nimport \"./SafeMath.sol\";\n\ninterface IPoolReader {\n    function getDevCacheBalance() external view returns(uint256);\n    function getPoolBLinkBalance() external view returns(uint256);\n}\n\ninterface IBLinkToken {\n    function balanceOf(address _from) external view returns(uint256);\n    function transfer(address _to, uint256 _value) external returns(bool);\n    function transferFrom(address _from, address _to, uint256 _value) external returns(bool);\n    function burn(uint256 _value) external returns (bool);\n}\ncontract BLinkDev is BaseAdmin {\n    using SafeMath for uint256;\n\n    struct GamePromotion {\n        uint64 gameId;          // Id\n        uint64 rate;            // () every 10000\n        uint64 start;           // \n        uint64 end;             // \n    }\n\n    IBLinkToken public blinkToken;\n    IPoolReader public blinkPool;\n    address public addrOperator;       // the operator\n    address public addrTokenDev;       // \n    address public addrDevChild;       // \n\n    uint256 public devMinePercent = 49;       // user: 100 - 49 = 51, dev: 49\n    uint256 public globalPromotion = 0;       // () // promotion add\n    uint64 public globalPromotionStart = 0;\n    uint64 public globalPromotionEnd = 0;\n\n    mapping (uint256 => GamePromotion) gamePromotionMap;// \n\n    constructor() public {\n        addrAdmin = msg.sender;\n        addrOperator = msg.sender;\n    }\n\n    modifier onlyOperator() {\n        require(msg.sender == addrAdmin || msg.sender == addrOperator);\n        _;\n    }\n\n    function setOperator(address _newOperator) external onlyAdmin {\n        require(_newOperator != address(0));\n        addrOperator = _newOperator;\n    }\n\n    function getAddrParam() external view returns(address diceAddr, address poolAddr) {\n        diceAddr = address(blinkToken);\n        poolAddr = address(blinkPool);\n    }\n\n    function setAddrParam(address _addrBLink, address _addrPool) external onlyAdmin {\n        require(_addrBLink != address(0) && _addrPool != address(0));\n        blinkToken = IBLinkToken(_addrBLink);\n        blinkPool = IPoolReader(_addrPool);\n    }\n\n    function setTokenDevAddr(address _addr) external onlyAdmin {\n        require(_addr != address(0));\n        addrTokenDev = _addr;\n    }\n\n    function setDevChildAddr(address _addr) external onlyAdmin {\n        require(_addr != address(0));\n        addrDevChild = _addr;\n    }\n\n    function setDevMinePercent(uint256 _per) external onlyAdmin {\n        require(_per > 0 && _per <= 60);\n        devMinePercent = _per;\n    }\n\n    function setGlobalPromotion(uint64 _start, uint64 _end, uint64 _rate) external onlyOperator {\n        require(_end > _start);\n        require(_rate >= 5000 && _rate <= 50000);\n        globalPromotion = _rate;\n        globalPromotionStart = _start;\n        globalPromotionEnd = _end;\n    }\n\n    function setGamePromotion(uint256 _gameId, uint64 _start, uint64 _end, uint64 _rate) external onlyOperator {\n        require(_gameId > 0 && _end > _start);\n        require(_rate == 0 || (_rate >= 5000 && _rate <= 50000));\n        if (_rate != 0) {\n            GamePromotion memory setting = GamePromotion(uint64(_gameId), _rate, _start, _end);\n            gamePromotionMap[_gameId] = setting;\n        } else {\n            delete gamePromotionMap[_gameId];\n        }\n    }\n\n    function getGlobalPromotion() external view returns(uint64 start, uint64 end, uint64 rate) {\n        start = globalPromotionStart;\n        end = globalPromotionEnd;\n        rate = uint64(rate);\n    }\n\n    function getGamePromotion(uint256 _gameId) external view returns(uint256 gameId, uint64 start, uint64 end, uint64 rate) {\n        if (_gameId > 0) {\n            GamePromotion memory setting = gamePromotionMap[_gameId];\n            gameId = _gameId;\n            start = setting.start;\n            end = setting.end;\n            rate = setting.rate;\n        }\n    }\n\n    function getDevBLinkAmount() external view returns(uint256) {\n        uint256 devBLink = blinkPool.getDevCacheBalance();\n        uint256 walletDev = blinkToken.balanceOf(addrTokenDev);//\n\n        devBLink = devBLink.add(walletDev);\n        if (addrDevChild != address(0)) {\n            uint256 walletChild = blinkToken.balanceOf(addrDevChild);\n            if (walletChild > 0) {\n                devBLink = devBLink.add(walletChild);\n            } \n        }\n        return devBLink;\n    }\n\n    function getMiningBLink(uint256 _gameId, address _miner, uint256 _amount)\n        external \n        view \n        returns(\n            uint256 _minerCnt,\n            uint256 _devCnt\n        )\n    {\n        uint256 blinkBalance = blinkPool.getPoolBLinkBalance();\n        if (blinkBalance == 0) {\n            _minerCnt = 0;\n            _devCnt = 0;\n            return;\n        }\n        uint64 tmNow = uint64(block.timestamp);\n        uint256 mineCount = _amount / (996 - ((blinkBalance - 1) / 5000000000000).mul(4));//\n        if (globalPromotion > 0 && tmNow >= globalPromotionStart && tmNow <= globalPromotionEnd) {\n            mineCount = mineCount.mul(globalPromotion) / 10000;\n        } else {\n            GamePromotion memory setting = gamePromotionMap[_gameId];\n            if (setting.rate > 0 && tmNow >= setting.start && tmNow <= setting.end) {\n                mineCount = mineCount.mul(uint256(setting.rate)) / 10000;\n            }\n        }\n        uint256 devCount = mineCount.mul(devMinePercent) / (100 - devMinePercent);\n        if ((mineCount.add(devCount)) > blinkBalance) {\n            _minerCnt = blinkBalance.mul(100 - devMinePercent).div(100);\n            _devCnt = blinkBalance.sub(_minerCnt);\n        } else {\n            _minerCnt = mineCount;\n            _devCnt = devCount;\n        }\n    }\n}\n",
  "sourcePath": "/Users/gordon/bian/dapp/dice/contracts/BLinkDev.sol",
  "compiler": {
    "name": "solc",
    "version": "0.4.25+commit.59dbf8f1.Emscripten.clang"
  },
  "schemaVersion": "3.2.0",
  "updatedAt": "2020-09-27T09:48:32.532Z",
  "devdoc": {
    "methods": {}
  },
  "userdoc": {
    "methods": {}
  }
}