{
  "contractName": "BLinkWinkDividend",
  "abi": [
    {
      "constant": false,
      "inputs": [
        {
          "name": "tokenAddrs",
          "type": "address[]"
        }
      ],
      "name": "updateVersion",
      "outputs": [],
      "payable": false,
      "stateMutability": "nonpayable",
      "type": "function"
    },
    {
      "constant": true,
      "inputs": [
        {
          "name": "",
          "type": "address"
        }
      ],
      "name": "safeBetContracts",
      "outputs": [
        {
          "name": "",
          "type": "bool"
        }
      ],
      "payable": false,
      "stateMutability": "view",
      "type": "function"
    },
    {
      "constant": true,
      "inputs": [
        {
          "name": "",
          "type": "uint256"
        }
      ],
      "name": "confirmedTxMap",
      "outputs": [
        {
          "name": "",
          "type": "bool"
        }
      ],
      "payable": false,
      "stateMutability": "view",
      "type": "function"
    },
    {
      "constant": true,
      "inputs": [],
      "name": "operator",
      "outputs": [
        {
          "name": "",
          "type": "address"
        }
      ],
      "payable": false,
      "stateMutability": "view",
      "type": "function"
    },
    {
      "constant": false,
      "inputs": [
        {
          "name": "_newAdmin",
          "type": "address"
        }
      ],
      "name": "setAdmin",
      "outputs": [],
      "payable": false,
      "stateMutability": "nonpayable",
      "type": "function"
    },
    {
      "constant": true,
      "inputs": [],
      "name": "addrFinance",
      "outputs": [
        {
          "name": "",
          "type": "address"
        }
      ],
      "payable": false,
      "stateMutability": "view",
      "type": "function"
    },
    {
      "constant": false,
      "inputs": [
        {
          "name": "_addr",
          "type": "address"
        }
      ],
      "name": "setFinance",
      "outputs": [],
      "payable": false,
      "stateMutability": "nonpayable",
      "type": "function"
    },
    {
      "constant": true,
      "inputs": [],
      "name": "isPaused",
      "outputs": [
        {
          "name": "",
          "type": "bool"
        }
      ],
      "payable": false,
      "stateMutability": "view",
      "type": "function"
    },
    {
      "constant": false,
      "inputs": [
        {
          "name": "_addr",
          "type": "address"
        }
      ],
      "name": "setOperator",
      "outputs": [],
      "payable": false,
      "stateMutability": "nonpayable",
      "type": "function"
    },
    {
      "constant": false,
      "inputs": [
        {
          "name": "_pause",
          "type": "bool"
        }
      ],
      "name": "setPause",
      "outputs": [],
      "payable": false,
      "stateMutability": "nonpayable",
      "type": "function"
    },
    {
      "constant": true,
      "inputs": [],
      "name": "addrAdmin",
      "outputs": [
        {
          "name": "",
          "type": "address"
        }
      ],
      "payable": false,
      "stateMutability": "view",
      "type": "function"
    },
    {
      "inputs": [],
      "payable": false,
      "stateMutability": "nonpayable",
      "type": "constructor"
    },
    {
      "payable": true,
      "stateMutability": "payable",
      "type": "fallback"
    },
    {
      "constant": false,
      "inputs": [
        {
          "name": "_actionAddr",
          "type": "address"
        },
        {
          "name": "_useful",
          "type": "bool"
        }
      ],
      "name": "setSafeContract",
      "outputs": [],
      "payable": false,
      "stateMutability": "nonpayable",
      "type": "function"
    },
    {
      "constant": false,
      "inputs": [
        {
          "name": "to",
          "type": "address"
        },
        {
          "name": "tokenAddrs",
          "type": "address[]"
        },
        {
          "name": "_tokenValues",
          "type": "uint256[]"
        },
        {
          "name": "_sysTxId",
          "type": "uint256"
        }
      ],
      "name": "dividendToUser",
      "outputs": [],
      "payable": false,
      "stateMutability": "nonpayable",
      "type": "function"
    }
  ],
  "bytecode": "0x608060405234801561001057600080fd5b5060008060006101000a81548160ff02191690831515021790555033600060016101000a81548173ffffffffffffffffffffffffffffffffffffffff021916908373ffffffffffffffffffffffffffffffffffffffff16021790555033600260006101000a81548173ffffffffffffffffffffffffffffffffffffffff021916908373ffffffffffffffffffffffffffffffffffffffff16021790555033600060016101000a81548173ffffffffffffffffffffffffffffffffffffffff021916908373ffffffffffffffffffffffffffffffffffffffff1602179055506115e5806100fd6000396000f3006080604052600436106100c5576000357c0100000000000000000000000000000000000000000000000000000000900463ffffffff1680631a7a4049146100c757806343fee7ab146101025780634e2a30221461015d578063570ca735146101a2578063704b6c02146101f957806382cb9df91461023c5780639b8d306414610293578063b187bd26146102d6578063b3ab15fb14610305578063bedb86fb14610348578063bfae2f0e14610377578063cce0244d146103ce578063d416f72c1461041d575b005b3480156100d357600080fd5b506101006004803603810190808035906020019082018035906020019190919293919293905050506104f0565b005b34801561010e57600080fd5b50610143600480360381019080803573ffffffffffffffffffffffffffffffffffffffff169060200190929190505050610759565b604051808215151515815260200191505060405180910390f35b34801561016957600080fd5b5061018860048036038101908080359060200190929190505050610779565b604051808215151515815260200191505060405180910390f35b3480156101ae57600080fd5b506101b7610799565b604051808273ffffffffffffffffffffffffffffffffffffffff1673ffffffffffffffffffffffffffffffffffffffff16815260200191505060405180910390f35b34801561020557600080fd5b5061023a600480360381019080803573ffffffffffffffffffffffffffffffffffffffff1690602001909291905050506107bf565b005b34801561024857600080fd5b5061025161096d565b604051808273ffffffffffffffffffffffffffffffffffffffff1673ffffffffffffffffffffffffffffffffffffffff16815260200191505060405180910390f35b34801561029f57600080fd5b506102d4600480360381019080803573ffffffffffffffffffffffffffffffffffffffff169060200190929190505050610993565b005b3480156102e257600080fd5b506102eb610b41565b604051808215151515815260200191505060405180910390f35b34801561031157600080fd5b50610346600480360381019080803573ffffffffffffffffffffffffffffffffffffffff169060200190929190505050610b53565b005b34801561035457600080fd5b50610375600480360381019080803515159060200190929190505050610d01565b005b34801561038357600080fd5b5061038c610de2565b604051808273ffffffffffffffffffffffffffffffffffffffff1673ffffffffffffffffffffffffffffffffffffffff16815260200191505060405180910390f35b3480156103da57600080fd5b5061041b600480360381019080803573ffffffffffffffffffffffffffffffffffffffff169060200190929190803515159060200190929190505050610e08565b005b34801561042957600080fd5b506104ee600480360381019080803573ffffffffffffffffffffffffffffffffffffffff169060200190929190803590602001908201803590602001908080602002602001604051908101604052809392919081815260200183836020028082843782019150505050505091929192908035906020019082018035906020019080806020026020016040519081016040528093929190818152602001838360200280828437820191505050505050919291929080359060200190929190505050610f28565b005b6060600060019054906101000a900473ffffffffffffffffffffffffffffffffffffffff1673ffffffffffffffffffffffffffffffffffffffff163373ffffffffffffffffffffffffffffffffffffffff161415156105b7576040517f08c379a00000000000000000000000000000000000000000000000000000000081526004018080602001828103825260098152602001807f6e6f742061646d696e000000000000000000000000000000000000000000000081525060200191505060405180910390fd5b600073ffffffffffffffffffffffffffffffffffffffff16600260009054906101000a900473ffffffffffffffffffffffffffffffffffffffff1673ffffffffffffffffffffffffffffffffffffffff161415151561067e576040517f08c379a000000000000000000000000000000000000000000000000000000000815260040180806020018281038252600c8152602001807f66696e616e63652069732030000000000000000000000000000000000000000081525060200191505060405180910390fd5b6106d68383808060200260200160405190810160405280939291908181526020018383602002808284378201915050505050503073ffffffffffffffffffffffffffffffffffffffff1661100a90919063ffffffff16565b905061075483838080602002602001604051908101604052809392919081815260200183836020028082843782019150505050505082600260009054906101000a900473ffffffffffffffffffffffffffffffffffffffff1673ffffffffffffffffffffffffffffffffffffffff166111ba9092919063ffffffff16565b505050565b60036020528060005260406000206000915054906101000a900460ff1681565b60046020528060005260406000206000915054906101000a900460ff1681565b600160009054906101000a900473ffffffffffffffffffffffffffffffffffffffff1681565b600060019054906101000a900473ffffffffffffffffffffffffffffffffffffffff1673ffffffffffffffffffffffffffffffffffffffff163373ffffffffffffffffffffffffffffffffffffffff16141515610884576040517f08c379a00000000000000000000000000000000000000000000000000000000081526004018080602001828103825260098152602001807f6e6f742061646d696e000000000000000000000000000000000000000000000081525060200191505060405180910390fd5b600073ffffffffffffffffffffffffffffffffffffffff168173ffffffffffffffffffffffffffffffffffffffff1614151515610929576040517f08c379a000000000000000000000000000000000000000000000000000000000815260040180806020018281038252601c8152602001807f5f6e657741646d696e2063616e2774206265206164647265737320300000000081525060200191505060405180910390fd5b80600060016101000a81548173ffffffffffffffffffffffffffffffffffffffff021916908373ffffffffffffffffffffffffffffffffffffffff16021790555050565b600260009054906101000a900473ffffffffffffffffffffffffffffffffffffffff1681565b600260009054906101000a900473ffffffffffffffffffffffffffffffffffffffff1673ffffffffffffffffffffffffffffffffffffffff163373ffffffffffffffffffffffffffffffffffffffff16141515610a58576040517f08c379a000000000000000000000000000000000000000000000000000000000815260040180806020018281038252600b8152602001807f6e6f742066696e616e636500000000000000000000000000000000000000000081525060200191505060405180910390fd5b600073ffffffffffffffffffffffffffffffffffffffff168173ffffffffffffffffffffffffffffffffffffffff1614151515610afd576040517f08c379a000000000000000000000000000000000000000000000000000000000815260040180806020018281038252600a8152602001807f5f6164647220697320300000000000000000000000000000000000000000000081525060200191505060405180910390fd5b80600260006101000a81548173ffffffffffffffffffffffffffffffffffffffff021916908373ffffffffffffffffffffffffffffffffffffffff16021790555050565b6000809054906101000a900460ff1681565b600060019054906101000a900473ffffffffffffffffffffffffffffffffffffffff1673ffffffffffffffffffffffffffffffffffffffff163373ffffffffffffffffffffffffffffffffffffffff16141515610c18576040517f08c379a00000000000000000000000000000000000000000000000000000000081526004018080602001828103825260098152602001807f6e6f742061646d696e000000000000000000000000000000000000000000000081525060200191505060405180910390fd5b600073ffffffffffffffffffffffffffffffffffffffff168173ffffffffffffffffffffffffffffffffffffffff1614151515610cbd576040517f08c379a00000000000000000000000000000000000000000000000000000000081526004018080602001828103825260188152602001807f5f616464722063616e277420626520616464726573732030000000000000000081525060200191505060405180910390fd5b80600160006101000a81548173ffffffffffffffffffffffffffffffffffffffff021916908373ffffffffffffffffffffffffffffffffffffffff16021790555050565b600060019054906101000a900473ffffffffffffffffffffffffffffffffffffffff1673ffffffffffffffffffffffffffffffffffffffff163373ffffffffffffffffffffffffffffffffffffffff16141515610dc6576040517f08c379a00000000000000000000000000000000000000000000000000000000081526004018080602001828103825260098152602001807f6e6f742061646d696e000000000000000000000000000000000000000000000081525060200191505060405180910390fd5b806000806101000a81548160ff02191690831515021790555050565b600060019054906101000a900473ffffffffffffffffffffffffffffffffffffffff1681565b600060019054906101000a900473ffffffffffffffffffffffffffffffffffffffff1673ffffffffffffffffffffffffffffffffffffffff163373ffffffffffffffffffffffffffffffffffffffff16141515610ecd576040517f08c379a00000000000000000000000000000000000000000000000000000000081526004018080602001828103825260098152602001807f6e6f742061646d696e000000000000000000000000000000000000000000000081525060200191505060405180910390fd5b80600360008473ffffffffffffffffffffffffffffffffffffffff1673ffffffffffffffffffffffffffffffffffffffff16815260200190815260200160002060006101000a81548160ff0219169083151502179055505050565b600360003373ffffffffffffffffffffffffffffffffffffffff1673ffffffffffffffffffffffffffffffffffffffff16815260200190815260200160002060009054906101000a900460ff161515610f8057600080fd5b6004600082815260200190815260200160002060009054906101000a900460ff16151515610fad57600080fd5b60016004600083815260200190815260200160002060006101000a81548160ff02191690831515021790555061100483838673ffffffffffffffffffffffffffffffffffffffff166111ba9092919063ffffffff16565b50505050565b6060600080606060008060008873ffffffffffffffffffffffffffffffffffffffff1631955087519450846040519080825280602002602001820160405280156110635781602001602082028038833980820191505090505b5093508584600081518110151561107657fe5b9060200190602002018181525050600192505b848310156111ab57878381518110151561109f57fe5b9060200190602002015191508173ffffffffffffffffffffffffffffffffffffffff166370a082318a6040518263ffffffff167c0100000000000000000000000000000000000000000000000000000000028152600401808273ffffffffffffffffffffffffffffffffffffffff1673ffffffffffffffffffffffffffffffffffffffff168152602001915050602060405180830381600087803b15801561114657600080fd5b505af115801561115a573d6000803e3d6000fd5b505050506040513d602081101561117057600080fd5b8101908080519060200190929190505050905080848481518110151561119257fe5b9060200190602002018181525050600183019250611089565b83965050505050505092915050565b600080600080600073ffffffffffffffffffffffffffffffffffffffff168773ffffffffffffffffffffffffffffffffffffffff1614151515611265576040517f08c379a000000000000000000000000000000000000000000000000000000000815260040180806020018281038252600a8152602001807f5f6164647220697320300000000000000000000000000000000000000000000081525060200191505060405180910390fd5b84519350600090505b838110156112c057848181518110151561128457fe5b906020019060200201519250858181518110151561129e57fe5b9060200190602002015191506112b58783856112c9565b60018101905061126e565b50505050505050565b600073ffffffffffffffffffffffffffffffffffffffff168273ffffffffffffffffffffffffffffffffffffffff16141561130d57611308838261131e565b611319565b6113188383836113c1565b5b505050565b60008111156113bd578173ffffffffffffffffffffffffffffffffffffffff166108fc829081150290604051600060405180830381858888f1935050505015801561136d573d6000803e3d6000fd5b508173ffffffffffffffffffffffffffffffffffffffff167f066ebf901587aec1338abcd7716912d4ab714a550c993de14a7a8c8b6a735aba826040518082815260200191505060405180910390a25b5050565b600073ffffffffffffffffffffffffffffffffffffffff168273ffffffffffffffffffffffffffffffffffffffff1614151515611466576040517f08c379a00000000000000000000000000000000000000000000000000000000081526004018080602001828103825260098152602001807f616464722069732030000000000000000000000000000000000000000000000081525060200191505060405180910390fd5b60008111156115b4578173ffffffffffffffffffffffffffffffffffffffff1663a9059cbb84836040518363ffffffff167c0100000000000000000000000000000000000000000000000000000000028152600401808373ffffffffffffffffffffffffffffffffffffffff1673ffffffffffffffffffffffffffffffffffffffff16815260200182815260200192505050602060405180830381600087803b15801561151257600080fd5b505af1158015611526573d6000803e3d6000fd5b505050506040513d602081101561153c57600080fd5b8101908080519060200190929190505050508173ffffffffffffffffffffffffffffffffffffffff168373ffffffffffffffffffffffffffffffffffffffff167f52a1ece0f3428b1c7032ada833db5214b033972154dcfa1f22bf4e6fb29927a3836040518082815260200191505060405180910390a35b5050505600a165627a7a72305820a53d5060bf956bfdfd3bc05dc695cf0da1207e7475d4c2619d24d46b78ae5e9c0029",
  "source": "pragma solidity ^0.4.23;\n\nimport \"./BaseAdmin.sol\";\nimport \"./SafeMath.sol\";\n\n/*\n    从TRON链上读取用户质押的win，dice，live  token然后 根据BSC链的盈利，将钱打给用户\n*/\ncontract BLinkWinkDividend is FinanceAdmin {\n    using SafeMath for uint256;\n\n    mapping (address => bool) public safeBetContracts;\n    mapping (uint256 => bool) public confirmedTxMap;\n\n    constructor() public {\n        addrAdmin = msg.sender;\n    }\n\n    function() external payable {\n\n    }\n\n    modifier whenNotPaused() {\n        require(!isPaused);\n        _;\n    }\n\n    function setSafeContract(address _actionAddr, bool _useful) external onlyAdmin {\n        safeBetContracts[_actionAddr] = _useful;\n    }\n\n    /*\n        后台获取本合约的余额，然后根据用户抵押的数量来进行计算给用户分红的数量,调用合约完成分红\n    */\n    function dividendToUser(address to,address[] memory tokenAddrs, uint256[] memory _tokenValues,uint256 _sysTxId){\n        require(safeBetContracts[msg.sender]);\n        require(!confirmedTxMap[_sysTxId]);\n        confirmedTxMap[_sysTxId] = true;\n        to.transferAll(tokenAddrs, _tokenValues);\n    }\n\n}\n",
  "sourcePath": "/Users/gordon/bian/dapp/dice/contracts/BLinkWinkDividend.sol",
  "compiler": {
    "name": "solc",
    "version": "0.4.25+commit.59dbf8f1.Emscripten.clang"
  },
  "schemaVersion": "3.2.0",
  "updatedAt": "2020-09-27T09:48:32.751Z",
  "devdoc": {
    "methods": {}
  },
  "userdoc": {
    "methods": {}
  }
}