{
  "contractName": "BLinkStaker",
  "abi": [
    {
      "constant": true,
      "inputs": [
        {
          "name": "",
          "type": "address"
        }
      ],
      "name": "playerToIndexMap",
      "outputs": [
        {
          "name": "",
          "type": "uint256"
        }
      ],
      "payable": false,
      "stateMutability": "view",
      "type": "function"
    },
    {
      "constant": true,
      "inputs": [],
      "name": "operator",
      "outputs": [
        {
          "name": "",
          "type": "address"
        }
      ],
      "payable": false,
      "stateMutability": "view",
      "type": "function"
    },
    {
      "constant": true,
      "inputs": [
        {
          "name": "",
          "type": "uint256"
        }
      ],
      "name": "playerStakeArray",
      "outputs": [
        {
          "name": "",
          "type": "uint256"
        }
      ],
      "payable": false,
      "stateMutability": "view",
      "type": "function"
    },
    {
      "constant": false,
      "inputs": [
        {
          "name": "_newAdmin",
          "type": "address"
        }
      ],
      "name": "setAdmin",
      "outputs": [],
      "payable": false,
      "stateMutability": "nonpayable",
      "type": "function"
    },
    {
      "constant": true,
      "inputs": [
        {
          "name": "",
          "type": "uint256"
        }
      ],
      "name": "indexToPlayerMap",
      "outputs": [
        {
          "name": "",
          "type": "address"
        }
      ],
      "payable": false,
      "stateMutability": "view",
      "type": "function"
    },
    {
      "constant": true,
      "inputs": [],
      "name": "unfreezingBalance",
      "outputs": [
        {
          "name": "",
          "type": "uint256"
        }
      ],
      "payable": false,
      "stateMutability": "view",
      "type": "function"
    },
    {
      "constant": true,
      "inputs": [],
      "name": "stakeCd",
      "outputs": [
        {
          "name": "",
          "type": "uint256"
        }
      ],
      "payable": false,
      "stateMutability": "view",
      "type": "function"
    },
    {
      "constant": true,
      "inputs": [],
      "name": "isPaused",
      "outputs": [
        {
          "name": "",
          "type": "bool"
        }
      ],
      "payable": false,
      "stateMutability": "view",
      "type": "function"
    },
    {
      "constant": false,
      "inputs": [
        {
          "name": "_addr",
          "type": "address"
        }
      ],
      "name": "setOperator",
      "outputs": [],
      "payable": false,
      "stateMutability": "nonpayable",
      "type": "function"
    },
    {
      "constant": false,
      "inputs": [
        {
          "name": "_pause",
          "type": "bool"
        }
      ],
      "name": "setPause",
      "outputs": [],
      "payable": false,
      "stateMutability": "nonpayable",
      "type": "function"
    },
    {
      "constant": true,
      "inputs": [],
      "name": "addrAdmin",
      "outputs": [
        {
          "name": "",
          "type": "address"
        }
      ],
      "payable": false,
      "stateMutability": "view",
      "type": "function"
    },
    {
      "constant": true,
      "inputs": [],
      "name": "addrOperator",
      "outputs": [
        {
          "name": "",
          "type": "address"
        }
      ],
      "payable": false,
      "stateMutability": "view",
      "type": "function"
    },
    {
      "constant": true,
      "inputs": [
        {
          "name": "",
          "type": "address"
        }
      ],
      "name": "pauseControllerMap",
      "outputs": [
        {
          "name": "",
          "type": "bool"
        }
      ],
      "payable": false,
      "stateMutability": "view",
      "type": "function"
    },
    {
      "inputs": [],
      "payable": false,
      "stateMutability": "nonpayable",
      "type": "constructor"
    },
    {
      "anonymous": false,
      "inputs": [
        {
          "indexed": true,
          "name": "_owner",
          "type": "address"
        },
        {
          "indexed": false,
          "name": "_amount",
          "type": "uint256"
        },
        {
          "indexed": false,
          "name": "_blinkTotal",
          "type": "uint256"
        }
      ],
      "name": "StakeBLink",
      "type": "event"
    },
    {
      "anonymous": false,
      "inputs": [
        {
          "indexed": true,
          "name": "_owner",
          "type": "address"
        },
        {
          "indexed": false,
          "name": "_oldUnfreezingAmount",
          "type": "uint256"
        },
        {
          "indexed": false,
          "name": "_newUnfreezingAmount",
          "type": "uint256"
        },
        {
          "indexed": false,
          "name": "_leftAmount",
          "type": "uint256"
        },
        {
          "indexed": false,
          "name": "_tmFreeze",
          "type": "uint256"
        }
      ],
      "name": "UnstakeBLink",
      "type": "event"
    },
    {
      "anonymous": false,
      "inputs": [
        {
          "indexed": true,
          "name": "_owner",
          "type": "address"
        },
        {
          "indexed": false,
          "name": "_cancelAmount",
          "type": "uint256"
        },
        {
          "indexed": false,
          "name": "_total",
          "type": "uint256"
        }
      ],
      "name": "UnstakeBLinkCancel",
      "type": "event"
    },
    {
      "anonymous": false,
      "inputs": [
        {
          "indexed": true,
          "name": "_owner",
          "type": "address"
        },
        {
          "indexed": false,
          "name": "_amount",
          "type": "uint256"
        }
      ],
      "name": "WithdrawUnstakeBLink",
      "type": "event"
    },
    {
      "constant": false,
      "inputs": [
        {
          "name": "_addr",
          "type": "address"
        }
      ],
      "name": "setAddrOperator",
      "outputs": [],
      "payable": false,
      "stateMutability": "nonpayable",
      "type": "function"
    },
    {
      "constant": false,
      "inputs": [
        {
          "name": "_addr",
          "type": "address"
        }
      ],
      "name": "setBLinkToken",
      "outputs": [],
      "payable": false,
      "stateMutability": "nonpayable",
      "type": "function"
    },
    {
      "constant": false,
      "inputs": [
        {
          "name": "_addr",
          "type": "address"
        }
      ],
      "name": "setDevBLink",
      "outputs": [],
      "payable": false,
      "stateMutability": "nonpayable",
      "type": "function"
    },
    {
      "constant": false,
      "inputs": [
        {
          "name": "_cd",
          "type": "uint256"
        }
      ],
      "name": "setStakeCd",
      "outputs": [],
      "payable": false,
      "stateMutability": "nonpayable",
      "type": "function"
    },
    {
      "constant": true,
      "inputs": [],
      "name": "getParam",
      "outputs": [
        {
          "name": "_blinkToken",
          "type": "address"
        },
        {
          "name": "_devBLink",
          "type": "address"
        }
      ],
      "payable": false,
      "stateMutability": "view",
      "type": "function"
    },
    {
      "constant": false,
      "inputs": [
        {
          "name": "_addr",
          "type": "address"
        },
        {
          "name": "_useful",
          "type": "bool"
        }
      ],
      "name": "setPauseController",
      "outputs": [],
      "payable": false,
      "stateMutability": "nonpayable",
      "type": "function"
    },
    {
      "constant": false,
      "inputs": [
        {
          "name": "_pause",
          "type": "bool"
        }
      ],
      "name": "setStakePause",
      "outputs": [],
      "payable": false,
      "stateMutability": "nonpayable",
      "type": "function"
    },
    {
      "constant": true,
      "inputs": [],
      "name": "isStakePaused",
      "outputs": [
        {
          "name": "",
          "type": "bool"
        }
      ],
      "payable": false,
      "stateMutability": "view",
      "type": "function"
    },
    {
      "constant": true,
      "inputs": [],
      "name": "getTotalStakeBLink",
      "outputs": [
        {
          "name": "devAmount",
          "type": "uint256"
        },
        {
          "name": "totalAmount",
          "type": "uint256"
        }
      ],
      "payable": false,
      "stateMutability": "view",
      "type": "function"
    },
    {
      "constant": true,
      "inputs": [],
      "name": "getMaxHolderIndex",
      "outputs": [
        {
          "name": "",
          "type": "uint256"
        }
      ],
      "payable": false,
      "stateMutability": "view",
      "type": "function"
    },
    {
      "constant": true,
      "inputs": [],
      "name": "getDevBLinkAmount",
      "outputs": [
        {
          "name": "",
          "type": "uint256"
        }
      ],
      "payable": false,
      "stateMutability": "view",
      "type": "function"
    },
    {
      "constant": true,
      "inputs": [
        {
          "name": "_owner",
          "type": "address"
        }
      ],
      "name": "getStakeInfoByAddress",
      "outputs": [
        {
          "name": "owner",
          "type": "address"
        },
        {
          "name": "stakeAmount",
          "type": "uint256"
        },
        {
          "name": "tmUnfreeze",
          "type": "uint256"
        },
        {
          "name": "unfreezingAmount",
          "type": "uint256"
        }
      ],
      "payable": false,
      "stateMutability": "view",
      "type": "function"
    },
    {
      "constant": true,
      "inputs": [
        {
          "name": "_index",
          "type": "uint256"
        }
      ],
      "name": "getStakeAmountByIndex",
      "outputs": [
        {
          "name": "owner",
          "type": "address"
        },
        {
          "name": "amount",
          "type": "uint256"
        }
      ],
      "payable": false,
      "stateMutability": "view",
      "type": "function"
    },
    {
      "constant": false,
      "inputs": [
        {
          "name": "_from",
          "type": "address"
        },
        {
          "name": "_value",
          "type": "uint256"
        },
        {
          "name": "_extraData",
          "type": "bytes"
        }
      ],
      "name": "receiveApproval",
      "outputs": [],
      "payable": false,
      "stateMutability": "nonpayable",
      "type": "function"
    },
    {
      "constant": false,
      "inputs": [
        {
          "name": "_amount",
          "type": "uint256"
        }
      ],
      "name": "Unfreeze",
      "outputs": [],
      "payable": false,
      "stateMutability": "nonpayable",
      "type": "function"
    },
    {
      "constant": false,
      "inputs": [],
      "name": "CancelUnfreeze",
      "outputs": [],
      "payable": false,
      "stateMutability": "nonpayable",
      "type": "function"
    },
    {
      "constant": false,
      "inputs": [],
      "name": "WithdrawUnfreeze",
      "outputs": [],
      "payable": false,
      "stateMutability": "nonpayable",
      "type": "function"
    },
    {
      "constant": false,
      "inputs": [
        {
          "name": "_player",
          "type": "address"
        }
      ],
      "name": "withdrawUnfreezeForece",
      "outputs": [],
      "payable": false,
      "stateMutability": "nonpayable",
      "type": "function"
    },
    {
      "constant": false,
      "inputs": [
        {
          "name": "_index",
          "type": "uint256"
        }
      ],
      "name": "unfreezeForece",
      "outputs": [],
      "payable": false,
      "stateMutability": "nonpayable",
      "type": "function"
    }
  ],
  "bytecode": "0x608060405262015180600a553480156200001857600080fd5b5060008060006101000a81548160ff02191690831515021790555033600060016101000a81548173ffffffffffffffffffffffffffffffffffffffff021916908373ffffffffffffffffffffffffffffffffffffffff16021790555033600060016101000a81548173ffffffffffffffffffffffffffffffffffffffff021916908373ffffffffffffffffffffffffffffffffffffffff16021790555033600960006101000a81548173ffffffffffffffffffffffffffffffffffffffff021916908373ffffffffffffffffffffffffffffffffffffffff160217905550600160068181805490500191508162000110919062000117565b506200016e565b815481835581811115620001415781836000526020600020918201910162000140919062000146565b5b505050565b6200016b91905b80821115620001675760008160009055506001016200014d565b5090565b90565b612b48806200017e6000396000f300608060405260043610610196576000357c0100000000000000000000000000000000000000000000000000000000900463ffffffff168063274b43791461019b5780632a2465fc146101c65780632dfbc20214610250578063438f32e4146102a7578063457470ff146102d25780635391bdd3146102ff57806353b6089e14610342578063570ca735146103745780635d519e89146103cb578063677ca94014610463578063704b6c02146104a457806374347d94146104e75780638d8a9e511461055b578063941e8e4d1461058857806398da2f31146105b7578063a2d5785314610624578063a3f7f6ae14610689578063abc5952a146106b4578063b187bd26146106df578063b3ab15fb1461070e578063bc658e3414610751578063bedb86fb14610768578063bfae2f0e14610797578063cf51096b146107ee578063d11574c914610845578063d30c915814610888578063e122b3211461089f578063e2babfd5146108e2578063e2c60c281461090f578063f43b93d91461093e578063f9fffde61461098d578063fdc57967146109d0575b600080fd5b3480156101a757600080fd5b506101b0610a2b565b6040518082815260200191505060405180910390f35b3480156101d257600080fd5b506101db610af3565b604051808373ffffffffffffffffffffffffffffffffffffffff1673ffffffffffffffffffffffffffffffffffffffff1681526020018273ffffffffffffffffffffffffffffffffffffffff1673ffffffffffffffffffffffffffffffffffffffff1681526020019250505060405180910390f35b34801561025c57600080fd5b50610291600480360381019080803573ffffffffffffffffffffffffffffffffffffffff169060200190929190505050610b44565b6040518082815260200191505060405180910390f35b3480156102b357600080fd5b506102bc610b5c565b6040518082815260200191505060405180910390f35b3480156102de57600080fd5b506102fd60048036038101908080359060200190929190505050610b6c565b005b34801561030b57600080fd5b50610340600480360381019080803573ffffffffffffffffffffffffffffffffffffffff169060200190929190505050610fac565b005b34801561034e57600080fd5b506103576110f1565b604051808381526020018281526020019250505060405180910390f35b34801561038057600080fd5b506103896112de565b604051808273ffffffffffffffffffffffffffffffffffffffff1673ffffffffffffffffffffffffffffffffffffffff16815260200191505060405180910390f35b3480156103d757600080fd5b5061040c600480360381019080803573ffffffffffffffffffffffffffffffffffffffff169060200190929190505050611304565b604051808573ffffffffffffffffffffffffffffffffffffffff1673ffffffffffffffffffffffffffffffffffffffff16815260200184815260200183815260200182815260200194505050505060405180910390f35b34801561046f57600080fd5b5061048e6004803603810190808035906020019092919050505061143a565b6040518082815260200191505060405180910390f35b3480156104b057600080fd5b506104e5600480360381019080803573ffffffffffffffffffffffffffffffffffffffff16906020019092919050505061145d565b005b3480156104f357600080fd5b506105126004803603810190808035906020019092919050505061160b565b604051808373ffffffffffffffffffffffffffffffffffffffff1673ffffffffffffffffffffffffffffffffffffffff1681526020018281526020019250505060405180910390f35b34801561056757600080fd5b5061058660048036038101908080359060200190929190505050611691565b005b34801561059457600080fd5b506105b560048036038101908080351515906020019092919050505061177f565b005b3480156105c357600080fd5b506105e26004803603810190808035906020019092919050505061184b565b604051808273ffffffffffffffffffffffffffffffffffffffff1673ffffffffffffffffffffffffffffffffffffffff16815260200191505060405180910390f35b34801561063057600080fd5b50610687600480360381019080803573ffffffffffffffffffffffffffffffffffffffff1690602001909291908035906020019092919080359060200190820180359060200191909192939192939050505061187e565b005b34801561069557600080fd5b5061069e611ab3565b6040518082815260200191505060405180910390f35b3480156106c057600080fd5b506106c9611ab9565b6040518082815260200191505060405180910390f35b3480156106eb57600080fd5b506106f4611abf565b604051808215151515815260200191505060405180910390f35b34801561071a57600080fd5b5061074f600480360381019080803573ffffffffffffffffffffffffffffffffffffffff169060200190929190505050611ad1565b005b34801561075d57600080fd5b50610766611c7f565b005b34801561077457600080fd5b50610795600480360381019080803515159060200190929190505050611c8a565b005b3480156107a357600080fd5b506107ac611d6b565b604051808273ffffffffffffffffffffffffffffffffffffffff1673ffffffffffffffffffffffffffffffffffffffff16815260200191505060405180910390f35b3480156107fa57600080fd5b50610803611d91565b604051808273ffffffffffffffffffffffffffffffffffffffff1673ffffffffffffffffffffffffffffffffffffffff16815260200191505060405180910390f35b34801561085157600080fd5b50610886600480360381019080803573ffffffffffffffffffffffffffffffffffffffff169060200190929190505050611db7565b005b34801561089457600080fd5b5061089d611efc565b005b3480156108ab57600080fd5b506108e0600480360381019080803573ffffffffffffffffffffffffffffffffffffffff1690602001909291905050506120eb565b005b3480156108ee57600080fd5b5061090d600480360381019080803590602001909291905050506121e7565b005b34801561091b57600080fd5b506109246123ea565b604051808215151515815260200191505060405180910390f35b34801561094a57600080fd5b5061098b600480360381019080803573ffffffffffffffffffffffffffffffffffffffff169060200190929190803515159060200190929190505050612400565b005b34801561099957600080fd5b506109ce600480360381019080803573ffffffffffffffffffffffffffffffffffffffff16906020019092919050505061255c565b005b3480156109dc57600080fd5b50610a11600480360381019080803573ffffffffffffffffffffffffffffffffffffffff1690602001909291905050506126a1565b604051808215151515815260200191505060405180910390f35b6000600860009054906101000a900473ffffffffffffffffffffffffffffffffffffffff1673ffffffffffffffffffffffffffffffffffffffff1663274b43796040518163ffffffff167c0100000000000000000000000000000000000000000000000000000000028152600401602060405180830381600087803b158015610ab357600080fd5b505af1158015610ac7573d6000803e3d6000fd5b505050506040513d6020811015610add57600080fd5b8101908080519060200190929190505050905090565b600080600760009054906101000a900473ffffffffffffffffffffffffffffffffffffffff169150600860009054906101000a900473ffffffffffffffffffffffffffffffffffffffff1690509091565b60036020528060005260406000206000915090505481565b6000600160068054905003905090565b60008060008060008060009054906101000a900460ff16151515610b8f57600080fd5b600060019054906101000a900473ffffffffffffffffffffffffffffffffffffffff1673ffffffffffffffffffffffffffffffffffffffff163373ffffffffffffffffffffffffffffffffffffffff161480610c385750600960009054906101000a900473ffffffffffffffffffffffffffffffffffffffff1673ffffffffffffffffffffffffffffffffffffffff163373ffffffffffffffffffffffffffffffffffffffff16145b1515610c4357600080fd5b600086118015610c57575060068054905086105b1515610c6257600080fd5b600686815481101515610c7157fe5b906000526020600020015494506004600087815260200190815260200160002060009054906101000a900473ffffffffffffffffffffffffffffffffffffffff169350600073ffffffffffffffffffffffffffffffffffffffff168473ffffffffffffffffffffffffffffffffffffffff16141515610fa457600560008573ffffffffffffffffffffffffffffffffffffffff1673ffffffffffffffffffffffffffffffffffffffff16815260200190815260200160002054925060206000199060020a9004831691508490506000821115610dba5781600b5410151515610d5857600080fd5b81600b600082825403925050819055506000600560008673ffffffffffffffffffffffffffffffffffffffff1673ffffffffffffffffffffffffffffffffffffffff16815260200190815260200160002081905550610db785836126c1565b90505b6000811115610fa3578373ffffffffffffffffffffffffffffffffffffffff167f9147d15b8b6bf84acf3912782cc8021ab485835c5a96e6f87a9eff2f3371ca7c83836000426040518085815260200184815260200183815260200182815260200194505050505060405180910390a26000600687815481101515610e3b57fe5b9060005260206000200181905550600760009054906101000a900473ffffffffffffffffffffffffffffffffffffffff1673ffffffffffffffffffffffffffffffffffffffff1663a9059cbb85836040518363ffffffff167c0100000000000000000000000000000000000000000000000000000000028152600401808373ffffffffffffffffffffffffffffffffffffffff1673ffffffffffffffffffffffffffffffffffffffff16815260200182815260200192505050602060405180830381600087803b158015610f0e57600080fd5b505af1158015610f22573d6000803e3d6000fd5b505050506040513d6020811015610f3857600080fd5b81019080805190602001909291905050501515610f5457600080fd5b8373ffffffffffffffffffffffffffffffffffffffff167f34b8cb007d6d09f16b79ea7bcf1053830b49b5f59f8eb314511355f67bd82fee826040518082815260200191505060405180910390a25b5b505050505050565b600060019054906101000a900473ffffffffffffffffffffffffffffffffffffffff1673ffffffffffffffffffffffffffffffffffffffff163373ffffffffffffffffffffffffffffffffffffffff16141515611071576040517f08c379a00000000000000000000000000000000000000000000000000000000081526004018080602001828103825260098152602001807f6e6f742061646d696e000000000000000000000000000000000000000000000081525060200191505060405180910390fd5b600073ffffffffffffffffffffffffffffffffffffffff168173ffffffffffffffffffffffffffffffffffffffff16141515156110ad57600080fd5b80600860006101000a81548173ffffffffffffffffffffffffffffffffffffffff021916908373ffffffffffffffffffffffffffffffffffffffff16021790555050565b600080600080600860009054906101000a900473ffffffffffffffffffffffffffffffffffffffff1673ffffffffffffffffffffffffffffffffffffffff1663274b43796040518163ffffffff167c0100000000000000000000000000000000000000000000000000000000028152600401602060405180830381600087803b15801561117d57600080fd5b505af1158015611191573d6000803e3d6000fd5b505050506040513d60208110156111a757600080fd5b81019080805190602001909291905050509350600760009054906101000a900473ffffffffffffffffffffffffffffffffffffffff1673ffffffffffffffffffffffffffffffffffffffff166370a08231306040518263ffffffff167c0100000000000000000000000000000000000000000000000000000000028152600401808273ffffffffffffffffffffffffffffffffffffffff1673ffffffffffffffffffffffffffffffffffffffff168152602001915050602060405180830381600087803b15801561127757600080fd5b505af115801561128b573d6000803e3d6000fd5b505050506040513d60208110156112a157600080fd5b810190808051906020019092919050505091506112be82856126c1565b9050600b5481101515156112d157600080fd5b600b548103925050509091565b600160009054906101000a900473ffffffffffffffffffffffffffffffffffffffff1681565b600080600080600080600073ffffffffffffffffffffffffffffffffffffffff168773ffffffffffffffffffffffffffffffffffffffff161415151561134957600080fd5b869550600360008873ffffffffffffffffffffffffffffffffffffffff1673ffffffffffffffffffffffffffffffffffffffff1681526020019081526020016000205491506000821180156113a2575060068054905082105b15611424576006828154811015156113b657fe5b90600052602060002001549450600560008873ffffffffffffffffffffffffffffffffffffffff1673ffffffffffffffffffffffffffffffffffffffff16815260200190815260200160002054905060206000199060020a90048116925060e0819060020a90049350611431565b6000945060009350600092505b50509193509193565b60068181548110151561144957fe5b906000526020600020016000915090505481565b600060019054906101000a900473ffffffffffffffffffffffffffffffffffffffff1673ffffffffffffffffffffffffffffffffffffffff163373ffffffffffffffffffffffffffffffffffffffff16141515611522576040517f08c379a00000000000000000000000000000000000000000000000000000000081526004018080602001828103825260098152602001807f6e6f742061646d696e000000000000000000000000000000000000000000000081525060200191505060405180910390fd5b600073ffffffffffffffffffffffffffffffffffffffff168173ffffffffffffffffffffffffffffffffffffffff16141515156115c7576040517f08c379a000000000000000000000000000000000000000000000000000000000815260040180806020018281038252601c8152602001807f5f6e657741646d696e2063616e2774206265206164647265737320300000000081525060200191505060405180910390fd5b80600060016101000a81548173ffffffffffffffffffffffffffffffffffffffff021916908373ffffffffffffffffffffffffffffffffffffffff16021790555050565b60008060008084118015611623575060068054905084105b156116825760068481548110151561163757fe5b906000526020600020015490506004600085815260200190815260200160002060009054906101000a900473ffffffffffffffffffffffffffffffffffffffff16925080915061168b565b60009250600091505b50915091565b600060019054906101000a900473ffffffffffffffffffffffffffffffffffffffff1673ffffffffffffffffffffffffffffffffffffffff163373ffffffffffffffffffffffffffffffffffffffff16141515611756576040517f08c379a00000000000000000000000000000000000000000000000000000000081526004018080602001828103825260098152602001807f6e6f742061646d696e000000000000000000000000000000000000000000000081525060200191505060405180910390fd5b6001811015801561176a57506283d6008111155b151561177557600080fd5b80600a8190555050565b600260003373ffffffffffffffffffffffffffffffffffffffff1673ffffffffffffffffffffffffffffffffffffffff16815260200190815260200160002060009054906101000a900460ff16806118245750600060019054906101000a900473ffffffffffffffffffffffffffffffffffffffff1673ffffffffffffffffffffffffffffffffffffffff163373ffffffffffffffffffffffffffffffffffffffff16145b151561182f57600080fd5b806000806101000a81548160ff02191690831515021790555050565b60046020528060005260406000206000915054906101000a900473ffffffffffffffffffffffffffffffffffffffff1681565b60008060009054906101000a900460ff1615151561189b57600080fd5b600760009054906101000a900473ffffffffffffffffffffffffffffffffffffffff1673ffffffffffffffffffffffffffffffffffffffff163373ffffffffffffffffffffffffffffffffffffffff161480156118fb5750620f42408410155b151561190657600080fd5b600760009054906101000a900473ffffffffffffffffffffffffffffffffffffffff1673ffffffffffffffffffffffffffffffffffffffff166323b872dd8630876040518463ffffffff167c0100000000000000000000000000000000000000000000000000000000028152600401808473ffffffffffffffffffffffffffffffffffffffff1673ffffffffffffffffffffffffffffffffffffffff1681526020018373ffffffffffffffffffffffffffffffffffffffff1673ffffffffffffffffffffffffffffffffffffffff1681526020018281526020019350505050602060405180830381600087803b1580156119ff57600080fd5b505af1158015611a13573d6000803e3d6000fd5b505050506040513d6020811015611a2957600080fd5b81019080805190602001909291905050501515611a4557600080fd5b600360008673ffffffffffffffffffffffffffffffffffffffff1673ffffffffffffffffffffffffffffffffffffffff168152602001908152602001600020549050600081141515611aa157611a9c8186866126e2565b611aac565b611aab85856127b2565b5b5050505050565b600b5481565b600a5481565b6000809054906101000a900460ff1681565b600060019054906101000a900473ffffffffffffffffffffffffffffffffffffffff1673ffffffffffffffffffffffffffffffffffffffff163373ffffffffffffffffffffffffffffffffffffffff16141515611b96576040517f08c379a00000000000000000000000000000000000000000000000000000000081526004018080602001828103825260098152602001807f6e6f742061646d696e000000000000000000000000000000000000000000000081525060200191505060405180910390fd5b600073ffffffffffffffffffffffffffffffffffffffff168173ffffffffffffffffffffffffffffffffffffffff1614151515611c3b576040517f08c379a00000000000000000000000000000000000000000000000000000000081526004018080602001828103825260188152602001807f5f616464722063616e277420626520616464726573732030000000000000000081525060200191505060405180910390fd5b80600160006101000a81548173ffffffffffffffffffffffffffffffffffffffff021916908373ffffffffffffffffffffffffffffffffffffffff16021790555050565b611c88336128de565b565b600060019054906101000a900473ffffffffffffffffffffffffffffffffffffffff1673ffffffffffffffffffffffffffffffffffffffff163373ffffffffffffffffffffffffffffffffffffffff16141515611d4f576040517f08c379a00000000000000000000000000000000000000000000000000000000081526004018080602001828103825260098152602001807f6e6f742061646d696e000000000000000000000000000000000000000000000081525060200191505060405180910390fd5b806000806101000a81548160ff02191690831515021790555050565b600060019054906101000a900473ffffffffffffffffffffffffffffffffffffffff1681565b600960009054906101000a900473ffffffffffffffffffffffffffffffffffffffff1681565b600060019054906101000a900473ffffffffffffffffffffffffffffffffffffffff1673ffffffffffffffffffffffffffffffffffffffff163373ffffffffffffffffffffffffffffffffffffffff16141515611e7c576040517f08c379a00000000000000000000000000000000000000000000000000000000081526004018080602001828103825260098152602001807f6e6f742061646d696e000000000000000000000000000000000000000000000081525060200191505060405180910390fd5b600073ffffffffffffffffffffffffffffffffffffffff168173ffffffffffffffffffffffffffffffffffffffff1614151515611eb857600080fd5b80600760006101000a81548173ffffffffffffffffffffffffffffffffffffffff021916908373ffffffffffffffffffffffffffffffffffffffff16021790555050565b6000806000806000806000809054906101000a900460ff16151515611f2057600080fd5b339550600560008773ffffffffffffffffffffffffffffffffffffffff1673ffffffffffffffffffffffffffffffffffffffff16815260200190815260200160002054945060206000199060020a900485169350600084118015611f86575083600b5410155b1515611f9157600080fd5b600360008773ffffffffffffffffffffffffffffffffffffffff1673ffffffffffffffffffffffffffffffffffffffff168152602001908152602001600020549250600083118015611fe7575060068054905083105b1515611ff257600080fd5b60068381548110151561200157fe5b9060005260206000200154915061201882856126c1565b905083600b600082825403925050819055506000600560008873ffffffffffffffffffffffffffffffffffffffff1673ffffffffffffffffffffffffffffffffffffffff168152602001908152602001600020819055508060068481548110151561207f57fe5b90600052602060002001819055508573ffffffffffffffffffffffffffffffffffffffff167f8c485c7b1605070c11d6cce6c98d912a22913faeb88cf6e40c9c0fa6979b87ef8583604051808381526020018281526020019250505060405180910390a2505050505050565b600060019054906101000a900473ffffffffffffffffffffffffffffffffffffffff1673ffffffffffffffffffffffffffffffffffffffff163373ffffffffffffffffffffffffffffffffffffffff1614806121945750600960009054906101000a900473ffffffffffffffffffffffffffffffffffffffff1673ffffffffffffffffffffffffffffffffffffffff163373ffffffffffffffffffffffffffffffffffffffff16145b151561219f57600080fd5b600073ffffffffffffffffffffffffffffffffffffffff168173ffffffffffffffffffffffffffffffffffffffff16141515156121db57600080fd5b6121e4816128de565b50565b60008060008060008060008060009054906101000a900460ff1615151561220d57600080fd5b339650600360008873ffffffffffffffffffffffffffffffffffffffff1673ffffffffffffffffffffffffffffffffffffffff168152602001908152602001600020549550600086118015612266575060068054905086105b151561227157600080fd5b60068681548110151561228057fe5b9060005260206000200154945087851015151561229c57600080fd5b600560008873ffffffffffffffffffffffffffffffffffffffff1673ffffffffffffffffffffffffffffffffffffffff16815260200190815260200160002054935060206000199060020a9004841692506122f783896126c1565b9150600a544201905087850360068781548110151561231257fe5b9060005260206000200181905550808217600560008973ffffffffffffffffffffffffffffffffffffffff1673ffffffffffffffffffffffffffffffffffffffff16815260200190815260200160002081905550612372600b54896126c1565b600b819055508673ffffffffffffffffffffffffffffffffffffffff167f9147d15b8b6bf84acf3912782cc8021ab485835c5a96e6f87a9eff2f3371ca7c84848b8903856040518085815260200184815260200183815260200182815260200194505050505060405180910390a25050505050505050565b60008060009054906101000a900460ff16905090565b600060019054906101000a900473ffffffffffffffffffffffffffffffffffffffff1673ffffffffffffffffffffffffffffffffffffffff163373ffffffffffffffffffffffffffffffffffffffff161415156124c5576040517f08c379a00000000000000000000000000000000000000000000000000000000081526004018080602001828103825260098152602001807f6e6f742061646d696e000000000000000000000000000000000000000000000081525060200191505060405180910390fd5b600073ffffffffffffffffffffffffffffffffffffffff168273ffffffffffffffffffffffffffffffffffffffff161415151561250157600080fd5b80600260008473ffffffffffffffffffffffffffffffffffffffff1673ffffffffffffffffffffffffffffffffffffffff16815260200190815260200160002060006101000a81548160ff0219169083151502179055505050565b600060019054906101000a900473ffffffffffffffffffffffffffffffffffffffff1673ffffffffffffffffffffffffffffffffffffffff163373ffffffffffffffffffffffffffffffffffffffff16141515612621576040517f08c379a00000000000000000000000000000000000000000000000000000000081526004018080602001828103825260098152602001807f6e6f742061646d696e000000000000000000000000000000000000000000000081525060200191505060405180910390fd5b600073ffffffffffffffffffffffffffffffffffffffff168173ffffffffffffffffffffffffffffffffffffffff161415151561265d57600080fd5b80600960006101000a81548173ffffffffffffffffffffffffffffffffffffffff021916908373ffffffffffffffffffffffffffffffffffffffff16021790555050565b60026020528060005260406000206000915054906101000a900460ff1681565b60008082840190508381101515156126d857600080fd5b8091505092915050565b600080600680549050851015156126f857600080fd5b60068581548110151561270757fe5b90600052602060002001549150828201905082811015151561272857600080fd5b81811015151561273757600080fd5b8060068681548110151561274757fe5b90600052602060002001819055508373ffffffffffffffffffffffffffffffffffffffff167f6013f951e0f4a8acd00f725d774aa1e5bd8fde1f05cec2d0d00c45be224f92df8483604051808381526020018281526020019250505060405180910390a25050505050565b6000819050600680549050600360008573ffffffffffffffffffffffffffffffffffffffff1673ffffffffffffffffffffffffffffffffffffffff168152602001908152602001600020819055508260046000600680549050815260200190815260200160002060006101000a81548173ffffffffffffffffffffffffffffffffffffffff021916908373ffffffffffffffffffffffffffffffffffffffff16021790555060068190806001815401808255809150509060018203906000526020600020016000909192909190915055508273ffffffffffffffffffffffffffffffffffffffff167f6013f951e0f4a8acd00f725d774aa1e5bd8fde1f05cec2d0d00c45be224f92df8384604051808381526020018281526020019250505060405180910390a2505050565b6000806000600560008573ffffffffffffffffffffffffffffffffffffffff1673ffffffffffffffffffffffffffffffffffffffff16815260200190815260200160002054925060206000199060020a90048316915060e0839060020a9004905060008211801561294f5750428111155b801561295d575081600b5410155b151561296857600080fd5b81600b600082825403925050819055506000600560008673ffffffffffffffffffffffffffffffffffffffff1673ffffffffffffffffffffffffffffffffffffffff16815260200190815260200160002081905550600760009054906101000a900473ffffffffffffffffffffffffffffffffffffffff1673ffffffffffffffffffffffffffffffffffffffff1663a9059cbb85846040518363ffffffff167c0100000000000000000000000000000000000000000000000000000000028152600401808373ffffffffffffffffffffffffffffffffffffffff1673ffffffffffffffffffffffffffffffffffffffff16815260200182815260200192505050602060405180830381600087803b158015612a8257600080fd5b505af1158015612a96573d6000803e3d6000fd5b505050506040513d6020811015612aac57600080fd5b81019080805190602001909291905050501515612ac857600080fd5b8373ffffffffffffffffffffffffffffffffffffffff167f34b8cb007d6d09f16b79ea7bcf1053830b49b5f59f8eb314511355f67bd82fee836040518082815260200191505060405180910390a2505050505600a165627a7a7230582075f0fbf16a8a2434c7abab53e3e87282c3131e76167cd99c0575f05c0031f5c90029",
  "source": "pragma solidity ^0.4.23;\n\nimport \"./BaseAdmin.sol\";\n\ninterface IDevBLink {\n    function getDevBLinkAmount() external view returns(uint256);\n}\n\ninterface IBLinkToken {\n    function balanceOf(address _from) external view returns(uint256);\n    function transfer(address _to, uint256 _value) external returns(bool);\n    function transferFrom(address _from, address _to, uint256 _value) external returns(bool);\n    function burn(uint256 _value) external returns (bool);\n}\n\ncontract BLinkStaker is BaseAdmin {\n    event StakeBLink(\n        address indexed _owner, \n        uint256 _amount,\n        uint256 _blinkTotal\n    );\n\n    event UnstakeBLink(\n        address indexed _owner, \n        uint256 _oldUnfreezingAmount,\n        uint256 _newUnfreezingAmount,\n        uint256 _leftAmount,\n        uint256 _tmFreeze\n    );\n\n    event UnstakeBLinkCancel(\n        address indexed _owner, \n        uint256 _cancelAmount,\n        uint256 _total\n    );\n\n    event WithdrawUnstakeBLink(\n        address indexed _owner, \n        uint256 _amount\n    );\n\n    mapping (address => bool) public pauseControllerMap;\n    mapping (address => uint256) public playerToIndexMap;\n    mapping (uint256 => address) public indexToPlayerMap;\n\n    /*\n        ,\n    */\n\n    // blink | \n    // time(32)|blinkAmount(28)\n    mapping (address => uint256) playerUnFreezeMap;\n\n    // blink\n    // blinkAmount\n    uint256[] public playerStakeArray;\n\n    uint constant TIME_MOVING=28*8;\n    uint256 constant CLEAN_TIME=(~uint256(0))>>4*8;\n\n    \n    IBLinkToken blinkToken;\n    IDevBLink devBLink;\n\n    address public addrOperator;\n    uint256 public stakeCd = 86400;\n    uint256 public unfreezingBalance;\n    \n    constructor() public {\n        addrAdmin = msg.sender;\n        addrOperator = msg.sender;\n        playerStakeArray.length += 1;//0\n    }\n\n    modifier whenNotPaused() {\n        require(!isPaused);\n        _;\n    }\n\n    function add(uint256 a, uint256 b) internal pure returns (uint256) {\n        uint256 c = a + b;\n        require(c >= a);\n        return c;\n    }\n\n    function setAddrOperator(address _addr) external onlyAdmin {\n        require(_addr != address(0));\n        addrOperator = _addr;\n    }\n\n    function setBLinkToken(address _addr) external onlyAdmin {\n        require(_addr != address(0));\n        blinkToken = IBLinkToken(_addr);\n    }\n\n    function setDevBLink(address _addr) external onlyAdmin {\n        require(_addr != address(0));\n        devBLink = IDevBLink(_addr);\n    } \n    \n    function setStakeCd(uint256 _cd) external onlyAdmin {\n        require(_cd >= 1 && _cd <= 8640000);\n        stakeCd = _cd;\n    }\n\n    function getParam() external view\n        returns(\n            address _blinkToken,\n            address _devBLink\n        )\n    {\n        _blinkToken = address(blinkToken);\n        _devBLink = address(devBLink);\n    }\n\n    function setPauseController(address _addr, bool _useful) external onlyAdmin {\n        require(_addr != address(0));\n        pauseControllerMap[_addr] = _useful;\n    }\n\n    function setStakePause(bool _pause) external {\n        require(pauseControllerMap[msg.sender] || msg.sender == addrAdmin);\n        isPaused = _pause;\n    }\n\n    function isStakePaused() external view returns(bool) {\n        return isPaused;\n    }\n\n    function getTotalStakeBLink() external view returns(uint256 devAmount, uint256 totalAmount) {\n        devAmount = devBLink.getDevBLinkAmount();\n        uint256 stakerBLinkBalance = blinkToken.balanceOf(address(this));\n        uint256 preTotalAmount = add(stakerBLinkBalance, devAmount);\n        require(preTotalAmount >= unfreezingBalance);\n        totalAmount = preTotalAmount - unfreezingBalance;\n    }\n\n    function getMaxHolderIndex() external view returns(uint256) {\n        return playerStakeArray.length - 1;\n    }\n\n    function getDevBLinkAmount() external view returns(uint256) {\n        return devBLink.getDevBLinkAmount();\n    }\n\n    function getStakeInfoByAddress(address _owner)\n        external \n        view \n        returns(\n            address owner,\n            uint256 stakeAmount,  // \n            uint256 tmUnfreeze,  // \n            uint256 unfreezingAmount // \n        )\n    {\n        require(_owner != address(0));\n        owner = _owner;\n        uint256 index = playerToIndexMap[_owner];\n        if (index > 0 && index < playerStakeArray.length) {\n            stakeAmount = playerStakeArray[index];\n            uint256 unfreezingVal = playerUnFreezeMap[_owner];\n            unfreezingAmount = unfreezingVal & CLEAN_TIME;\n            tmUnfreeze = unfreezingVal>>TIME_MOVING;\n        }else{\n            stakeAmount=0;\n            tmUnfreeze=0;\n            unfreezingAmount=0;\n        }\n    }\n\n    function getStakeAmountByIndex(uint256 _index)\n        external \n        view \n        returns(\n            address owner, \n            uint256 amount\n        ) \n    {\n        if (_index > 0 && _index < playerStakeArray.length) {\n            uint256 stakeVal = playerStakeArray[_index];\n            owner = indexToPlayerMap[_index];\n            amount = stakeVal;\n        } else {\n            owner = address(0);\n            amount = 0;\n        }\n    }\n\n    function _stakeFirst(address _from, uint256 _blinkAmount) internal {\n        uint256 stakeVal = _blinkAmount;\n        playerToIndexMap[_from] = playerStakeArray.length;\n        indexToPlayerMap[playerStakeArray.length]=_from;\n        playerStakeArray.push(stakeVal);\n\n        emit StakeBLink(_from, _blinkAmount, _blinkAmount);\n    }\n\n    function _stakeCommon(uint256 _index, address _from, uint256 _blinkAmount) internal {\n        require(_index < playerStakeArray.length);\n        uint256 stakeVal = playerStakeArray[_index];\n        uint256 blinkVal =  stakeVal + _blinkAmount;\n        require(blinkVal >= _blinkAmount);\n        require(blinkVal >= stakeVal);\n        playerStakeArray[_index] =  blinkVal;\n\n        emit StakeBLink(_from, _blinkAmount, blinkVal);\n    }\n\n    function receiveApproval(address _from, uint256 _value, bytes _extraData) external whenNotPaused {\n        require(msg.sender == address(blinkToken) && _value >= 1000000);\n        require(blinkToken.transferFrom(_from, address(this), _value));\n\n        uint256 index = playerToIndexMap[_from];\n        if (index != 0) {\n            _stakeCommon(index, _from, _value);\n        } else {\n            _stakeFirst(_from, _value);\n        }\n    }\n\n    /*\n        \n    */\n    function Unfreeze(uint256 _amount) external whenNotPaused {\n\n        address player = msg.sender;\n        uint256 index = playerToIndexMap[player];\n        require(index > 0 && index < playerStakeArray.length);\n\n        uint256 oldStakeVal = playerStakeArray[index];\n        require(oldStakeVal >= _amount);\n\n        uint256 unfreezingVal = playerUnFreezeMap[player];\n        uint256 unfreezingAmount = unfreezingVal & CLEAN_TIME;\n        uint256 newUnfreezingAmount = add(unfreezingAmount, _amount);\n\n        uint256 tmFreeze = (block.timestamp + stakeCd);\n\n        playerStakeArray[index] = oldStakeVal - _amount;\n        playerUnFreezeMap[player] = newUnfreezingAmount|tmFreeze;\n\n        unfreezingBalance = add(unfreezingBalance, _amount);\n\n        emit UnstakeBLink(player, unfreezingAmount, newUnfreezingAmount, oldStakeVal - _amount, tmFreeze);\n    }\n\n    /*\n        ---\n    */\n    function CancelUnfreeze() external whenNotPaused {\n        address player = msg.sender;\n\n        uint256 unfreezingVal = playerUnFreezeMap[player];\n        uint256 unfreezingAmount = unfreezingVal & CLEAN_TIME;\n        require(unfreezingAmount > 0 && unfreezingBalance >= unfreezingAmount);\n        \n        uint256 index = playerToIndexMap[player];\n        require(index > 0 && index < playerStakeArray.length);\n        uint256 stakeVal = playerStakeArray[index];\n\n        uint256 blinkVal = add(stakeVal, unfreezingAmount);\n\n        unfreezingBalance -= unfreezingAmount;\n        playerUnFreezeMap[player] = 0;\n        playerStakeArray[index] = blinkVal;\n\n        emit UnstakeBLinkCancel(player, unfreezingAmount, blinkVal);\n    }\n\n    /*\n        \n    */\n    function _withdrawUnfreeze(address _player) internal {\n        uint256 unfreezingVal = playerUnFreezeMap[_player];\n        uint256 unfreezingAmount = unfreezingVal & CLEAN_TIME;\n        uint256 tmFreeze = unfreezingVal >>TIME_MOVING;\n        require(unfreezingAmount > 0 && tmFreeze <= block.timestamp && unfreezingBalance >= unfreezingAmount);\n\n        unfreezingBalance -= unfreezingAmount;\n        playerUnFreezeMap[_player] =0;\n\n        require(blinkToken.transfer(_player, unfreezingAmount));\n\n        emit WithdrawUnstakeBLink(_player, unfreezingAmount);\n    }\n\n    function WithdrawUnfreeze() external {\n        _withdrawUnfreeze(msg.sender);\n    }\n\n    function withdrawUnfreezeForece(address _player) external {\n        require(msg.sender == addrAdmin || msg.sender == addrOperator);\n        require(_player != address(0));\n        _withdrawUnfreeze(_player);\n    }\n\n    function unfreezeForece(uint256 _index) external whenNotPaused {\n        require(msg.sender == addrAdmin || msg.sender == addrOperator);\n        require(_index > 0 && _index < playerStakeArray.length);\n\n        uint256 blinkVal = playerStakeArray[_index];\n        address player = indexToPlayerMap[_index];\n\n        if (player != address(0)) {\n            uint256 unfreezingVal = playerUnFreezeMap[player]; \n            uint256 unfreezingAmount = unfreezingVal & CLEAN_TIME;\n            uint256 needBack = blinkVal;\n            if (unfreezingAmount > 0) {\n                require(unfreezingBalance >= unfreezingAmount);\n                unfreezingBalance -= unfreezingAmount;\n                playerUnFreezeMap[player] = 0;\n                needBack = add(blinkVal, unfreezingAmount);\n            }\n\n            if (needBack > 0) {\n                emit UnstakeBLink(player, unfreezingAmount, needBack, 0, block.timestamp);\n \n                playerStakeArray[_index] = 0;\n                require(blinkToken.transfer(player, needBack));\n\n                emit WithdrawUnstakeBLink(player, needBack);\n            }    \n        }    \n    }\n}\n",
  "sourcePath": "/Users/gordon/bian/dapp/dice/contracts/BLinkStaker.sol",
  "compiler": {
    "name": "solc",
    "version": "0.4.25+commit.59dbf8f1.Emscripten.clang"
  },
  "schemaVersion": "3.2.0",
  "updatedAt": "2020-09-27T09:48:32.723Z",
  "devdoc": {
    "methods": {}
  },
  "userdoc": {
    "methods": {}
  }
}