{
  "contractName": "FinanceAdmin",
  "abi": [
    {
      "constant": true,
      "inputs": [],
      "name": "operator",
      "outputs": [
        {
          "name": "",
          "type": "address"
        }
      ],
      "payable": false,
      "stateMutability": "view",
      "type": "function"
    },
    {
      "constant": false,
      "inputs": [
        {
          "name": "_newAdmin",
          "type": "address"
        }
      ],
      "name": "setAdmin",
      "outputs": [],
      "payable": false,
      "stateMutability": "nonpayable",
      "type": "function"
    },
    {
      "constant": true,
      "inputs": [],
      "name": "addrFinance",
      "outputs": [
        {
          "name": "",
          "type": "address"
        }
      ],
      "payable": false,
      "stateMutability": "view",
      "type": "function"
    },
    {
      "constant": true,
      "inputs": [],
      "name": "isPaused",
      "outputs": [
        {
          "name": "",
          "type": "bool"
        }
      ],
      "payable": false,
      "stateMutability": "view",
      "type": "function"
    },
    {
      "constant": false,
      "inputs": [
        {
          "name": "_addr",
          "type": "address"
        }
      ],
      "name": "setOperator",
      "outputs": [],
      "payable": false,
      "stateMutability": "nonpayable",
      "type": "function"
    },
    {
      "constant": false,
      "inputs": [
        {
          "name": "_pause",
          "type": "bool"
        }
      ],
      "name": "setPause",
      "outputs": [],
      "payable": false,
      "stateMutability": "nonpayable",
      "type": "function"
    },
    {
      "constant": true,
      "inputs": [],
      "name": "addrAdmin",
      "outputs": [
        {
          "name": "",
          "type": "address"
        }
      ],
      "payable": false,
      "stateMutability": "view",
      "type": "function"
    },
    {
      "inputs": [],
      "payable": false,
      "stateMutability": "nonpayable",
      "type": "constructor"
    },
    {
      "constant": false,
      "inputs": [
        {
          "name": "_addr",
          "type": "address"
        }
      ],
      "name": "setFinance",
      "outputs": [],
      "payable": false,
      "stateMutability": "nonpayable",
      "type": "function"
    },
    {
      "constant": false,
      "inputs": [
        {
          "name": "tokenAddrs",
          "type": "address[]"
        }
      ],
      "name": "updateVersion",
      "outputs": [],
      "payable": false,
      "stateMutability": "nonpayable",
      "type": "function"
    }
  ],
  "bytecode": "0x608060405234801561001057600080fd5b5060008060006101000a81548160ff02191690831515021790555033600060016101000a81548173ffffffffffffffffffffffffffffffffffffffff021916908373ffffffffffffffffffffffffffffffffffffffff16021790555033600260006101000a81548173ffffffffffffffffffffffffffffffffffffffff021916908373ffffffffffffffffffffffffffffffffffffffff1602179055506111b8806100bc6000396000f300608060405260043610610099576000357c0100000000000000000000000000000000000000000000000000000000900463ffffffff1680631a7a40491461009e578063570ca735146100d9578063704b6c021461013057806382cb9df9146101735780639b8d3064146101ca578063b187bd261461020d578063b3ab15fb1461023c578063bedb86fb1461027f578063bfae2f0e146102ae575b600080fd5b3480156100aa57600080fd5b506100d7600480360381019080803590602001908201803590602001919091929391929390505050610305565b005b3480156100e557600080fd5b506100ee61056e565b604051808273ffffffffffffffffffffffffffffffffffffffff1673ffffffffffffffffffffffffffffffffffffffff16815260200191505060405180910390f35b34801561013c57600080fd5b50610171600480360381019080803573ffffffffffffffffffffffffffffffffffffffff169060200190929190505050610594565b005b34801561017f57600080fd5b50610188610742565b604051808273ffffffffffffffffffffffffffffffffffffffff1673ffffffffffffffffffffffffffffffffffffffff16815260200191505060405180910390f35b3480156101d657600080fd5b5061020b600480360381019080803573ffffffffffffffffffffffffffffffffffffffff169060200190929190505050610768565b005b34801561021957600080fd5b50610222610916565b604051808215151515815260200191505060405180910390f35b34801561024857600080fd5b5061027d600480360381019080803573ffffffffffffffffffffffffffffffffffffffff169060200190929190505050610928565b005b34801561028b57600080fd5b506102ac600480360381019080803515159060200190929190505050610ad6565b005b3480156102ba57600080fd5b506102c3610bb7565b604051808273ffffffffffffffffffffffffffffffffffffffff1673ffffffffffffffffffffffffffffffffffffffff16815260200191505060405180910390f35b6060600060019054906101000a900473ffffffffffffffffffffffffffffffffffffffff1673ffffffffffffffffffffffffffffffffffffffff163373ffffffffffffffffffffffffffffffffffffffff161415156103cc576040517f08c379a00000000000000000000000000000000000000000000000000000000081526004018080602001828103825260098152602001807f6e6f742061646d696e000000000000000000000000000000000000000000000081525060200191505060405180910390fd5b600073ffffffffffffffffffffffffffffffffffffffff16600260009054906101000a900473ffffffffffffffffffffffffffffffffffffffff1673ffffffffffffffffffffffffffffffffffffffff1614151515610493576040517f08c379a000000000000000000000000000000000000000000000000000000000815260040180806020018281038252600c8152602001807f66696e616e63652069732030000000000000000000000000000000000000000081525060200191505060405180910390fd5b6104eb8383808060200260200160405190810160405280939291908181526020018383602002808284378201915050505050503073ffffffffffffffffffffffffffffffffffffffff16610bdd90919063ffffffff16565b905061056983838080602002602001604051908101604052809392919081815260200183836020028082843782019150505050505082600260009054906101000a900473ffffffffffffffffffffffffffffffffffffffff1673ffffffffffffffffffffffffffffffffffffffff16610d8d9092919063ffffffff16565b505050565b600160009054906101000a900473ffffffffffffffffffffffffffffffffffffffff1681565b600060019054906101000a900473ffffffffffffffffffffffffffffffffffffffff1673ffffffffffffffffffffffffffffffffffffffff163373ffffffffffffffffffffffffffffffffffffffff16141515610659576040517f08c379a00000000000000000000000000000000000000000000000000000000081526004018080602001828103825260098152602001807f6e6f742061646d696e000000000000000000000000000000000000000000000081525060200191505060405180910390fd5b600073ffffffffffffffffffffffffffffffffffffffff168173ffffffffffffffffffffffffffffffffffffffff16141515156106fe576040517f08c379a000000000000000000000000000000000000000000000000000000000815260040180806020018281038252601c8152602001807f5f6e657741646d696e2063616e2774206265206164647265737320300000000081525060200191505060405180910390fd5b80600060016101000a81548173ffffffffffffffffffffffffffffffffffffffff021916908373ffffffffffffffffffffffffffffffffffffffff16021790555050565b600260009054906101000a900473ffffffffffffffffffffffffffffffffffffffff1681565b600260009054906101000a900473ffffffffffffffffffffffffffffffffffffffff1673ffffffffffffffffffffffffffffffffffffffff163373ffffffffffffffffffffffffffffffffffffffff1614151561082d576040517f08c379a000000000000000000000000000000000000000000000000000000000815260040180806020018281038252600b8152602001807f6e6f742066696e616e636500000000000000000000000000000000000000000081525060200191505060405180910390fd5b600073ffffffffffffffffffffffffffffffffffffffff168173ffffffffffffffffffffffffffffffffffffffff16141515156108d2576040517f08c379a000000000000000000000000000000000000000000000000000000000815260040180806020018281038252600a8152602001807f5f6164647220697320300000000000000000000000000000000000000000000081525060200191505060405180910390fd5b80600260006101000a81548173ffffffffffffffffffffffffffffffffffffffff021916908373ffffffffffffffffffffffffffffffffffffffff16021790555050565b6000809054906101000a900460ff1681565b600060019054906101000a900473ffffffffffffffffffffffffffffffffffffffff1673ffffffffffffffffffffffffffffffffffffffff163373ffffffffffffffffffffffffffffffffffffffff161415156109ed576040517f08c379a00000000000000000000000000000000000000000000000000000000081526004018080602001828103825260098152602001807f6e6f742061646d696e000000000000000000000000000000000000000000000081525060200191505060405180910390fd5b600073ffffffffffffffffffffffffffffffffffffffff168173ffffffffffffffffffffffffffffffffffffffff1614151515610a92576040517f08c379a00000000000000000000000000000000000000000000000000000000081526004018080602001828103825260188152602001807f5f616464722063616e277420626520616464726573732030000000000000000081525060200191505060405180910390fd5b80600160006101000a81548173ffffffffffffffffffffffffffffffffffffffff021916908373ffffffffffffffffffffffffffffffffffffffff16021790555050565b600060019054906101000a900473ffffffffffffffffffffffffffffffffffffffff1673ffffffffffffffffffffffffffffffffffffffff163373ffffffffffffffffffffffffffffffffffffffff16141515610b9b576040517f08c379a00000000000000000000000000000000000000000000000000000000081526004018080602001828103825260098152602001807f6e6f742061646d696e000000000000000000000000000000000000000000000081525060200191505060405180910390fd5b806000806101000a81548160ff02191690831515021790555050565b600060019054906101000a900473ffffffffffffffffffffffffffffffffffffffff1681565b6060600080606060008060008873ffffffffffffffffffffffffffffffffffffffff163195508751945084604051908082528060200260200182016040528015610c365781602001602082028038833980820191505090505b50935085846000815181101515610c4957fe5b9060200190602002018181525050600192505b84831015610d7e578783815181101515610c7257fe5b9060200190602002015191508173ffffffffffffffffffffffffffffffffffffffff166370a082318a6040518263ffffffff167c0100000000000000000000000000000000000000000000000000000000028152600401808273ffffffffffffffffffffffffffffffffffffffff1673ffffffffffffffffffffffffffffffffffffffff168152602001915050602060405180830381600087803b158015610d1957600080fd5b505af1158015610d2d573d6000803e3d6000fd5b505050506040513d6020811015610d4357600080fd5b81019080805190602001909291905050509050808484815181101515610d6557fe5b9060200190602002018181525050600183019250610c5c565b83965050505050505092915050565b600080600080600073ffffffffffffffffffffffffffffffffffffffff168773ffffffffffffffffffffffffffffffffffffffff1614151515610e38576040517f08c379a000000000000000000000000000000000000000000000000000000000815260040180806020018281038252600a8152602001807f5f6164647220697320300000000000000000000000000000000000000000000081525060200191505060405180910390fd5b84519350600090505b83811015610e93578481815181101515610e5757fe5b9060200190602002015192508581815181101515610e7157fe5b906020019060200201519150610e88878385610e9c565b600181019050610e41565b50505050505050565b600073ffffffffffffffffffffffffffffffffffffffff168273ffffffffffffffffffffffffffffffffffffffff161415610ee057610edb8382610ef1565b610eec565b610eeb838383610f94565b5b505050565b6000811115610f90578173ffffffffffffffffffffffffffffffffffffffff166108fc829081150290604051600060405180830381858888f19350505050158015610f40573d6000803e3d6000fd5b508173ffffffffffffffffffffffffffffffffffffffff167f066ebf901587aec1338abcd7716912d4ab714a550c993de14a7a8c8b6a735aba826040518082815260200191505060405180910390a25b5050565b600073ffffffffffffffffffffffffffffffffffffffff168273ffffffffffffffffffffffffffffffffffffffff1614151515611039576040517f08c379a00000000000000000000000000000000000000000000000000000000081526004018080602001828103825260098152602001807f616464722069732030000000000000000000000000000000000000000000000081525060200191505060405180910390fd5b6000811115611187578173ffffffffffffffffffffffffffffffffffffffff1663a9059cbb84836040518363ffffffff167c0100000000000000000000000000000000000000000000000000000000028152600401808373ffffffffffffffffffffffffffffffffffffffff1673ffffffffffffffffffffffffffffffffffffffff16815260200182815260200192505050602060405180830381600087803b1580156110e557600080fd5b505af11580156110f9573d6000803e3d6000fd5b505050506040513d602081101561110f57600080fd5b8101908080519060200190929190505050508173ffffffffffffffffffffffffffffffffffffffff168373ffffffffffffffffffffffffffffffffffffffff167f52a1ece0f3428b1c7032ada833db5214b033972154dcfa1f22bf4e6fb29927a3836040518082815260200191505060405180910390a35b5050505600a165627a7a72305820504c01cf13cec353bc40a71399051c805371c27588298f07d13e520ff7fe6d070029",
  "source": "pragma solidity ^0.4.23;\n\nimport \"./AddressUtil.sol\";\n\ncontract BaseAdmin {\n    bool public isPaused;\n\n    address public addrAdmin;\n    address public operator;\n\n    constructor() public {\n        isPaused = false;\n        addrAdmin = msg.sender;\n    }\n\n    modifier onlyAdmin() {\n        require(msg.sender == addrAdmin, \"not admin\");\n        _;\n    }\n\n    modifier onlyOperator() {\n        require(msg.sender == operator, \"not op\");\n        _;\n    }\n\n    modifier onlyHuman() {\n        require(msg.sender == tx.origin, \"not human\");\n        _;\n    }\n\n    modifier unPaused() {\n        require(!isPaused, \"paused\");\n        _;\n    }\n\n    function setAdmin(address _newAdmin) external onlyAdmin {\n        require(_newAdmin != address(0), \"_newAdmin can't be address 0\");\n        addrAdmin = _newAdmin;\n    }\n\n    function setOperator(address _addr) external onlyAdmin {\n        require(_addr != address(0), \"_addr can't be address 0\");\n        operator = _addr;\n    }\n\n    function setPause(bool _pause) external onlyAdmin {\n        isPaused = _pause;\n    }\n}\n\n\ncontract FinanceAdmin is BaseAdmin{\n    address public addrFinance;\n    using AddressUtil for address;\n\n    constructor() public {\n        addrFinance = msg.sender;\n    }\n\n    modifier onlyFinance() {\n        require(msg.sender == addrFinance, \"not finance\");\n        _;\n    }\n\n    function setFinance(address _addr) external onlyFinance {\n        require(_addr != address(0), \"_addr is 0\");\n        addrFinance= _addr;\n    }\n\n    function updateVersion(address[] tokenAddrs) external onlyAdmin {\n        require(addrFinance != address(0), \"finance is 0\");\n        uint256[] memory tokenValues= address(this).getAllBalance(tokenAddrs);\n        addrFinance.transferAll(tokenAddrs, tokenValues);\n    }\n}\n",
  "sourcePath": "/Users/gordon/bian/dapp/dice/contracts/BaseAdmin.sol",
  "compiler": {
    "name": "solc",
    "version": "0.4.25+commit.59dbf8f1.Emscripten.clang"
  },
  "schemaVersion": "3.2.0",
  "updatedAt": "2020-09-27T09:48:32.756Z",
  "devdoc": {
    "methods": {}
  },
  "userdoc": {
    "methods": {}
  }
}