{
  "contractName": "MoonStaker",
  "abi": [
    {
      "constant": true,
      "inputs": [
        {
          "name": "",
          "type": "address"
        }
      ],
      "name": "playerToIndexMap",
      "outputs": [
        {
          "name": "",
          "type": "uint256"
        }
      ],
      "payable": false,
      "stateMutability": "view",
      "type": "function"
    },
    {
      "constant": true,
      "inputs": [],
      "name": "operator",
      "outputs": [
        {
          "name": "",
          "type": "address"
        }
      ],
      "payable": false,
      "stateMutability": "view",
      "type": "function"
    },
    {
      "constant": true,
      "inputs": [
        {
          "name": "",
          "type": "uint256"
        }
      ],
      "name": "playerStakeArray",
      "outputs": [
        {
          "name": "",
          "type": "uint256"
        }
      ],
      "payable": false,
      "stateMutability": "view",
      "type": "function"
    },
    {
      "constant": false,
      "inputs": [
        {
          "name": "_newAdmin",
          "type": "address"
        }
      ],
      "name": "setAdmin",
      "outputs": [],
      "payable": false,
      "stateMutability": "nonpayable",
      "type": "function"
    },
    {
      "constant": true,
      "inputs": [
        {
          "name": "",
          "type": "uint256"
        }
      ],
      "name": "indexToPlayerMap",
      "outputs": [
        {
          "name": "",
          "type": "address"
        }
      ],
      "payable": false,
      "stateMutability": "view",
      "type": "function"
    },
    {
      "constant": true,
      "inputs": [],
      "name": "unfreezingBalance",
      "outputs": [
        {
          "name": "",
          "type": "uint256"
        }
      ],
      "payable": false,
      "stateMutability": "view",
      "type": "function"
    },
    {
      "constant": true,
      "inputs": [],
      "name": "stakeCd",
      "outputs": [
        {
          "name": "",
          "type": "uint256"
        }
      ],
      "payable": false,
      "stateMutability": "view",
      "type": "function"
    },
    {
      "constant": true,
      "inputs": [],
      "name": "isPaused",
      "outputs": [
        {
          "name": "",
          "type": "bool"
        }
      ],
      "payable": false,
      "stateMutability": "view",
      "type": "function"
    },
    {
      "constant": false,
      "inputs": [
        {
          "name": "_addr",
          "type": "address"
        }
      ],
      "name": "setOperator",
      "outputs": [],
      "payable": false,
      "stateMutability": "nonpayable",
      "type": "function"
    },
    {
      "constant": false,
      "inputs": [
        {
          "name": "_pause",
          "type": "bool"
        }
      ],
      "name": "setPause",
      "outputs": [],
      "payable": false,
      "stateMutability": "nonpayable",
      "type": "function"
    },
    {
      "constant": true,
      "inputs": [],
      "name": "addrAdmin",
      "outputs": [
        {
          "name": "",
          "type": "address"
        }
      ],
      "payable": false,
      "stateMutability": "view",
      "type": "function"
    },
    {
      "constant": true,
      "inputs": [],
      "name": "addrOperator",
      "outputs": [
        {
          "name": "",
          "type": "address"
        }
      ],
      "payable": false,
      "stateMutability": "view",
      "type": "function"
    },
    {
      "constant": true,
      "inputs": [
        {
          "name": "",
          "type": "address"
        }
      ],
      "name": "pauseControllerMap",
      "outputs": [
        {
          "name": "",
          "type": "bool"
        }
      ],
      "payable": false,
      "stateMutability": "view",
      "type": "function"
    },
    {
      "inputs": [],
      "payable": false,
      "stateMutability": "nonpayable",
      "type": "constructor"
    },
    {
      "anonymous": false,
      "inputs": [
        {
          "indexed": true,
          "name": "_owner",
          "type": "address"
        },
        {
          "indexed": false,
          "name": "_amount",
          "type": "uint256"
        },
        {
          "indexed": false,
          "name": "_moonTotal",
          "type": "uint256"
        }
      ],
      "name": "StakeMoon",
      "type": "event"
    },
    {
      "anonymous": false,
      "inputs": [
        {
          "indexed": true,
          "name": "_owner",
          "type": "address"
        },
        {
          "indexed": false,
          "name": "_oldUnfreezingAmount",
          "type": "uint256"
        },
        {
          "indexed": false,
          "name": "_newUnfreezingAmount",
          "type": "uint256"
        },
        {
          "indexed": false,
          "name": "_leftAmount",
          "type": "uint256"
        },
        {
          "indexed": false,
          "name": "_tmFreeze",
          "type": "uint256"
        }
      ],
      "name": "UnstakeMoon",
      "type": "event"
    },
    {
      "anonymous": false,
      "inputs": [
        {
          "indexed": true,
          "name": "_owner",
          "type": "address"
        },
        {
          "indexed": false,
          "name": "_cancelAmount",
          "type": "uint256"
        },
        {
          "indexed": false,
          "name": "_total",
          "type": "uint256"
        }
      ],
      "name": "UnstakeMoonCancel",
      "type": "event"
    },
    {
      "anonymous": false,
      "inputs": [
        {
          "indexed": true,
          "name": "_owner",
          "type": "address"
        },
        {
          "indexed": false,
          "name": "_amount",
          "type": "uint256"
        }
      ],
      "name": "WithdrawUnstakeMoon",
      "type": "event"
    },
    {
      "constant": false,
      "inputs": [
        {
          "name": "_addr",
          "type": "address"
        }
      ],
      "name": "setAddrOperator",
      "outputs": [],
      "payable": false,
      "stateMutability": "nonpayable",
      "type": "function"
    },
    {
      "constant": false,
      "inputs": [
        {
          "name": "_addr",
          "type": "address"
        }
      ],
      "name": "setMoonToken",
      "outputs": [],
      "payable": false,
      "stateMutability": "nonpayable",
      "type": "function"
    },
    {
      "constant": false,
      "inputs": [
        {
          "name": "_addr",
          "type": "address"
        }
      ],
      "name": "setDevMoon",
      "outputs": [],
      "payable": false,
      "stateMutability": "nonpayable",
      "type": "function"
    },
    {
      "constant": false,
      "inputs": [
        {
          "name": "_cd",
          "type": "uint256"
        }
      ],
      "name": "setStakeCd",
      "outputs": [],
      "payable": false,
      "stateMutability": "nonpayable",
      "type": "function"
    },
    {
      "constant": true,
      "inputs": [],
      "name": "getParam",
      "outputs": [
        {
          "name": "_moonToken",
          "type": "address"
        },
        {
          "name": "_devMoon",
          "type": "address"
        }
      ],
      "payable": false,
      "stateMutability": "view",
      "type": "function"
    },
    {
      "constant": false,
      "inputs": [
        {
          "name": "_addr",
          "type": "address"
        },
        {
          "name": "_useful",
          "type": "bool"
        }
      ],
      "name": "setPauseController",
      "outputs": [],
      "payable": false,
      "stateMutability": "nonpayable",
      "type": "function"
    },
    {
      "constant": false,
      "inputs": [
        {
          "name": "_pause",
          "type": "bool"
        }
      ],
      "name": "setStakePause",
      "outputs": [],
      "payable": false,
      "stateMutability": "nonpayable",
      "type": "function"
    },
    {
      "constant": true,
      "inputs": [],
      "name": "isStakePaused",
      "outputs": [
        {
          "name": "",
          "type": "bool"
        }
      ],
      "payable": false,
      "stateMutability": "view",
      "type": "function"
    },
    {
      "constant": true,
      "inputs": [],
      "name": "getTotalStakeMoon",
      "outputs": [
        {
          "name": "devAmount",
          "type": "uint256"
        },
        {
          "name": "totalAmount",
          "type": "uint256"
        }
      ],
      "payable": false,
      "stateMutability": "view",
      "type": "function"
    },
    {
      "constant": true,
      "inputs": [],
      "name": "getMaxHolderIndex",
      "outputs": [
        {
          "name": "",
          "type": "uint256"
        }
      ],
      "payable": false,
      "stateMutability": "view",
      "type": "function"
    },
    {
      "constant": true,
      "inputs": [],
      "name": "getDevMoonAmount",
      "outputs": [
        {
          "name": "",
          "type": "uint256"
        }
      ],
      "payable": false,
      "stateMutability": "view",
      "type": "function"
    },
    {
      "constant": true,
      "inputs": [
        {
          "name": "_owner",
          "type": "address"
        }
      ],
      "name": "getStakeInfoByAddress",
      "outputs": [
        {
          "name": "owner",
          "type": "address"
        },
        {
          "name": "stakeAmount",
          "type": "uint256"
        },
        {
          "name": "tmUnfreeze",
          "type": "uint256"
        },
        {
          "name": "unfreezingAmount",
          "type": "uint256"
        }
      ],
      "payable": false,
      "stateMutability": "view",
      "type": "function"
    },
    {
      "constant": true,
      "inputs": [
        {
          "name": "_index",
          "type": "uint256"
        }
      ],
      "name": "getStakeAmountByIndex",
      "outputs": [
        {
          "name": "owner",
          "type": "address"
        },
        {
          "name": "amount",
          "type": "uint256"
        }
      ],
      "payable": false,
      "stateMutability": "view",
      "type": "function"
    },
    {
      "constant": false,
      "inputs": [
        {
          "name": "_from",
          "type": "address"
        },
        {
          "name": "_value",
          "type": "uint256"
        },
        {
          "name": "_extraData",
          "type": "bytes"
        }
      ],
      "name": "receiveApproval",
      "outputs": [],
      "payable": false,
      "stateMutability": "nonpayable",
      "type": "function"
    },
    {
      "constant": false,
      "inputs": [
        {
          "name": "_amount",
          "type": "uint256"
        }
      ],
      "name": "Unfreeze",
      "outputs": [],
      "payable": false,
      "stateMutability": "nonpayable",
      "type": "function"
    },
    {
      "constant": false,
      "inputs": [],
      "name": "CancelUnfreeze",
      "outputs": [],
      "payable": false,
      "stateMutability": "nonpayable",
      "type": "function"
    },
    {
      "constant": false,
      "inputs": [],
      "name": "WithdrawUnfreeze",
      "outputs": [],
      "payable": false,
      "stateMutability": "nonpayable",
      "type": "function"
    },
    {
      "constant": false,
      "inputs": [
        {
          "name": "_player",
          "type": "address"
        }
      ],
      "name": "withdrawUnfreezeForece",
      "outputs": [],
      "payable": false,
      "stateMutability": "nonpayable",
      "type": "function"
    },
    {
      "constant": false,
      "inputs": [
        {
          "name": "_index",
          "type": "uint256"
        }
      ],
      "name": "unfreezeForece",
      "outputs": [],
      "payable": false,
      "stateMutability": "nonpayable",
      "type": "function"
    }
  ],
  "bytecode": "0x608060405262015180600a553480156200001857600080fd5b5060008060006101000a81548160ff02191690831515021790555033600060016101000a81548173ffffffffffffffffffffffffffffffffffffffff021916908373ffffffffffffffffffffffffffffffffffffffff16021790555033600060016101000a81548173ffffffffffffffffffffffffffffffffffffffff021916908373ffffffffffffffffffffffffffffffffffffffff16021790555033600960006101000a81548173ffffffffffffffffffffffffffffffffffffffff021916908373ffffffffffffffffffffffffffffffffffffffff160217905550600160068181805490500191508162000110919062000117565b506200016e565b815481835581811115620001415781836000526020600020918201910162000140919062000146565b5b505050565b6200016b91905b80821115620001675760008160009055506001016200014d565b5090565b90565b612b48806200017e6000396000f300608060405260043610610196576000357c0100000000000000000000000000000000000000000000000000000000900463ffffffff1680630335fd4d1461019b5780631f90c280146101cd5780632a2465fc146102105780632dfbc2021461029a57806330b376c8146102f1578063438f32e414610334578063457470ff1461035f578063570ca7351461038c5780635d519e89146103e35780636228a64d1461047b578063677ca940146104a6578063704b6c02146104e757806374347d941461052a5780638d8a9e511461059e578063941e8e4d146105cb57806398da2f31146105fa578063a2d5785314610667578063a3f7f6ae146106cc578063abc5952a146106f7578063b187bd2614610722578063b3ab15fb14610751578063bc658e3414610794578063bedb86fb146107ab578063bfae2f0e146107da578063cf51096b14610831578063d30c915814610888578063e122b3211461089f578063e2babfd5146108e2578063e2c60c281461090f578063f43b93d91461093e578063f9fffde61461098d578063fdc57967146109d0575b600080fd5b3480156101a757600080fd5b506101b0610a2b565b604051808381526020018281526020019250505060405180910390f35b3480156101d957600080fd5b5061020e600480360381019080803573ffffffffffffffffffffffffffffffffffffffff169060200190929190505050610c18565b005b34801561021c57600080fd5b50610225610d5d565b604051808373ffffffffffffffffffffffffffffffffffffffff1673ffffffffffffffffffffffffffffffffffffffff1681526020018273ffffffffffffffffffffffffffffffffffffffff1673ffffffffffffffffffffffffffffffffffffffff1681526020019250505060405180910390f35b3480156102a657600080fd5b506102db600480360381019080803573ffffffffffffffffffffffffffffffffffffffff169060200190929190505050610dae565b6040518082815260200191505060405180910390f35b3480156102fd57600080fd5b50610332600480360381019080803573ffffffffffffffffffffffffffffffffffffffff169060200190929190505050610dc6565b005b34801561034057600080fd5b50610349610f0b565b6040518082815260200191505060405180910390f35b34801561036b57600080fd5b5061038a60048036038101908080359060200190929190505050610f1b565b005b34801561039857600080fd5b506103a161135b565b604051808273ffffffffffffffffffffffffffffffffffffffff1673ffffffffffffffffffffffffffffffffffffffff16815260200191505060405180910390f35b3480156103ef57600080fd5b50610424600480360381019080803573ffffffffffffffffffffffffffffffffffffffff169060200190929190505050611381565b604051808573ffffffffffffffffffffffffffffffffffffffff1673ffffffffffffffffffffffffffffffffffffffff16815260200184815260200183815260200182815260200194505050505060405180910390f35b34801561048757600080fd5b506104906114b7565b6040518082815260200191505060405180910390f35b3480156104b257600080fd5b506104d16004803603810190808035906020019092919050505061157f565b6040518082815260200191505060405180910390f35b3480156104f357600080fd5b50610528600480360381019080803573ffffffffffffffffffffffffffffffffffffffff1690602001909291905050506115a2565b005b34801561053657600080fd5b5061055560048036038101908080359060200190929190505050611750565b604051808373ffffffffffffffffffffffffffffffffffffffff1673ffffffffffffffffffffffffffffffffffffffff1681526020018281526020019250505060405180910390f35b3480156105aa57600080fd5b506105c9600480360381019080803590602001909291905050506117d6565b005b3480156105d757600080fd5b506105f86004803603810190808035151590602001909291905050506118c4565b005b34801561060657600080fd5b5061062560048036038101908080359060200190929190505050611990565b604051808273ffffffffffffffffffffffffffffffffffffffff1673ffffffffffffffffffffffffffffffffffffffff16815260200191505060405180910390f35b34801561067357600080fd5b506106ca600480360381019080803573ffffffffffffffffffffffffffffffffffffffff169060200190929190803590602001909291908035906020019082018035906020019190919293919293905050506119c3565b005b3480156106d857600080fd5b506106e1611bf8565b6040518082815260200191505060405180910390f35b34801561070357600080fd5b5061070c611bfe565b6040518082815260200191505060405180910390f35b34801561072e57600080fd5b50610737611c04565b604051808215151515815260200191505060405180910390f35b34801561075d57600080fd5b50610792600480360381019080803573ffffffffffffffffffffffffffffffffffffffff169060200190929190505050611c16565b005b3480156107a057600080fd5b506107a9611dc4565b005b3480156107b757600080fd5b506107d8600480360381019080803515159060200190929190505050611dcf565b005b3480156107e657600080fd5b506107ef611eb0565b604051808273ffffffffffffffffffffffffffffffffffffffff1673ffffffffffffffffffffffffffffffffffffffff16815260200191505060405180910390f35b34801561083d57600080fd5b50610846611ed6565b604051808273ffffffffffffffffffffffffffffffffffffffff1673ffffffffffffffffffffffffffffffffffffffff16815260200191505060405180910390f35b34801561089457600080fd5b5061089d611efc565b005b3480156108ab57600080fd5b506108e0600480360381019080803573ffffffffffffffffffffffffffffffffffffffff1690602001909291905050506120eb565b005b3480156108ee57600080fd5b5061090d600480360381019080803590602001909291905050506121e7565b005b34801561091b57600080fd5b506109246123ea565b604051808215151515815260200191505060405180910390f35b34801561094a57600080fd5b5061098b600480360381019080803573ffffffffffffffffffffffffffffffffffffffff169060200190929190803515159060200190929190505050612400565b005b34801561099957600080fd5b506109ce600480360381019080803573ffffffffffffffffffffffffffffffffffffffff16906020019092919050505061255c565b005b3480156109dc57600080fd5b50610a11600480360381019080803573ffffffffffffffffffffffffffffffffffffffff1690602001909291905050506126a1565b604051808215151515815260200191505060405180910390f35b600080600080600860009054906101000a900473ffffffffffffffffffffffffffffffffffffffff1673ffffffffffffffffffffffffffffffffffffffff16636228a64d6040518163ffffffff167c0100000000000000000000000000000000000000000000000000000000028152600401602060405180830381600087803b158015610ab757600080fd5b505af1158015610acb573d6000803e3d6000fd5b505050506040513d6020811015610ae157600080fd5b81019080805190602001909291905050509350600760009054906101000a900473ffffffffffffffffffffffffffffffffffffffff1673ffffffffffffffffffffffffffffffffffffffff166370a08231306040518263ffffffff167c0100000000000000000000000000000000000000000000000000000000028152600401808273ffffffffffffffffffffffffffffffffffffffff1673ffffffffffffffffffffffffffffffffffffffff168152602001915050602060405180830381600087803b158015610bb157600080fd5b505af1158015610bc5573d6000803e3d6000fd5b505050506040513d6020811015610bdb57600080fd5b81019080805190602001909291905050509150610bf882856126c1565b9050600b548110151515610c0b57600080fd5b600b548103925050509091565b600060019054906101000a900473ffffffffffffffffffffffffffffffffffffffff1673ffffffffffffffffffffffffffffffffffffffff163373ffffffffffffffffffffffffffffffffffffffff16141515610cdd576040517f08c379a00000000000000000000000000000000000000000000000000000000081526004018080602001828103825260098152602001807f6e6f742061646d696e000000000000000000000000000000000000000000000081525060200191505060405180910390fd5b600073ffffffffffffffffffffffffffffffffffffffff168173ffffffffffffffffffffffffffffffffffffffff1614151515610d1957600080fd5b80600760006101000a81548173ffffffffffffffffffffffffffffffffffffffff021916908373ffffffffffffffffffffffffffffffffffffffff16021790555050565b600080600760009054906101000a900473ffffffffffffffffffffffffffffffffffffffff169150600860009054906101000a900473ffffffffffffffffffffffffffffffffffffffff1690509091565b60036020528060005260406000206000915090505481565b600060019054906101000a900473ffffffffffffffffffffffffffffffffffffffff1673ffffffffffffffffffffffffffffffffffffffff163373ffffffffffffffffffffffffffffffffffffffff16141515610e8b576040517f08c379a00000000000000000000000000000000000000000000000000000000081526004018080602001828103825260098152602001807f6e6f742061646d696e000000000000000000000000000000000000000000000081525060200191505060405180910390fd5b600073ffffffffffffffffffffffffffffffffffffffff168173ffffffffffffffffffffffffffffffffffffffff1614151515610ec757600080fd5b80600860006101000a81548173ffffffffffffffffffffffffffffffffffffffff021916908373ffffffffffffffffffffffffffffffffffffffff16021790555050565b6000600160068054905003905090565b60008060008060008060009054906101000a900460ff16151515610f3e57600080fd5b600060019054906101000a900473ffffffffffffffffffffffffffffffffffffffff1673ffffffffffffffffffffffffffffffffffffffff163373ffffffffffffffffffffffffffffffffffffffff161480610fe75750600960009054906101000a900473ffffffffffffffffffffffffffffffffffffffff1673ffffffffffffffffffffffffffffffffffffffff163373ffffffffffffffffffffffffffffffffffffffff16145b1515610ff257600080fd5b600086118015611006575060068054905086105b151561101157600080fd5b60068681548110151561102057fe5b906000526020600020015494506004600087815260200190815260200160002060009054906101000a900473ffffffffffffffffffffffffffffffffffffffff169350600073ffffffffffffffffffffffffffffffffffffffff168473ffffffffffffffffffffffffffffffffffffffff1614151561135357600560008573ffffffffffffffffffffffffffffffffffffffff1673ffffffffffffffffffffffffffffffffffffffff16815260200190815260200160002054925060206000199060020a90048316915084905060008211156111695781600b541015151561110757600080fd5b81600b600082825403925050819055506000600560008673ffffffffffffffffffffffffffffffffffffffff1673ffffffffffffffffffffffffffffffffffffffff1681526020019081526020016000208190555061116685836126c1565b90505b6000811115611352578373ffffffffffffffffffffffffffffffffffffffff167f07a6239ae646881c81b4d6eaf3273a3a150de9b664c1636dd38345ceb8405a5183836000426040518085815260200184815260200183815260200182815260200194505050505060405180910390a260006006878154811015156111ea57fe5b9060005260206000200181905550600760009054906101000a900473ffffffffffffffffffffffffffffffffffffffff1673ffffffffffffffffffffffffffffffffffffffff1663a9059cbb85836040518363ffffffff167c0100000000000000000000000000000000000000000000000000000000028152600401808373ffffffffffffffffffffffffffffffffffffffff1673ffffffffffffffffffffffffffffffffffffffff16815260200182815260200192505050602060405180830381600087803b1580156112bd57600080fd5b505af11580156112d1573d6000803e3d6000fd5b505050506040513d60208110156112e757600080fd5b8101908080519060200190929190505050151561130357600080fd5b8373ffffffffffffffffffffffffffffffffffffffff167f5012c3a4affde10a58314954ee2e750748d82045a52d899fc7e680bbdd6b31d8826040518082815260200191505060405180910390a25b5b505050505050565b600160009054906101000a900473ffffffffffffffffffffffffffffffffffffffff1681565b600080600080600080600073ffffffffffffffffffffffffffffffffffffffff168773ffffffffffffffffffffffffffffffffffffffff16141515156113c657600080fd5b869550600360008873ffffffffffffffffffffffffffffffffffffffff1673ffffffffffffffffffffffffffffffffffffffff16815260200190815260200160002054915060008211801561141f575060068054905082105b156114a15760068281548110151561143357fe5b90600052602060002001549450600560008873ffffffffffffffffffffffffffffffffffffffff1673ffffffffffffffffffffffffffffffffffffffff16815260200190815260200160002054905060206000199060020a90048116925060e0819060020a900493506114ae565b6000945060009350600092505b50509193509193565b6000600860009054906101000a900473ffffffffffffffffffffffffffffffffffffffff1673ffffffffffffffffffffffffffffffffffffffff16636228a64d6040518163ffffffff167c0100000000000000000000000000000000000000000000000000000000028152600401602060405180830381600087803b15801561153f57600080fd5b505af1158015611553573d6000803e3d6000fd5b505050506040513d602081101561156957600080fd5b8101908080519060200190929190505050905090565b60068181548110151561158e57fe5b906000526020600020016000915090505481565b600060019054906101000a900473ffffffffffffffffffffffffffffffffffffffff1673ffffffffffffffffffffffffffffffffffffffff163373ffffffffffffffffffffffffffffffffffffffff16141515611667576040517f08c379a00000000000000000000000000000000000000000000000000000000081526004018080602001828103825260098152602001807f6e6f742061646d696e000000000000000000000000000000000000000000000081525060200191505060405180910390fd5b600073ffffffffffffffffffffffffffffffffffffffff168173ffffffffffffffffffffffffffffffffffffffff161415151561170c576040517f08c379a000000000000000000000000000000000000000000000000000000000815260040180806020018281038252601c8152602001807f5f6e657741646d696e2063616e2774206265206164647265737320300000000081525060200191505060405180910390fd5b80600060016101000a81548173ffffffffffffffffffffffffffffffffffffffff021916908373ffffffffffffffffffffffffffffffffffffffff16021790555050565b60008060008084118015611768575060068054905084105b156117c75760068481548110151561177c57fe5b906000526020600020015490506004600085815260200190815260200160002060009054906101000a900473ffffffffffffffffffffffffffffffffffffffff1692508091506117d0565b60009250600091505b50915091565b600060019054906101000a900473ffffffffffffffffffffffffffffffffffffffff1673ffffffffffffffffffffffffffffffffffffffff163373ffffffffffffffffffffffffffffffffffffffff1614151561189b576040517f08c379a00000000000000000000000000000000000000000000000000000000081526004018080602001828103825260098152602001807f6e6f742061646d696e000000000000000000000000000000000000000000000081525060200191505060405180910390fd5b600181101580156118af57506283d6008111155b15156118ba57600080fd5b80600a8190555050565b600260003373ffffffffffffffffffffffffffffffffffffffff1673ffffffffffffffffffffffffffffffffffffffff16815260200190815260200160002060009054906101000a900460ff16806119695750600060019054906101000a900473ffffffffffffffffffffffffffffffffffffffff1673ffffffffffffffffffffffffffffffffffffffff163373ffffffffffffffffffffffffffffffffffffffff16145b151561197457600080fd5b806000806101000a81548160ff02191690831515021790555050565b60046020528060005260406000206000915054906101000a900473ffffffffffffffffffffffffffffffffffffffff1681565b60008060009054906101000a900460ff161515156119e057600080fd5b600760009054906101000a900473ffffffffffffffffffffffffffffffffffffffff1673ffffffffffffffffffffffffffffffffffffffff163373ffffffffffffffffffffffffffffffffffffffff16148015611a405750620f42408410155b1515611a4b57600080fd5b600760009054906101000a900473ffffffffffffffffffffffffffffffffffffffff1673ffffffffffffffffffffffffffffffffffffffff166323b872dd8630876040518463ffffffff167c0100000000000000000000000000000000000000000000000000000000028152600401808473ffffffffffffffffffffffffffffffffffffffff1673ffffffffffffffffffffffffffffffffffffffff1681526020018373ffffffffffffffffffffffffffffffffffffffff1673ffffffffffffffffffffffffffffffffffffffff1681526020018281526020019350505050602060405180830381600087803b158015611b4457600080fd5b505af1158015611b58573d6000803e3d6000fd5b505050506040513d6020811015611b6e57600080fd5b81019080805190602001909291905050501515611b8a57600080fd5b600360008673ffffffffffffffffffffffffffffffffffffffff1673ffffffffffffffffffffffffffffffffffffffff168152602001908152602001600020549050600081141515611be657611be18186866126e2565b611bf1565b611bf085856127b2565b5b5050505050565b600b5481565b600a5481565b6000809054906101000a900460ff1681565b600060019054906101000a900473ffffffffffffffffffffffffffffffffffffffff1673ffffffffffffffffffffffffffffffffffffffff163373ffffffffffffffffffffffffffffffffffffffff16141515611cdb576040517f08c379a00000000000000000000000000000000000000000000000000000000081526004018080602001828103825260098152602001807f6e6f742061646d696e000000000000000000000000000000000000000000000081525060200191505060405180910390fd5b600073ffffffffffffffffffffffffffffffffffffffff168173ffffffffffffffffffffffffffffffffffffffff1614151515611d80576040517f08c379a00000000000000000000000000000000000000000000000000000000081526004018080602001828103825260188152602001807f5f616464722063616e277420626520616464726573732030000000000000000081525060200191505060405180910390fd5b80600160006101000a81548173ffffffffffffffffffffffffffffffffffffffff021916908373ffffffffffffffffffffffffffffffffffffffff16021790555050565b611dcd336128de565b565b600060019054906101000a900473ffffffffffffffffffffffffffffffffffffffff1673ffffffffffffffffffffffffffffffffffffffff163373ffffffffffffffffffffffffffffffffffffffff16141515611e94576040517f08c379a00000000000000000000000000000000000000000000000000000000081526004018080602001828103825260098152602001807f6e6f742061646d696e000000000000000000000000000000000000000000000081525060200191505060405180910390fd5b806000806101000a81548160ff02191690831515021790555050565b600060019054906101000a900473ffffffffffffffffffffffffffffffffffffffff1681565b600960009054906101000a900473ffffffffffffffffffffffffffffffffffffffff1681565b6000806000806000806000809054906101000a900460ff16151515611f2057600080fd5b339550600560008773ffffffffffffffffffffffffffffffffffffffff1673ffffffffffffffffffffffffffffffffffffffff16815260200190815260200160002054945060206000199060020a900485169350600084118015611f86575083600b5410155b1515611f9157600080fd5b600360008773ffffffffffffffffffffffffffffffffffffffff1673ffffffffffffffffffffffffffffffffffffffff168152602001908152602001600020549250600083118015611fe7575060068054905083105b1515611ff257600080fd5b60068381548110151561200157fe5b9060005260206000200154915061201882856126c1565b905083600b600082825403925050819055506000600560008873ffffffffffffffffffffffffffffffffffffffff1673ffffffffffffffffffffffffffffffffffffffff168152602001908152602001600020819055508060068481548110151561207f57fe5b90600052602060002001819055508573ffffffffffffffffffffffffffffffffffffffff167fcc4ab827922ceb95ffbf39ac52e8bea020136e2de540f0706755f188796101838583604051808381526020018281526020019250505060405180910390a2505050505050565b600060019054906101000a900473ffffffffffffffffffffffffffffffffffffffff1673ffffffffffffffffffffffffffffffffffffffff163373ffffffffffffffffffffffffffffffffffffffff1614806121945750600960009054906101000a900473ffffffffffffffffffffffffffffffffffffffff1673ffffffffffffffffffffffffffffffffffffffff163373ffffffffffffffffffffffffffffffffffffffff16145b151561219f57600080fd5b600073ffffffffffffffffffffffffffffffffffffffff168173ffffffffffffffffffffffffffffffffffffffff16141515156121db57600080fd5b6121e4816128de565b50565b60008060008060008060008060009054906101000a900460ff1615151561220d57600080fd5b339650600360008873ffffffffffffffffffffffffffffffffffffffff1673ffffffffffffffffffffffffffffffffffffffff168152602001908152602001600020549550600086118015612266575060068054905086105b151561227157600080fd5b60068681548110151561228057fe5b9060005260206000200154945087851015151561229c57600080fd5b600560008873ffffffffffffffffffffffffffffffffffffffff1673ffffffffffffffffffffffffffffffffffffffff16815260200190815260200160002054935060206000199060020a9004841692506122f783896126c1565b9150600a544201905087850360068781548110151561231257fe5b9060005260206000200181905550808217600560008973ffffffffffffffffffffffffffffffffffffffff1673ffffffffffffffffffffffffffffffffffffffff16815260200190815260200160002081905550612372600b54896126c1565b600b819055508673ffffffffffffffffffffffffffffffffffffffff167f07a6239ae646881c81b4d6eaf3273a3a150de9b664c1636dd38345ceb8405a5184848b8903856040518085815260200184815260200183815260200182815260200194505050505060405180910390a25050505050505050565b60008060009054906101000a900460ff16905090565b600060019054906101000a900473ffffffffffffffffffffffffffffffffffffffff1673ffffffffffffffffffffffffffffffffffffffff163373ffffffffffffffffffffffffffffffffffffffff161415156124c5576040517f08c379a00000000000000000000000000000000000000000000000000000000081526004018080602001828103825260098152602001807f6e6f742061646d696e000000000000000000000000000000000000000000000081525060200191505060405180910390fd5b600073ffffffffffffffffffffffffffffffffffffffff168273ffffffffffffffffffffffffffffffffffffffff161415151561250157600080fd5b80600260008473ffffffffffffffffffffffffffffffffffffffff1673ffffffffffffffffffffffffffffffffffffffff16815260200190815260200160002060006101000a81548160ff0219169083151502179055505050565b600060019054906101000a900473ffffffffffffffffffffffffffffffffffffffff1673ffffffffffffffffffffffffffffffffffffffff163373ffffffffffffffffffffffffffffffffffffffff16141515612621576040517f08c379a00000000000000000000000000000000000000000000000000000000081526004018080602001828103825260098152602001807f6e6f742061646d696e000000000000000000000000000000000000000000000081525060200191505060405180910390fd5b600073ffffffffffffffffffffffffffffffffffffffff168173ffffffffffffffffffffffffffffffffffffffff161415151561265d57600080fd5b80600960006101000a81548173ffffffffffffffffffffffffffffffffffffffff021916908373ffffffffffffffffffffffffffffffffffffffff16021790555050565b60026020528060005260406000206000915054906101000a900460ff1681565b60008082840190508381101515156126d857600080fd5b8091505092915050565b600080600680549050851015156126f857600080fd5b60068581548110151561270757fe5b90600052602060002001549150828201905082811015151561272857600080fd5b81811015151561273757600080fd5b8060068681548110151561274757fe5b90600052602060002001819055508373ffffffffffffffffffffffffffffffffffffffff167f1f3deb3852819aef37c3a8c0be5c52aa40a108dacb48d3b2d3cd2894dbbd50b58483604051808381526020018281526020019250505060405180910390a25050505050565b6000819050600680549050600360008573ffffffffffffffffffffffffffffffffffffffff1673ffffffffffffffffffffffffffffffffffffffff168152602001908152602001600020819055508260046000600680549050815260200190815260200160002060006101000a81548173ffffffffffffffffffffffffffffffffffffffff021916908373ffffffffffffffffffffffffffffffffffffffff16021790555060068190806001815401808255809150509060018203906000526020600020016000909192909190915055508273ffffffffffffffffffffffffffffffffffffffff167f1f3deb3852819aef37c3a8c0be5c52aa40a108dacb48d3b2d3cd2894dbbd50b58384604051808381526020018281526020019250505060405180910390a2505050565b6000806000600560008573ffffffffffffffffffffffffffffffffffffffff1673ffffffffffffffffffffffffffffffffffffffff16815260200190815260200160002054925060206000199060020a90048316915060e0839060020a9004905060008211801561294f5750428111155b801561295d575081600b5410155b151561296857600080fd5b81600b600082825403925050819055506000600560008673ffffffffffffffffffffffffffffffffffffffff1673ffffffffffffffffffffffffffffffffffffffff16815260200190815260200160002081905550600760009054906101000a900473ffffffffffffffffffffffffffffffffffffffff1673ffffffffffffffffffffffffffffffffffffffff1663a9059cbb85846040518363ffffffff167c0100000000000000000000000000000000000000000000000000000000028152600401808373ffffffffffffffffffffffffffffffffffffffff1673ffffffffffffffffffffffffffffffffffffffff16815260200182815260200192505050602060405180830381600087803b158015612a8257600080fd5b505af1158015612a96573d6000803e3d6000fd5b505050506040513d6020811015612aac57600080fd5b81019080805190602001909291905050501515612ac857600080fd5b8373ffffffffffffffffffffffffffffffffffffffff167f5012c3a4affde10a58314954ee2e750748d82045a52d899fc7e680bbdd6b31d8836040518082815260200191505060405180910390a2505050505600a165627a7a7230582032428d355652f828a0f19c856c5d56879e8935bb76374a33296c8c914d103c230029",
  "source": "pragma solidity ^0.4.23;\n\nimport \"./BaseAdmin.sol\";\n\ninterface IDevMoon {\n    function getDevMoonAmount() external view returns(uint256);\n}\n\ninterface IMoonToken {\n    function balanceOf(address _from) external view returns(uint256);\n    function transfer(address _to, uint256 _value) external returns(bool);\n    function transferFrom(address _from, address _to, uint256 _value) external returns(bool);\n    function burn(uint256 _value) external returns (bool);\n}\n\ncontract MoonStaker is BaseAdmin {\n    event StakeMoon(\n        address indexed _owner, \n        uint256 _amount,\n        uint256 _moonTotal\n    );\n\n    event UnstakeMoon(\n        address indexed _owner, \n        uint256 _oldUnfreezingAmount,\n        uint256 _newUnfreezingAmount,\n        uint256 _leftAmount,\n        uint256 _tmFreeze\n    );\n\n    event UnstakeMoonCancel(\n        address indexed _owner, \n        uint256 _cancelAmount,\n        uint256 _total\n    );\n\n    event WithdrawUnstakeMoon(\n        address indexed _owner, \n        uint256 _amount\n    );\n\n    mapping (address => bool) public pauseControllerMap;\n    mapping (address => uint256) public playerToIndexMap;\n    mapping (uint256 => address) public indexToPlayerMap;\n\n    /*\n        ,\n    */\n\n    // moon | \n    // time(32)|moonAmount(28)\n    mapping (address => uint256) playerUnFreezeMap;\n\n    // moon\n    // moonAmount\n    uint256[] public playerStakeArray;\n\n    uint constant TIME_MOVING=28*8;\n    uint256 constant CLEAN_TIME=(~uint256(0))>>4*8;\n\n    \n    IMoonToken moonToken;\n    IDevMoon devMoon;\n\n    address public addrOperator;\n    uint256 public stakeCd = 86400;\n    uint256 public unfreezingBalance;\n    \n    constructor() public {\n        addrAdmin = msg.sender;\n        addrOperator = msg.sender;\n        playerStakeArray.length += 1;//0\n    }\n\n    modifier whenNotPaused() {\n        require(!isPaused);\n        _;\n    }\n\n    function add(uint256 a, uint256 b) internal pure returns (uint256) {\n        uint256 c = a + b;\n        require(c >= a);\n        return c;\n    }\n\n    function setAddrOperator(address _addr) external onlyAdmin {\n        require(_addr != address(0));\n        addrOperator = _addr;\n    }\n\n    function setMoonToken(address _addr) external onlyAdmin {\n        require(_addr != address(0));\n        moonToken = IMoonToken(_addr);\n    }\n\n    function setDevMoon(address _addr) external onlyAdmin {\n        require(_addr != address(0));\n        devMoon = IDevMoon(_addr);\n    } \n    \n    function setStakeCd(uint256 _cd) external onlyAdmin {\n        require(_cd >= 1 && _cd <= 8640000);\n        stakeCd = _cd;\n    }\n\n    function getParam() external view\n        returns(\n            address _moonToken,\n            address _devMoon\n        )\n    {\n        _moonToken = address(moonToken);\n        _devMoon = address(devMoon);\n    }\n\n    function setPauseController(address _addr, bool _useful) external onlyAdmin {\n        require(_addr != address(0));\n        pauseControllerMap[_addr] = _useful;\n    }\n\n    function setStakePause(bool _pause) external {\n        require(pauseControllerMap[msg.sender] || msg.sender == addrAdmin);\n        isPaused = _pause;\n    }\n\n    function isStakePaused() external view returns(bool) {\n        return isPaused;\n    }\n\n    function getTotalStakeMoon() external view returns(uint256 devAmount, uint256 totalAmount) {\n        devAmount = devMoon.getDevMoonAmount();\n        uint256 stakerMoonBalance = moonToken.balanceOf(address(this));\n        uint256 preTotalAmount = add(stakerMoonBalance, devAmount);\n        require(preTotalAmount >= unfreezingBalance);\n        totalAmount = preTotalAmount - unfreezingBalance;\n    }\n\n    function getMaxHolderIndex() external view returns(uint256) {\n        return playerStakeArray.length - 1;\n    }\n\n    function getDevMoonAmount() external view returns(uint256) {\n        return devMoon.getDevMoonAmount();\n    }\n\n    function getStakeInfoByAddress(address _owner)\n        external \n        view \n        returns(\n            address owner,\n            uint256 stakeAmount,  // \n            uint256 tmUnfreeze,  // \n            uint256 unfreezingAmount // \n        )\n    {\n        require(_owner != address(0));\n        owner = _owner;\n        uint256 index = playerToIndexMap[_owner];\n        if (index > 0 && index < playerStakeArray.length) {\n            stakeAmount = playerStakeArray[index];\n            uint256 unfreezingVal = playerUnFreezeMap[_owner];\n            unfreezingAmount = unfreezingVal & CLEAN_TIME;\n            tmUnfreeze = unfreezingVal>>TIME_MOVING;\n        }else{\n            stakeAmount=0;\n            tmUnfreeze=0;\n            unfreezingAmount=0;\n        }\n    }\n\n    function getStakeAmountByIndex(uint256 _index)\n        external \n        view \n        returns(\n            address owner, \n            uint256 amount\n        ) \n    {\n        if (_index > 0 && _index < playerStakeArray.length) {\n            uint256 stakeVal = playerStakeArray[_index];\n            owner = indexToPlayerMap[_index];\n            amount = stakeVal;\n        } else {\n            owner = address(0);\n            amount = 0;\n        }\n    }\n\n    function _stakeFirst(address _from, uint256 _moonAmount) internal {\n        uint256 stakeVal = _moonAmount;\n        playerToIndexMap[_from] = playerStakeArray.length;\n        indexToPlayerMap[playerStakeArray.length]=_from;\n        playerStakeArray.push(stakeVal);\n\n        emit StakeMoon(_from, _moonAmount, _moonAmount);\n    }\n\n    function _stakeCommon(uint256 _index, address _from, uint256 _moonAmount) internal {\n        require(_index < playerStakeArray.length);\n        uint256 stakeVal = playerStakeArray[_index];\n        uint256 moonVal =  stakeVal + _moonAmount;\n        require(moonVal >= _moonAmount);\n        require(moonVal >= stakeVal);\n        playerStakeArray[_index] =  moonVal;\n\n        emit StakeMoon(_from, _moonAmount, moonVal);\n    }\n\n    function receiveApproval(address _from, uint256 _value, bytes _extraData) external whenNotPaused {\n        require(msg.sender == address(moonToken) && _value >= 1000000);\n        require(moonToken.transferFrom(_from, address(this), _value));\n\n        uint256 index = playerToIndexMap[_from];\n        if (index != 0) {\n            _stakeCommon(index, _from, _value);\n        } else {\n            _stakeFirst(_from, _value);\n        }\n    }\n\n    /*\n        \n    */\n    function Unfreeze(uint256 _amount) external whenNotPaused {\n\n        address player = msg.sender;\n        uint256 index = playerToIndexMap[player];\n        require(index > 0 && index < playerStakeArray.length);\n\n        uint256 oldStakeVal = playerStakeArray[index];\n        require(oldStakeVal >= _amount);\n\n        uint256 unfreezingVal = playerUnFreezeMap[player];\n        uint256 unfreezingAmount = unfreezingVal & CLEAN_TIME;\n        uint256 newUnfreezingAmount = add(unfreezingAmount, _amount);\n\n        uint256 tmFreeze = (block.timestamp + stakeCd);\n\n        playerStakeArray[index] = oldStakeVal - _amount;\n        playerUnFreezeMap[player] = newUnfreezingAmount|tmFreeze;\n\n        unfreezingBalance = add(unfreezingBalance, _amount);\n\n        emit UnstakeMoon(player, unfreezingAmount, newUnfreezingAmount, oldStakeVal - _amount, tmFreeze);\n    }\n\n    /*\n        ---\n    */\n    function CancelUnfreeze() external whenNotPaused {\n        address player = msg.sender;\n\n        uint256 unfreezingVal = playerUnFreezeMap[player];\n        uint256 unfreezingAmount = unfreezingVal & CLEAN_TIME;\n        require(unfreezingAmount > 0 && unfreezingBalance >= unfreezingAmount);\n        \n        uint256 index = playerToIndexMap[player];\n        require(index > 0 && index < playerStakeArray.length);\n        uint256 stakeVal = playerStakeArray[index];\n\n        uint256 moonVal = add(stakeVal, unfreezingAmount);\n\n        unfreezingBalance -= unfreezingAmount;\n        playerUnFreezeMap[player] = 0;\n        playerStakeArray[index] = moonVal;\n\n        emit UnstakeMoonCancel(player, unfreezingAmount, moonVal);\n    }\n\n    /*\n        \n    */\n    function _withdrawUnfreeze(address _player) internal {\n        uint256 unfreezingVal = playerUnFreezeMap[_player];\n        uint256 unfreezingAmount = unfreezingVal & CLEAN_TIME;\n        uint256 tmFreeze = unfreezingVal >>TIME_MOVING;\n        require(unfreezingAmount > 0 && tmFreeze <= block.timestamp && unfreezingBalance >= unfreezingAmount);\n\n        unfreezingBalance -= unfreezingAmount;\n        playerUnFreezeMap[_player] =0;\n\n        require(moonToken.transfer(_player, unfreezingAmount));\n\n        emit WithdrawUnstakeMoon(_player, unfreezingAmount);\n    }\n\n    function WithdrawUnfreeze() external {\n        _withdrawUnfreeze(msg.sender);\n    }\n\n    function withdrawUnfreezeForece(address _player) external {\n        require(msg.sender == addrAdmin || msg.sender == addrOperator);\n        require(_player != address(0));\n        _withdrawUnfreeze(_player);\n    }\n\n    function unfreezeForece(uint256 _index) external whenNotPaused {\n        require(msg.sender == addrAdmin || msg.sender == addrOperator);\n        require(_index > 0 && _index < playerStakeArray.length);\n\n        uint256 moonVal = playerStakeArray[_index];\n        address player = indexToPlayerMap[_index];\n\n        if (player != address(0)) {\n            uint256 unfreezingVal = playerUnFreezeMap[player]; \n            uint256 unfreezingAmount = unfreezingVal & CLEAN_TIME;\n            uint256 needBack = moonVal;\n            if (unfreezingAmount > 0) {\n                require(unfreezingBalance >= unfreezingAmount);\n                unfreezingBalance -= unfreezingAmount;\n                playerUnFreezeMap[player] = 0;\n                needBack = add(moonVal, unfreezingAmount);\n            }\n\n            if (needBack > 0) {\n                emit UnstakeMoon(player, unfreezingAmount, needBack, 0, block.timestamp);\n \n                playerStakeArray[_index] = 0;\n                require(moonToken.transfer(player, needBack));\n\n                emit WithdrawUnstakeMoon(player, needBack);\n            }    \n        }    \n    }\n}\n",
  "sourcePath": "/Users/gordon/bian/dapp/dice/contracts/MoonStaker.sol",
  "compiler": {
    "name": "solc",
    "version": "0.4.25+commit.59dbf8f1.Emscripten.clang"
  },
  "schemaVersion": "3.2.0",
  "updatedAt": "2020-09-26T09:04:28.611Z",
  "networkType": "ethereum",
  "devdoc": {
    "methods": {}
  },
  "userdoc": {
    "methods": {}
  }
}