{
  "contractName": "MoonPool",
  "abi": [
    {
      "constant": false,
      "inputs": [
        {
          "name": "tokenAddrs",
          "type": "address[]"
        }
      ],
      "name": "updateVersion",
      "outputs": [],
      "payable": false,
      "stateMutability": "nonpayable",
      "type": "function"
    },
    {
      "constant": true,
      "inputs": [
        {
          "name": "",
          "type": "address"
        }
      ],
      "name": "safeBetContracts",
      "outputs": [
        {
          "name": "",
          "type": "bool"
        }
      ],
      "payable": false,
      "stateMutability": "view",
      "type": "function"
    },
    {
      "constant": true,
      "inputs": [],
      "name": "operator",
      "outputs": [
        {
          "name": "",
          "type": "address"
        }
      ],
      "payable": false,
      "stateMutability": "view",
      "type": "function"
    },
    {
      "constant": false,
      "inputs": [
        {
          "name": "_newAdmin",
          "type": "address"
        }
      ],
      "name": "setAdmin",
      "outputs": [],
      "payable": false,
      "stateMutability": "nonpayable",
      "type": "function"
    },
    {
      "constant": true,
      "inputs": [
        {
          "name": "",
          "type": "address"
        }
      ],
      "name": "tokenOriginalAmountMap",
      "outputs": [
        {
          "name": "",
          "type": "uint256"
        }
      ],
      "payable": false,
      "stateMutability": "view",
      "type": "function"
    },
    {
      "constant": true,
      "inputs": [],
      "name": "safeWaterLevel",
      "outputs": [
        {
          "name": "",
          "type": "uint256"
        }
      ],
      "payable": false,
      "stateMutability": "view",
      "type": "function"
    },
    {
      "constant": true,
      "inputs": [],
      "name": "addrFinance",
      "outputs": [
        {
          "name": "",
          "type": "address"
        }
      ],
      "payable": false,
      "stateMutability": "view",
      "type": "function"
    },
    {
      "constant": true,
      "inputs": [],
      "name": "addrWinDivider",
      "outputs": [
        {
          "name": "",
          "type": "address"
        }
      ],
      "payable": false,
      "stateMutability": "view",
      "type": "function"
    },
    {
      "constant": true,
      "inputs": [],
      "name": "moonTotalCache",
      "outputs": [
        {
          "name": "",
          "type": "uint256"
        }
      ],
      "payable": false,
      "stateMutability": "view",
      "type": "function"
    },
    {
      "constant": true,
      "inputs": [],
      "name": "isPaused",
      "outputs": [
        {
          "name": "",
          "type": "bool"
        }
      ],
      "payable": false,
      "stateMutability": "view",
      "type": "function"
    },
    {
      "constant": true,
      "inputs": [
        {
          "name": "",
          "type": "address"
        }
      ],
      "name": "playerMoonCache",
      "outputs": [
        {
          "name": "",
          "type": "uint256"
        }
      ],
      "payable": false,
      "stateMutability": "view",
      "type": "function"
    },
    {
      "constant": false,
      "inputs": [
        {
          "name": "_pause",
          "type": "bool"
        }
      ],
      "name": "setPause",
      "outputs": [],
      "payable": false,
      "stateMutability": "nonpayable",
      "type": "function"
    },
    {
      "constant": true,
      "inputs": [],
      "name": "addrAdmin",
      "outputs": [
        {
          "name": "",
          "type": "address"
        }
      ],
      "payable": false,
      "stateMutability": "view",
      "type": "function"
    },
    {
      "constant": true,
      "inputs": [],
      "name": "addrTokenDev",
      "outputs": [
        {
          "name": "",
          "type": "address"
        }
      ],
      "payable": false,
      "stateMutability": "view",
      "type": "function"
    },
    {
      "constant": true,
      "inputs": [],
      "name": "addrOperator",
      "outputs": [
        {
          "name": "",
          "type": "address"
        }
      ],
      "payable": false,
      "stateMutability": "view",
      "type": "function"
    },
    {
      "constant": true,
      "inputs": [],
      "name": "winRate",
      "outputs": [
        {
          "name": "",
          "type": "uint256"
        }
      ],
      "payable": false,
      "stateMutability": "view",
      "type": "function"
    },
    {
      "constant": true,
      "inputs": [],
      "name": "addrDivider",
      "outputs": [
        {
          "name": "",
          "type": "address"
        }
      ],
      "payable": false,
      "stateMutability": "view",
      "type": "function"
    },
    {
      "constant": true,
      "inputs": [],
      "name": "addrBurner",
      "outputs": [
        {
          "name": "",
          "type": "address"
        }
      ],
      "payable": false,
      "stateMutability": "view",
      "type": "function"
    },
    {
      "constant": true,
      "inputs": [],
      "name": "moonDevCache",
      "outputs": [
        {
          "name": "",
          "type": "uint256"
        }
      ],
      "payable": false,
      "stateMutability": "view",
      "type": "function"
    },
    {
      "inputs": [],
      "payable": false,
      "stateMutability": "nonpayable",
      "type": "constructor"
    },
    {
      "payable": true,
      "stateMutability": "payable",
      "type": "fallback"
    },
    {
      "anonymous": false,
      "inputs": [
        {
          "indexed": true,
          "name": "_from",
          "type": "address"
        },
        {
          "indexed": true,
          "name": "_addrToken",
          "type": "address"
        },
        {
          "indexed": false,
          "name": "_value",
          "type": "uint256"
        }
      ],
      "name": "TokenBurn",
      "type": "event"
    },
    {
      "anonymous": false,
      "inputs": [
        {
          "indexed": true,
          "name": "_index",
          "type": "uint256"
        },
        {
          "indexed": false,
          "name": "addrToken",
          "type": "address"
        },
        {
          "indexed": false,
          "name": "tokenValue",
          "type": "uint256"
        }
      ],
      "name": "TokenDivide",
      "type": "event"
    },
    {
      "constant": false,
      "inputs": [
        {
          "name": "_newFinance",
          "type": "address"
        }
      ],
      "name": "setFinance",
      "outputs": [],
      "payable": false,
      "stateMutability": "nonpayable",
      "type": "function"
    },
    {
      "constant": false,
      "inputs": [
        {
          "name": "_newBurner",
          "type": "address"
        }
      ],
      "name": "setBurner",
      "outputs": [],
      "payable": false,
      "stateMutability": "nonpayable",
      "type": "function"
    },
    {
      "constant": false,
      "inputs": [
        {
          "name": "_addr",
          "type": "address"
        }
      ],
      "name": "setAddrDivider",
      "outputs": [],
      "payable": false,
      "stateMutability": "nonpayable",
      "type": "function"
    },
    {
      "constant": false,
      "inputs": [
        {
          "name": "_newRate",
          "type": "uint256"
        }
      ],
      "name": "setWinRate",
      "outputs": [],
      "payable": false,
      "stateMutability": "nonpayable",
      "type": "function"
    },
    {
      "constant": false,
      "inputs": [
        {
          "name": "_newOperator",
          "type": "address"
        }
      ],
      "name": "setOperator",
      "outputs": [],
      "payable": false,
      "stateMutability": "nonpayable",
      "type": "function"
    },
    {
      "constant": false,
      "inputs": [
        {
          "name": "_newWinDivider",
          "type": "address"
        }
      ],
      "name": "setWinDivider",
      "outputs": [],
      "payable": false,
      "stateMutability": "nonpayable",
      "type": "function"
    },
    {
      "constant": false,
      "inputs": [
        {
          "name": "_actionAddr",
          "type": "address"
        },
        {
          "name": "_useful",
          "type": "bool"
        }
      ],
      "name": "setSafeContract",
      "outputs": [],
      "payable": false,
      "stateMutability": "nonpayable",
      "type": "function"
    },
    {
      "constant": true,
      "inputs": [
        {
          "name": "_actionAddr",
          "type": "address"
        }
      ],
      "name": "getSafeContract",
      "outputs": [
        {
          "name": "",
          "type": "bool"
        }
      ],
      "payable": false,
      "stateMutability": "view",
      "type": "function"
    },
    {
      "constant": false,
      "inputs": [
        {
          "name": "_addr",
          "type": "address"
        }
      ],
      "name": "setTokenDevAddr",
      "outputs": [],
      "payable": false,
      "stateMutability": "nonpayable",
      "type": "function"
    },
    {
      "constant": false,
      "inputs": [
        {
          "name": "_addr",
          "type": "address"
        }
      ],
      "name": "setMoonTokenAddr",
      "outputs": [],
      "payable": false,
      "stateMutability": "nonpayable",
      "type": "function"
    },
    {
      "constant": true,
      "inputs": [],
      "name": "getMoonTokenAddr",
      "outputs": [
        {
          "name": "",
          "type": "address"
        }
      ],
      "payable": false,
      "stateMutability": "view",
      "type": "function"
    },
    {
      "constant": true,
      "inputs": [],
      "name": "getTokenDevAddr",
      "outputs": [
        {
          "name": "",
          "type": "address"
        }
      ],
      "payable": false,
      "stateMutability": "view",
      "type": "function"
    },
    {
      "constant": false,
      "inputs": [
        {
          "name": "_newLevel",
          "type": "uint256"
        }
      ],
      "name": "setSafeWaterLevel",
      "outputs": [],
      "payable": false,
      "stateMutability": "nonpayable",
      "type": "function"
    },
    {
      "constant": false,
      "inputs": [
        {
          "name": "_tokenAddr",
          "type": "address"
        },
        {
          "name": "_amount",
          "type": "uint256"
        }
      ],
      "name": "setTokenOriginalAmount",
      "outputs": [],
      "payable": false,
      "stateMutability": "nonpayable",
      "type": "function"
    },
    {
      "constant": false,
      "inputs": [
        {
          "name": "_to",
          "type": "address"
        },
        {
          "name": "_amount",
          "type": "uint256"
        },
        {
          "name": "_originalAmount",
          "type": "uint256"
        }
      ],
      "name": "transferBnb",
      "outputs": [
        {
          "name": "",
          "type": "bool"
        }
      ],
      "payable": false,
      "stateMutability": "nonpayable",
      "type": "function"
    },
    {
      "constant": false,
      "inputs": [
        {
          "name": "_tokenAddr",
          "type": "address"
        },
        {
          "name": "_to",
          "type": "address"
        },
        {
          "name": "_amount",
          "type": "uint256"
        },
        {
          "name": "_original",
          "type": "uint256"
        }
      ],
      "name": "transferToWiner",
      "outputs": [
        {
          "name": "",
          "type": "bool"
        }
      ],
      "payable": false,
      "stateMutability": "nonpayable",
      "type": "function"
    },
    {
      "constant": true,
      "inputs": [],
      "name": "getPoolMoonBalance",
      "outputs": [
        {
          "name": "",
          "type": "uint256"
        }
      ],
      "payable": false,
      "stateMutability": "view",
      "type": "function"
    },
    {
      "constant": true,
      "inputs": [],
      "name": "getDevCacheBalance",
      "outputs": [
        {
          "name": "",
          "type": "uint256"
        }
      ],
      "payable": false,
      "stateMutability": "view",
      "type": "function"
    },
    {
      "constant": true,
      "inputs": [],
      "name": "getTotalCacheBalance",
      "outputs": [
        {
          "name": "",
          "type": "uint256"
        }
      ],
      "payable": false,
      "stateMutability": "view",
      "type": "function"
    },
    {
      "constant": true,
      "inputs": [],
      "name": "getPoolBnbCount",
      "outputs": [
        {
          "name": "",
          "type": "uint256"
        }
      ],
      "payable": false,
      "stateMutability": "view",
      "type": "function"
    },
    {
      "constant": false,
      "inputs": [
        {
          "name": "_to",
          "type": "address"
        },
        {
          "name": "_amount",
          "type": "uint256"
        }
      ],
      "name": "transferMoon",
      "outputs": [],
      "payable": false,
      "stateMutability": "nonpayable",
      "type": "function"
    },
    {
      "constant": false,
      "inputs": [
        {
          "name": "_to1",
          "type": "address"
        },
        {
          "name": "_amount",
          "type": "uint256"
        },
        {
          "name": "_devReleaseAmount",
          "type": "uint256"
        }
      ],
      "name": "transferMoonWithDevRelease",
      "outputs": [],
      "payable": false,
      "stateMutability": "nonpayable",
      "type": "function"
    },
    {
      "constant": false,
      "inputs": [],
      "name": "releaseDevMoon",
      "outputs": [],
      "payable": false,
      "stateMutability": "nonpayable",
      "type": "function"
    },
    {
      "constant": false,
      "inputs": [
        {
          "name": "_owner",
          "type": "address"
        }
      ],
      "name": "releaseMoon",
      "outputs": [],
      "payable": false,
      "stateMutability": "nonpayable",
      "type": "function"
    },
    {
      "constant": false,
      "inputs": [],
      "name": "releaseMoonSelf",
      "outputs": [],
      "payable": false,
      "stateMutability": "nonpayable",
      "type": "function"
    },
    {
      "constant": false,
      "inputs": [
        {
          "name": "_amount",
          "type": "uint256"
        }
      ],
      "name": "withdrawProfit",
      "outputs": [],
      "payable": false,
      "stateMutability": "nonpayable",
      "type": "function"
    },
    {
      "constant": false,
      "inputs": [
        {
          "name": "_amount",
          "type": "uint256"
        }
      ],
      "name": "withdrawMoon",
      "outputs": [],
      "payable": false,
      "stateMutability": "nonpayable",
      "type": "function"
    },
    {
      "constant": true,
      "inputs": [],
      "name": "getRole",
      "outputs": [
        {
          "name": "finance",
          "type": "address"
        },
        {
          "name": "burner",
          "type": "address"
        },
        {
          "name": "operator",
          "type": "address"
        },
        {
          "name": "divider",
          "type": "address"
        }
      ],
      "payable": false,
      "stateMutability": "view",
      "type": "function"
    },
    {
      "constant": false,
      "inputs": [
        {
          "name": "_tokenAddr",
          "type": "address"
        },
        {
          "name": "_to",
          "type": "address"
        },
        {
          "name": "_amount",
          "type": "uint256"
        },
        {
          "name": "_original",
          "type": "uint256"
        }
      ],
      "name": "transferToken",
      "outputs": [],
      "payable": false,
      "stateMutability": "nonpayable",
      "type": "function"
    },
    {
      "constant": false,
      "inputs": [
        {
          "name": "_addrToken",
          "type": "address"
        }
      ],
      "name": "burnToken",
      "outputs": [
        {
          "name": "",
          "type": "uint256"
        }
      ],
      "payable": false,
      "stateMutability": "nonpayable",
      "type": "function"
    },
    {
      "constant": false,
      "inputs": [
        {
          "name": "_addrTokens",
          "type": "address[]"
        }
      ],
      "name": "transferToDivide",
      "outputs": [],
      "payable": false,
      "stateMutability": "nonpayable",
      "type": "function"
    },
    {
      "constant": false,
      "inputs": [
        {
          "name": "_addrToken",
          "type": "address"
        },
        {
          "name": "_amount",
          "type": "uint256"
        }
      ],
      "name": "withdrawToken",
      "outputs": [],
      "payable": false,
      "stateMutability": "nonpayable",
      "type": "function"
    }
  ],
  "bytecode": "0x60806040526103e86009556032600c5534801561001b57600080fd5b5060008060006101000a81548160ff02191690831515021790555033600060016101000a81548173ffffffffffffffffffffffffffffffffffffffff021916908373ffffffffffffffffffffffffffffffffffffffff16021790555033600260006101000a81548173ffffffffffffffffffffffffffffffffffffffff021916908373ffffffffffffffffffffffffffffffffffffffff16021790555033600060016101000a81548173ffffffffffffffffffffffffffffffffffffffff021916908373ffffffffffffffffffffffffffffffffffffffff16021790555033600260006101000a81548173ffffffffffffffffffffffffffffffffffffffff021916908373ffffffffffffffffffffffffffffffffffffffff16021790555033600360006101000a81548173ffffffffffffffffffffffffffffffffffffffff021916908373ffffffffffffffffffffffffffffffffffffffff16021790555033600460006101000a81548173ffffffffffffffffffffffffffffffffffffffff021916908373ffffffffffffffffffffffffffffffffffffffff16021790555033600560006101000a81548173ffffffffffffffffffffffffffffffffffffffff021916908373ffffffffffffffffffffffffffffffffffffffff16021790555033600760006101000a81548173ffffffffffffffffffffffffffffffffffffffff021916908373ffffffffffffffffffffffffffffffffffffffff16021790555069021e19e0c9bab2400000600f60008073ffffffffffffffffffffffffffffffffffffffff1673ffffffffffffffffffffffffffffffffffffffff168152602001908152602001600020819055506154018061029b6000396000f300608060405260043610610267576000357c0100000000000000000000000000000000000000000000000000000000900463ffffffff1680630304e21514610269578063036ebef9146102b657806307d940a31461032d5780630a782e08146103705780631347e2771461039b5780631a7a4049146103d65780631ebd64f4146104115780632960ee301461043e57806338d9538e146104955780633be05039146104ec57806343fee7ab1461057b578063441deede146105d6578063570ca735146106315780635d92fcce14610688578063704b6c02146106cb578063709ddbbd1461070e5780637665af0b1461076557806382cb9df91461079057806387612ccd146107e75780638d3b9996146107fe5780639010729714610855578063950dad19146108c45780639a4111831461091b5780639b8d3064146109465780639c390859146109895780639e281a98146109a0578063a4187d55146109ed578063a996d6ce14610a18578063b187bd2614610a5b578063b3ab15fb14610a8a578063b523433014610acd578063bedb86fb14610b24578063bfae2f0e14610b53578063c029844814610baa578063c07c1b1314610bd5578063c1cbc36314610c00578063cce0244d14610c57578063cf51096b14610ca6578063d19d3de514610cfd578063d2c0109d14610d2a578063d82a2bea14610d57578063de6eabdb14610d84578063e58bc3f014610dd1578063e592b29c14610dfc578063e7266c8c14610e3f578063eedb5bcd14610e82578063f485e41014610ed9578063f7bd226214610f30578063f9279c7514610f5b578063fde0817414610fb2578063fe1f6431146110a2575b005b34801561027557600080fd5b506102b4600480360381019080803573ffffffffffffffffffffffffffffffffffffffff169060200190929190803590602001909291905050506110e5565b005b3480156102c257600080fd5b5061032b600480360381019080803573ffffffffffffffffffffffffffffffffffffffff169060200190929190803573ffffffffffffffffffffffffffffffffffffffff169060200190929190803590602001909291908035906020019092919050505061123a565b005b34801561033957600080fd5b5061036e600480360381019080803573ffffffffffffffffffffffffffffffffffffffff1690602001909291905050506114b4565b005b34801561037c57600080fd5b506103856115f9565b6040518082815260200191505060405180910390f35b3480156103a757600080fd5b506103d4600480360381019080803590602001908201803590602001919091929391929390505050611603565b005b3480156103e257600080fd5b5061040f600480360381019080803590602001908201803590602001919091929391929390505050611715565b005b34801561041d57600080fd5b5061043c6004803603810190808035906020019092919050505061197e565b005b34801561044a57600080fd5b50610493600480360381019080803573ffffffffffffffffffffffffffffffffffffffff1690602001909291908035906020019092919080359060200190929190505050611c7d565b005b3480156104a157600080fd5b506104aa611f45565b604051808273ffffffffffffffffffffffffffffffffffffffff1673ffffffffffffffffffffffffffffffffffffffff16815260200191505060405180910390f35b3480156104f857600080fd5b50610561600480360381019080803573ffffffffffffffffffffffffffffffffffffffff169060200190929190803573ffffffffffffffffffffffffffffffffffffffff1690602001909291908035906020019092919080359060200190929190505050611f6f565b604051808215151515815260200191505060405180910390f35b34801561058757600080fd5b506105bc600480360381019080803573ffffffffffffffffffffffffffffffffffffffff1690602001909291905050506122bc565b604051808215151515815260200191505060405180910390f35b3480156105e257600080fd5b50610617600480360381019080803573ffffffffffffffffffffffffffffffffffffffff1690602001909291905050506122dc565b604051808215151515815260200191505060405180910390f35b34801561063d57600080fd5b50610646612332565b604051808273ffffffffffffffffffffffffffffffffffffffff1673ffffffffffffffffffffffffffffffffffffffff16815260200191505060405180910390f35b34801561069457600080fd5b506106c9600480360381019080803573ffffffffffffffffffffffffffffffffffffffff169060200190929190505050612358565b005b3480156106d757600080fd5b5061070c600480360381019080803573ffffffffffffffffffffffffffffffffffffffff16906020019092919050505061249d565b005b34801561071a57600080fd5b5061074f600480360381019080803573ffffffffffffffffffffffffffffffffffffffff16906020019092919050505061264b565b6040518082815260200191505060405180910390f35b34801561077157600080fd5b5061077a612663565b6040518082815260200191505060405180910390f35b34801561079c57600080fd5b506107a5612669565b604051808273ffffffffffffffffffffffffffffffffffffffff1673ffffffffffffffffffffffffffffffffffffffff16815260200191505060405180910390f35b3480156107f357600080fd5b506107fc61268f565b005b34801561080a57600080fd5b5061081361285d565b604051808273ffffffffffffffffffffffffffffffffffffffff1673ffffffffffffffffffffffffffffffffffffffff16815260200191505060405180910390f35b34801561086157600080fd5b506108aa600480360381019080803573ffffffffffffffffffffffffffffffffffffffff1690602001909291908035906020019092919080359060200190929190505050612883565b604051808215151515815260200191505060405180910390f35b3480156108d057600080fd5b50610905600480360381019080803573ffffffffffffffffffffffffffffffffffffffff169060200190929190505050612983565b6040518082815260200191505060405180910390f35b34801561092757600080fd5b50610930612ca8565b6040518082815260200191505060405180910390f35b34801561095257600080fd5b50610987600480360381019080803573ffffffffffffffffffffffffffffffffffffffff169060200190929190505050612cae565b005b34801561099557600080fd5b5061099e612d8a565b005b3480156109ac57600080fd5b506109eb600480360381019080803573ffffffffffffffffffffffffffffffffffffffff16906020019092919080359060200190929190505050612fe6565b005b3480156109f957600080fd5b50610a026132a1565b6040518082815260200191505060405180910390f35b348015610a2457600080fd5b50610a59600480360381019080803573ffffffffffffffffffffffffffffffffffffffff1690602001909291905050506133be565b005b348015610a6757600080fd5b50610a70613503565b604051808215151515815260200191505060405180910390f35b348015610a9657600080fd5b50610acb600480360381019080803573ffffffffffffffffffffffffffffffffffffffff169060200190929190505050613515565b005b348015610ad957600080fd5b50610b0e600480360381019080803573ffffffffffffffffffffffffffffffffffffffff169060200190929190505050613649565b6040518082815260200191505060405180910390f35b348015610b3057600080fd5b50610b51600480360381019080803515159060200190929190505050613661565b005b348015610b5f57600080fd5b50610b68613742565b604051808273ffffffffffffffffffffffffffffffffffffffff1673ffffffffffffffffffffffffffffffffffffffff16815260200191505060405180910390f35b348015610bb657600080fd5b50610bbf613768565b6040518082815260200191505060405180910390f35b348015610be157600080fd5b50610bea613772565b6040518082815260200191505060405180910390f35b348015610c0c57600080fd5b50610c156137a4565b604051808273ffffffffffffffffffffffffffffffffffffffff1673ffffffffffffffffffffffffffffffffffffffff16815260200191505060405180910390f35b348015610c6357600080fd5b50610ca4600480360381019080803573ffffffffffffffffffffffffffffffffffffffff1690602001909291908035151590602001909291905050506137ca565b005b348015610cb257600080fd5b50610cbb6138ea565b604051808273ffffffffffffffffffffffffffffffffffffffff1673ffffffffffffffffffffffffffffffffffffffff16815260200191505060405180910390f35b348015610d0957600080fd5b50610d2860048036038101908080359060200190929190505050613910565b005b348015610d3657600080fd5b50610d55600480360381019080803590602001909291905050506139eb565b005b348015610d6357600080fd5b50610d8260048036038101908080359060200190929190505050613ad5565b005b348015610d9057600080fd5b50610dcf600480360381019080803573ffffffffffffffffffffffffffffffffffffffff16906020019092919080359060200190929190505050613c27565b005b348015610ddd57600080fd5b50610de6613ece565b6040518082815260200191505060405180910390f35b348015610e0857600080fd5b50610e3d600480360381019080803573ffffffffffffffffffffffffffffffffffffffff169060200190929190505050613ed4565b005b348015610e4b57600080fd5b50610e80600480360381019080803573ffffffffffffffffffffffffffffffffffffffff1690602001909291905050506141e7565b005b348015610e8e57600080fd5b50610e9761432c565b604051808273ffffffffffffffffffffffffffffffffffffffff1673ffffffffffffffffffffffffffffffffffffffff16815260200191505060405180910390f35b348015610ee557600080fd5b50610eee614352565b604051808273ffffffffffffffffffffffffffffffffffffffff1673ffffffffffffffffffffffffffffffffffffffff16815260200191505060405180910390f35b348015610f3c57600080fd5b50610f45614378565b6040518082815260200191505060405180910390f35b348015610f6757600080fd5b50610f7061437e565b604051808273ffffffffffffffffffffffffffffffffffffffff1673ffffffffffffffffffffffffffffffffffffffff16815260200191505060405180910390f35b348015610fbe57600080fd5b50610fc76143a8565b604051808573ffffffffffffffffffffffffffffffffffffffff1673ffffffffffffffffffffffffffffffffffffffff1681526020018473ffffffffffffffffffffffffffffffffffffffff1673ffffffffffffffffffffffffffffffffffffffff1681526020018373ffffffffffffffffffffffffffffffffffffffff1673ffffffffffffffffffffffffffffffffffffffff1681526020018273ffffffffffffffffffffffffffffffffffffffff1673ffffffffffffffffffffffffffffffffffffffff16815260200194505050505060405180910390f35b3480156110ae57600080fd5b506110e3600480360381019080803573ffffffffffffffffffffffffffffffffffffffff169060200190929190505050614448565b005b600060019054906101000a900473ffffffffffffffffffffffffffffffffffffffff1673ffffffffffffffffffffffffffffffffffffffff163373ffffffffffffffffffffffffffffffffffffffff161415156111aa576040517f08c379a00000000000000000000000000000000000000000000000000000000081526004018080602001828103825260098152602001807f6e6f742061646d696e000000000000000000000000000000000000000000000081525060200191505060405180910390fd5b600073ffffffffffffffffffffffffffffffffffffffff168273ffffffffffffffffffffffffffffffffffffffff16141580156111e75750600081115b15156111f257600080fd5b80600f60008473ffffffffffffffffffffffffffffffffffffffff1673ffffffffffffffffffffffffffffffffffffffff168152602001908152602001600020819055505050565b6000806000809054906101000a900460ff1615151561125857600080fd5b600d60003373ffffffffffffffffffffffffffffffffffffffff1673ffffffffffffffffffffffffffffffffffffffff16815260200190815260200160002060009054906101000a900460ff1615156112b057600080fd5b8591508173ffffffffffffffffffffffffffffffffffffffff166370a08231306040518263ffffffff167c0100000000000000000000000000000000000000000000000000000000028152600401808273ffffffffffffffffffffffffffffffffffffffff1673ffffffffffffffffffffffffffffffffffffffff168152602001915050602060405180830381600087803b15801561134e57600080fd5b505af1158015611362573d6000803e3d6000fd5b505050506040513d602081101561137857600080fd5b810190808051906020019092919050505090506113ad6009546127108381151561139e57fe5b0461455a90919063ffffffff16565b6113c0848661462790919063ffffffff16565b111515156113cd57600080fd5b8173ffffffffffffffffffffffffffffffffffffffff1663a9059cbb86866040518363ffffffff167c0100000000000000000000000000000000000000000000000000000000028152600401808373ffffffffffffffffffffffffffffffffffffffff1673ffffffffffffffffffffffffffffffffffffffff16815260200182815260200192505050602060405180830381600087803b15801561147057600080fd5b505af1158015611484573d6000803e3d6000fd5b505050506040513d602081101561149a57600080fd5b810190808051906020019092919050505050505050505050565b600060019054906101000a900473ffffffffffffffffffffffffffffffffffffffff1673ffffffffffffffffffffffffffffffffffffffff163373ffffffffffffffffffffffffffffffffffffffff16141515611579576040517f08c379a00000000000000000000000000000000000000000000000000000000081526004018080602001828103825260098152602001807f6e6f742061646d696e000000000000000000000000000000000000000000000081525060200191505060405180910390fd5b600073ffffffffffffffffffffffffffffffffffffffff168173ffffffffffffffffffffffffffffffffffffffff16141515156115b557600080fd5b80600460006101000a81548173ffffffffffffffffffffffffffffffffffffffff021916908373ffffffffffffffffffffffffffffffffffffffff16021790555050565b6000600b54905090565b6000806000600360009054906101000a900473ffffffffffffffffffffffffffffffffffffffff1673ffffffffffffffffffffffffffffffffffffffff163373ffffffffffffffffffffffffffffffffffffffff1614806116b15750600060019054906101000a900473ffffffffffffffffffffffffffffffffffffffff1673ffffffffffffffffffffffffffffffffffffffff163373ffffffffffffffffffffffffffffffffffffffff16145b15156116bc57600080fd5b848490509250600090505b8281101561170e5761170385858381811015156116e057fe5b9050602002013573ffffffffffffffffffffffffffffffffffffffff1642614671565b6001810190506116c7565b5050505050565b6060600060019054906101000a900473ffffffffffffffffffffffffffffffffffffffff1673ffffffffffffffffffffffffffffffffffffffff163373ffffffffffffffffffffffffffffffffffffffff161415156117dc576040517f08c379a00000000000000000000000000000000000000000000000000000000081526004018080602001828103825260098152602001807f6e6f742061646d696e000000000000000000000000000000000000000000000081525060200191505060405180910390fd5b600073ffffffffffffffffffffffffffffffffffffffff16600260009054906101000a900473ffffffffffffffffffffffffffffffffffffffff1673ffffffffffffffffffffffffffffffffffffffff16141515156118a3576040517f08c379a000000000000000000000000000000000000000000000000000000000815260040180806020018281038252600c8152602001807f66696e616e63652069732030000000000000000000000000000000000000000081525060200191505060405180910390fd5b6118fb8383808060200260200160405190810160405280939291908181526020018383602002808284378201915050505050503073ffffffffffffffffffffffffffffffffffffffff16614bc490919063ffffffff16565b905061197983838080602002602001604051908101604052809392919081815260200183836020028082843782019150505050505082600260009054906101000a900473ffffffffffffffffffffffffffffffffffffffff1673ffffffffffffffffffffffffffffffffffffffff16614d779092919063ffffffff16565b505050565b600080600260009054906101000a900473ffffffffffffffffffffffffffffffffffffffff1673ffffffffffffffffffffffffffffffffffffffff163373ffffffffffffffffffffffffffffffffffffffff161480611a2a5750600060019054906101000a900473ffffffffffffffffffffffffffffffffffffffff1673ffffffffffffffffffffffffffffffffffffffff163373ffffffffffffffffffffffffffffffffffffffff16145b1515611a3557600080fd5b600860009054906101000a900473ffffffffffffffffffffffffffffffffffffffff1673ffffffffffffffffffffffffffffffffffffffff166370a08231306040518263ffffffff167c0100000000000000000000000000000000000000000000000000000000028152600401808273ffffffffffffffffffffffffffffffffffffffff1673ffffffffffffffffffffffffffffffffffffffff168152602001915050602060405180830381600087803b158015611af257600080fd5b505af1158015611b06573d6000803e3d6000fd5b505050506040513d6020811015611b1c57600080fd5b81019080805190602001909291905050509150611b44600a548361462790919063ffffffff16565b9050828110151515611b5557600080fd5b600860009054906101000a900473ffffffffffffffffffffffffffffffffffffffff1673ffffffffffffffffffffffffffffffffffffffff1663a9059cbb600260009054906101000a900473ffffffffffffffffffffffffffffffffffffffff16856040518363ffffffff167c0100000000000000000000000000000000000000000000000000000000028152600401808373ffffffffffffffffffffffffffffffffffffffff1673ffffffffffffffffffffffffffffffffffffffff16815260200182815260200192505050602060405180830381600087803b158015611c3c57600080fd5b505af1158015611c50573d6000803e3d6000fd5b505050506040513d6020811015611c6657600080fd5b810190808051906020019092919050505050505050565b6000806000806000809054906101000a900460ff16151515611c9e57600080fd5b600d60003373ffffffffffffffffffffffffffffffffffffffff1673ffffffffffffffffffffffffffffffffffffffff16815260200190815260200160002060009054906101000a900460ff168015611d245750600073ffffffffffffffffffffffffffffffffffffffff168773ffffffffffffffffffffffffffffffffffffffff1614155b1515611d2f57600080fd5b600860009054906101000a900473ffffffffffffffffffffffffffffffffffffffff1673ffffffffffffffffffffffffffffffffffffffff166370a08231306040518263ffffffff167c0100000000000000000000000000000000000000000000000000000000028152600401808273ffffffffffffffffffffffffffffffffffffffff1673ffffffffffffffffffffffffffffffffffffffff168152602001915050602060405180830381600087803b158015611dec57600080fd5b505af1158015611e00573d6000803e3d6000fd5b505050506040513d6020811015611e1657600080fd5b81019080805190602001909291905050509350611e3e600a548561462790919063ffffffff16565b9250611e538587614e8690919063ffffffff16565b9150818310151515611e6457600080fd5b6000861115611f0657600e60008873ffffffffffffffffffffffffffffffffffffffff1673ffffffffffffffffffffffffffffffffffffffff168152602001908152602001600020549050611ec28682614e8690919063ffffffff16565b600e60008973ffffffffffffffffffffffffffffffffffffffff1673ffffffffffffffffffffffffffffffffffffffff168152602001908152602001600020819055505b611f1b82600a54614e8690919063ffffffff16565b600a81905550611f3685600b54614e8690919063ffffffff16565b600b8190555050505050505050565b6000600460009054906101000a900473ffffffffffffffffffffffffffffffffffffffff16905090565b60008060008060009054906101000a900460ff16151515611f8f57600080fd5b600d60003373ffffffffffffffffffffffffffffffffffffffff1673ffffffffffffffffffffffffffffffffffffffff16815260200190815260200160002060009054906101000a900460ff161515611fe757600080fd5b600073ffffffffffffffffffffffffffffffffffffffff168773ffffffffffffffffffffffffffffffffffffffff1614156120b1576009546127103073ffffffffffffffffffffffffffffffffffffffff163181151561204357fe5b0402612058858761462790919063ffffffff16565b1115151561206557600080fd5b8573ffffffffffffffffffffffffffffffffffffffff166108fc869081150290604051600060405180830381858888f193505050501580156120ab573d6000803e3d6000fd5b506122ae565b8691508173ffffffffffffffffffffffffffffffffffffffff166370a08231306040518263ffffffff167c0100000000000000000000000000000000000000000000000000000000028152600401808273ffffffffffffffffffffffffffffffffffffffff1673ffffffffffffffffffffffffffffffffffffffff168152602001915050602060405180830381600087803b15801561214f57600080fd5b505af1158015612163573d6000803e3d6000fd5b505050506040513d602081101561217957600080fd5b810190808051906020019092919050505090506121ae6009546127108381151561219f57fe5b0461455a90919063ffffffff16565b6121c1858761462790919063ffffffff16565b111515156121ce57600080fd5b8173ffffffffffffffffffffffffffffffffffffffff1663a9059cbb87876040518363ffffffff167c0100000000000000000000000000000000000000000000000000000000028152600401808373ffffffffffffffffffffffffffffffffffffffff1673ffffffffffffffffffffffffffffffffffffffff16815260200182815260200192505050602060405180830381600087803b15801561227157600080fd5b505af1158015612285573d6000803e3d6000fd5b505050506040513d602081101561229b57600080fd5b8101908080519060200190929190505050505b600192505050949350505050565b600d6020528060005260406000206000915054906101000a900460ff1681565b6000600d60008373ffffffffffffffffffffffffffffffffffffffff1673ffffffffffffffffffffffffffffffffffffffff16815260200190815260200160002060009054906101000a900460ff169050919050565b600160009054906101000a900473ffffffffffffffffffffffffffffffffffffffff1681565b600060019054906101000a900473ffffffffffffffffffffffffffffffffffffffff1673ffffffffffffffffffffffffffffffffffffffff163373ffffffffffffffffffffffffffffffffffffffff1614151561241d576040517f08c379a00000000000000000000000000000000000000000000000000000000081526004018080602001828103825260098152602001807f6e6f742061646d696e000000000000000000000000000000000000000000000081525060200191505060405180910390fd5b600073ffffffffffffffffffffffffffffffffffffffff168173ffffffffffffffffffffffffffffffffffffffff161415151561245957600080fd5b80600860006101000a81548173ffffffffffffffffffffffffffffffffffffffff021916908373ffffffffffffffffffffffffffffffffffffffff16021790555050565b600060019054906101000a900473ffffffffffffffffffffffffffffffffffffffff1673ffffffffffffffffffffffffffffffffffffffff163373ffffffffffffffffffffffffffffffffffffffff16141515612562576040517f08c379a00000000000000000000000000000000000000000000000000000000081526004018080602001828103825260098152602001807f6e6f742061646d696e000000000000000000000000000000000000000000000081525060200191505060405180910390fd5b600073ffffffffffffffffffffffffffffffffffffffff168173ffffffffffffffffffffffffffffffffffffffff1614151515612607576040517f08c379a000000000000000000000000000000000000000000000000000000000815260040180806020018281038252601c8152602001807f5f6e657741646d696e2063616e2774206265206164647265737320300000000081525060200191505060405180910390fd5b80600060016101000a81548173ffffffffffffffffffffffffffffffffffffffff021916908373ffffffffffffffffffffffffffffffffffffffff16021790555050565b600f6020528060005260406000206000915090505481565b60095481565b600260009054906101000a900473ffffffffffffffffffffffffffffffffffffffff1681565b6000600e60003373ffffffffffffffffffffffffffffffffffffffff1673ffffffffffffffffffffffffffffffffffffffff1681526020019081526020016000205490506001811115156126e257600080fd5b600a5481111515156126f357600080fd5b61270b60018203600a5461462790919063ffffffff16565b600a819055506001600e60003373ffffffffffffffffffffffffffffffffffffffff1673ffffffffffffffffffffffffffffffffffffffff16815260200190815260200160002081905550600860009054906101000a900473ffffffffffffffffffffffffffffffffffffffff1673ffffffffffffffffffffffffffffffffffffffff1663a9059cbb33600184036040518363ffffffff167c0100000000000000000000000000000000000000000000000000000000028152600401808373ffffffffffffffffffffffffffffffffffffffff1673ffffffffffffffffffffffffffffffffffffffff16815260200182815260200192505050602060405180830381600087803b15801561281e57600080fd5b505af1158015612832573d6000803e3d6000fd5b505050506040513d602081101561284857600080fd5b81019080805190602001909291905050505050565b600760009054906101000a900473ffffffffffffffffffffffffffffffffffffffff1681565b60008060009054906101000a900460ff161515156128a057600080fd5b600d60003373ffffffffffffffffffffffffffffffffffffffff1673ffffffffffffffffffffffffffffffffffffffff16815260200190815260200160002060009054906101000a900460ff1615156128f857600080fd5b6009546127103073ffffffffffffffffffffffffffffffffffffffff163181151561291f57fe5b04028284031115151561293157600080fd5b8373ffffffffffffffffffffffffffffffffffffffff166108fc849081150290604051600060405180830381858888f19350505050158015612977573d6000803e3d6000fd5b50600190509392505050565b600080600080600560009054906101000a900473ffffffffffffffffffffffffffffffffffffffff1673ffffffffffffffffffffffffffffffffffffffff163373ffffffffffffffffffffffffffffffffffffffff161480612a325750600060019054906101000a900473ffffffffffffffffffffffffffffffffffffffff1673ffffffffffffffffffffffffffffffffffffffff163373ffffffffffffffffffffffffffffffffffffffff16145b1515612a3d57600080fd5b8492508273ffffffffffffffffffffffffffffffffffffffff166370a08231306040518263ffffffff167c0100000000000000000000000000000000000000000000000000000000028152600401808273ffffffffffffffffffffffffffffffffffffffff1673ffffffffffffffffffffffffffffffffffffffff168152602001915050602060405180830381600087803b158015612adb57600080fd5b505af1158015612aef573d6000803e3d6000fd5b505050506040513d6020811015612b0557600080fd5b81019080805190602001909291905050509150612b6a600f60008773ffffffffffffffffffffffffffffffffffffffff1673ffffffffffffffffffffffffffffffffffffffff168152602001908152602001600020548361462790919063ffffffff16565b90508082111515612b7a57600080fd5b6000811115612c9b578273ffffffffffffffffffffffffffffffffffffffff166342966c68826040518263ffffffff167c010000000000000000000000000000000000000000000000000000000002815260040180828152602001915050602060405180830381600087803b158015612bf257600080fd5b505af1158015612c06573d6000803e3d6000fd5b505050506040513d6020811015612c1c57600080fd5b8101908080519060200190929190505050508473ffffffffffffffffffffffffffffffffffffffff163073ffffffffffffffffffffffffffffffffffffffff167fb37c6417ca02c8084d9b4013dd6cb0f56bbd792f58dee3354014d14f714fc16b836040518082815260200191505060405180910390a3809350612ca0565b600093505b505050919050565b600a5481565b600260009054906101000a900473ffffffffffffffffffffffffffffffffffffffff1673ffffffffffffffffffffffffffffffffffffffff163373ffffffffffffffffffffffffffffffffffffffff16141515612d0a57600080fd5b600073ffffffffffffffffffffffffffffffffffffffff168173ffffffffffffffffffffffffffffffffffffffff1614151515612d4657600080fd5b80600260006101000a81548173ffffffffffffffffffffffffffffffffffffffff021916908373ffffffffffffffffffffffffffffffffffffffff16021790555050565b600260009054906101000a900473ffffffffffffffffffffffffffffffffffffffff1673ffffffffffffffffffffffffffffffffffffffff163373ffffffffffffffffffffffffffffffffffffffff161480612e335750600060019054906101000a900473ffffffffffffffffffffffffffffffffffffffff1673ffffffffffffffffffffffffffffffffffffffff163373ffffffffffffffffffffffffffffffffffffffff16145b80612e8b5750600460009054906101000a900473ffffffffffffffffffffffffffffffffffffffff1673ffffffffffffffffffffffffffffffffffffffff163373ffffffffffffffffffffffffffffffffffffffff16145b1515612e9657600080fd5b6000600b54118015612eac5750600b54600a5410155b1515612eb757600080fd5b6000600b81905550600860009054906101000a900473ffffffffffffffffffffffffffffffffffffffff1673ffffffffffffffffffffffffffffffffffffffff1663a9059cbb600460009054906101000a900473ffffffffffffffffffffffffffffffffffffffff16600b546040518363ffffffff167c0100000000000000000000000000000000000000000000000000000000028152600401808373ffffffffffffffffffffffffffffffffffffffff1673ffffffffffffffffffffffffffffffffffffffff16815260200182815260200192505050602060405180830381600087803b158015612fa857600080fd5b505af1158015612fbc573d6000803e3d6000fd5b505050506040513d6020811015612fd257600080fd5b810190808051906020019092919050505050565b60008060008060019054906101000a900473ffffffffffffffffffffffffffffffffffffffff1673ffffffffffffffffffffffffffffffffffffffff163373ffffffffffffffffffffffffffffffffffffffff161415156130af576040517f08c379a00000000000000000000000000000000000000000000000000000000081526004018080602001828103825260098152602001807f6e6f742061646d696e000000000000000000000000000000000000000000000081525060200191505060405180910390fd5b8492508273ffffffffffffffffffffffffffffffffffffffff166370a08231306040518263ffffffff167c0100000000000000000000000000000000000000000000000000000000028152600401808273ffffffffffffffffffffffffffffffffffffffff1673ffffffffffffffffffffffffffffffffffffffff168152602001915050602060405180830381600087803b15801561314d57600080fd5b505af1158015613161573d6000803e3d6000fd5b505050506040513d602081101561317757600080fd5b8101908080519060200190929190505050915083905081841115613199578190505b8273ffffffffffffffffffffffffffffffffffffffff1663a9059cbb600260009054906101000a900473ffffffffffffffffffffffffffffffffffffffff16836040518363ffffffff167c0100000000000000000000000000000000000000000000000000000000028152600401808373ffffffffffffffffffffffffffffffffffffffff1673ffffffffffffffffffffffffffffffffffffffff16815260200182815260200192505050602060405180830381600087803b15801561325e57600080fd5b505af1158015613272573d6000803e3d6000fd5b505050506040513d602081101561328857600080fd5b8101908080519060200190929190505050505050505050565b600080600860009054906101000a900473ffffffffffffffffffffffffffffffffffffffff1673ffffffffffffffffffffffffffffffffffffffff166370a08231306040518263ffffffff167c0100000000000000000000000000000000000000000000000000000000028152600401808273ffffffffffffffffffffffffffffffffffffffff1673ffffffffffffffffffffffffffffffffffffffff168152602001915050602060405180830381600087803b15801561336157600080fd5b505af1158015613375573d6000803e3d6000fd5b505050506040513d602081101561338b57600080fd5b81019080805190602001909291905050509050600a54811015156133b557600a54810391506133ba565b600091505b5090565b600060019054906101000a900473ffffffffffffffffffffffffffffffffffffffff1673ffffffffffffffffffffffffffffffffffffffff163373ffffffffffffffffffffffffffffffffffffffff16141515613483576040517f08c379a00000000000000000000000000000000000000000000000000000000081526004018080602001828103825260098152602001807f6e6f742061646d696e000000000000000000000000000000000000000000000081525060200191505060405180910390fd5b600073ffffffffffffffffffffffffffffffffffffffff168173ffffffffffffffffffffffffffffffffffffffff16141515156134bf57600080fd5b80600560006101000a81548173ffffffffffffffffffffffffffffffffffffffff021916908373ffffffffffffffffffffffffffffffffffffffff16021790555050565b6000809054906101000a900460ff1681565b600360009054906101000a900473ffffffffffffffffffffffffffffffffffffffff1673ffffffffffffffffffffffffffffffffffffffff163373ffffffffffffffffffffffffffffffffffffffff1614806135be5750600060019054906101000a900473ffffffffffffffffffffffffffffffffffffffff1673ffffffffffffffffffffffffffffffffffffffff163373ffffffffffffffffffffffffffffffffffffffff16145b15156135c957600080fd5b600073ffffffffffffffffffffffffffffffffffffffff168173ffffffffffffffffffffffffffffffffffffffff161415151561360557600080fd5b80600360006101000a81548173ffffffffffffffffffffffffffffffffffffffff021916908373ffffffffffffffffffffffffffffffffffffffff16021790555050565b600e6020528060005260406000206000915090505481565b600060019054906101000a900473ffffffffffffffffffffffffffffffffffffffff1673ffffffffffffffffffffffffffffffffffffffff163373ffffffffffffffffffffffffffffffffffffffff16141515613726576040517f08c379a00000000000000000000000000000000000000000000000000000000081526004018080602001828103825260098152602001807f6e6f742061646d696e000000000000000000000000000000000000000000000081525060200191505060405180910390fd5b806000806101000a81548160ff02191690831515021790555050565b600060019054906101000a900473ffffffffffffffffffffffffffffffffffffffff1681565b6000600a54905090565b6000670de0b6b3a76400003073ffffffffffffffffffffffffffffffffffffffff163181151561379e57fe5b04905090565b600460009054906101000a900473ffffffffffffffffffffffffffffffffffffffff1681565b600060019054906101000a900473ffffffffffffffffffffffffffffffffffffffff1673ffffffffffffffffffffffffffffffffffffffff163373ffffffffffffffffffffffffffffffffffffffff1614151561388f576040517f08c379a00000000000000000000000000000000000000000000000000000000081526004018080602001828103825260098152602001807f6e6f742061646d696e000000000000000000000000000000000000000000000081525060200191505060405180910390fd5b80600d60008473ffffffffffffffffffffffffffffffffffffffff1673ffffffffffffffffffffffffffffffffffffffff16815260200190815260200160002060006101000a81548160ff0219169083151502179055505050565b600360009054906101000a900473ffffffffffffffffffffffffffffffffffffffff1681565b600060019054906101000a900473ffffffffffffffffffffffffffffffffffffffff1673ffffffffffffffffffffffffffffffffffffffff163373ffffffffffffffffffffffffffffffffffffffff1614806139b95750600360009054906101000a900473ffffffffffffffffffffffffffffffffffffffff1673ffffffffffffffffffffffffffffffffffffffff163373ffffffffffffffffffffffffffffffffffffffff16145b15156139c457600080fd5b6000811180156139d657506113888111155b15156139e157600080fd5b8060098190555050565b600060019054906101000a900473ffffffffffffffffffffffffffffffffffffffff1673ffffffffffffffffffffffffffffffffffffffff163373ffffffffffffffffffffffffffffffffffffffff16141515613ab0576040517f08c379a00000000000000000000000000000000000000000000000000000000081526004018080602001828103825260098152602001807f6e6f742061646d696e000000000000000000000000000000000000000000000081525060200191505060405180910390fd5b600081118015613ac05750606481105b1515613acb57600080fd5b80600c8190555050565b600260009054906101000a900473ffffffffffffffffffffffffffffffffffffffff1673ffffffffffffffffffffffffffffffffffffffff163373ffffffffffffffffffffffffffffffffffffffff161480613b7e5750600060019054906101000a900473ffffffffffffffffffffffffffffffffffffffff1673ffffffffffffffffffffffffffffffffffffffff163373ffffffffffffffffffffffffffffffffffffffff16145b1515613b8957600080fd5b600081118015613bb057503073ffffffffffffffffffffffffffffffffffffffff16318111155b1515613bbb57600080fd5b600260009054906101000a900473ffffffffffffffffffffffffffffffffffffffff1673ffffffffffffffffffffffffffffffffffffffff166108fc829081150290604051600060405180830381858888f19350505050158015613c23573d6000803e3d6000fd5b5050565b60008060009054906101000a900460ff16151515613c4457600080fd5b600d60003373ffffffffffffffffffffffffffffffffffffffff1673ffffffffffffffffffffffffffffffffffffffff16815260200190815260200160002060009054906101000a900460ff161515613c9c57600080fd5b6000821415613caa57613ec9565b600860009054906101000a900473ffffffffffffffffffffffffffffffffffffffff1673ffffffffffffffffffffffffffffffffffffffff166370a08231306040518263ffffffff167c0100000000000000000000000000000000000000000000000000000000028152600401808273ffffffffffffffffffffffffffffffffffffffff1673ffffffffffffffffffffffffffffffffffffffff168152602001915050602060405180830381600087803b158015613d6757600080fd5b505af1158015613d7b573d6000803e3d6000fd5b505050506040513d6020811015613d9157600080fd5b8101908080519060200190929190505050905081613dba600a548361462790919063ffffffff16565b10151515613dc757600080fd5b600860009054906101000a900473ffffffffffffffffffffffffffffffffffffffff1673ffffffffffffffffffffffffffffffffffffffff1663a9059cbb84846040518363ffffffff167c0100000000000000000000000000000000000000000000000000000000028152600401808373ffffffffffffffffffffffffffffffffffffffff1673ffffffffffffffffffffffffffffffffffffffff16815260200182815260200192505050602060405180830381600087803b158015613e8c57600080fd5b505af1158015613ea0573d6000803e3d6000fd5b505050506040513d6020811015613eb657600080fd5b8101908080519060200190929190505050505b505050565b600c5481565b6000600360009054906101000a900473ffffffffffffffffffffffffffffffffffffffff1673ffffffffffffffffffffffffffffffffffffffff163373ffffffffffffffffffffffffffffffffffffffff161480613f7f5750600060019054906101000a900473ffffffffffffffffffffffffffffffffffffffff1673ffffffffffffffffffffffffffffffffffffffff163373ffffffffffffffffffffffffffffffffffffffff16145b80613fd35750600d60003373ffffffffffffffffffffffffffffffffffffffff1673ffffffffffffffffffffffffffffffffffffffff16815260200190815260200160002060009054906101000a900460ff165b1515613fde57600080fd5b600073ffffffffffffffffffffffffffffffffffffffff168273ffffffffffffffffffffffffffffffffffffffff161415151561401a57600080fd5b600e60008373ffffffffffffffffffffffffffffffffffffffff1673ffffffffffffffffffffffffffffffffffffffff16815260200190815260200160002054905060018111151561406b57600080fd5b600a54811115151561407c57600080fd5b61409460018203600a5461462790919063ffffffff16565b600a819055506001600e60008473ffffffffffffffffffffffffffffffffffffffff1673ffffffffffffffffffffffffffffffffffffffff16815260200190815260200160002081905550600860009054906101000a900473ffffffffffffffffffffffffffffffffffffffff1673ffffffffffffffffffffffffffffffffffffffff1663a9059cbb83600184036040518363ffffffff167c0100000000000000000000000000000000000000000000000000000000028152600401808373ffffffffffffffffffffffffffffffffffffffff1673ffffffffffffffffffffffffffffffffffffffff16815260200182815260200192505050602060405180830381600087803b1580156141a757600080fd5b505af11580156141bb573d6000803e3d6000fd5b505050506040513d60208110156141d157600080fd5b8101908080519060200190929190505050505050565b600060019054906101000a900473ffffffffffffffffffffffffffffffffffffffff1673ffffffffffffffffffffffffffffffffffffffff163373ffffffffffffffffffffffffffffffffffffffff161415156142ac576040517f08c379a00000000000000000000000000000000000000000000000000000000081526004018080602001828103825260098152602001807f6e6f742061646d696e000000000000000000000000000000000000000000000081525060200191505060405180910390fd5b600073ffffffffffffffffffffffffffffffffffffffff168173ffffffffffffffffffffffffffffffffffffffff16141515156142e857600080fd5b80600660006101000a81548173ffffffffffffffffffffffffffffffffffffffff021916908373ffffffffffffffffffffffffffffffffffffffff16021790555050565b600660009054906101000a900473ffffffffffffffffffffffffffffffffffffffff1681565b600560009054906101000a900473ffffffffffffffffffffffffffffffffffffffff1681565b600b5481565b6000600860009054906101000a900473ffffffffffffffffffffffffffffffffffffffff16905090565b600080600080600260009054906101000a900473ffffffffffffffffffffffffffffffffffffffff169350600560009054906101000a900473ffffffffffffffffffffffffffffffffffffffff169250600360009054906101000a900473ffffffffffffffffffffffffffffffffffffffff169150600660009054906101000a900473ffffffffffffffffffffffffffffffffffffffff16905090919293565b8073ffffffffffffffffffffffffffffffffffffffff163373ffffffffffffffffffffffffffffffffffffffff1614806144cf5750600060019054906101000a900473ffffffffffffffffffffffffffffffffffffffff1673ffffffffffffffffffffffffffffffffffffffff163373ffffffffffffffffffffffffffffffffffffffff16145b15156144da57600080fd5b600073ffffffffffffffffffffffffffffffffffffffff168173ffffffffffffffffffffffffffffffffffffffff161415151561451657600080fd5b80600760006101000a81548173ffffffffffffffffffffffffffffffffffffffff021916908373ffffffffffffffffffffffffffffffffffffffff16021790555050565b600080600084141561456f5760009150614620565b828402905082848281151561458057fe5b0414151561461c576040517f08c379a00000000000000000000000000000000000000000000000000000000081526004018080602001828103825260218152602001807f536166654d6174683a206d756c7469706c69636174696f6e206f766572666c6f81526020017f770000000000000000000000000000000000000000000000000000000000000081525060400191505060405180910390fd5b8091505b5092915050565b600061466983836040805190810160405280601e81526020017f536166654d6174683a207375627472616374696f6e206f766572666c6f770000815250614f10565b905092915050565b6000806000806000600f60008873ffffffffffffffffffffffffffffffffffffffff1673ffffffffffffffffffffffffffffffffffffffff1681526020019081526020016000205494506000851115156146ca57600080fd5b600073ffffffffffffffffffffffffffffffffffffffff168773ffffffffffffffffffffffffffffffffffffffff16141561471e573073ffffffffffffffffffffffffffffffffffffffff163193506147fa565b8692508273ffffffffffffffffffffffffffffffffffffffff166370a08231306040518263ffffffff167c0100000000000000000000000000000000000000000000000000000000028152600401808273ffffffffffffffffffffffffffffffffffffffff1673ffffffffffffffffffffffffffffffffffffffff168152602001915050602060405180830381600087803b1580156147bc57600080fd5b505af11580156147d0573d6000803e3d6000fd5b505050506040513d60208110156147e657600080fd5b810190808051906020019092919050505093505b600091506000905084841115614b4d5784840391506148376064614829600c548561455a90919063ffffffff16565b614fd190919063ffffffff16565b9050600073ffffffffffffffffffffffffffffffffffffffff168773ffffffffffffffffffffffffffffffffffffffff16141561494757600760009054906101000a900473ffffffffffffffffffffffffffffffffffffffff1673ffffffffffffffffffffffffffffffffffffffff166108fc829081150290604051600060405180830381858888f193505050501580156148d6573d6000803e3d6000fd5b50600660009054906101000a900473ffffffffffffffffffffffffffffffffffffffff1673ffffffffffffffffffffffffffffffffffffffff166108fc8284039081150290604051600060405180830381858888f19350505050158015614941573d6000803e3d6000fd5b50614b4c565b8273ffffffffffffffffffffffffffffffffffffffff1663a9059cbb600760009054906101000a900473ffffffffffffffffffffffffffffffffffffffff16836040518363ffffffff167c0100000000000000000000000000000000000000000000000000000000028152600401808373ffffffffffffffffffffffffffffffffffffffff1673ffffffffffffffffffffffffffffffffffffffff16815260200182815260200192505050602060405180830381600087803b158015614a0c57600080fd5b505af1158015614a20573d6000803e3d6000fd5b505050506040513d6020811015614a3657600080fd5b8101908080519060200190929190505050508273ffffffffffffffffffffffffffffffffffffffff1663a9059cbb600660009054906101000a900473ffffffffffffffffffffffffffffffffffffffff168385036040518363ffffffff167c0100000000000000000000000000000000000000000000000000000000028152600401808373ffffffffffffffffffffffffffffffffffffffff1673ffffffffffffffffffffffffffffffffffffffff16815260200182815260200192505050602060405180830381600087803b158015614b0f57600080fd5b505af1158015614b23573d6000803e3d6000fd5b505050506040513d6020811015614b3957600080fd5b8101908080519060200190929190505050505b5b857f552f6286617d78dd147bc5f684e352867f1e620e6a58fddb5c6bd2ac3712754688838503604051808373ffffffffffffffffffffffffffffffffffffffff1673ffffffffffffffffffffffffffffffffffffffff1681526020018281526020019250505060405180910390a250505050505050565b6060600080606060008060008873ffffffffffffffffffffffffffffffffffffffff163195508751945084604051908082528060200260200182016040528015614c1d5781602001602082028038833980820191505090505b50935085846000815181101515614c3057fe5b9060200190602002018181525050600192505b84831015614d68578760018403815181101515614c5c57fe5b9060200190602002015191508173ffffffffffffffffffffffffffffffffffffffff166370a082318a6040518263ffffffff167c0100000000000000000000000000000000000000000000000000000000028152600401808273ffffffffffffffffffffffffffffffffffffffff1673ffffffffffffffffffffffffffffffffffffffff168152602001915050602060405180830381600087803b158015614d0357600080fd5b505af1158015614d17573d6000803e3d6000fd5b505050506040513d6020811015614d2d57600080fd5b81019080805190602001909291905050509050808484815181101515614d4f57fe5b9060200190602002018181525050600183019250614c43565b83965050505050505092915050565b600080600080600073ffffffffffffffffffffffffffffffffffffffff168773ffffffffffffffffffffffffffffffffffffffff1614151515614e22576040517f08c379a000000000000000000000000000000000000000000000000000000000815260040180806020018281038252600a8152602001807f5f6164647220697320300000000000000000000000000000000000000000000081525060200191505060405180910390fd5b84519350600090505b83811015614e7d578481815181101515614e4157fe5b9060200190602002015192508581815181101515614e5b57fe5b906020019060200201519150614e7287838561501b565b600181019050614e2b565b50505050505050565b6000808284019050838110151515614f06576040517f08c379a000000000000000000000000000000000000000000000000000000000815260040180806020018281038252601b8152602001807f536166654d6174683a206164646974696f6e206f766572666c6f77000000000081525060200191505060405180910390fd5b8091505092915050565b6000808484111583901515614fc0576040517f08c379a00000000000000000000000000000000000000000000000000000000081526004018080602001828103825283818151815260200191508051906020019080838360005b83811015614f85578082015181840152602081019050614f6a565b50505050905090810190601f168015614fb25780820380516001836020036101000a031916815260200191505b509250505060405180910390fd5b508385039050809150509392505050565b600061501383836040805190810160405280601a81526020017f536166654d6174683a206469766973696f6e206279207a65726f000000000000815250615070565b905092915050565b600073ffffffffffffffffffffffffffffffffffffffff168273ffffffffffffffffffffffffffffffffffffffff16141561505f5761505a838261513a565b61506b565b61506a8383836151dd565b5b505050565b6000806000841183901515615120576040517f08c379a00000000000000000000000000000000000000000000000000000000081526004018080602001828103825283818151815260200191508051906020019080838360005b838110156150e55780820151818401526020810190506150ca565b50505050905090810190601f1680156151125780820380516001836020036101000a031916815260200191505b509250505060405180910390fd5b50838581151561512c57fe5b049050809150509392505050565b60008111156151d9578173ffffffffffffffffffffffffffffffffffffffff166108fc829081150290604051600060405180830381858888f19350505050158015615189573d6000803e3d6000fd5b508173ffffffffffffffffffffffffffffffffffffffff167f066ebf901587aec1338abcd7716912d4ab714a550c993de14a7a8c8b6a735aba826040518082815260200191505060405180910390a25b5050565b600073ffffffffffffffffffffffffffffffffffffffff168273ffffffffffffffffffffffffffffffffffffffff1614151515615282576040517f08c379a00000000000000000000000000000000000000000000000000000000081526004018080602001828103825260098152602001807f616464722069732030000000000000000000000000000000000000000000000081525060200191505060405180910390fd5b60008111156153d0578173ffffffffffffffffffffffffffffffffffffffff1663a9059cbb84836040518363ffffffff167c0100000000000000000000000000000000000000000000000000000000028152600401808373ffffffffffffffffffffffffffffffffffffffff1673ffffffffffffffffffffffffffffffffffffffff16815260200182815260200192505050602060405180830381600087803b15801561532e57600080fd5b505af1158015615342573d6000803e3d6000fd5b505050506040513d602081101561535857600080fd5b8101908080519060200190929190505050508173ffffffffffffffffffffffffffffffffffffffff168373ffffffffffffffffffffffffffffffffffffffff167f52a1ece0f3428b1c7032ada833db5214b033972154dcfa1f22bf4e6fb29927a3836040518082815260200191505060405180910390a35b5050505600a165627a7a72305820819e7b810aab97b2769c97abf58649c45e49d1341f0559b4a289718a9ffa539e0029",
  "source": "pragma solidity ^0.4.23;\n\nimport \"./BaseAdmin.sol\";\nimport \"./SafeMath.sol\";\n\ninterface IMoonToken {\n    function balanceOf(address _from) external view returns(uint256);\n    function transfer(address _to, uint256 _value) external returns(bool);\n    function transferFrom(address _from, address _to, uint256 _value) external returns(bool);\n    function burn(uint256 _value) external returns (bool);\n}\ncontract MoonPool is FinanceAdmin {\n    using SafeMath for uint256;\n\n    address public addrOperator;\n    address public addrTokenDev;\n    address public addrBurner;\n    address public addrDivider;\n    address public addrWinDivider;\n\n    IMoonToken moonToken;\n\n    uint256 public safeWaterLevel = 1000;\n    uint256 public moonTotalCache;\n    uint256 public moonDevCache;\n\n    /*\n         bsctoken win\n    */\n    uint256 public winRate=50;\n    mapping (address => bool) public safeBetContracts;\n    mapping (address => uint256) public playerMoonCache;\n    mapping (address => uint256) public tokenOriginalAmountMap;\n\n\n    event TokenBurn(\n        address indexed _from,\n        address indexed _addrToken,\n        uint256 _value\n    );\n\n    event TokenDivide(\n        uint256 indexed _index,\n        address addrToken,\n        uint256 tokenValue\n    );\n\n    constructor() public {\n        addrAdmin = msg.sender;\n        addrFinance = msg.sender;\n        addrOperator = msg.sender;\n        addrTokenDev = msg.sender;\n        addrBurner = msg.sender;\n        addrWinDivider=msg.sender;\n        tokenOriginalAmountMap[address(0)]=10000*1e18;\n    }\n\n    function() external payable {\n        \n    }\n\n    modifier whenNotPaused() {\n        require(!isPaused);\n        _;\n    }\n\n    modifier onlyOperator() {\n        require(msg.sender == addrAdmin || msg.sender == addrOperator);\n        _;\n    }\n\n    function setFinance(address _newFinance) external {\n        require(msg.sender == addrFinance);\n        require(_newFinance != address(0));\n        addrFinance = _newFinance;\n    }\n\n    function setBurner(address _newBurner) external onlyAdmin {\n        require(_newBurner != address(0));\n        addrBurner = _newBurner;\n    }\n    function setAddrDivider(address _addr) external onlyAdmin {\n        require(_addr!= address(0));\n        addrDivider= _addr;\n    }\n\n    function setWinRate(uint256 _newRate)external onlyAdmin {\n        require(_newRate>0 && _newRate<100);\n        winRate=_newRate;\n    }\n\n    function setOperator(address _newOperator) external {\n        require(msg.sender == addrOperator || msg.sender == addrAdmin);\n        require(_newOperator != address(0));\n        addrOperator = _newOperator;\n    }\n\n    function setWinDivider(address _newWinDivider) external {\n        require(msg.sender == _newWinDivider || msg.sender == addrAdmin);\n        require(_newWinDivider != address(0));\n        addrWinDivider = _newWinDivider;\n    }\n\n    function setSafeContract(address _actionAddr, bool _useful) external onlyAdmin {\n        safeBetContracts[_actionAddr] = _useful;\n    }\n\n    function getSafeContract(address _actionAddr) external view returns(bool) {\n        return safeBetContracts[_actionAddr];\n    } \n\n    function setTokenDevAddr(address _addr) external onlyAdmin {\n        require(_addr != address(0));\n        addrTokenDev = _addr;\n    }\n\n    function setMoonTokenAddr(address _addr) external onlyAdmin {\n        require(_addr != address(0));\n        moonToken = IMoonToken(_addr);\n    }\n\n    function getMoonTokenAddr() external view returns(address) {\n        return address(moonToken);\n    }\n\n    function getTokenDevAddr() external view returns(address) {\n        return addrTokenDev;\n    }\n\n    function setSafeWaterLevel(uint256 _newLevel) external onlyOperator {\n        require(_newLevel > 0 && _newLevel <= 5000);\n        safeWaterLevel = _newLevel;\n    }\n\n    function setTokenOriginalAmount(address _tokenAddr, uint256 _amount) external onlyAdmin {\n        require(_tokenAddr != address(0) && _amount > 0);\n        tokenOriginalAmountMap[_tokenAddr] = _amount;\n    }\n\n    function transferBnb(address _to, uint256 _amount, uint256 _originalAmount) external whenNotPaused returns(bool) {\n        require(safeBetContracts[msg.sender]);\n        require((_amount - _originalAmount) <= (address(this).balance / 10000 * safeWaterLevel));\n        _to.transfer(_amount);\n        return true;\n    }\n\n    function transferToWiner(address _tokenAddr, address _to, uint256 _amount, uint256 _original) external whenNotPaused returns(bool) {\n        require(safeBetContracts[msg.sender]);\n        if(_tokenAddr==address(0)){\n            require(_amount.sub(_original) <= (address(this).balance / 10000 * safeWaterLevel));\n            _to.transfer(_amount);\n        }else{\n            IBEP20 token = IBEP20(_tokenAddr);\n            uint256 tokenBalance = token.balanceOf(address(this));\n            require(_amount.sub(_original) <= (tokenBalance / 10000).mul(safeWaterLevel));\n            token.transfer(_to, _amount);\n        }\n        return true;\n    }\n\n    function getPoolMoonBalance() external view returns(uint256) {\n        uint256 ownBalance = moonToken.balanceOf(address(this));\n        if (ownBalance >= moonTotalCache) {\n            return ownBalance - moonTotalCache;\n        } else {\n            return 0;\n        }\n    }\n\n    function getDevCacheBalance() external view returns(uint256) {\n        return moonDevCache;\n    }\n\n    function getTotalCacheBalance() external view returns(uint256) {\n        return moonTotalCache;\n    }\n\n    function getPoolBnbCount() external view returns(uint256) {\n        return address(this).balance/1e18;\n    }\n\n    function transferMoon(address _to, uint256 _amount)\n        external \n        whenNotPaused \n    {\n        require(safeBetContracts[msg.sender]);\n        if (_amount == 0) {\n            return;\n        }\n        uint256 ownBalance = moonToken.balanceOf(address(this));\n        require(ownBalance.sub(moonTotalCache) >= _amount);\n        moonToken.transfer(_to, _amount);\n    }\n\n\n    function transferMoonWithDevRelease(address _to1, uint256 _amount, uint256 _devReleaseAmount)\n        external \n        whenNotPaused \n    {\n        require(safeBetContracts[msg.sender] && _to1 != address(0));\n        uint256 ownBalance = moonToken.balanceOf(address(this));\n        uint256 realBalance = ownBalance.sub(moonTotalCache);\n        uint256 totalAmount = _amount.add(_devReleaseAmount);\n        require(realBalance >= totalAmount);\n        if (_amount > 0) {\n            uint256 oldToVal = playerMoonCache[_to1];\n            playerMoonCache[_to1] = oldToVal.add(_amount);\n        }\n        moonTotalCache=moonTotalCache.add(totalAmount);\n        moonDevCache=moonDevCache.add(_devReleaseAmount);\n    }\n\n    function releaseDevMoon() external {\n        require(msg.sender == addrFinance || msg.sender == addrAdmin || msg.sender == addrTokenDev);   \n        require(moonDevCache> 0 && moonTotalCache>= moonDevCache);\n\n        moonDevCache=0;\n        moonToken.transfer(addrTokenDev, moonDevCache);\n    }\n\n    function releaseMoon(address _owner) external {\n        require(msg.sender == addrOperator || msg.sender == addrAdmin || safeBetContracts[msg.sender]);\n        require(_owner != address(0));\n        uint256 cacheVal = playerMoonCache[_owner];\n        require(cacheVal > 1);\n        require(cacheVal <= moonTotalCache);\n        moonTotalCache=moonTotalCache.sub(cacheVal - 1);\n        playerMoonCache[_owner] = 1;\n        moonToken.transfer(_owner, cacheVal - 1);\n    }\n\n    function releaseMoonSelf() external {\n        uint256 cacheVal = playerMoonCache[msg.sender];\n        require(cacheVal > 1);\n        require(cacheVal <= moonTotalCache);\n        moonTotalCache=moonTotalCache.sub(cacheVal - 1);\n        playerMoonCache[msg.sender] = 1;\n        moonToken.transfer(msg.sender, cacheVal - 1);\n    }\n\n    function withdrawProfit(uint256 _amount)\n        external \n    {\n        require(msg.sender == addrFinance || msg.sender == addrAdmin);\n        require(_amount > 0 && _amount <= address(this).balance);\n        addrFinance.transfer(_amount);    \n    }\n\n    function withdrawMoon(uint256 _amount)\n        external \n    {\n        require(msg.sender == addrFinance || msg.sender == addrAdmin);\n        uint256 ownBalance = moonToken.balanceOf(address(this));\n        uint256 realBalance = ownBalance.sub(moonTotalCache);\n        require(realBalance >= _amount);\n        moonToken.transfer(addrFinance, _amount);\n    }\n\n    function getRole() external view returns(address finance, address burner, address operator, address divider) {\n        finance = addrFinance;\n        burner = addrBurner;\n        operator = addrOperator;\n        divider = addrDivider;\n    }\n\n    function transferToken(address _tokenAddr, address _to, uint256 _amount, uint256 _original)\n    external\n    whenNotPaused\n    {\n        require(safeBetContracts[msg.sender]);\n        IBEP20 token = IBEP20(_tokenAddr);\n        uint256 tokenBalance = token.balanceOf(address(this));\n        require(_amount.sub(_original) <= (tokenBalance / 10000).mul(safeWaterLevel));\n        token.transfer(_to, _amount);\n    }\n\n    function burnToken(address _addrToken) external returns(uint256) {\n        require(msg.sender == addrBurner || msg.sender == addrAdmin);\n        IBEP20 token = IBEP20(_addrToken);\n        uint256 tokenBalance = token.balanceOf(address(this));\n        uint256 tokenProfit = tokenBalance.sub(tokenOriginalAmountMap[_addrToken]);\n        require(tokenBalance > tokenProfit);\n        if (tokenProfit > 0) {\n            token.burn(tokenProfit);\n            emit TokenBurn(address(this), _addrToken, tokenProfit);\n            return tokenProfit;\n        } else {\n            return 0;\n        }\n    }\n\n    /*\n        1.operator\n        2.operator win\n        3.jackpot\n    */\n    function transferToDivide(address[] _addrTokens) external {\n        require(msg.sender == addrOperator || msg.sender == addrAdmin);\n        uint256 len = _addrTokens.length;\n        address tokenAddr;\n        for(uint256 i = 0; i < len; i += 1){\n            _transferTokenToDivide(_addrTokens[i],block.timestamp);\n        }\n    }\n\n    function _transferTokenToDivide(address _addrToken,uint256 _index) internal{\n        uint256 originalVal = tokenOriginalAmountMap[_addrToken];\n        require(originalVal > 0);\n        uint256 curBalance;\n        IBEP20 token ;\n        if(_addrToken==address(0)){\n            curBalance=address(this).balance;\n        }else{\n            token= IBEP20(_addrToken);\n            curBalance= token.balanceOf(address(this));\n        }\n        uint256 val =0;\n        uint256 valWin =0;\n\n        if(curBalance>originalVal){\n            val = curBalance - originalVal;\n            valWin=val.mul(winRate).div(100);\n            if(_addrToken==address(0)){\n                addrWinDivider.transfer(valWin);\n                addrDivider.transfer(val-valWin);\n            }else{\n                token.transfer(addrWinDivider, valWin);\n                token.transfer(addrDivider, val-valWin);\n            }\n        }\n        emit TokenDivide(_index, _addrToken, val-valWin);\n    }\n\n    function withdrawToken(address _addrToken, uint256 _amount) external onlyAdmin {\n        IBEP20 token = IBEP20(_addrToken);\n        uint256 tokenBalance = token.balanceOf(address(this));\n        uint256 wAmount = _amount;\n        if (_amount > tokenBalance) {\n            wAmount = tokenBalance;\n        }\n        token.transfer(addrFinance, wAmount);\n    }\n\n}\n",
  "sourcePath": "/Users/gordon/bian/dapp/dice/contracts/MoonPool.sol",
  "compiler": {
    "name": "solc",
    "version": "0.4.25+commit.59dbf8f1.Emscripten.clang"
  },
  "schemaVersion": "3.2.0",
  "updatedAt": "2020-09-26T09:04:28.586Z",
  "networkType": "ethereum",
  "devdoc": {
    "methods": {}
  },
  "userdoc": {
    "methods": {}
  }
}