{
  "contractName": "MoonDev",
  "abi": [
    {
      "constant": true,
      "inputs": [],
      "name": "moonPool",
      "outputs": [
        {
          "name": "",
          "type": "address"
        }
      ],
      "payable": false,
      "stateMutability": "view",
      "type": "function"
    },
    {
      "constant": true,
      "inputs": [],
      "name": "moonToken",
      "outputs": [
        {
          "name": "",
          "type": "address"
        }
      ],
      "payable": false,
      "stateMutability": "view",
      "type": "function"
    },
    {
      "constant": true,
      "inputs": [],
      "name": "operator",
      "outputs": [
        {
          "name": "",
          "type": "address"
        }
      ],
      "payable": false,
      "stateMutability": "view",
      "type": "function"
    },
    {
      "constant": true,
      "inputs": [],
      "name": "globalPromotionStart",
      "outputs": [
        {
          "name": "",
          "type": "uint64"
        }
      ],
      "payable": false,
      "stateMutability": "view",
      "type": "function"
    },
    {
      "constant": true,
      "inputs": [],
      "name": "devMinePercent",
      "outputs": [
        {
          "name": "",
          "type": "uint256"
        }
      ],
      "payable": false,
      "stateMutability": "view",
      "type": "function"
    },
    {
      "constant": false,
      "inputs": [
        {
          "name": "_newAdmin",
          "type": "address"
        }
      ],
      "name": "setAdmin",
      "outputs": [],
      "payable": false,
      "stateMutability": "nonpayable",
      "type": "function"
    },
    {
      "constant": true,
      "inputs": [],
      "name": "isPaused",
      "outputs": [
        {
          "name": "",
          "type": "bool"
        }
      ],
      "payable": false,
      "stateMutability": "view",
      "type": "function"
    },
    {
      "constant": false,
      "inputs": [
        {
          "name": "_pause",
          "type": "bool"
        }
      ],
      "name": "setPause",
      "outputs": [],
      "payable": false,
      "stateMutability": "nonpayable",
      "type": "function"
    },
    {
      "constant": true,
      "inputs": [],
      "name": "addrAdmin",
      "outputs": [
        {
          "name": "",
          "type": "address"
        }
      ],
      "payable": false,
      "stateMutability": "view",
      "type": "function"
    },
    {
      "constant": true,
      "inputs": [],
      "name": "addrTokenDev",
      "outputs": [
        {
          "name": "",
          "type": "address"
        }
      ],
      "payable": false,
      "stateMutability": "view",
      "type": "function"
    },
    {
      "constant": true,
      "inputs": [],
      "name": "addrOperator",
      "outputs": [
        {
          "name": "",
          "type": "address"
        }
      ],
      "payable": false,
      "stateMutability": "view",
      "type": "function"
    },
    {
      "constant": true,
      "inputs": [],
      "name": "globalPromotion",
      "outputs": [
        {
          "name": "",
          "type": "uint256"
        }
      ],
      "payable": false,
      "stateMutability": "view",
      "type": "function"
    },
    {
      "constant": true,
      "inputs": [],
      "name": "globalPromotionEnd",
      "outputs": [
        {
          "name": "",
          "type": "uint64"
        }
      ],
      "payable": false,
      "stateMutability": "view",
      "type": "function"
    },
    {
      "constant": true,
      "inputs": [],
      "name": "addrDevChild",
      "outputs": [
        {
          "name": "",
          "type": "address"
        }
      ],
      "payable": false,
      "stateMutability": "view",
      "type": "function"
    },
    {
      "inputs": [],
      "payable": false,
      "stateMutability": "nonpayable",
      "type": "constructor"
    },
    {
      "constant": false,
      "inputs": [
        {
          "name": "_newOperator",
          "type": "address"
        }
      ],
      "name": "setOperator",
      "outputs": [],
      "payable": false,
      "stateMutability": "nonpayable",
      "type": "function"
    },
    {
      "constant": true,
      "inputs": [],
      "name": "getAddrParam",
      "outputs": [
        {
          "name": "diceAddr",
          "type": "address"
        },
        {
          "name": "poolAddr",
          "type": "address"
        }
      ],
      "payable": false,
      "stateMutability": "view",
      "type": "function"
    },
    {
      "constant": false,
      "inputs": [
        {
          "name": "_addrMoon",
          "type": "address"
        },
        {
          "name": "_addrPool",
          "type": "address"
        }
      ],
      "name": "setAddrParam",
      "outputs": [],
      "payable": false,
      "stateMutability": "nonpayable",
      "type": "function"
    },
    {
      "constant": false,
      "inputs": [
        {
          "name": "_addr",
          "type": "address"
        }
      ],
      "name": "setTokenDevAddr",
      "outputs": [],
      "payable": false,
      "stateMutability": "nonpayable",
      "type": "function"
    },
    {
      "constant": false,
      "inputs": [
        {
          "name": "_addr",
          "type": "address"
        }
      ],
      "name": "setDevChildAddr",
      "outputs": [],
      "payable": false,
      "stateMutability": "nonpayable",
      "type": "function"
    },
    {
      "constant": false,
      "inputs": [
        {
          "name": "_per",
          "type": "uint256"
        }
      ],
      "name": "setDevMinePercent",
      "outputs": [],
      "payable": false,
      "stateMutability": "nonpayable",
      "type": "function"
    },
    {
      "constant": false,
      "inputs": [
        {
          "name": "_start",
          "type": "uint64"
        },
        {
          "name": "_end",
          "type": "uint64"
        },
        {
          "name": "_rate",
          "type": "uint64"
        }
      ],
      "name": "setGlobalPromotion",
      "outputs": [],
      "payable": false,
      "stateMutability": "nonpayable",
      "type": "function"
    },
    {
      "constant": false,
      "inputs": [
        {
          "name": "_gameId",
          "type": "uint256"
        },
        {
          "name": "_start",
          "type": "uint64"
        },
        {
          "name": "_end",
          "type": "uint64"
        },
        {
          "name": "_rate",
          "type": "uint64"
        }
      ],
      "name": "setGamePromotion",
      "outputs": [],
      "payable": false,
      "stateMutability": "nonpayable",
      "type": "function"
    },
    {
      "constant": true,
      "inputs": [],
      "name": "getGlobalPromotion",
      "outputs": [
        {
          "name": "start",
          "type": "uint64"
        },
        {
          "name": "end",
          "type": "uint64"
        },
        {
          "name": "rate",
          "type": "uint64"
        }
      ],
      "payable": false,
      "stateMutability": "view",
      "type": "function"
    },
    {
      "constant": true,
      "inputs": [
        {
          "name": "_gameId",
          "type": "uint256"
        }
      ],
      "name": "getGamePromotion",
      "outputs": [
        {
          "name": "gameId",
          "type": "uint256"
        },
        {
          "name": "start",
          "type": "uint64"
        },
        {
          "name": "end",
          "type": "uint64"
        },
        {
          "name": "rate",
          "type": "uint64"
        }
      ],
      "payable": false,
      "stateMutability": "view",
      "type": "function"
    },
    {
      "constant": true,
      "inputs": [],
      "name": "getDevMoonAmount",
      "outputs": [
        {
          "name": "",
          "type": "uint256"
        }
      ],
      "payable": false,
      "stateMutability": "view",
      "type": "function"
    },
    {
      "constant": true,
      "inputs": [
        {
          "name": "_gameId",
          "type": "uint256"
        },
        {
          "name": "_miner",
          "type": "address"
        },
        {
          "name": "_amount",
          "type": "uint256"
        }
      ],
      "name": "getMiningMoon",
      "outputs": [
        {
          "name": "_minerCnt",
          "type": "uint256"
        },
        {
          "name": "_devCnt",
          "type": "uint256"
        }
      ],
      "payable": false,
      "stateMutability": "view",
      "type": "function"
    }
  ],
  "bytecode": "0x6080604052603160075560006008556000600960006101000a81548167ffffffffffffffff021916908367ffffffffffffffff1602179055506000600960086101000a81548167ffffffffffffffff021916908367ffffffffffffffff16021790555034801561006e57600080fd5b5060008060006101000a81548160ff02191690831515021790555033600060016101000a81548173ffffffffffffffffffffffffffffffffffffffff021916908373ffffffffffffffffffffffffffffffffffffffff16021790555033600060016101000a81548173ffffffffffffffffffffffffffffffffffffffff021916908373ffffffffffffffffffffffffffffffffffffffff16021790555033600460006101000a81548173ffffffffffffffffffffffffffffffffffffffff021916908373ffffffffffffffffffffffffffffffffffffffff1602179055506125618061015b6000396000f300608060405260043610610154576000357c0100000000000000000000000000000000000000000000000000000000900463ffffffff16806307d940a314610159578063096db3911461019c5780632b0b4d3d146101f35780633468145a146102205780633e11fdcc14610277578063570ca735146102ba578063586939ac146103115780636228a64d1461035057806367b487da1461037b57806368c5c469146103a6578063704b6c0214610418578063740f32f21461045b57806396a3713d146104ba5780639fc6af1d1461054c578063b187bd26146105c1578063b3ab15fb146105f0578063b8edb97614610633578063bedb86fb14610696578063bfae2f0e146106c5578063c1cbc3631461071c578063cded513214610773578063cf51096b146107fd578063da08f71414610854578063e07703af1461087f578063fb28e03b146108e8578063fe8b8a0514610927575b600080fd5b34801561016557600080fd5b5061019a600480360381019080803573ffffffffffffffffffffffffffffffffffffffff16906020019092919050505061097e565b005b3480156101a857600080fd5b506101b1610ac3565b604051808273ffffffffffffffffffffffffffffffffffffffff1673ffffffffffffffffffffffffffffffffffffffff16815260200191505060405180910390f35b3480156101ff57600080fd5b5061021e60048036038101908080359060200190929190505050610ae9565b005b34801561022c57600080fd5b50610235610bd4565b604051808273ffffffffffffffffffffffffffffffffffffffff1673ffffffffffffffffffffffffffffffffffffffff16815260200191505060405180910390f35b34801561028357600080fd5b506102b8600480360381019080803573ffffffffffffffffffffffffffffffffffffffff169060200190929190505050610bfa565b005b3480156102c657600080fd5b506102cf610d3f565b604051808273ffffffffffffffffffffffffffffffffffffffff1673ffffffffffffffffffffffffffffffffffffffff16815260200191505060405180910390f35b34801561031d57600080fd5b50610326610d65565b604051808267ffffffffffffffff1667ffffffffffffffff16815260200191505060405180910390f35b34801561035c57600080fd5b50610365610d7f565b6040518082815260200191505060405180910390f35b34801561038757600080fd5b50610390611116565b6040518082815260200191505060405180910390f35b3480156103b257600080fd5b506103fb60048036038101908080359060200190929190803573ffffffffffffffffffffffffffffffffffffffff1690602001909291908035906020019092919050505061111c565b604051808381526020018281526020019250505060405180910390f35b34801561042457600080fd5b50610459600480360381019080803573ffffffffffffffffffffffffffffffffffffffff1690602001909291905050506114fa565b005b34801561046757600080fd5b506104b8600480360381019080803567ffffffffffffffff169060200190929190803567ffffffffffffffff169060200190929190803567ffffffffffffffff1690602001909291905050506116a8565b005b3480156104c657600080fd5b506104e560048036038101908080359060200190929190505050611819565b604051808581526020018467ffffffffffffffff1667ffffffffffffffff1681526020018367ffffffffffffffff1667ffffffffffffffff1681526020018267ffffffffffffffff1667ffffffffffffffff16815260200194505050505060405180910390f35b34801561055857600080fd5b5061056161193a565b604051808467ffffffffffffffff1667ffffffffffffffff1681526020018367ffffffffffffffff1667ffffffffffffffff1681526020018267ffffffffffffffff1667ffffffffffffffff168152602001935050505060405180910390f35b3480156105cd57600080fd5b506105d6611979565b604051808215151515815260200191505060405180910390f35b3480156105fc57600080fd5b50610631600480360381019080803573ffffffffffffffffffffffffffffffffffffffff16906020019092919050505061198b565b005b34801561063f57600080fd5b50610694600480360381019080803573ffffffffffffffffffffffffffffffffffffffff169060200190929190803573ffffffffffffffffffffffffffffffffffffffff169060200190929190505050611ad0565b005b3480156106a257600080fd5b506106c3600480360381019080803515159060200190929190505050611c90565b005b3480156106d157600080fd5b506106da611d71565b604051808273ffffffffffffffffffffffffffffffffffffffff1673ffffffffffffffffffffffffffffffffffffffff16815260200191505060405180910390f35b34801561072857600080fd5b50610731611d97565b604051808273ffffffffffffffffffffffffffffffffffffffff1673ffffffffffffffffffffffffffffffffffffffff16815260200191505060405180910390f35b34801561077f57600080fd5b50610788611dbd565b604051808373ffffffffffffffffffffffffffffffffffffffff1673ffffffffffffffffffffffffffffffffffffffff1681526020018273ffffffffffffffffffffffffffffffffffffffff1673ffffffffffffffffffffffffffffffffffffffff1681526020019250505060405180910390f35b34801561080957600080fd5b50610812611e0e565b604051808273ffffffffffffffffffffffffffffffffffffffff1673ffffffffffffffffffffffffffffffffffffffff16815260200191505060405180910390f35b34801561086057600080fd5b50610869611e34565b6040518082815260200191505060405180910390f35b34801561088b57600080fd5b506108e660048036038101908080359060200190929190803567ffffffffffffffff169060200190929190803567ffffffffffffffff169060200190929190803567ffffffffffffffff169060200190929190505050611e3a565b005b3480156108f457600080fd5b506108fd61212e565b604051808267ffffffffffffffff1667ffffffffffffffff16815260200191505060405180910390f35b34801561093357600080fd5b5061093c612148565b604051808273ffffffffffffffffffffffffffffffffffffffff1673ffffffffffffffffffffffffffffffffffffffff16815260200191505060405180910390f35b600060019054906101000a900473ffffffffffffffffffffffffffffffffffffffff1673ffffffffffffffffffffffffffffffffffffffff163373ffffffffffffffffffffffffffffffffffffffff16141515610a43576040517f08c379a00000000000000000000000000000000000000000000000000000000081526004018080602001828103825260098152602001807f6e6f742061646d696e000000000000000000000000000000000000000000000081525060200191505060405180910390fd5b600073ffffffffffffffffffffffffffffffffffffffff168173ffffffffffffffffffffffffffffffffffffffff1614151515610a7f57600080fd5b80600560006101000a81548173ffffffffffffffffffffffffffffffffffffffff021916908373ffffffffffffffffffffffffffffffffffffffff16021790555050565b600360009054906101000a900473ffffffffffffffffffffffffffffffffffffffff1681565b600060019054906101000a900473ffffffffffffffffffffffffffffffffffffffff1673ffffffffffffffffffffffffffffffffffffffff163373ffffffffffffffffffffffffffffffffffffffff16141515610bae576040517f08c379a00000000000000000000000000000000000000000000000000000000081526004018080602001828103825260098152602001807f6e6f742061646d696e000000000000000000000000000000000000000000000081525060200191505060405180910390fd5b600081118015610bbf5750603c8111155b1515610bca57600080fd5b8060078190555050565b600260009054906101000a900473ffffffffffffffffffffffffffffffffffffffff1681565b600060019054906101000a900473ffffffffffffffffffffffffffffffffffffffff1673ffffffffffffffffffffffffffffffffffffffff163373ffffffffffffffffffffffffffffffffffffffff16141515610cbf576040517f08c379a00000000000000000000000000000000000000000000000000000000081526004018080602001828103825260098152602001807f6e6f742061646d696e000000000000000000000000000000000000000000000081525060200191505060405180910390fd5b600073ffffffffffffffffffffffffffffffffffffffff168173ffffffffffffffffffffffffffffffffffffffff1614151515610cfb57600080fd5b80600660006101000a81548173ffffffffffffffffffffffffffffffffffffffff021916908373ffffffffffffffffffffffffffffffffffffffff16021790555050565b600160009054906101000a900473ffffffffffffffffffffffffffffffffffffffff1681565b600960009054906101000a900467ffffffffffffffff1681565b600080600080600360009054906101000a900473ffffffffffffffffffffffffffffffffffffffff1673ffffffffffffffffffffffffffffffffffffffff16630a782e086040518163ffffffff167c0100000000000000000000000000000000000000000000000000000000028152600401602060405180830381600087803b158015610e0b57600080fd5b505af1158015610e1f573d6000803e3d6000fd5b505050506040513d6020811015610e3557600080fd5b81019080805190602001909291905050509250600260009054906101000a900473ffffffffffffffffffffffffffffffffffffffff1673ffffffffffffffffffffffffffffffffffffffff166370a08231600560009054906101000a900473ffffffffffffffffffffffffffffffffffffffff166040518263ffffffff167c0100000000000000000000000000000000000000000000000000000000028152600401808273ffffffffffffffffffffffffffffffffffffffff1673ffffffffffffffffffffffffffffffffffffffff168152602001915050602060405180830381600087803b158015610f2757600080fd5b505af1158015610f3b573d6000803e3d6000fd5b505050506040513d6020811015610f5157600080fd5b81019080805190602001909291905050509150610f77828461216e90919063ffffffff16565b9250600073ffffffffffffffffffffffffffffffffffffffff16600660009054906101000a900473ffffffffffffffffffffffffffffffffffffffff1673ffffffffffffffffffffffffffffffffffffffff1614151561110d57600260009054906101000a900473ffffffffffffffffffffffffffffffffffffffff1673ffffffffffffffffffffffffffffffffffffffff166370a08231600660009054906101000a900473ffffffffffffffffffffffffffffffffffffffff166040518263ffffffff167c0100000000000000000000000000000000000000000000000000000000028152600401808273ffffffffffffffffffffffffffffffffffffffff1673ffffffffffffffffffffffffffffffffffffffff168152602001915050602060405180830381600087803b1580156110b057600080fd5b505af11580156110c4573d6000803e3d6000fd5b505050506040513d60208110156110da57600080fd5b81019080805190602001909291905050509050600081111561110c57611109818461216e90919063ffffffff16565b92505b5b82935050505090565b60075481565b600080600080600061112c6124e4565b6000600360009054906101000a900473ffffffffffffffffffffffffffffffffffffffff1673ffffffffffffffffffffffffffffffffffffffff1663a4187d556040518163ffffffff167c0100000000000000000000000000000000000000000000000000000000028152600401602060405180830381600087803b1580156111b457600080fd5b505af11580156111c8573d6000803e3d6000fd5b505050506040513d60208110156111de57600080fd5b8101908080519060200190929190505050945060008514156112075760009650600095506114ed565b429350611232600465048c273950006001880381151561122357fe5b046121f890919063ffffffff16565b6103e4038881151561124057fe5b049250600060085411801561127f5750600960009054906101000a900467ffffffffffffffff1667ffffffffffffffff168467ffffffffffffffff1610155b80156112b55750600960089054906101000a900467ffffffffffffffff1667ffffffffffffffff168467ffffffffffffffff1611155b156112e3576127106112d2600854856121f890919063ffffffff16565b8115156112db57fe5b04925061145d565b600a60008b8152602001908152602001600020608060405190810160405290816000820160009054906101000a900467ffffffffffffffff1667ffffffffffffffff1667ffffffffffffffff1681526020016000820160089054906101000a900467ffffffffffffffff1667ffffffffffffffff1667ffffffffffffffff1681526020016000820160109054906101000a900467ffffffffffffffff1667ffffffffffffffff1667ffffffffffffffff1681526020016000820160189054906101000a900467ffffffffffffffff1667ffffffffffffffff1667ffffffffffffffff168152505091506000826020015167ffffffffffffffff161180156114025750816040015167ffffffffffffffff168467ffffffffffffffff1610155b80156114265750816060015167ffffffffffffffff168467ffffffffffffffff1611155b1561145c5761271061144f836020015167ffffffffffffffff16856121f890919063ffffffff16565b81151561145857fe5b0492505b5b600754606403611478600754856121f890919063ffffffff16565b81151561148157fe5b04905084611498828561216e90919063ffffffff16565b11156114e5576114c960646114bb600754606403886121f890919063ffffffff16565b6122c590919063ffffffff16565b96506114de878661230f90919063ffffffff16565b95506114ec565b8296508095505b5b5050505050935093915050565b600060019054906101000a900473ffffffffffffffffffffffffffffffffffffffff1673ffffffffffffffffffffffffffffffffffffffff163373ffffffffffffffffffffffffffffffffffffffff161415156115bf576040517f08c379a00000000000000000000000000000000000000000000000000000000081526004018080602001828103825260098152602001807f6e6f742061646d696e000000000000000000000000000000000000000000000081525060200191505060405180910390fd5b600073ffffffffffffffffffffffffffffffffffffffff168173ffffffffffffffffffffffffffffffffffffffff1614151515611664576040517f08c379a000000000000000000000000000000000000000000000000000000000815260040180806020018281038252601c8152602001807f5f6e657741646d696e2063616e2774206265206164647265737320300000000081525060200191505060405180910390fd5b80600060016101000a81548173ffffffffffffffffffffffffffffffffffffffff021916908373ffffffffffffffffffffffffffffffffffffffff16021790555050565b600060019054906101000a900473ffffffffffffffffffffffffffffffffffffffff1673ffffffffffffffffffffffffffffffffffffffff163373ffffffffffffffffffffffffffffffffffffffff1614806117515750600460009054906101000a900473ffffffffffffffffffffffffffffffffffffffff1673ffffffffffffffffffffffffffffffffffffffff163373ffffffffffffffffffffffffffffffffffffffff16145b151561175c57600080fd5b8267ffffffffffffffff168267ffffffffffffffff1611151561177e57600080fd5b6113888167ffffffffffffffff16101580156117a6575061c3508167ffffffffffffffff1611155b15156117b157600080fd5b8067ffffffffffffffff1660088190555082600960006101000a81548167ffffffffffffffff021916908367ffffffffffffffff16021790555081600960086101000a81548167ffffffffffffffff021916908367ffffffffffffffff160217905550505050565b6000806000806118276124e4565b600086111561193257600a6000878152602001908152602001600020608060405190810160405290816000820160009054906101000a900467ffffffffffffffff1667ffffffffffffffff1667ffffffffffffffff1681526020016000820160089054906101000a900467ffffffffffffffff1667ffffffffffffffff1667ffffffffffffffff1681526020016000820160109054906101000a900467ffffffffffffffff1667ffffffffffffffff1667ffffffffffffffff1681526020016000820160189054906101000a900467ffffffffffffffff1667ffffffffffffffff1667ffffffffffffffff168152505090508594508060400151935080606001519250806020015191505b509193509193565b6000806000600960009054906101000a900467ffffffffffffffff169250600960089054906101000a900467ffffffffffffffff169150809050909192565b6000809054906101000a900460ff1681565b600060019054906101000a900473ffffffffffffffffffffffffffffffffffffffff1673ffffffffffffffffffffffffffffffffffffffff163373ffffffffffffffffffffffffffffffffffffffff16141515611a50576040517f08c379a00000000000000000000000000000000000000000000000000000000081526004018080602001828103825260098152602001807f6e6f742061646d696e000000000000000000000000000000000000000000000081525060200191505060405180910390fd5b600073ffffffffffffffffffffffffffffffffffffffff168173ffffffffffffffffffffffffffffffffffffffff1614151515611a8c57600080fd5b80600460006101000a81548173ffffffffffffffffffffffffffffffffffffffff021916908373ffffffffffffffffffffffffffffffffffffffff16021790555050565b600060019054906101000a900473ffffffffffffffffffffffffffffffffffffffff1673ffffffffffffffffffffffffffffffffffffffff163373ffffffffffffffffffffffffffffffffffffffff16141515611b95576040517f08c379a00000000000000000000000000000000000000000000000000000000081526004018080602001828103825260098152602001807f6e6f742061646d696e000000000000000000000000000000000000000000000081525060200191505060405180910390fd5b600073ffffffffffffffffffffffffffffffffffffffff168273ffffffffffffffffffffffffffffffffffffffff1614158015611bff5750600073ffffffffffffffffffffffffffffffffffffffff168173ffffffffffffffffffffffffffffffffffffffff1614155b1515611c0a57600080fd5b81600260006101000a81548173ffffffffffffffffffffffffffffffffffffffff021916908373ffffffffffffffffffffffffffffffffffffffff16021790555080600360006101000a81548173ffffffffffffffffffffffffffffffffffffffff021916908373ffffffffffffffffffffffffffffffffffffffff1602179055505050565b600060019054906101000a900473ffffffffffffffffffffffffffffffffffffffff1673ffffffffffffffffffffffffffffffffffffffff163373ffffffffffffffffffffffffffffffffffffffff16141515611d55576040517f08c379a00000000000000000000000000000000000000000000000000000000081526004018080602001828103825260098152602001807f6e6f742061646d696e000000000000000000000000000000000000000000000081525060200191505060405180910390fd5b806000806101000a81548160ff02191690831515021790555050565b600060019054906101000a900473ffffffffffffffffffffffffffffffffffffffff1681565b600560009054906101000a900473ffffffffffffffffffffffffffffffffffffffff1681565b600080600260009054906101000a900473ffffffffffffffffffffffffffffffffffffffff169150600360009054906101000a900473ffffffffffffffffffffffffffffffffffffffff1690509091565b600460009054906101000a900473ffffffffffffffffffffffffffffffffffffffff1681565b60085481565b611e426124e4565b600060019054906101000a900473ffffffffffffffffffffffffffffffffffffffff1673ffffffffffffffffffffffffffffffffffffffff163373ffffffffffffffffffffffffffffffffffffffff161480611eeb5750600460009054906101000a900473ffffffffffffffffffffffffffffffffffffffff1673ffffffffffffffffffffffffffffffffffffffff163373ffffffffffffffffffffffffffffffffffffffff16145b1515611ef657600080fd5b600085118015611f1957508367ffffffffffffffff168367ffffffffffffffff16115b1515611f2457600080fd5b60008267ffffffffffffffff161480611f6157506113888267ffffffffffffffff1610158015611f60575061c3508267ffffffffffffffff1611155b5b1515611f6c57600080fd5b60008267ffffffffffffffff161415156120a4576080604051908101604052808667ffffffffffffffff1681526020018367ffffffffffffffff1681526020018567ffffffffffffffff1681526020018467ffffffffffffffff16815250905080600a600087815260200190815260200160002060008201518160000160006101000a81548167ffffffffffffffff021916908367ffffffffffffffff16021790555060208201518160000160086101000a81548167ffffffffffffffff021916908367ffffffffffffffff16021790555060408201518160000160106101000a81548167ffffffffffffffff021916908367ffffffffffffffff16021790555060608201518160000160186101000a81548167ffffffffffffffff021916908367ffffffffffffffff160217905550905050612127565b600a6000868152602001908152602001600020600080820160006101000a81549067ffffffffffffffff02191690556000820160086101000a81549067ffffffffffffffff02191690556000820160106101000a81549067ffffffffffffffff02191690556000820160186101000a81549067ffffffffffffffff021916905550505b5050505050565b600960089054906101000a900467ffffffffffffffff1681565b600660009054906101000a900473ffffffffffffffffffffffffffffffffffffffff1681565b60008082840190508381101515156121ee576040517f08c379a000000000000000000000000000000000000000000000000000000000815260040180806020018281038252601b8152602001807f536166654d6174683a206164646974696f6e206f766572666c6f77000000000081525060200191505060405180910390fd5b8091505092915050565b600080600084141561220d57600091506122be565b828402905082848281151561221e57fe5b041415156122ba576040517f08c379a00000000000000000000000000000000000000000000000000000000081526004018080602001828103825260218152602001807f536166654d6174683a206d756c7469706c69636174696f6e206f766572666c6f81526020017f770000000000000000000000000000000000000000000000000000000000000081525060400191505060405180910390fd5b8091505b5092915050565b600061230783836040805190810160405280601a81526020017f536166654d6174683a206469766973696f6e206279207a65726f000000000000815250612359565b905092915050565b600061235183836040805190810160405280601e81526020017f536166654d6174683a207375627472616374696f6e206f766572666c6f770000815250612423565b905092915050565b6000806000841183901515612409576040517f08c379a00000000000000000000000000000000000000000000000000000000081526004018080602001828103825283818151815260200191508051906020019080838360005b838110156123ce5780820151818401526020810190506123b3565b50505050905090810190601f1680156123fb5780820380516001836020036101000a031916815260200191505b509250505060405180910390fd5b50838581151561241557fe5b049050809150509392505050565b60008084841115839015156124d3576040517f08c379a00000000000000000000000000000000000000000000000000000000081526004018080602001828103825283818151815260200191508051906020019080838360005b8381101561249857808201518184015260208101905061247d565b50505050905090810190601f1680156124c55780820380516001836020036101000a031916815260200191505b509250505060405180910390fd5b508385039050809150509392505050565b608060405190810160405280600067ffffffffffffffff168152602001600067ffffffffffffffff168152602001600067ffffffffffffffff168152602001600067ffffffffffffffff16815250905600a165627a7a723058209ca77d897d8965cf064114a646c4ef2b762941ca64ca70449153645c85e56a430029",
  "source": "pragma solidity ^0.4.23;\n\nimport \"./BaseAdmin.sol\";\nimport \"./SafeMath.sol\";\n\ninterface IPoolReader {\n    function getDevCacheBalance() external view returns(uint256);\n    function getPoolMoonBalance() external view returns(uint256);\n}\n\ninterface IMoonToken {\n    function balanceOf(address _from) external view returns(uint256);\n    function transfer(address _to, uint256 _value) external returns(bool);\n    function transferFrom(address _from, address _to, uint256 _value) external returns(bool);\n    function burn(uint256 _value) external returns (bool);\n}\ncontract MoonDev is BaseAdmin {\n    using SafeMath for uint256;\n\n    struct GamePromotion {\n        uint64 gameId;          // Id\n        uint64 rate;            // () every 10000\n        uint64 start;           // \n        uint64 end;             // \n    }\n\n    IMoonToken public moonToken;\n    IPoolReader public moonPool;\n    address public addrOperator;       // the operator\n    address public addrTokenDev;       // \n    address public addrDevChild;       // \n\n    uint256 public devMinePercent = 49;       // user: 100 - 49 = 51, dev: 49\n    uint256 public globalPromotion = 0;       // () // promotion add\n    uint64 public globalPromotionStart = 0;\n    uint64 public globalPromotionEnd = 0;\n\n    mapping (uint256 => GamePromotion) gamePromotionMap;// \n\n    constructor() public {\n        addrAdmin = msg.sender;\n        addrOperator = msg.sender;\n    }\n\n    modifier onlyOperator() {\n        require(msg.sender == addrAdmin || msg.sender == addrOperator);\n        _;\n    }\n\n    function setOperator(address _newOperator) external onlyAdmin {\n        require(_newOperator != address(0));\n        addrOperator = _newOperator;\n    }\n\n    function getAddrParam() external view returns(address diceAddr, address poolAddr) {\n        diceAddr = address(moonToken);\n        poolAddr = address(moonPool);\n    }\n\n    function setAddrParam(address _addrMoon, address _addrPool) external onlyAdmin {\n        require(_addrMoon != address(0) && _addrPool != address(0));\n        moonToken = IMoonToken(_addrMoon);\n        moonPool = IPoolReader(_addrPool);\n    }\n\n    function setTokenDevAddr(address _addr) external onlyAdmin {\n        require(_addr != address(0));\n        addrTokenDev = _addr;\n    }\n\n    function setDevChildAddr(address _addr) external onlyAdmin {\n        require(_addr != address(0));\n        addrDevChild = _addr;\n    }\n\n    function setDevMinePercent(uint256 _per) external onlyAdmin {\n        require(_per > 0 && _per <= 60);\n        devMinePercent = _per;\n    }\n\n    function setGlobalPromotion(uint64 _start, uint64 _end, uint64 _rate) external onlyOperator {\n        require(_end > _start);\n        require(_rate >= 5000 && _rate <= 50000);\n        globalPromotion = _rate;\n        globalPromotionStart = _start;\n        globalPromotionEnd = _end;\n    }\n\n    function setGamePromotion(uint256 _gameId, uint64 _start, uint64 _end, uint64 _rate) external onlyOperator {\n        require(_gameId > 0 && _end > _start);\n        require(_rate == 0 || (_rate >= 5000 && _rate <= 50000));\n        if (_rate != 0) {\n            GamePromotion memory setting = GamePromotion(uint64(_gameId), _rate, _start, _end);\n            gamePromotionMap[_gameId] = setting;\n        } else {\n            delete gamePromotionMap[_gameId];\n        }\n    }\n\n    function getGlobalPromotion() external view returns(uint64 start, uint64 end, uint64 rate) {\n        start = globalPromotionStart;\n        end = globalPromotionEnd;\n        rate = uint64(rate);\n    }\n\n    function getGamePromotion(uint256 _gameId) external view returns(uint256 gameId, uint64 start, uint64 end, uint64 rate) {\n        if (_gameId > 0) {\n            GamePromotion memory setting = gamePromotionMap[_gameId];\n            gameId = _gameId;\n            start = setting.start;\n            end = setting.end;\n            rate = setting.rate;\n        }\n    }\n\n    function getDevMoonAmount() external view returns(uint256) {\n        uint256 devMoon = moonPool.getDevCacheBalance();\n        uint256 walletDev = moonToken.balanceOf(addrTokenDev);//\n\n        devMoon = devMoon.add(walletDev);\n        if (addrDevChild != address(0)) {\n            uint256 walletChild = moonToken.balanceOf(addrDevChild);\n            if (walletChild > 0) {\n                devMoon = devMoon.add(walletChild);\n            } \n        }\n        return devMoon;\n    }\n\n    function getMiningMoon(uint256 _gameId, address _miner, uint256 _amount)\n        external \n        view \n        returns(\n            uint256 _minerCnt,\n            uint256 _devCnt\n        )\n    {\n        uint256 moonBalance = moonPool.getPoolMoonBalance();\n        if (moonBalance == 0) {\n            _minerCnt = 0;\n            _devCnt = 0;\n            return;\n        }\n        uint64 tmNow = uint64(block.timestamp);\n        uint256 mineCount = _amount / (996 - ((moonBalance - 1) / 5000000000000).mul(4));//\n        if (globalPromotion > 0 && tmNow >= globalPromotionStart && tmNow <= globalPromotionEnd) {\n            mineCount = mineCount.mul(globalPromotion) / 10000;\n        } else {\n            GamePromotion memory setting = gamePromotionMap[_gameId];\n            if (setting.rate > 0 && tmNow >= setting.start && tmNow <= setting.end) {\n                mineCount = mineCount.mul(uint256(setting.rate)) / 10000;\n            }\n        }\n        uint256 devCount = mineCount.mul(devMinePercent) / (100 - devMinePercent);\n        if ((mineCount.add(devCount)) > moonBalance) {\n            _minerCnt = moonBalance.mul(100 - devMinePercent).div(100);\n            _devCnt = moonBalance.sub(_minerCnt);\n        } else {\n            _minerCnt = mineCount;\n            _devCnt = devCount;\n        }\n    }\n}\n",
  "sourcePath": "/Users/gordon/bian/dapp/dice/contracts/MoonDev.sol",
  "compiler": {
    "name": "solc",
    "version": "0.4.25+commit.59dbf8f1.Emscripten.clang"
  },
  "schemaVersion": "3.2.0",
  "updatedAt": "2020-09-26T09:04:28.528Z",
  "networkType": "ethereum",
  "devdoc": {
    "methods": {}
  },
  "userdoc": {
    "methods": {}
  }
}